{
  "contractName": "PayFor",
  "abi": [
    {
      "inputs": [],
      "payable": false,
      "stateMutability": "nonpayable",
      "type": "constructor"
    },
    {
      "anonymous": false,
      "inputs": [
        {
          "indexed": false,
          "internalType": "address",
          "name": "sender",
          "type": "address"
        }
      ],
      "name": "LogDepositReceived",
      "type": "event"
    },
    {
      "anonymous": false,
      "inputs": [
        {
          "indexed": true,
          "internalType": "address",
          "name": "previousOwner",
          "type": "address"
        },
        {
          "indexed": true,
          "internalType": "address",
          "name": "newOwner",
          "type": "address"
        }
      ],
      "name": "OwnershipTransferred",
      "type": "event"
    },
    {
      "anonymous": false,
      "inputs": [
        {
          "indexed": false,
          "internalType": "address",
          "name": "sender",
          "type": "address"
        },
        {
          "indexed": false,
          "internalType": "uint256",
          "name": "value",
          "type": "uint256"
        },
        {
          "indexed": false,
          "internalType": "uint256",
          "name": "application",
          "type": "uint256"
        },
        {
          "indexed": false,
          "internalType": "uint256",
          "name": "loc",
          "type": "uint256"
        }
      ],
      "name": "ReceivedFunds",
      "type": "event"
    },
    {
      "anonymous": false,
      "inputs": [
        {
          "indexed": false,
          "internalType": "uint256",
          "name": "product",
          "type": "uint256"
        },
        {
          "indexed": false,
          "internalType": "uint256",
          "name": "minPrice",
          "type": "uint256"
        }
      ],
      "name": "SetProductPrice",
      "type": "event"
    },
    {
      "anonymous": false,
      "inputs": [
        {
          "indexed": false,
          "internalType": "address",
          "name": "to",
          "type": "address"
        },
        {
          "indexed": false,
          "internalType": "uint256",
          "name": "amount",
          "type": "uint256"
        }
      ],
      "name": "Withdrawn",
      "type": "event"
    },
    {
      "payable": true,
      "stateMutability": "payable",
      "type": "fallback"
    },
    {
      "constant": true,
      "inputs": [],
      "name": "balance",
      "outputs": [
        {
          "internalType": "uint256",
          "name": "",
          "type": "uint256"
        }
      ],
      "payable": false,
      "stateMutability": "view",
      "type": "function"
    },
    {
      "constant": true,
      "inputs": [],
      "name": "isOwner",
      "outputs": [
        {
          "internalType": "bool",
          "name": "",
          "type": "bool"
        }
      ],
      "payable": false,
      "stateMutability": "view",
      "type": "function"
    },
    {
      "constant": true,
      "inputs": [],
      "name": "owner",
      "outputs": [
        {
          "internalType": "address",
          "name": "",
          "type": "address"
        }
      ],
      "payable": false,
      "stateMutability": "view",
      "type": "function"
    },
    {
      "constant": false,
      "inputs": [],
      "name": "renounceOwnership",
      "outputs": [],
      "payable": false,
      "stateMutability": "nonpayable",
      "type": "function"
    },
    {
      "constant": false,
      "inputs": [
        {
          "internalType": "address",
          "name": "newOwner",
          "type": "address"
        }
      ],
      "name": "transferOwnership",
      "outputs": [],
      "payable": false,
      "stateMutability": "nonpayable",
      "type": "function"
    },
    {
      "constant": false,
      "inputs": [
        {
          "internalType": "uint256",
          "name": "SKU",
          "type": "uint256"
        },
        {
          "internalType": "uint256",
          "name": "minPrice",
          "type": "uint256"
        }
      ],
      "name": "setProductPrice",
      "outputs": [],
      "payable": false,
      "stateMutability": "nonpayable",
      "type": "function"
    },
    {
      "constant": false,
      "inputs": [
        {
          "internalType": "uint256",
          "name": "forProduct",
          "type": "uint256"
        }
      ],
      "name": "receiveFunds",
      "outputs": [
        {
          "internalType": "bool",
          "name": "",
          "type": "bool"
        }
      ],
      "payable": true,
      "stateMutability": "payable",
      "type": "function"
    },
    {
      "constant": true,
      "inputs": [],
      "name": "getNPayments",
      "outputs": [
        {
          "internalType": "uint256",
          "name": "",
          "type": "uint256"
        }
      ],
      "payable": false,
      "stateMutability": "view",
      "type": "function"
    },
    {
      "constant": true,
      "inputs": [
        {
          "internalType": "uint256",
          "name": "n",
          "type": "uint256"
        }
      ],
      "name": "getPaymentInfo",
      "outputs": [
        {
          "internalType": "address",
          "name": "",
          "type": "address"
        },
        {
          "internalType": "uint256",
          "name": "",
          "type": "uint256"
        },
        {
          "internalType": "uint256",
          "name": "",
          "type": "uint256"
        }
      ],
      "payable": false,
      "stateMutability": "view",
      "type": "function"
    },
    {
      "constant": true,
      "inputs": [],
      "name": "getNSKU",
      "outputs": [
        {
          "internalType": "uint256",
          "name": "",
          "type": "uint256"
        }
      ],
      "payable": false,
      "stateMutability": "view",
      "type": "function"
    },
    {
      "constant": true,
      "inputs": [
        {
          "internalType": "uint256",
          "name": "n",
          "type": "uint256"
        }
      ],
      "name": "getSKUInfo",
      "outputs": [
        {
          "internalType": "uint256",
          "name": "",
          "type": "uint256"
        },
        {
          "internalType": "uint256",
          "name": "",
          "type": "uint256"
        }
      ],
      "payable": false,
      "stateMutability": "view",
      "type": "function"
    },
    {
      "constant": false,
      "inputs": [
        {
          "internalType": "uint256",
          "name": "amount",
          "type": "uint256"
        }
      ],
      "name": "withdraw",
      "outputs": [
        {
          "internalType": "bool",
          "name": "",
          "type": "bool"
        }
      ],
      "payable": false,
      "stateMutability": "nonpayable",
      "type": "function"
    },
    {
      "constant": true,
      "inputs": [],
      "name": "getBalanceContract",
      "outputs": [
        {
          "internalType": "uint256",
          "name": "",
          "type": "uint256"
        }
      ],
      "payable": false,
      "stateMutability": "view",
      "type": "function"
    }
  ],
  "bytecode": "0x608060405234801561001057600080fd5b50336000806101000a81548173ffffffffffffffffffffffffffffffffffffffff021916908373ffffffffffffffffffffffffffffffffffffffff1602179055506000809054906101000a900473ffffffffffffffffffffffffffffffffffffffff1673ffffffffffffffffffffffffffffffffffffffff16600073ffffffffffffffffffffffffffffffffffffffff167f8be0079c531659141344cd1fd0a4f28419497f9722a3daafe3b4186f6b6457e060405160405180910390a3610e18806100dc6000396000f3fe6080604052600436106100c25760003560e01c80638827e09b1161007f5780639b2def60116100595780639b2def601461035e578063b69ef8a814610389578063d810ff0f146103b4578063f2fde38b1461043d576100c2565b80638827e09b146102925780638da5cb5b146102d85780638f32d59b1461032f576100c2565b80630292a9c5146101375780632e1a7d4d1461018d57806344d3498a146101e05780635e5ef79c1461022557806366bd78fd14610250578063715018a61461027b575b600080369050146100d257600080fd5b7f15382559391789f1865e10e9c8b51327a9cb0381eae89973ada229e7a78c08f333604051808273ffffffffffffffffffffffffffffffffffffffff1673ffffffffffffffffffffffffffffffffffffffff16815260200191505060405180910390a1005b34801561014357600080fd5b506101706004803603602081101561015a57600080fd5b810190808035906020019092919050505061048e565b604051808381526020018281526020019250505060405180910390f35b34801561019957600080fd5b506101c6600480360360208110156101b057600080fd5b8101908080359060200190929190505050610556565b604051808215151515815260200191505060405180910390f35b3480156101ec57600080fd5b506102236004803603604081101561020357600080fd5b810190808035906020019092919080359060200190929190505050610692565b005b34801561023157600080fd5b5061023a61076a565b6040518082815260200191505060405180910390f35b34801561025c57600080fd5b50610265610788565b6040518082815260200191505060405180910390f35b34801561028757600080fd5b506102906107a3565b005b6102be600480360360208110156102a857600080fd5b8101908080359060200190929190505050610873565b604051808215151515815260200191505060405180910390f35b3480156102e457600080fd5b506102ed610af2565b604051808273ffffffffffffffffffffffffffffffffffffffff1673ffffffffffffffffffffffffffffffffffffffff16815260200191505060405180910390f35b34801561033b57600080fd5b50610344610b1b565b604051808215151515815260200191505060405180910390f35b34801561036a57600080fd5b50610373610b72565b6040518082815260200191505060405180910390f35b34801561039557600080fd5b5061039e610b7f565b6040518082815260200191505060405180910390f35b3480156103c057600080fd5b506103ed600480360360208110156103d757600080fd5b8101908080359060200190929190505050610b85565b604051808473ffffffffffffffffffffffffffffffffffffffff1673ffffffffffffffffffffffffffffffffffffffff168152602001838152602001828152602001935050505060405180910390f35b34801561044957600080fd5b5061048c6004803603602081101561046057600080fd5b81019080803573ffffffffffffffffffffffffffffffffffffffff169060200190929190505050610cac565b005b600080600083101580156104a6575060038054905083105b610518576040517f08c379a000000000000000000000000000000000000000000000000000000000815260040180806020018281038252600d8152602001807f496e76616c696420656e7472790000000000000000000000000000000000000081525060200191505060405180910390fd5b60006003848154811061052757fe5b906000526020600020015490508060026000838152602001908152602001600020600001549250925050915091565b6000610560610b1b565b61056957600080fd5b8160045410156105c4576040517f08c379a0000000000000000000000000000000000000000000000000000000008152600401808060200182810382526022815260200180610dc26022913960400191505060405180910390fd5b60006105ce610af2565b905060008190508073ffffffffffffffffffffffffffffffffffffffff166108fc859081150290604051600060405180830381858888f1935050505015801561061b573d6000803e3d6000fd5b507f7084f5476618d8e60b11ef0d7d3f06914655adb8793e28ff7f018d4c76d505d58185604051808373ffffffffffffffffffffffffffffffffffffffff1673ffffffffffffffffffffffffffffffffffffffff1681526020018281526020019250505060405180910390a1600192505050919050565b61069a610b1b565b6106a357600080fd5b604051806040016040528082815260200160011515815250600260008481526020019081526020016000206000820151816000015560208201518160010160006101000a81548160ff02191690831515021790555090505060038290806001815401808255809150509060018203906000526020600020016000909192909190915055507f5c5f387eac41c869193b483f99dbb499489afef0ee3f47c6ed3493a0751c717c8282604051808381526020018281526020019250505060405180910390a15050565b6000610774610b1b565b61077d57600080fd5b600180549050905090565b6000610792610b1b565b61079b57600080fd5b600454905090565b6107ab610b1b565b6107b457600080fd5b600073ffffffffffffffffffffffffffffffffffffffff166000809054906101000a900473ffffffffffffffffffffffffffffffffffffffff1673ffffffffffffffffffffffffffffffffffffffff167f8be0079c531659141344cd1fd0a4f28419497f9722a3daafe3b4186f6b6457e060405160405180910390a360008060006101000a81548173ffffffffffffffffffffffffffffffffffffffff021916908373ffffffffffffffffffffffffffffffffffffffff160217905550565b60006002600083815260200190815260200160002060010160009054906101000a900460ff1661090b576040517f08c379a000000000000000000000000000000000000000000000000000000000815260040180806020018281038252600f8152602001807f496e76616c69642070726f64756374000000000000000000000000000000000081525060200191505060405180910390fd5b3460026000848152602001908152602001600020600001541115610997576040517f08c379a000000000000000000000000000000000000000000000000000000000815260040180806020018281038252601e8152602001807f496e73756666696369656e742066756e647320666f722070726f64756374000081525060200191505060405180910390fd5b3460046000828254019250508190555060006001805490509050600160405180606001604052803373ffffffffffffffffffffffffffffffffffffffff168152602001348152602001858152509080600181540180825580915050906001820390600052602060002090600302016000909192909190915060008201518160000160006101000a81548173ffffffffffffffffffffffffffffffffffffffff021916908373ffffffffffffffffffffffffffffffffffffffff16021790555060208201518160010155604082015181600201555050507f5f74095c3cf9cd2b4407992767113d77fc65cb2423a83ecc71977f3ace6b34f433348584604051808573ffffffffffffffffffffffffffffffffffffffff1673ffffffffffffffffffffffffffffffffffffffff16815260200184815260200183815260200182815260200194505050505060405180910390a16001915050919050565b60008060009054906101000a900473ffffffffffffffffffffffffffffffffffffffff16905090565b60008060009054906101000a900473ffffffffffffffffffffffffffffffffffffffff1673ffffffffffffffffffffffffffffffffffffffff163373ffffffffffffffffffffffffffffffffffffffff1614905090565b6000600380549050905090565b60045481565b6000806000610b92610b1b565b610b9b57600080fd5b60008410158015610bb0575060018054905084105b610c22576040517f08c379a000000000000000000000000000000000000000000000000000000000815260040180806020018281038252600d8152602001807f496e76616c696420656e7472790000000000000000000000000000000000000081525060200191505060405180910390fd5b60018481548110610c2f57fe5b906000526020600020906003020160000160009054906101000a900473ffffffffffffffffffffffffffffffffffffffff1660018581548110610c6e57fe5b90600052602060002090600302016001015460018681548110610c8d57fe5b9060005260206000209060030201600201549250925092509193909250565b610cb4610b1b565b610cbd57600080fd5b610cc681610cc9565b50565b600073ffffffffffffffffffffffffffffffffffffffff168173ffffffffffffffffffffffffffffffffffffffff161415610d0357600080fd5b8073ffffffffffffffffffffffffffffffffffffffff166000809054906101000a900473ffffffffffffffffffffffffffffffffffffffff1673ffffffffffffffffffffffffffffffffffffffff167f8be0079c531659141344cd1fd0a4f28419497f9722a3daafe3b4186f6b6457e060405160405180910390a3806000806101000a81548173ffffffffffffffffffffffffffffffffffffffff021916908373ffffffffffffffffffffffffffffffffffffffff1602179055505056fe496e73756666696369656e742042616c616e636520666f722077697468647261776ca265627a7a72315820bf2a78911b1ce7a1731ea438c29709ee7a565af0a0d8c6cb7d812dba805b87b164736f6c63430005100032",
  "source": "// SPDX-License-Identifier: MIT\npragma solidity >=0.4.22 <0.9.0;\n\nimport \"./Ownable.sol\";\n\ncontract PayFor is Ownable {\n\n\tstruct productPriceStruct {\n\t\tuint256 price;\n\t\tbool isValue;\n\t}\n\tstruct paymentsStruct {\n\t\taddress listOfPayedBy;\n\t\tuint256 listOfPayments;\n\t\tuint256 payFor;\n\t}\n\n\tevent ReceivedFunds(address sender, uint256 value, uint256 application, uint256 loc);\n\tevent Withdrawn(address to, uint256 amount);\n\tevent SetProductPrice ( uint256 product, uint256 minPrice );\n\tevent LogDepositReceived(address sender);\n\n\tpaymentsStruct[] private paymentsFor;\n    mapping (uint256 => productPriceStruct) internal productMinPrice;\n    uint256[] private listOfSKU;\n\tuint public balance;\n\n\tconstructor() Ownable() public {\n\t}\n\n    /**\n     * @dev set the minimum price for a product.  Emit SetProductPrice when a price is set.\n     */\n\tfunction setProductPrice(uint256 SKU, uint256 minPrice) public onlyOwner {\n\t\tproductMinPrice[SKU] = productPriceStruct ( minPrice, true );\n\t\tlistOfSKU.push(SKU);\n\t\temit SetProductPrice ( SKU, minPrice );\n\t}\n\n    /**\n     * @return true for funds received.  Emit a ReceivedFunds event.\n     */\n\tfunction receiveFunds(uint256 forProduct) public payable returns(bool) {\n\t\t// Check that product is valid\n\t\trequire(productMinPrice[forProduct].isValue, 'Invalid product');\n\t\t// Validate that the sender has payed for the prouct.\n\t\trequire(productMinPrice[forProduct].price <= msg.value, 'Insufficient funds for product');\n\n\t\tbalance += msg.value;\n\t\tuint256 pos;\n\t\tpos = paymentsFor.length;\n\t\tpaymentsFor.push ( paymentsStruct ( msg.sender, msg.value, forProduct ) );\n    \temit ReceivedFunds(msg.sender, msg.value, forProduct, pos);\n\t\treturn true;\n\t}\n\n    /**\n     * @return the number of paymetns.\n     */\n\tfunction getNPayments() public onlyOwner view returns(uint256) {\n\t\treturn ( paymentsFor.length );\n\t}\n\n    /**\n     * @return the address that payeed with the payment amount and what was payed for.\n     */\n\tfunction getPaymentInfo(uint256 n) public onlyOwner view returns(address, uint256, uint256) {\n\t\trequire(n >= 0 && n < paymentsFor.length, 'Invalid entry');\n\t\treturn ( paymentsFor[n].listOfPayedBy, paymentsFor[n].listOfPayments, paymentsFor[n].payFor );\n\t}\n\t\n    /**\n     * @return the number of Products (SKUs).\n     */\n\tfunction getNSKU() public view returns(uint256) {\n\t\treturn ( listOfSKU.length );\n\t}\n\n    /**\n     * @return the price for the nth SKU and its product number.\n     */\n\tfunction getSKUInfo(uint256 n) public view returns(uint256, uint256) {\n\t\trequire(n >= 0 && n < listOfSKU.length, 'Invalid entry');\n\t\tuint256 sku = listOfSKU[n];\n\t\treturn ( sku, productMinPrice[sku].price );\n\t}\n\t\n    /**\n     * @dev widthdraw funds form the contract.\n     */\n\tfunction withdraw( uint256 amount ) public onlyOwner returns(bool) {\n\t\t// require(address(this).balance >= amount, \"Insufficient Balance for withdrawl\");\n\t\trequire(balance >= amount, \"Insufficient Balance for withdrawl\");\n\t\taddress to0 = address ( Ownable.owner() );\n\t\taddress payable to = address ( uint160(to0) );\n\t\taddress(to).transfer(amount);\n\t\temit Withdrawn(to, amount);\n\t\treturn true;\n\t}\n\n    /**\n     * @return the amount of funds that can be withdrawn.\n     */\n\tfunction getBalanceContract() public view onlyOwner returns(uint256){\n\t\t// return address(this).balance;\n\t\treturn balance;\n\t}\n\n    /**\n     * @return Catch and save funds for abstrc transfer.\n     */\n\tfunction() external payable {\n\t\trequire(msg.data.length == 0);\n\t\temit LogDepositReceived(msg.sender);\n\t}\n\n}\n",
  "sourcePath": "/Users/philip/go/src/github.com/Univ-Wyo-Education/S22-4010/class/lect/17/payfor4/contracts/PayFor.sol",
  "compiler": {
    "name": "solc",
    "version": "0.5.16+commit.9c3226ce.Emscripten.clang"
  },
  "schemaVersion": "3.4.3",
  "updatedAt": "2022-02-28T14:19:41.774Z",
  "networkType": "ethereum",
  "devdoc": {
    "methods": {
      "getBalanceContract()": {
        "return": "the amount of funds that can be withdrawn."
      },
      "getNPayments()": {
        "return": "the number of paymetns."
      },
      "getNSKU()": {
        "return": "the number of Products (SKUs)."
      },
      "getPaymentInfo(uint256)": {
        "return": "the address that payeed with the payment amount and what was payed for."
      },
      "getSKUInfo(uint256)": {
        "return": "the price for the nth SKU and its product number."
      },
      "isOwner()": {
        "return": "true if `msg.sender` is the owner of the contract."
      },
      "owner()": {
        "return": "the address of the owner."
      },
      "receiveFunds(uint256)": {
        "return": "true for funds received.  Emit a ReceivedFunds event."
      },
      "renounceOwnership()": {
        "details": "Allows the current owner to relinquish control of the contract. It will not be possible to call the functions with the `onlyOwner` modifier anymore."
      },
      "setProductPrice(uint256,uint256)": {
        "details": "set the minimum price for a product.  Emit SetProductPrice when a price is set."
      },
      "transferOwnership(address)": {
        "details": "Allows the current owner to transfer control of the contract to a newOwner.",
        "params": {
          "newOwner": "The address to transfer ownership to."
        }
      },
      "withdraw(uint256)": {
        "details": "widthdraw funds form the contract."
      }
    }
  },
  "userdoc": {
    "methods": {
      "renounceOwnership()": {
        "notice": "Renouncing ownership will leave the contract without an owner, thereby removing any functionality that is only available to the owner."
      }
    }
  }
}