{
  "contractName": "PayFor",
  "abi": [
    {
      "inputs": [],
      "payable": false,
      "stateMutability": "nonpayable",
      "type": "constructor"
    },
    {
      "anonymous": false,
      "inputs": [
        {
          "indexed": false,
          "internalType": "address",
          "name": "sender",
          "type": "address"
        }
      ],
      "name": "LogDepositReceived",
      "type": "event"
    },
    {
      "anonymous": false,
      "inputs": [
        {
          "indexed": true,
          "internalType": "address",
          "name": "previousOwner",
          "type": "address"
        }
      ],
      "name": "OwnershipRenounced",
      "type": "event"
    },
    {
      "anonymous": false,
      "inputs": [
        {
          "indexed": true,
          "internalType": "address",
          "name": "previousOwner",
          "type": "address"
        },
        {
          "indexed": true,
          "internalType": "address",
          "name": "newOwner",
          "type": "address"
        }
      ],
      "name": "OwnershipTransferred",
      "type": "event"
    },
    {
      "anonymous": false,
      "inputs": [
        {
          "indexed": false,
          "internalType": "address",
          "name": "sender",
          "type": "address"
        },
        {
          "indexed": false,
          "internalType": "uint256",
          "name": "value",
          "type": "uint256"
        },
        {
          "indexed": false,
          "internalType": "uint256",
          "name": "application",
          "type": "uint256"
        },
        {
          "indexed": false,
          "internalType": "uint256",
          "name": "loc",
          "type": "uint256"
        }
      ],
      "name": "ReceivedFunds",
      "type": "event"
    },
    {
      "anonymous": false,
      "inputs": [
        {
          "indexed": false,
          "internalType": "uint256",
          "name": "product",
          "type": "uint256"
        },
        {
          "indexed": false,
          "internalType": "uint256",
          "name": "minPrice",
          "type": "uint256"
        }
      ],
      "name": "SetProductPrice",
      "type": "event"
    },
    {
      "anonymous": false,
      "inputs": [
        {
          "indexed": false,
          "internalType": "address",
          "name": "to",
          "type": "address"
        },
        {
          "indexed": false,
          "internalType": "uint256",
          "name": "amount",
          "type": "uint256"
        }
      ],
      "name": "Withdrawn",
      "type": "event"
    },
    {
      "payable": true,
      "stateMutability": "payable",
      "type": "fallback"
    },
    {
      "constant": true,
      "inputs": [],
      "name": "balance",
      "outputs": [
        {
          "internalType": "uint256",
          "name": "",
          "type": "uint256"
        }
      ],
      "payable": false,
      "stateMutability": "view",
      "type": "function"
    },
    {
      "constant": true,
      "inputs": [],
      "name": "owner",
      "outputs": [
        {
          "internalType": "address",
          "name": "",
          "type": "address"
        }
      ],
      "payable": false,
      "stateMutability": "view",
      "type": "function"
    },
    {
      "constant": false,
      "inputs": [],
      "name": "renounceOwnership",
      "outputs": [],
      "payable": false,
      "stateMutability": "nonpayable",
      "type": "function"
    },
    {
      "constant": false,
      "inputs": [
        {
          "internalType": "address",
          "name": "_newOwner",
          "type": "address"
        }
      ],
      "name": "transferOwnership",
      "outputs": [],
      "payable": false,
      "stateMutability": "nonpayable",
      "type": "function"
    },
    {
      "constant": false,
      "inputs": [
        {
          "internalType": "uint256",
          "name": "SKU",
          "type": "uint256"
        },
        {
          "internalType": "uint256",
          "name": "minPrice",
          "type": "uint256"
        }
      ],
      "name": "setProductPrice",
      "outputs": [],
      "payable": false,
      "stateMutability": "nonpayable",
      "type": "function"
    },
    {
      "constant": false,
      "inputs": [
        {
          "internalType": "uint256",
          "name": "forProduct",
          "type": "uint256"
        }
      ],
      "name": "receiveFunds",
      "outputs": [
        {
          "internalType": "bool",
          "name": "",
          "type": "bool"
        }
      ],
      "payable": true,
      "stateMutability": "payable",
      "type": "function"
    },
    {
      "constant": true,
      "inputs": [],
      "name": "getNPayments",
      "outputs": [
        {
          "internalType": "uint256",
          "name": "",
          "type": "uint256"
        }
      ],
      "payable": false,
      "stateMutability": "view",
      "type": "function"
    },
    {
      "constant": true,
      "inputs": [
        {
          "internalType": "uint256",
          "name": "n",
          "type": "uint256"
        }
      ],
      "name": "getPaymentInfo",
      "outputs": [
        {
          "internalType": "address",
          "name": "",
          "type": "address"
        },
        {
          "internalType": "uint256",
          "name": "",
          "type": "uint256"
        },
        {
          "internalType": "uint256",
          "name": "",
          "type": "uint256"
        }
      ],
      "payable": false,
      "stateMutability": "view",
      "type": "function"
    },
    {
      "constant": true,
      "inputs": [],
      "name": "getNSKU",
      "outputs": [
        {
          "internalType": "uint256",
          "name": "",
          "type": "uint256"
        }
      ],
      "payable": false,
      "stateMutability": "view",
      "type": "function"
    },
    {
      "constant": true,
      "inputs": [
        {
          "internalType": "uint256",
          "name": "n",
          "type": "uint256"
        }
      ],
      "name": "getSKUInfo",
      "outputs": [
        {
          "internalType": "uint256",
          "name": "",
          "type": "uint256"
        },
        {
          "internalType": "uint256",
          "name": "",
          "type": "uint256"
        }
      ],
      "payable": false,
      "stateMutability": "view",
      "type": "function"
    },
    {
      "constant": false,
      "inputs": [
        {
          "internalType": "uint256",
          "name": "amount",
          "type": "uint256"
        }
      ],
      "name": "withdraw",
      "outputs": [
        {
          "internalType": "bool",
          "name": "",
          "type": "bool"
        }
      ],
      "payable": false,
      "stateMutability": "nonpayable",
      "type": "function"
    },
    {
      "constant": true,
      "inputs": [],
      "name": "getBalanceContract",
      "outputs": [
        {
          "internalType": "uint256",
          "name": "",
          "type": "uint256"
        }
      ],
      "payable": false,
      "stateMutability": "view",
      "type": "function"
    }
  ],
  "bytecode": "0x608060405234801561001057600080fd5b50336000806101000a81548173ffffffffffffffffffffffffffffffffffffffff021916908373ffffffffffffffffffffffffffffffffffffffff160217905550610f7d806100606000396000f3fe6080604052600436106100a75760003560e01c80638827e09b116100645780638827e09b146102775780638da5cb5b146102bd5780639b2def6014610314578063b69ef8a81461033f578063d810ff0f1461036a578063f2fde38b146103f3576100a7565b80630292a9c51461011c5780632e1a7d4d1461017257806344d3498a146101c55780635e5ef79c1461020a57806366bd78fd14610235578063715018a614610260575b600080369050146100b757600080fd5b7f15382559391789f1865e10e9c8b51327a9cb0381eae89973ada229e7a78c08f333604051808273ffffffffffffffffffffffffffffffffffffffff1673ffffffffffffffffffffffffffffffffffffffff16815260200191505060405180910390a1005b34801561012857600080fd5b506101556004803603602081101561013f57600080fd5b8101908080359060200190929190505050610444565b604051808381526020018281526020019250505060405180910390f35b34801561017e57600080fd5b506101ab6004803603602081101561019557600080fd5b810190808035906020019092919050505061050c565b604051808215151515815260200191505060405180910390f35b3480156101d157600080fd5b50610208600480360360408110156101e857600080fd5b8101908080359060200190929190803590602001909291905050506106ba565b005b34801561021657600080fd5b5061021f6107da565b6040518082815260200191505060405180910390f35b34801561024157600080fd5b5061024a610840565b6040518082815260200191505060405180910390f35b34801561026c57600080fd5b506102756108a3565b005b6102a36004803603602081101561028d57600080fd5b81019080803590602001909291905050506109a3565b604051808215151515815260200191505060405180910390f35b3480156102c957600080fd5b506102d2610c22565b604051808273ffffffffffffffffffffffffffffffffffffffff1673ffffffffffffffffffffffffffffffffffffffff16815260200191505060405180910390f35b34801561032057600080fd5b50610329610c47565b6040518082815260200191505060405180910390f35b34801561034b57600080fd5b50610354610c54565b6040518082815260200191505060405180910390f35b34801561037657600080fd5b506103a36004803603602081101561038d57600080fd5b8101908080359060200190929190505050610c5a565b604051808473ffffffffffffffffffffffffffffffffffffffff1673ffffffffffffffffffffffffffffffffffffffff168152602001838152602001828152602001935050505060405180910390f35b3480156103ff57600080fd5b506104426004803603602081101561041657600080fd5b81019080803573ffffffffffffffffffffffffffffffffffffffff169060200190929190505050610dc9565b005b6000806000831015801561045c575060038054905083105b6104ce576040517f08c379a000000000000000000000000000000000000000000000000000000000815260040180806020018281038252600d8152602001807f496e76616c696420656e7472790000000000000000000000000000000000000081525060200191505060405180910390fd5b6000600384815481106104dd57fe5b906000526020600020015490508060026000838152602001908152602001600020600001549250925050915091565b60008060009054906101000a900473ffffffffffffffffffffffffffffffffffffffff1673ffffffffffffffffffffffffffffffffffffffff163373ffffffffffffffffffffffffffffffffffffffff161461056757600080fd5b8160045410156105c2576040517f08c379a0000000000000000000000000000000000000000000000000000000008152600401808060200182810382526022815260200180610f276022913960400191505060405180910390fd5b60008060009054906101000a900473ffffffffffffffffffffffffffffffffffffffff16905060008190508073ffffffffffffffffffffffffffffffffffffffff166108fc859081150290604051600060405180830381858888f19350505050158015610633573d6000803e3d6000fd5b50836004600082825403925050819055507f7084f5476618d8e60b11ef0d7d3f06914655adb8793e28ff7f018d4c76d505d58185604051808373ffffffffffffffffffffffffffffffffffffffff1673ffffffffffffffffffffffffffffffffffffffff1681526020018281526020019250505060405180910390a1600192505050919050565b6000809054906101000a900473ffffffffffffffffffffffffffffffffffffffff1673ffffffffffffffffffffffffffffffffffffffff163373ffffffffffffffffffffffffffffffffffffffff161461071357600080fd5b604051806040016040528082815260200160011515815250600260008481526020019081526020016000206000820151816000015560208201518160010160006101000a81548160ff02191690831515021790555090505060038290806001815401808255809150509060018203906000526020600020016000909192909190915055507f5c5f387eac41c869193b483f99dbb499489afef0ee3f47c6ed3493a0751c717c8282604051808381526020018281526020019250505060405180910390a15050565b60008060009054906101000a900473ffffffffffffffffffffffffffffffffffffffff1673ffffffffffffffffffffffffffffffffffffffff163373ffffffffffffffffffffffffffffffffffffffff161461083557600080fd5b600180549050905090565b60008060009054906101000a900473ffffffffffffffffffffffffffffffffffffffff1673ffffffffffffffffffffffffffffffffffffffff163373ffffffffffffffffffffffffffffffffffffffff161461089b57600080fd5b600454905090565b6000809054906101000a900473ffffffffffffffffffffffffffffffffffffffff1673ffffffffffffffffffffffffffffffffffffffff163373ffffffffffffffffffffffffffffffffffffffff16146108fc57600080fd5b6000809054906101000a900473ffffffffffffffffffffffffffffffffffffffff1673ffffffffffffffffffffffffffffffffffffffff167ff8df31144d9c2f0f6b59d69b8b98abd5459d07f2742c4df920b25aae33c6482060405160405180910390a260008060006101000a81548173ffffffffffffffffffffffffffffffffffffffff021916908373ffffffffffffffffffffffffffffffffffffffff160217905550565b60006002600083815260200190815260200160002060010160009054906101000a900460ff16610a3b576040517f08c379a000000000000000000000000000000000000000000000000000000000815260040180806020018281038252600f8152602001807f496e76616c69642070726f64756374000000000000000000000000000000000081525060200191505060405180910390fd5b3460026000848152602001908152602001600020600001541115610ac7576040517f08c379a000000000000000000000000000000000000000000000000000000000815260040180806020018281038252601e8152602001807f496e73756666696369656e742066756e647320666f722070726f64756374000081525060200191505060405180910390fd5b3460046000828254019250508190555060006001805490509050600160405180606001604052803373ffffffffffffffffffffffffffffffffffffffff168152602001348152602001858152509080600181540180825580915050906001820390600052602060002090600302016000909192909190915060008201518160000160006101000a81548173ffffffffffffffffffffffffffffffffffffffff021916908373ffffffffffffffffffffffffffffffffffffffff16021790555060208201518160010155604082015181600201555050507f5f74095c3cf9cd2b4407992767113d77fc65cb2423a83ecc71977f3ace6b34f433348584604051808573ffffffffffffffffffffffffffffffffffffffff1673ffffffffffffffffffffffffffffffffffffffff16815260200184815260200183815260200182815260200194505050505060405180910390a16001915050919050565b6000809054906101000a900473ffffffffffffffffffffffffffffffffffffffff1681565b6000600380549050905090565b60045481565b60008060008060009054906101000a900473ffffffffffffffffffffffffffffffffffffffff1673ffffffffffffffffffffffffffffffffffffffff163373ffffffffffffffffffffffffffffffffffffffff1614610cb857600080fd5b60008410158015610ccd575060018054905084105b610d3f576040517f08c379a000000000000000000000000000000000000000000000000000000000815260040180806020018281038252600d8152602001807f496e76616c696420656e7472790000000000000000000000000000000000000081525060200191505060405180910390fd5b60018481548110610d4c57fe5b906000526020600020906003020160000160009054906101000a900473ffffffffffffffffffffffffffffffffffffffff1660018581548110610d8b57fe5b90600052602060002090600302016001015460018681548110610daa57fe5b9060005260206000209060030201600201549250925092509193909250565b6000809054906101000a900473ffffffffffffffffffffffffffffffffffffffff1673ffffffffffffffffffffffffffffffffffffffff163373ffffffffffffffffffffffffffffffffffffffff1614610e2257600080fd5b610e2b81610e2e565b50565b600073ffffffffffffffffffffffffffffffffffffffff168173ffffffffffffffffffffffffffffffffffffffff161415610e6857600080fd5b8073ffffffffffffffffffffffffffffffffffffffff166000809054906101000a900473ffffffffffffffffffffffffffffffffffffffff1673ffffffffffffffffffffffffffffffffffffffff167f8be0079c531659141344cd1fd0a4f28419497f9722a3daafe3b4186f6b6457e060405160405180910390a3806000806101000a81548173ffffffffffffffffffffffffffffffffffffffff021916908373ffffffffffffffffffffffffffffffffffffffff1602179055505056fe496e73756666696369656e742042616c616e636520666f722077697468647261776ca265627a7a723158209bc87bde671ca04a91f16f10c75341f5c09d093475f4e2263d69bd491a76b37664736f6c63430005100032",
  "source": "// SPDX-License-Identifier: MIT\npragma solidity >=0.4.22 <0.9.0;\n\n// import \"./Ownable.sol\";\nimport \"zeppelin-solidity/contracts/ownership/Ownable.sol\";\n\n\ncontract PayFor is Ownable {\n\n\tstruct productPriceStruct {\n\t\tuint256 price;\n\t\tbool isValue;\n\t}\n\tstruct paymentsStruct {\n\t\taddress listOfPayedBy;\n\t\tuint256 listOfPayments;\n\t\tuint256 payFor;\n\t}\n\n\tevent ReceivedFunds(address sender, uint256 value, uint256 application, uint256 loc);\n\tevent Withdrawn(address to, uint256 amount);\n\tevent SetProductPrice ( uint256 product, uint256 minPrice );\n\tevent LogDepositReceived(address sender);\n\n\tpaymentsStruct[] private paymentsFor;\n    mapping (uint256 => productPriceStruct) internal productMinPrice;\n    uint256[] private listOfSKU;\n\tuint public balance;\n\n\tconstructor() Ownable() public {\n\t}\n\n    /**\n     * @dev set the minimum price for a product.  Emit SetProductPrice when a price is set.\n     */\n\tfunction setProductPrice(uint256 SKU, uint256 minPrice) public onlyOwner {\n\t\tproductMinPrice[SKU] = productPriceStruct ( minPrice, true );\n\t\tlistOfSKU.push(SKU);\n\t\temit SetProductPrice ( SKU, minPrice );\n\t}\n\n    /**\n     * @return true for funds received.  Emit a ReceivedFunds event.\n     */\n\tfunction receiveFunds(uint256 forProduct) public payable returns(bool) {\n\t\t// Check that product is valid\n\t\trequire(productMinPrice[forProduct].isValue, 'Invalid product');\n\t\t// Validate that the sender has payed for the prouct.\n\t\trequire(productMinPrice[forProduct].price <= msg.value, 'Insufficient funds for product');\n\n\t\tbalance += msg.value;\n\t\tuint256 pos;\n\t\tpos = paymentsFor.length;\n\t\tpaymentsFor.push ( paymentsStruct ( msg.sender, msg.value, forProduct ) );\n    \temit ReceivedFunds(msg.sender, msg.value, forProduct, pos);\n\t\treturn true;\n\t}\n\n    /**\n     * @return the number of paymetns.\n     */\n\tfunction getNPayments() public onlyOwner view returns(uint256) {\n\t\treturn ( paymentsFor.length );\n\t}\n\n    /**\n     * @return the address that payeed with the payment amount and what was payed for.\n     */\n\tfunction getPaymentInfo(uint256 n) public onlyOwner view returns(address, uint256, uint256) {\n\t\trequire(n >= 0 && n < paymentsFor.length, 'Invalid entry');\n\t\treturn ( paymentsFor[n].listOfPayedBy, paymentsFor[n].listOfPayments, paymentsFor[n].payFor );\n\t}\n\t\n    /**\n     * @return the number of Products (SKUs).\n     */\n\tfunction getNSKU() public view returns(uint256) {\n\t\treturn ( listOfSKU.length );\n\t}\n\n    /**\n     * @return the price for the nth SKU and its product number.\n     */\n\tfunction getSKUInfo(uint256 n) public view returns(uint256, uint256) {\n\t\trequire(n >= 0 && n < listOfSKU.length, 'Invalid entry');\n\t\tuint256 sku = listOfSKU[n];\n\t\treturn ( sku, productMinPrice[sku].price );\n\t}\n\t\n    /**\n     * @dev widthdraw funds form the contract.\n     */\n\tfunction withdraw( uint256 amount ) public onlyOwner returns(bool) {\n\t\t// require(address(this).balance >= amount, \"Insufficient Balance for withdrawl\");\n\t\trequire(balance >= amount, \"Insufficient Balance for withdrawl\");\n\t\t// address to0 = address ( Ownable.owner() );\n\t\taddress to0 = address ( Ownable.owner );\n\t\taddress payable to = address ( uint160(to0) );\n\t\taddress(to).transfer(amount);\n\t\tbalance -= amount;\n\t\temit Withdrawn(to, amount);\n\t\treturn true;\n\t}\n\n    /**\n     * @return the amount of funds that can be withdrawn.\n     */\n\tfunction getBalanceContract() public view onlyOwner returns(uint256){\n\t\t// return address(this).balance;\n\t\treturn balance;\n\t}\n\n    /**\n     * @return Catch and save funds for abstrc transfer.\n     */\n\tfunction() external payable {\n\t\trequire(msg.data.length == 0);\n\t\temit LogDepositReceived(msg.sender);\n\t}\n\n}\n",
  "sourcePath": "/Users/philip/go/src/github.com/Univ-Wyo-Education/S22-4010/class/lect/17/payfor4/contracts/PayFor.sol",
  "compiler": {
    "name": "solc",
    "version": "0.5.16+commit.9c3226ce.Emscripten.clang"
  },
  "schemaVersion": "3.4.3",
  "updatedAt": "2022-02-28T23:32:49.180Z",
  "networkType": "ethereum",
  "devdoc": {
    "methods": {
      "getBalanceContract()": {
        "return": "the amount of funds that can be withdrawn."
      },
      "getNPayments()": {
        "return": "the number of paymetns."
      },
      "getNSKU()": {
        "return": "the number of Products (SKUs)."
      },
      "getPaymentInfo(uint256)": {
        "return": "the address that payeed with the payment amount and what was payed for."
      },
      "getSKUInfo(uint256)": {
        "return": "the price for the nth SKU and its product number."
      },
      "receiveFunds(uint256)": {
        "return": "true for funds received.  Emit a ReceivedFunds event."
      },
      "renounceOwnership()": {
        "details": "Allows the current owner to relinquish control of the contract."
      },
      "setProductPrice(uint256,uint256)": {
        "details": "set the minimum price for a product.  Emit SetProductPrice when a price is set."
      },
      "transferOwnership(address)": {
        "details": "Allows the current owner to transfer control of the contract to a newOwner.",
        "params": {
          "_newOwner": "The address to transfer ownership to."
        }
      },
      "withdraw(uint256)": {
        "details": "widthdraw funds form the contract."
      }
    }
  },
  "userdoc": {
    "methods": {
      "renounceOwnership()": {
        "notice": "Renouncing to ownership will leave the contract without an owner. It will not be possible to call the functions with the `onlyOwner` modifier anymore."
      }
    }
  }
}