{
  "contractName": "SignedData",
  "abi": [
    {
      "inputs": [],
      "payable": false,
      "stateMutability": "nonpayable",
      "type": "constructor"
    },
    {
      "anonymous": false,
      "inputs": [
        {
          "indexed": false,
          "internalType": "uint256",
          "name": "App",
          "type": "uint256"
        },
        {
          "indexed": false,
          "internalType": "uint256",
          "name": "Name",
          "type": "uint256"
        },
        {
          "indexed": false,
          "internalType": "bytes32",
          "name": "Value",
          "type": "bytes32"
        },
        {
          "indexed": false,
          "internalType": "address",
          "name": "By",
          "type": "address"
        }
      ],
      "name": "DataChange",
      "type": "event"
    },
    {
      "anonymous": false,
      "inputs": [
        {
          "indexed": true,
          "internalType": "address",
          "name": "previousOwner",
          "type": "address"
        }
      ],
      "name": "OwnershipRenounced",
      "type": "event"
    },
    {
      "anonymous": false,
      "inputs": [
        {
          "indexed": true,
          "internalType": "address",
          "name": "previousOwner",
          "type": "address"
        },
        {
          "indexed": true,
          "internalType": "address",
          "name": "newOwner",
          "type": "address"
        }
      ],
      "name": "OwnershipTransferred",
      "type": "event"
    },
    {
      "anonymous": false,
      "inputs": [
        {
          "indexed": false,
          "internalType": "address",
          "name": "sender",
          "type": "address"
        },
        {
          "indexed": false,
          "internalType": "uint256",
          "name": "value",
          "type": "uint256"
        },
        {
          "indexed": false,
          "internalType": "uint256",
          "name": "application",
          "type": "uint256"
        },
        {
          "indexed": false,
          "internalType": "uint256",
          "name": "payFor",
          "type": "uint256"
        }
      ],
      "name": "ReceivedFunds",
      "type": "event"
    },
    {
      "anonymous": false,
      "inputs": [
        {
          "indexed": false,
          "internalType": "address",
          "name": "to",
          "type": "address"
        },
        {
          "indexed": false,
          "internalType": "uint256",
          "name": "amount",
          "type": "uint256"
        }
      ],
      "name": "Withdrawn",
      "type": "event"
    },
    {
      "payable": true,
      "stateMutability": "payable",
      "type": "fallback"
    },
    {
      "constant": true,
      "inputs": [],
      "name": "owner",
      "outputs": [
        {
          "internalType": "address",
          "name": "",
          "type": "address"
        }
      ],
      "payable": false,
      "stateMutability": "view",
      "type": "function"
    },
    {
      "constant": false,
      "inputs": [],
      "name": "renounceOwnership",
      "outputs": [],
      "payable": false,
      "stateMutability": "nonpayable",
      "type": "function"
    },
    {
      "constant": false,
      "inputs": [
        {
          "internalType": "address",
          "name": "_newOwner",
          "type": "address"
        }
      ],
      "name": "transferOwnership",
      "outputs": [],
      "payable": false,
      "stateMutability": "nonpayable",
      "type": "function"
    },
    {
      "constant": false,
      "inputs": [],
      "name": "init",
      "outputs": [],
      "payable": false,
      "stateMutability": "nonpayable",
      "type": "function"
    },
    {
      "constant": false,
      "inputs": [
        {
          "internalType": "uint256",
          "name": "_minPayment",
          "type": "uint256"
        }
      ],
      "name": "setMinPayment",
      "outputs": [],
      "payable": false,
      "stateMutability": "nonpayable",
      "type": "function"
    },
    {
      "constant": true,
      "inputs": [],
      "name": "getMinPayment",
      "outputs": [
        {
          "internalType": "uint256",
          "name": "",
          "type": "uint256"
        }
      ],
      "payable": false,
      "stateMutability": "view",
      "type": "function"
    },
    {
      "constant": false,
      "inputs": [
        {
          "internalType": "uint256",
          "name": "_app",
          "type": "uint256"
        },
        {
          "internalType": "uint256",
          "name": "_name",
          "type": "uint256"
        },
        {
          "internalType": "bytes32",
          "name": "_data",
          "type": "bytes32"
        }
      ],
      "name": "setData",
      "outputs": [],
      "payable": true,
      "stateMutability": "payable",
      "type": "function"
    },
    {
      "constant": false,
      "inputs": [
        {
          "internalType": "uint256",
          "name": "_app",
          "type": "uint256"
        },
        {
          "internalType": "uint256",
          "name": "_name",
          "type": "uint256"
        },
        {
          "internalType": "bytes32",
          "name": "_data",
          "type": "bytes32"
        },
        {
          "internalType": "bool",
          "name": "_mayChange",
          "type": "bool"
        }
      ],
      "name": "createSignature",
      "outputs": [],
      "payable": true,
      "stateMutability": "payable",
      "type": "function"
    },
    {
      "constant": true,
      "inputs": [
        {
          "internalType": "uint256",
          "name": "_app",
          "type": "uint256"
        },
        {
          "internalType": "uint256",
          "name": "_name",
          "type": "uint256"
        }
      ],
      "name": "getSignature",
      "outputs": [
        {
          "internalType": "bytes32",
          "name": "",
          "type": "bytes32"
        }
      ],
      "payable": false,
      "stateMutability": "view",
      "type": "function"
    },
    {
      "constant": false,
      "inputs": [
        {
          "internalType": "uint256",
          "name": "application",
          "type": "uint256"
        },
        {
          "internalType": "uint256",
          "name": "payFor",
          "type": "uint256"
        }
      ],
      "name": "genReceivedFunds",
      "outputs": [],
      "payable": true,
      "stateMutability": "payable",
      "type": "function"
    },
    {
      "constant": false,
      "inputs": [
        {
          "internalType": "uint256",
          "name": "amount",
          "type": "uint256"
        }
      ],
      "name": "withdraw",
      "outputs": [
        {
          "internalType": "bool",
          "name": "",
          "type": "bool"
        }
      ],
      "payable": false,
      "stateMutability": "nonpayable",
      "type": "function"
    },
    {
      "constant": true,
      "inputs": [],
      "name": "getBalanceContract",
      "outputs": [
        {
          "internalType": "uint256",
          "name": "",
          "type": "uint256"
        }
      ],
      "payable": false,
      "stateMutability": "view",
      "type": "function"
    },
    {
      "constant": false,
      "inputs": [],
      "name": "kill",
      "outputs": [],
      "payable": false,
      "stateMutability": "nonpayable",
      "type": "function"
    }
  ],
  "bytecode": "0x608060405234801561001057600080fd5b50336000806101000a81548173ffffffffffffffffffffffffffffffffffffffff021916908373ffffffffffffffffffffffffffffffffffffffff16021790555033600160006101000a81548173ffffffffffffffffffffffffffffffffffffffff021916908373ffffffffffffffffffffffffffffffffffffffff1602179055506103e8600281905550611369806100aa6000396000f3fe6080604052600436106100c25760003560e01c8063715018a61161007f5780638da5cb5b116100595780638da5cb5b1461033c578063be2b163614610393578063e1c7392a146103cb578063f2fde38b146103e2576100c2565b8063715018a6146102b857806377a890cd146102cf5780638c58ae24146102fa576100c2565b806313cda485146101415780632e1a7d4d1461018f57806341c0e1b5146101e257806366bd78fd146101f95780636a12874f146102245780636d427fa31461027d575b7f5f74095c3cf9cd2b4407992767113d77fc65cb2423a83ecc71977f3ace6b34f4333460006001604051808573ffffffffffffffffffffffffffffffffffffffff1673ffffffffffffffffffffffffffffffffffffffff16815260200184815260200183815260200182815260200194505050505060405180910390a1005b61018d6004803603608081101561015757600080fd5b81019080803590602001909291908035906020019092919080359060200190929190803515159060200190929190505050610433565b005b34801561019b57600080fd5b506101c8600480360360208110156101b257600080fd5b81019080803590602001909291905050506108d4565b604051808215151515815260200191505060405180910390f35b3480156101ee57600080fd5b506101f7610a2e565b005b34801561020557600080fd5b5061020e610b4f565b6040518082815260200191505060405180910390f35b34801561023057600080fd5b506102676004803603604081101561024757600080fd5b810190808035906020019092919080359060200190929190505050610bb0565b6040518082815260200191505060405180910390f35b34801561028957600080fd5b506102b6600480360360208110156102a057600080fd5b8101908080359060200190929190505050610bdf565b005b3480156102c457600080fd5b506102cd610c42565b005b3480156102db57600080fd5b506102e4610d42565b6040518082815260200191505060405180910390f35b61033a6004803603606081101561031057600080fd5b81019080803590602001909291908035906020019092919080359060200190929190505050610da5565b005b34801561034857600080fd5b506103516110f2565b604051808273ffffffffffffffffffffffffffffffffffffffff1673ffffffffffffffffffffffffffffffffffffffff16815260200191505060405180910390f35b6103c9600480360360408110156103a957600080fd5b810190808035906020019092919080359060200190929190505050611117565b005b3480156103d757600080fd5b506103e0611196565b005b3480156103ee57600080fd5b506104316004803603602081101561040557600080fd5b81019080803573ffffffffffffffffffffffffffffffffffffffff1690602001909291905050506111a1565b005b60025434101561048e576040517f08c379a00000000000000000000000000000000000000000000000000000000081526004018080602001828103825260368152602001806112ff6036913960400191505060405180910390fd5b6000831415610505576040517f08c379a000000000000000000000000000000000000000000000000000000000815260040180806020018281038252601d8152602001807f496e76616c6964205f6e616d6520776974682076616c7565206f66203000000081525060200191505060405180910390fd5b600084141561057c576040517f08c379a000000000000000000000000000000000000000000000000000000000815260040180806020018281038252601c8152602001807f496e76616c6964205f61707020776974682076616c7565206f6620300000000081525060200191505060405180910390fd5b600073ffffffffffffffffffffffffffffffffffffffff163373ffffffffffffffffffffffffffffffffffffffff16141561061f576040517f08c379a00000000000000000000000000000000000000000000000000000000081526004018080602001828103825260128152602001807f496e76616c6964206d73672073656e646572000000000000000000000000000081525060200191505060405180910390fd5b600060046000868152602001908152602001600020600085815260200190815260200160002060009054906101000a900473ffffffffffffffffffffffffffffffffffffffff169050600073ffffffffffffffffffffffffffffffffffffffff168173ffffffffffffffffffffffffffffffffffffffff161461085f573360046000878152602001908152602001600020600086815260200190815260200160002060006101000a81548173ffffffffffffffffffffffffffffffffffffffff021916908373ffffffffffffffffffffffffffffffffffffffff16021790555082600360008781526020019081526020016000206000868152602001908152602001600020819055508160056000878152602001908152602001600020600086815260200190815260200160002060006101000a81548160ff0219169083151502179055507fc9bbb9d40eb6b265e9e7f7c2c367f761494e11148c80a704ed4a44184fe4313a85858533604051808581526020018481526020018381526020018273ffffffffffffffffffffffffffffffffffffffff1673ffffffffffffffffffffffffffffffffffffffff16815260200194505050505060405180910390a17f5f74095c3cf9cd2b4407992767113d77fc65cb2423a83ecc71977f3ace6b34f433348787604051808573ffffffffffffffffffffffffffffffffffffffff1673ffffffffffffffffffffffffffffffffffffffff16815260200184815260200183815260200182815260200194505050505060405180910390a16108cd565b6040517f08c379a00000000000000000000000000000000000000000000000000000000081526004018080602001828103825260128152602001807f4e6f74206f776e6572206f6620646174612e000000000000000000000000000081525060200191505060405180910390fd5b5050505050565b60008060009054906101000a900473ffffffffffffffffffffffffffffffffffffffff1673ffffffffffffffffffffffffffffffffffffffff163373ffffffffffffffffffffffffffffffffffffffff161461092f57600080fd5b600160009054906101000a900473ffffffffffffffffffffffffffffffffffffffff1673ffffffffffffffffffffffffffffffffffffffff166108fc839081150290604051600060405180830381858888f19350505050158015610997573d6000803e3d6000fd5b507f7084f5476618d8e60b11ef0d7d3f06914655adb8793e28ff7f018d4c76d505d5600160009054906101000a900473ffffffffffffffffffffffffffffffffffffffff1683604051808373ffffffffffffffffffffffffffffffffffffffff1673ffffffffffffffffffffffffffffffffffffffff1681526020018281526020019250505060405180910390a160019050919050565b6000809054906101000a900473ffffffffffffffffffffffffffffffffffffffff1673ffffffffffffffffffffffffffffffffffffffff163373ffffffffffffffffffffffffffffffffffffffff1614610a8757600080fd5b7f7084f5476618d8e60b11ef0d7d3f06914655adb8793e28ff7f018d4c76d505d5600160009054906101000a900473ffffffffffffffffffffffffffffffffffffffff1647604051808373ffffffffffffffffffffffffffffffffffffffff1673ffffffffffffffffffffffffffffffffffffffff1681526020018281526020019250505060405180910390a1600160009054906101000a900473ffffffffffffffffffffffffffffffffffffffff1673ffffffffffffffffffffffffffffffffffffffff16ff5b60008060009054906101000a900473ffffffffffffffffffffffffffffffffffffffff1673ffffffffffffffffffffffffffffffffffffffff163373ffffffffffffffffffffffffffffffffffffffff1614610baa57600080fd5b47905090565b600060036000848152602001908152602001600020600083815260200190815260200160002054905092915050565b6000809054906101000a900473ffffffffffffffffffffffffffffffffffffffff1673ffffffffffffffffffffffffffffffffffffffff163373ffffffffffffffffffffffffffffffffffffffff1614610c3857600080fd5b8060028190555050565b6000809054906101000a900473ffffffffffffffffffffffffffffffffffffffff1673ffffffffffffffffffffffffffffffffffffffff163373ffffffffffffffffffffffffffffffffffffffff1614610c9b57600080fd5b6000809054906101000a900473ffffffffffffffffffffffffffffffffffffffff1673ffffffffffffffffffffffffffffffffffffffff167ff8df31144d9c2f0f6b59d69b8b98abd5459d07f2742c4df920b25aae33c6482060405160405180910390a260008060006101000a81548173ffffffffffffffffffffffffffffffffffffffff021916908373ffffffffffffffffffffffffffffffffffffffff160217905550565b60008060009054906101000a900473ffffffffffffffffffffffffffffffffffffffff1673ffffffffffffffffffffffffffffffffffffffff163373ffffffffffffffffffffffffffffffffffffffff1614610d9d57600080fd5b600254905090565b600254341015610e00576040517f08c379a00000000000000000000000000000000000000000000000000000000081526004018080602001828103825260368152602001806112ff6036913960400191505060405180910390fd5b600060046000858152602001908152602001600020600084815260200190815260200160002060009054906101000a900473ffffffffffffffffffffffffffffffffffffffff169050600060056000868152602001908152602001600020600085815260200190815260200160002060009054906101000a900460ff1690503373ffffffffffffffffffffffffffffffffffffffff168273ffffffffffffffffffffffffffffffffffffffff16148015610eb8575080155b15610f2b576040517f08c379a00000000000000000000000000000000000000000000000000000000081526004018080602001828103825260158152602001807f44617461206973206e6f74206368616e6761626c65000000000000000000000081525060200191505060405180910390fd5b3373ffffffffffffffffffffffffffffffffffffffff168273ffffffffffffffffffffffffffffffffffffffff1614610fcc576040517f08c379a00000000000000000000000000000000000000000000000000000000081526004018080602001828103825260128152602001807f4e6f74206f776e6572206f6620646174612e000000000000000000000000000081525060200191505060405180910390fd5b82600360008781526020019081526020016000206000868152602001908152602001600020819055507fc9bbb9d40eb6b265e9e7f7c2c367f761494e11148c80a704ed4a44184fe4313a85858533604051808581526020018481526020018381526020018273ffffffffffffffffffffffffffffffffffffffff1673ffffffffffffffffffffffffffffffffffffffff16815260200194505050505060405180910390a17f5f74095c3cf9cd2b4407992767113d77fc65cb2423a83ecc71977f3ace6b34f433348787604051808573ffffffffffffffffffffffffffffffffffffffff1673ffffffffffffffffffffffffffffffffffffffff16815260200184815260200183815260200182815260200194505050505060405180910390a15050505050565b6000809054906101000a900473ffffffffffffffffffffffffffffffffffffffff1681565b7f5f74095c3cf9cd2b4407992767113d77fc65cb2423a83ecc71977f3ace6b34f433348484604051808573ffffffffffffffffffffffffffffffffffffffff1673ffffffffffffffffffffffffffffffffffffffff16815260200184815260200183815260200182815260200194505050505060405180910390a15050565b6103e8600281905550565b6000809054906101000a900473ffffffffffffffffffffffffffffffffffffffff1673ffffffffffffffffffffffffffffffffffffffff163373ffffffffffffffffffffffffffffffffffffffff16146111fa57600080fd5b61120381611206565b50565b600073ffffffffffffffffffffffffffffffffffffffff168173ffffffffffffffffffffffffffffffffffffffff16141561124057600080fd5b8073ffffffffffffffffffffffffffffffffffffffff166000809054906101000a900473ffffffffffffffffffffffffffffffffffffffff1673ffffffffffffffffffffffffffffffffffffffff167f8be0079c531659141344cd1fd0a4f28419497f9722a3daafe3b4186f6b6457e060405160405180910390a3806000806101000a81548173ffffffffffffffffffffffffffffffffffffffff021916908373ffffffffffffffffffffffffffffffffffffffff1602179055505056fe496e73756666696369656e74207061796d656e742e20204d7573742073656e64206d6f7265207468616e206d696e5061796d656e742ea265627a7a72315820652b3afee198ef57b51fc5899330c425a659216243e98e7aa12f55b4241f665e64736f6c63430005100032",
  "source": "// SPDX-License-Identifier: MIT\npragma solidity >=0.4.22 <0.9.0;\n\nimport \"zeppelin-solidity/contracts/ownership/Ownable.sol\";\n\ncontract SignedData is Ownable {\n\n    address payable owner_address;\n\tuint256 private minPayment;\n\n\tmapping(uint256 => mapping(uint256 => bytes32)) dData;\n\tmapping(uint256 => mapping(uint256 => address)) dOowner;\n\tmapping(uint256 => mapping(uint256 => bool)) dMayChange;\n\tevent DataChange(uint256 App, uint256 Name, bytes32 Value, address By);\n\n\tevent ReceivedFunds(address sender, uint256 value, uint256 application, uint256 payFor);\n\tevent Withdrawn(address to, uint256 amount);\n\n\tconstructor() public {\n        owner_address = msg.sender;\n\t\tminPayment = 1000;\n\t}\n\n\tmodifier needMinPayment {\n\t\trequire(msg.value >= minPayment, \"Insufficient payment.  Must send more than minPayment.\");\n\t\t_;\n\t}\n\n\tfunction init() public {\n\t\tminPayment = 1000;\n\t}\n\n\tfunction setMinPayment( uint256 _minPayment ) public onlyOwner {\n\t\tminPayment = _minPayment;\n\t}\n\n\tfunction getMinPayment() public onlyOwner view returns ( uint256 ) {\n\t\treturn ( minPayment );\n\t}\n\n\t// ----------------------------------------------------------------------------------------------------------------------\n\n\t/**\n\t * @dev TODO if the data is empty, or if the msg.sender is the original createor of the data:\n\t *      then : save the msg.sender into dOwner, save the data into dData\n     *             create a DataChange event.\n     *      else : revert an error.\n\t */\n\tfunction setData ( uint256 _app, uint256 _name, bytes32 _data ) public needMinPayment payable {\n\t\taddress tmp = dOowner[_app][_name];\n\t\tbool mayChange = dMayChange[_app][_name];\n\t\tif ( tmp == msg.sender && !mayChange ) {\n\t\t\trevert(\"Data is not changable\");\n\t\t}\n\t\tif ( tmp != msg.sender ) {\n\t\t\trevert(\"Not owner of data.\");\n\t\t}\n\t\tdData[_app][_name] = _data;\n\t\temit DataChange(_app, _name, _data, msg.sender);\n\t\temit ReceivedFunds(msg.sender, msg.value, _app, _name);\n\t}\n\n\t/**\n\t * @dev TODO if the data is empty, or if the msg.sender is the original createor of the data:\n\t *      then : save the msg.sender into dOwner, save the data into dData\n     *             create a DataChange event.\n     *      else : revert an error.\n\t */\n\tfunction createSignature ( uint256 _app, uint256 _name, bytes32 _data, bool _mayChange ) public needMinPayment payable {\n\t\tif ( _name == 0 ) {\n\t\t\trevert(\"Invalid _name with value of 0\");\n\t\t}\n\t\tif ( _app == 0 ) {\n\t\t\trevert(\"Invalid _app with value of 0\");\n\t\t}\n\t\tif ( msg.sender == address(0) ) {\n\t\t\trevert(\"Invalid msg sender\");\n\t\t}\n\t\taddress tmp = dOowner[_app][_name];\n\t\tif ( tmp != address(0) ) {\t// Check that it has not already been created, 0 retuned if not exists\n\t\t\tdOowner[_app][_name] = msg.sender;\n\t\t\tdData[_app][_name] = _data;\n\t\t\tdMayChange[_app][_name] = _mayChange;\n\t\t\temit DataChange(_app, _name, _data, msg.sender);\n\t\t\temit ReceivedFunds(msg.sender, msg.value, _app, _name);\n\t\t} else {\n\t\t\trevert(\"Not owner of data.\");\n\t\t}\n\t}\n\n\t/**\n\t * @dev TODO return the data by looking up _app and _name in dData.\n\t */\n\tfunction getSignature ( uint256 _app, uint256 _name ) public view returns ( bytes32 ) {\n\t\treturn ( dData[_app][_name] );\n\t}\n\n\t// ----------------------------------------------------------------------------------------------------------------------\n\n\t/**\n\t * @dev payable fallback\n\t */\n\tfunction () external payable {\n\t\temit ReceivedFunds(msg.sender, msg.value, 0, 1);\n\t}\n\n\t/**\n\t * @dev genReceiveFunds - generate a receive funds event.\n\t */\n\tfunction genReceivedFunds ( uint256 application, uint256 payFor ) public payable {\n\t\temit ReceivedFunds(msg.sender, msg.value, application, payFor);\n\t}\n\n\t/**\n\t * @dev Withdraw contract value amount.\n\t */\n\tfunction withdraw( uint256 amount ) public onlyOwner returns(bool) {\n\t\taddress(owner_address).transfer(amount);\n\t\t// owner_address.send(amount);\n\t\temit Withdrawn(owner_address, amount);\n\t\treturn true;\n\t}\n\n\t/**\n\t * @dev How much do I got?\n\t */\n\tfunction getBalanceContract() public view onlyOwner returns(uint256){\n\t\treturn address(this).balance;\n\t}\n\n\t/**\n\t * @dev For futute to end the contract, take the value.\n\t */\n\tfunction kill() public onlyOwner {\n\t\temit Withdrawn(owner_address, address(this).balance);\n\t\tselfdestruct(owner_address);\n\t}\n}\n",
  "sourcePath": "/Users/philip/go/src/github.com/Univ-Wyo-Education/S22-4010/class/lect/19/eth/contracts/SignData.sol",
  "compiler": {
    "name": "solc",
    "version": "0.5.16+commit.9c3226ce.Emscripten.clang"
  },
  "schemaVersion": "3.4.3",
  "updatedAt": "2022-03-04T13:15:52.299Z",
  "devdoc": {
    "methods": {
      "createSignature(uint256,uint256,bytes32,bool)": {
        "details": "TODO if the data is empty, or if the msg.sender is the original createor of the data:     then : save the msg.sender into dOwner, save the data into dData            create a DataChange event.     else : revert an error."
      },
      "genReceivedFunds(uint256,uint256)": {
        "details": "genReceiveFunds - generate a receive funds event."
      },
      "getBalanceContract()": {
        "details": "How much do I got?"
      },
      "getSignature(uint256,uint256)": {
        "details": "TODO return the data by looking up _app and _name in dData."
      },
      "kill()": {
        "details": "For futute to end the contract, take the value."
      },
      "renounceOwnership()": {
        "details": "Allows the current owner to relinquish control of the contract."
      },
      "setData(uint256,uint256,bytes32)": {
        "details": "TODO if the data is empty, or if the msg.sender is the original createor of the data:     then : save the msg.sender into dOwner, save the data into dData            create a DataChange event.     else : revert an error."
      },
      "transferOwnership(address)": {
        "details": "Allows the current owner to transfer control of the contract to a newOwner.",
        "params": {
          "_newOwner": "The address to transfer ownership to."
        }
      },
      "withdraw(uint256)": {
        "details": "Withdraw contract value amount."
      }
    }
  },
  "userdoc": {
    "methods": {
      "renounceOwnership()": {
        "notice": "Renouncing to ownership will leave the contract without an owner. It will not be possible to call the functions with the `onlyOwner` modifier anymore."
      }
    }
  }
}