{
  "contractName": "FixedTermDesposite",
  "abi": [
    {
      "inputs": [
        {
          "internalType": "uint256",
          "name": "_pct",
          "type": "uint256"
        }
      ],
      "stateMutability": "nonpayable",
      "type": "constructor"
    },
    {
      "anonymous": false,
      "inputs": [
        {
          "indexed": true,
          "internalType": "address",
          "name": "who",
          "type": "address"
        },
        {
          "indexed": false,
          "internalType": "uint256",
          "name": "amount",
          "type": "uint256"
        },
        {
          "indexed": false,
          "internalType": "uint32",
          "name": "id",
          "type": "uint32"
        }
      ],
      "name": "DepositeMade",
      "type": "event"
    },
    {
      "anonymous": false,
      "inputs": [
        {
          "indexed": true,
          "internalType": "address",
          "name": "who",
          "type": "address"
        },
        {
          "indexed": false,
          "internalType": "uint256",
          "name": "amount",
          "type": "uint256"
        },
        {
          "indexed": false,
          "internalType": "uint32",
          "name": "id",
          "type": "uint32"
        }
      ],
      "name": "FundsRemoved",
      "type": "event"
    },
    {
      "anonymous": false,
      "inputs": [
        {
          "indexed": true,
          "internalType": "address",
          "name": "previousOwner",
          "type": "address"
        },
        {
          "indexed": true,
          "internalType": "address",
          "name": "newOwner",
          "type": "address"
        }
      ],
      "name": "OwnershipTransferred",
      "type": "event"
    },
    {
      "anonymous": false,
      "inputs": [
        {
          "indexed": false,
          "internalType": "address",
          "name": "sender",
          "type": "address"
        },
        {
          "indexed": false,
          "internalType": "uint256",
          "name": "value",
          "type": "uint256"
        }
      ],
      "name": "ReceivedFunds",
      "type": "event"
    },
    {
      "anonymous": false,
      "inputs": [
        {
          "indexed": false,
          "internalType": "address",
          "name": "to",
          "type": "address"
        },
        {
          "indexed": false,
          "internalType": "uint256",
          "name": "amount",
          "type": "uint256"
        }
      ],
      "name": "Withdrawn",
      "type": "event"
    },
    {
      "stateMutability": "payable",
      "type": "fallback",
      "payable": true
    },
    {
      "inputs": [],
      "name": "owner",
      "outputs": [
        {
          "internalType": "address",
          "name": "",
          "type": "address"
        }
      ],
      "stateMutability": "view",
      "type": "function",
      "constant": true
    },
    {
      "inputs": [],
      "name": "renounceOwnership",
      "outputs": [],
      "stateMutability": "nonpayable",
      "type": "function"
    },
    {
      "inputs": [
        {
          "internalType": "address",
          "name": "newOwner",
          "type": "address"
        }
      ],
      "name": "transferOwnership",
      "outputs": [],
      "stateMutability": "nonpayable",
      "type": "function"
    },
    {
      "stateMutability": "payable",
      "type": "receive",
      "payable": true
    },
    {
      "inputs": [
        {
          "internalType": "uint256",
          "name": "_amount",
          "type": "uint256"
        }
      ],
      "name": "depositCertificate",
      "outputs": [
        {
          "internalType": "uint32",
          "name": "",
          "type": "uint32"
        }
      ],
      "stateMutability": "payable",
      "type": "function",
      "payable": true
    },
    {
      "inputs": [
        {
          "internalType": "uint32",
          "name": "_id",
          "type": "uint32"
        }
      ],
      "name": "withdrawCertificate",
      "outputs": [],
      "stateMutability": "nonpayable",
      "type": "function"
    },
    {
      "inputs": [
        {
          "internalType": "uint32",
          "name": "_id",
          "type": "uint32"
        }
      ],
      "name": "amountOnDeposite",
      "outputs": [
        {
          "internalType": "uint256",
          "name": "",
          "type": "uint256"
        }
      ],
      "stateMutability": "view",
      "type": "function",
      "constant": true
    },
    {
      "inputs": [],
      "name": "genReceivedFunds",
      "outputs": [],
      "stateMutability": "payable",
      "type": "function",
      "payable": true
    },
    {
      "inputs": [
        {
          "internalType": "uint256",
          "name": "amount",
          "type": "uint256"
        }
      ],
      "name": "withdraw",
      "outputs": [
        {
          "internalType": "bool",
          "name": "",
          "type": "bool"
        }
      ],
      "stateMutability": "nonpayable",
      "type": "function"
    },
    {
      "inputs": [],
      "name": "getBalanceContract",
      "outputs": [
        {
          "internalType": "uint256",
          "name": "",
          "type": "uint256"
        }
      ],
      "stateMutability": "view",
      "type": "function",
      "constant": true
    },
    {
      "inputs": [],
      "name": "kill",
      "outputs": [],
      "stateMutability": "nonpayable",
      "type": "function"
    }
  ],
  "bytecode": "0x60806040523480156200001157600080fd5b506040516200171338038062001713833981810160405281019062000037919062000192565b620000576200004b620000af60201b60201c565b620000b760201b60201c565b33600160006101000a81548173ffffffffffffffffffffffffffffffffffffffff021916908373ffffffffffffffffffffffffffffffffffffffff1602179055508060028190555061016d60038190555050620001e2565b600033905090565b60008060009054906101000a900473ffffffffffffffffffffffffffffffffffffffff169050816000806101000a81548173ffffffffffffffffffffffffffffffffffffffff021916908373ffffffffffffffffffffffffffffffffffffffff1602179055508173ffffffffffffffffffffffffffffffffffffffff168173ffffffffffffffffffffffffffffffffffffffff167f8be0079c531659141344cd1fd0a4f28419497f9722a3daafe3b4186f6b6457e060405160405180910390a35050565b6000815190506200018c81620001c8565b92915050565b600060208284031215620001a557600080fd5b6000620001b5848285016200017b565b91505092915050565b6000819050919050565b620001d381620001be565b8114620001df57600080fd5b50565b61152180620001f26000396000f3fe6080604052600436106100955760003560e01c806366bd78fd1161005957806366bd78fd146101db578063715018a6146102065780638da5cb5b1461021d578063ca44996714610248578063f2fde38b14610271576100d5565b806312fa264e1461011057806314e6d63d1461011a5780632e1a7d4d1461014a57806341c0e1b51461018757806351ae8b781461019e576100d5565b366100d5577f5741979df5f3e491501da74d3b0a83dd2496ab1f34929865b3e190a8ad75859a33346040516100cb929190611133565b60405180910390a1005b7f5741979df5f3e491501da74d3b0a83dd2496ab1f34929865b3e190a8ad75859a3334604051610106929190611133565b60405180910390a1005b61011861029a565b005b610134600480360381019061012f919061100c565b6102d5565b60405161014191906111fb565b60405180910390f35b34801561015657600080fd5b50610171600480360381019061016c919061100c565b610563565b60405161017e919061115c565b60405180910390f35b34801561019357600080fd5b5061019c6106ae565b005b3480156101aa57600080fd5b506101c560048036038101906101c09190611035565b6107d7565b6040516101d291906111b7565b60405180910390f35b3480156101e757600080fd5b506101f061097c565b6040516101fd91906111b7565b60405180910390f35b34801561021257600080fd5b5061021b610a17565b005b34801561022957600080fd5b50610232610a9f565b60405161023f91906110ef565b60405180910390f35b34801561025457600080fd5b5061026f600480360381019061026a9190611035565b610ac8565b005b34801561027d57600080fd5b5061029860048036038101906102939190610fe3565b610de0565b005b7f5741979df5f3e491501da74d3b0a83dd2496ab1f34929865b3e190a8ad75859a33346040516102cb929190611133565b60405180910390a1565b60008134146102e357600080fd5b6000600460003373ffffffffffffffffffffffffffffffffffffffff1673ffffffffffffffffffffffffffffffffffffffff16815260200190815260200160002060009054906101000a900463ffffffff169050600181610344919061127d565b905080600460003373ffffffffffffffffffffffffffffffffffffffff1673ffffffffffffffffffffffffffffffffffffffff16815260200190815260200160002060006101000a81548163ffffffff021916908363ffffffff16021790555082600560008363ffffffff16815260200190815260200160002060003373ffffffffffffffffffffffffffffffffffffffff1673ffffffffffffffffffffffffffffffffffffffff1681526020019081526020016000208190555033600660008363ffffffff16815260200190815260200160002060003373ffffffffffffffffffffffffffffffffffffffff1673ffffffffffffffffffffffffffffffffffffffff16815260200190815260200160002060006101000a81548173ffffffffffffffffffffffffffffffffffffffff021916908373ffffffffffffffffffffffffffffffffffffffff160217905550620151806003546104a591906112e8565b426104b09190611227565b600760008363ffffffff16815260200190815260200160002060003373ffffffffffffffffffffffffffffffffffffffff1673ffffffffffffffffffffffffffffffffffffffff168152602001908152602001600020819055503373ffffffffffffffffffffffffffffffffffffffff167f3143899e9d94cf333da19830027decc24a6252659c116ca12ff004972204c55a84836040516105529291906111d2565b60405180910390a280915050919050565b600061056d610ed8565b73ffffffffffffffffffffffffffffffffffffffff1661058b610a9f565b73ffffffffffffffffffffffffffffffffffffffff16146105e1576040517f08c379a00000000000000000000000000000000000000000000000000000000081526004016105d890611197565b60405180910390fd5b600160009054906101000a900473ffffffffffffffffffffffffffffffffffffffff1673ffffffffffffffffffffffffffffffffffffffff166108fc839081150290604051600060405180830381858888f19350505050158015610649573d6000803e3d6000fd5b507f7084f5476618d8e60b11ef0d7d3f06914655adb8793e28ff7f018d4c76d505d5600160009054906101000a900473ffffffffffffffffffffffffffffffffffffffff168360405161069d92919061110a565b60405180910390a160019050919050565b6106b6610ed8565b73ffffffffffffffffffffffffffffffffffffffff166106d4610a9f565b73ffffffffffffffffffffffffffffffffffffffff161461072a576040517f08c379a000000000000000000000000000000000000000000000000000000000815260040161072190611197565b60405180910390fd5b7f7084f5476618d8e60b11ef0d7d3f06914655adb8793e28ff7f018d4c76d505d5600160009054906101000a900473ffffffffffffffffffffffffffffffffffffffff163073ffffffffffffffffffffffffffffffffffffffff163160405161079492919061110a565b60405180910390a1600160009054906101000a900473ffffffffffffffffffffffffffffffffffffffff1673ffffffffffffffffffffffffffffffffffffffff16ff5b600080600460003373ffffffffffffffffffffffffffffffffffffffff1673ffffffffffffffffffffffffffffffffffffffff16815260200190815260200160002060009054906101000a900463ffffffff1690508263ffffffff168163ffffffff16118061084d575060008163ffffffff1611155b1561085c576000915050610977565b6000600660008563ffffffff16815260200190815260200160002060003373ffffffffffffffffffffffffffffffffffffffff1673ffffffffffffffffffffffffffffffffffffffff16815260200190815260200160002060009054906101000a900473ffffffffffffffffffffffffffffffffffffffff1690503373ffffffffffffffffffffffffffffffffffffffff168173ffffffffffffffffffffffffffffffffffffffff161461091557600092505050610977565b6000600560008663ffffffff16815260200190815260200160002060003373ffffffffffffffffffffffffffffffffffffffff1673ffffffffffffffffffffffffffffffffffffffff1681526020019081526020016000205490508093505050505b919050565b6000610986610ed8565b73ffffffffffffffffffffffffffffffffffffffff166109a4610a9f565b73ffffffffffffffffffffffffffffffffffffffff16146109fa576040517f08c379a00000000000000000000000000000000000000000000000000000000081526004016109f190611197565b60405180910390fd5b3073ffffffffffffffffffffffffffffffffffffffff1631905090565b610a1f610ed8565b73ffffffffffffffffffffffffffffffffffffffff16610a3d610a9f565b73ffffffffffffffffffffffffffffffffffffffff1614610a93576040517f08c379a0000000000000000000000000000000000000000000000000000000008152600401610a8a90611197565b60405180910390fd5b610a9d6000610ee0565b565b60008060009054906101000a900473ffffffffffffffffffffffffffffffffffffffff16905090565b6000600460003373ffffffffffffffffffffffffffffffffffffffff1673ffffffffffffffffffffffffffffffffffffffff16815260200190815260200160002060009054906101000a900463ffffffff1690508163ffffffff168163ffffffff1610158015610b3e575060008263ffffffff16115b610b4757600080fd5b6000600660008463ffffffff16815260200190815260200160002060003373ffffffffffffffffffffffffffffffffffffffff1673ffffffffffffffffffffffffffffffffffffffff16815260200190815260200160002060009054906101000a900473ffffffffffffffffffffffffffffffffffffffff1690503373ffffffffffffffffffffffffffffffffffffffff168173ffffffffffffffffffffffffffffffffffffffff1614610bfa57600080fd5b600760008463ffffffff16815260200190815260200160002060003373ffffffffffffffffffffffffffffffffffffffff1673ffffffffffffffffffffffffffffffffffffffff16815260200190815260200160002054421015610c5d57600080fd5b6000600560008563ffffffff16815260200190815260200160002060003373ffffffffffffffffffffffffffffffffffffffff1673ffffffffffffffffffffffffffffffffffffffff168152602001908152602001600020549050620f424060025482610cca91906112e8565b610cd491906112b7565b81610cdf9190611227565b90506000600560008663ffffffff16815260200190815260200160002060003373ffffffffffffffffffffffffffffffffffffffff1673ffffffffffffffffffffffffffffffffffffffff1681526020019081526020016000208190555060008290508073ffffffffffffffffffffffffffffffffffffffff166108fc839081150290604051600060405180830381858888f19350505050158015610d88573d6000803e3d6000fd5b503373ffffffffffffffffffffffffffffffffffffffff167f3143899e9d94cf333da19830027decc24a6252659c116ca12ff004972204c55a8387604051610dd19291906111d2565b60405180910390a25050505050565b610de8610ed8565b73ffffffffffffffffffffffffffffffffffffffff16610e06610a9f565b73ffffffffffffffffffffffffffffffffffffffff1614610e5c576040517f08c379a0000000000000000000000000000000000000000000000000000000008152600401610e5390611197565b60405180910390fd5b600073ffffffffffffffffffffffffffffffffffffffff168173ffffffffffffffffffffffffffffffffffffffff161415610ecc576040517f08c379a0000000000000000000000000000000000000000000000000000000008152600401610ec390611177565b60405180910390fd5b610ed581610ee0565b50565b600033905090565b60008060009054906101000a900473ffffffffffffffffffffffffffffffffffffffff169050816000806101000a81548173ffffffffffffffffffffffffffffffffffffffff021916908373ffffffffffffffffffffffffffffffffffffffff1602179055508173ffffffffffffffffffffffffffffffffffffffff168173ffffffffffffffffffffffffffffffffffffffff167f8be0079c531659141344cd1fd0a4f28419497f9722a3daafe3b4186f6b6457e060405160405180910390a35050565b600081359050610fb3816114a6565b92915050565b600081359050610fc8816114bd565b92915050565b600081359050610fdd816114d4565b92915050565b600060208284031215610ff557600080fd5b600061100384828501610fa4565b91505092915050565b60006020828403121561101e57600080fd5b600061102c84828501610fb9565b91505092915050565b60006020828403121561104757600080fd5b600061105584828501610fce565b91505092915050565b6110678161139a565b82525050565b61107681611342565b82525050565b61108581611354565b82525050565b6000611098602683611216565b91506110a38261142e565b604082019050919050565b60006110bb602083611216565b91506110c68261147d565b602082019050919050565b6110da81611380565b82525050565b6110e98161138a565b82525050565b6000602082019050611104600083018461106d565b92915050565b600060408201905061111f600083018561105e565b61112c60208301846110d1565b9392505050565b6000604082019050611148600083018561106d565b61115560208301846110d1565b9392505050565b6000602082019050611171600083018461107c565b92915050565b600060208201905081810360008301526111908161108b565b9050919050565b600060208201905081810360008301526111b0816110ae565b9050919050565b60006020820190506111cc60008301846110d1565b92915050565b60006040820190506111e760008301856110d1565b6111f460208301846110e0565b9392505050565b600060208201905061121060008301846110e0565b92915050565b600082825260208201905092915050565b600061123282611380565b915061123d83611380565b9250827fffffffffffffffffffffffffffffffffffffffffffffffffffffffffffffffff03821115611272576112716113d0565b5b828201905092915050565b60006112888261138a565b91506112938361138a565b92508263ffffffff038211156112ac576112ab6113d0565b5b828201905092915050565b60006112c282611380565b91506112cd83611380565b9250826112dd576112dc6113ff565b5b828204905092915050565b60006112f382611380565b91506112fe83611380565b9250817fffffffffffffffffffffffffffffffffffffffffffffffffffffffffffffffff0483118215151615611337576113366113d0565b5b828202905092915050565b600061134d82611360565b9050919050565b60008115159050919050565b600073ffffffffffffffffffffffffffffffffffffffff82169050919050565b6000819050919050565b600063ffffffff82169050919050565b60006113a5826113ac565b9050919050565b60006113b7826113be565b9050919050565b60006113c982611360565b9050919050565b7f4e487b7100000000000000000000000000000000000000000000000000000000600052601160045260246000fd5b7f4e487b7100000000000000000000000000000000000000000000000000000000600052601260045260246000fd5b7f4f776e61626c653a206e6577206f776e657220697320746865207a65726f206160008201527f6464726573730000000000000000000000000000000000000000000000000000602082015250565b7f4f776e61626c653a2063616c6c6572206973206e6f7420746865206f776e6572600082015250565b6114af81611342565b81146114ba57600080fd5b50565b6114c681611380565b81146114d157600080fd5b50565b6114dd8161138a565b81146114e857600080fd5b5056fea26469706673582212206639189f3e5e7cec92acbe08c59463e88cce4b66c40cd7058db3673a1ead307364736f6c63430008010033",
  "immutableReferences": {},
  "source": "// SPDX-License-Identifier: MIT\npragma solidity >=0.4.22 <0.9.0;\n\nimport \"@openzeppelin/contracts/access/Ownable.sol\";\n\ncontract FixedTermDesposite is Ownable {\n    address payable owner_address;\n    uint256 pct;\t\t\t\t// Payment for Deposite\n    uint256 numberOfdays;\t\t// Payment can be withdrawn after X days.\n\n\tmapping(address => uint32) nOfDeposites; // Your Deposite ID\n\tmapping(uint256 => mapping(address => uint256)) depositeAmount;\n\tmapping(uint256 => mapping(address => address)) depositeOwner;\n\tmapping(uint256 => mapping(address => uint256)) depositeDeadline;\n\n\tevent DepositeMade(address indexed who, uint256 amount, uint32 id);\n\tevent FundsRemoved(address indexed who, uint256 amount, uint32 id);\n\tevent ReceivedFunds(address sender, uint256 value);\n\tevent Withdrawn(address to, uint256 amount);\n\n\tconstructor(uint256 _pct) {\n        owner_address = payable(msg.sender);\n\t\tpct  = _pct; // 1000000 times the yearly percentage rate\n\t\tnumberOfdays = 365;\n\t}\n\n\t/**\n\t * @dev Create a new deposite for 1 year.\n\t */\n    function depositCertificate(uint256 _amount) public payable returns ( uint32 ) {\n        require(msg.value == _amount);\n\t\tuint32 id = nOfDeposites[msg.sender];\n\t\tid = id + 1;\n\t\tnOfDeposites[msg.sender] = id;\n\t\tdepositeAmount[id][msg.sender] = _amount;\n\t \tdepositeOwner[id][msg.sender] = msg.sender;\n\t\tdepositeDeadline[id][msg.sender] = block.timestamp + ( numberOfdays * 1 days);\n\t\temit DepositeMade( msg.sender, _amount, id);\n\t\treturn id;\n    }\n\n\t/**\n\t * @dev Allow funds to be withdrawn at end of term.\n\t */\n    function withdrawCertificate(uint32 _id) public {\n\t\tuint32 id;\n        id = nOfDeposites[msg.sender];\n        require(id >= _id && _id > 0);\t// check that _id is in range.\n\n\t\taddress theOwner;\n        theOwner = depositeOwner[_id][msg.sender];\n        require(theOwner == msg.sender);\t\t\t\t\t// You are the owner.\n        require(block.timestamp >= depositeDeadline[_id][msg.sender]); \t// You'r deposite has reached term date.\n\n\t\tuint256 amount;\n\t\tamount = depositeAmount[_id][msg.sender];\n\t\tamount = amount + ( ( amount * pct ) / 1000000 );\t// Pay the interest\n\t\tdepositeAmount[_id][msg.sender] = 0;\t\t\t\t// 0 left after withdrawl\n\n\t\taddress payable to;\n\t\tto = payable(theOwner);\t\t\t\t\t\t\t\t// convert type to payable\n\n        to.transfer(amount);\t\t\t\t\t\t\t\t// send them the $ plus interest\n\t\temit DepositeMade( msg.sender, amount, _id);\n    }\n\n\t/**\n\t * @dev Allow funds to be withdrawn at end of term.\n\t */\n    function amountOnDeposite(uint32 _id) public view returns ( uint256 ) {\n\t\tuint32 id;\n        id = nOfDeposites[msg.sender];\n\t\tif ( id > _id || id <= 0 ) {\n\t\t\treturn ( 0 );\n\t\t}\n\n\t\taddress theOwner;\n        theOwner = depositeOwner[_id][msg.sender];\n        if (theOwner != msg.sender) {\n\t\t\treturn ( 0 );\n\t\t}\n\n\t\tuint256 amount;\n\t\tamount = depositeAmount[_id][msg.sender];\n\n\t\treturn ( amount );\n\t}\n\n\t// -------------------------------------------------------------------------------------------------------\n\n\t/**\n\t * @dev payable fallback.  The fallback function is called when no other function \n\t * matches (if the receive ether function does not exist then this includes calls \n\t * with empty call data). You can make this function payable or not.  If it is not \n\t * payable then transactions not matching any other function which send value will\n\t * revert. \n\t */\n\tfallback() external payable {\n\t\temit ReceivedFunds(msg.sender, msg.value);\n\t}\n\n\t/**\n\t * @dev payable receive.  The receive ether function is called whenever the call data\n\t *      is empty (whether or not ether is received). This function is implicitly payable.\n\t */\n\treceive() external payable {\n\t\temit ReceivedFunds(msg.sender, msg.value);\n    }\n\n\t/**\n\t * @dev genReceiveFunds - generate a receive funds event.\n\t */\n\tfunction genReceivedFunds () public payable {\n\t\temit ReceivedFunds(msg.sender, msg.value);\n\t}\n\n\t/**\n\t * @dev Withdraw contract value amount.\n\t */\n\tfunction withdraw( uint256 amount ) public onlyOwner returns(bool) {\n\t\tpayable(owner_address).transfer(amount);\n\t\t// owner_address.send(amount);\n\t\temit Withdrawn(owner_address, amount);\n\t\treturn true;\n\t}\n\n\t/**\n\t * @dev How much do I got?\n\t */\n\tfunction getBalanceContract() public view onlyOwner returns(uint256){\n\t\treturn address(this).balance;\n\t}\n\n\t/**\n\t * @dev For futute to end the contract, take the value.\n\t */\n\tfunction kill() public onlyOwner {\n\t\temit Withdrawn(owner_address, address(this).balance);\n\t\tselfdestruct(owner_address);\n\t}\n}\n",
  "sourcePath": "/Users/philip/go/src/github.com/Univ-Wyo-Education/S22-4010/class/lect/25/eth/contracts/FixedTermDesposite.sol",
  "compiler": {
    "name": "solc",
    "version": "0.8.1+commit.df193b15.Emscripten.clang"
  },
  "schemaVersion": "3.4.5",
  "updatedAt": "2022-03-25T14:37:11.785Z",
  "networkType": "ethereum",
  "devdoc": {
    "kind": "dev",
    "methods": {
      "amountOnDeposite(uint32)": {
        "details": "Allow funds to be withdrawn at end of term."
      },
      "depositCertificate(uint256)": {
        "details": "Create a new deposite for 1 year."
      },
      "genReceivedFunds()": {
        "details": "genReceiveFunds - generate a receive funds event."
      },
      "getBalanceContract()": {
        "details": "How much do I got?"
      },
      "kill()": {
        "details": "For futute to end the contract, take the value."
      },
      "owner()": {
        "details": "Returns the address of the current owner."
      },
      "renounceOwnership()": {
        "details": "Leaves the contract without owner. It will not be possible to call `onlyOwner` functions anymore. Can only be called by the current owner. NOTE: Renouncing ownership will leave the contract without an owner, thereby removing any functionality that is only available to the owner."
      },
      "transferOwnership(address)": {
        "details": "Transfers ownership of the contract to a new account (`newOwner`). Can only be called by the current owner."
      },
      "withdraw(uint256)": {
        "details": "Withdraw contract value amount."
      },
      "withdrawCertificate(uint32)": {
        "details": "Allow funds to be withdrawn at end of term."
      }
    },
    "version": 1
  },
  "userdoc": {
    "kind": "user",
    "methods": {},
    "version": 1
  }
}