{
  "contractName": "FixedTermDesposite",
  "abi": [
    {
      "inputs": [
        {
          "internalType": "uint256",
          "name": "_pct",
          "type": "uint256"
        }
      ],
      "stateMutability": "nonpayable",
      "type": "constructor"
    },
    {
      "anonymous": false,
      "inputs": [
        {
          "indexed": true,
          "internalType": "address",
          "name": "who",
          "type": "address"
        },
        {
          "indexed": false,
          "internalType": "uint256",
          "name": "amount",
          "type": "uint256"
        },
        {
          "indexed": false,
          "internalType": "uint256",
          "name": "id",
          "type": "uint256"
        }
      ],
      "name": "DepositeMade",
      "type": "event"
    },
    {
      "anonymous": false,
      "inputs": [
        {
          "indexed": true,
          "internalType": "address",
          "name": "who",
          "type": "address"
        },
        {
          "indexed": false,
          "internalType": "uint256",
          "name": "amount",
          "type": "uint256"
        },
        {
          "indexed": false,
          "internalType": "uint256",
          "name": "id",
          "type": "uint256"
        }
      ],
      "name": "FundsRemoved",
      "type": "event"
    },
    {
      "anonymous": false,
      "inputs": [
        {
          "indexed": true,
          "internalType": "address",
          "name": "previousOwner",
          "type": "address"
        },
        {
          "indexed": true,
          "internalType": "address",
          "name": "newOwner",
          "type": "address"
        }
      ],
      "name": "OwnershipTransferred",
      "type": "event"
    },
    {
      "anonymous": false,
      "inputs": [
        {
          "indexed": false,
          "internalType": "address",
          "name": "sender",
          "type": "address"
        },
        {
          "indexed": false,
          "internalType": "uint256",
          "name": "value",
          "type": "uint256"
        }
      ],
      "name": "ReceivedFunds",
      "type": "event"
    },
    {
      "anonymous": false,
      "inputs": [
        {
          "indexed": false,
          "internalType": "address",
          "name": "to",
          "type": "address"
        },
        {
          "indexed": false,
          "internalType": "uint256",
          "name": "amount",
          "type": "uint256"
        }
      ],
      "name": "Withdrawn",
      "type": "event"
    },
    {
      "stateMutability": "payable",
      "type": "fallback"
    },
    {
      "inputs": [],
      "name": "owner",
      "outputs": [
        {
          "internalType": "address",
          "name": "",
          "type": "address"
        }
      ],
      "stateMutability": "view",
      "type": "function"
    },
    {
      "inputs": [],
      "name": "renounceOwnership",
      "outputs": [],
      "stateMutability": "nonpayable",
      "type": "function"
    },
    {
      "inputs": [
        {
          "internalType": "address",
          "name": "newOwner",
          "type": "address"
        }
      ],
      "name": "transferOwnership",
      "outputs": [],
      "stateMutability": "nonpayable",
      "type": "function"
    },
    {
      "stateMutability": "payable",
      "type": "receive"
    },
    {
      "inputs": [
        {
          "internalType": "uint256",
          "name": "_amount",
          "type": "uint256"
        }
      ],
      "name": "depositCertificate",
      "outputs": [
        {
          "internalType": "uint256",
          "name": "",
          "type": "uint256"
        }
      ],
      "stateMutability": "payable",
      "type": "function"
    },
    {
      "inputs": [
        {
          "internalType": "uint256",
          "name": "_id",
          "type": "uint256"
        }
      ],
      "name": "withdrawCertificate",
      "outputs": [],
      "stateMutability": "nonpayable",
      "type": "function"
    },
    {
      "inputs": [],
      "name": "genReceivedFunds",
      "outputs": [],
      "stateMutability": "payable",
      "type": "function"
    },
    {
      "inputs": [
        {
          "internalType": "uint256",
          "name": "amount",
          "type": "uint256"
        }
      ],
      "name": "withdraw",
      "outputs": [
        {
          "internalType": "bool",
          "name": "",
          "type": "bool"
        }
      ],
      "stateMutability": "nonpayable",
      "type": "function"
    },
    {
      "inputs": [],
      "name": "getBalanceContract",
      "outputs": [
        {
          "internalType": "uint256",
          "name": "",
          "type": "uint256"
        }
      ],
      "stateMutability": "view",
      "type": "function"
    },
    {
      "inputs": [],
      "name": "kill",
      "outputs": [],
      "stateMutability": "nonpayable",
      "type": "function"
    }
  ],
  "bytecode": "0x60806040523480156200001157600080fd5b50604051620013e7380380620013e7833981810160405281019062000037919062000192565b620000576200004b620000af60201b60201c565b620000b760201b60201c565b33600160006101000a81548173ffffffffffffffffffffffffffffffffffffffff021916908373ffffffffffffffffffffffffffffffffffffffff1602179055508060038190555061016d60048190555050620001e2565b600033905090565b60008060009054906101000a900473ffffffffffffffffffffffffffffffffffffffff169050816000806101000a81548173ffffffffffffffffffffffffffffffffffffffff021916908373ffffffffffffffffffffffffffffffffffffffff1602179055508173ffffffffffffffffffffffffffffffffffffffff168173ffffffffffffffffffffffffffffffffffffffff167f8be0079c531659141344cd1fd0a4f28419497f9722a3daafe3b4186f6b6457e060405160405180910390a35050565b6000815190506200018c81620001c8565b92915050565b600060208284031215620001a557600080fd5b6000620001b5848285016200017b565b91505092915050565b6000819050919050565b620001d381620001be565b8114620001df57600080fd5b50565b6111f580620001f26000396000f3fe60806040526004361061008a5760003560e01c806349d8a1b81161005957806349d8a1b81461019357806366bd78fd146101bc578063715018a6146101e75780638da5cb5b146101fe578063f2fde38b14610229576100ca565b806312fa264e1461010557806314e6d63d1461010f5780632e1a7d4d1461013f57806341c0e1b51461017c576100ca565b366100ca577f5741979df5f3e491501da74d3b0a83dd2496ab1f34929865b3e190a8ad75859a33346040516100c0929190610e83565b60405180910390a1005b7f5741979df5f3e491501da74d3b0a83dd2496ab1f34929865b3e190a8ad75859a33346040516100fb929190610e83565b60405180910390a1005b61010d610252565b005b61012960048036038101906101249190610d94565b61028d565b6040516101369190610f07565b60405180910390f35b34801561014b57600080fd5b5061016660048036038101906101619190610d94565b6104df565b6040516101739190610eac565b60405180910390f35b34801561018857600080fd5b5061019161062a565b005b34801561019f57600080fd5b506101ba60048036038101906101b59190610d94565b610753565b005b3480156101c857600080fd5b506101d1610a31565b6040516101de9190610f07565b60405180910390f35b3480156101f357600080fd5b506101fc610acc565b005b34801561020a57600080fd5b50610213610b54565b6040516102209190610e3f565b60405180910390f35b34801561023557600080fd5b50610250600480360381019061024b9190610d6b565b610b7d565b005b7f5741979df5f3e491501da74d3b0a83dd2496ab1f34929865b3e190a8ad75859a3334604051610283929190610e83565b60405180910390a1565b600081341461029b57600080fd5b6000600560003373ffffffffffffffffffffffffffffffffffffffff1673ffffffffffffffffffffffffffffffffffffffff1681526020019081526020016000205490506001816102ec9190610f5c565b905080600560003373ffffffffffffffffffffffffffffffffffffffff1673ffffffffffffffffffffffffffffffffffffffff16815260200190815260200160002081905550826006600083815260200190815260200160002060003373ffffffffffffffffffffffffffffffffffffffff1673ffffffffffffffffffffffffffffffffffffffff16815260200190815260200160002081905550336007600083815260200190815260200160002060003373ffffffffffffffffffffffffffffffffffffffff1673ffffffffffffffffffffffffffffffffffffffff16815260200190815260200160002060006101000a81548173ffffffffffffffffffffffffffffffffffffffff021916908373ffffffffffffffffffffffffffffffffffffffff160217905550620151806004546104279190610fe3565b426104329190610f5c565b6008600083815260200190815260200160002060003373ffffffffffffffffffffffffffffffffffffffff1673ffffffffffffffffffffffffffffffffffffffff168152602001908152602001600020819055503373ffffffffffffffffffffffffffffffffffffffff167f21b9d13504329c8793162e93c99729021cd47ae1b087f879f6c0f6731b338f8984836040516104ce929190610f22565b60405180910390a280915050919050565b60006104e9610c75565b73ffffffffffffffffffffffffffffffffffffffff16610507610b54565b73ffffffffffffffffffffffffffffffffffffffff161461055d576040517f08c379a000000000000000000000000000000000000000000000000000000000815260040161055490610ee7565b60405180910390fd5b600160009054906101000a900473ffffffffffffffffffffffffffffffffffffffff1673ffffffffffffffffffffffffffffffffffffffff166108fc839081150290604051600060405180830381858888f193505050501580156105c5573d6000803e3d6000fd5b507f7084f5476618d8e60b11ef0d7d3f06914655adb8793e28ff7f018d4c76d505d5600160009054906101000a900473ffffffffffffffffffffffffffffffffffffffff1683604051610619929190610e5a565b60405180910390a160019050919050565b610632610c75565b73ffffffffffffffffffffffffffffffffffffffff16610650610b54565b73ffffffffffffffffffffffffffffffffffffffff16146106a6576040517f08c379a000000000000000000000000000000000000000000000000000000000815260040161069d90610ee7565b60405180910390fd5b7f7084f5476618d8e60b11ef0d7d3f06914655adb8793e28ff7f018d4c76d505d5600160009054906101000a900473ffffffffffffffffffffffffffffffffffffffff163073ffffffffffffffffffffffffffffffffffffffff1631604051610710929190610e5a565b60405180910390a1600160009054906101000a900473ffffffffffffffffffffffffffffffffffffffff1673ffffffffffffffffffffffffffffffffffffffff16ff5b6000600560003373ffffffffffffffffffffffffffffffffffffffff1673ffffffffffffffffffffffffffffffffffffffff1681526020019081526020016000205490508181101580156107a75750600082115b6107b057600080fd5b60006007600084815260200190815260200160002060003373ffffffffffffffffffffffffffffffffffffffff1673ffffffffffffffffffffffffffffffffffffffff16815260200190815260200160002060009054906101000a900473ffffffffffffffffffffffffffffffffffffffff1690503373ffffffffffffffffffffffffffffffffffffffff168173ffffffffffffffffffffffffffffffffffffffff161461085d57600080fd5b6008600084815260200190815260200160002060003373ffffffffffffffffffffffffffffffffffffffff1673ffffffffffffffffffffffffffffffffffffffff168152602001908152602001600020544210156108ba57600080fd5b60006006600085815260200190815260200160002060003373ffffffffffffffffffffffffffffffffffffffff1673ffffffffffffffffffffffffffffffffffffffff168152602001908152602001600020549050620f4240600354826109219190610fe3565b61092b9190610fb2565b816109369190610f5c565b905060006006600086815260200190815260200160002060003373ffffffffffffffffffffffffffffffffffffffff1673ffffffffffffffffffffffffffffffffffffffff1681526020019081526020016000208190555060008290508073ffffffffffffffffffffffffffffffffffffffff166108fc839081150290604051600060405180830381858888f193505050501580156109d9573d6000803e3d6000fd5b503373ffffffffffffffffffffffffffffffffffffffff167f21b9d13504329c8793162e93c99729021cd47ae1b087f879f6c0f6731b338f898387604051610a22929190610f22565b60405180910390a25050505050565b6000610a3b610c75565b73ffffffffffffffffffffffffffffffffffffffff16610a59610b54565b73ffffffffffffffffffffffffffffffffffffffff1614610aaf576040517f08c379a0000000000000000000000000000000000000000000000000000000008152600401610aa690610ee7565b60405180910390fd5b3073ffffffffffffffffffffffffffffffffffffffff1631905090565b610ad4610c75565b73ffffffffffffffffffffffffffffffffffffffff16610af2610b54565b73ffffffffffffffffffffffffffffffffffffffff1614610b48576040517f08c379a0000000000000000000000000000000000000000000000000000000008152600401610b3f90610ee7565b60405180910390fd5b610b526000610c7d565b565b60008060009054906101000a900473ffffffffffffffffffffffffffffffffffffffff16905090565b610b85610c75565b73ffffffffffffffffffffffffffffffffffffffff16610ba3610b54565b73ffffffffffffffffffffffffffffffffffffffff1614610bf9576040517f08c379a0000000000000000000000000000000000000000000000000000000008152600401610bf090610ee7565b60405180910390fd5b600073ffffffffffffffffffffffffffffffffffffffff168173ffffffffffffffffffffffffffffffffffffffff161415610c69576040517f08c379a0000000000000000000000000000000000000000000000000000000008152600401610c6090610ec7565b60405180910390fd5b610c7281610c7d565b50565b600033905090565b60008060009054906101000a900473ffffffffffffffffffffffffffffffffffffffff169050816000806101000a81548173ffffffffffffffffffffffffffffffffffffffff021916908373ffffffffffffffffffffffffffffffffffffffff1602179055508173ffffffffffffffffffffffffffffffffffffffff168173ffffffffffffffffffffffffffffffffffffffff167f8be0079c531659141344cd1fd0a4f28419497f9722a3daafe3b4186f6b6457e060405160405180910390a35050565b600081359050610d5081611191565b92915050565b600081359050610d65816111a8565b92915050565b600060208284031215610d7d57600080fd5b6000610d8b84828501610d41565b91505092915050565b600060208284031215610da657600080fd5b6000610db484828501610d56565b91505092915050565b610dc681611085565b82525050565b610dd58161103d565b82525050565b610de48161104f565b82525050565b6000610df7602683610f4b565b9150610e0282611119565b604082019050919050565b6000610e1a602083610f4b565b9150610e2582611168565b602082019050919050565b610e398161107b565b82525050565b6000602082019050610e546000830184610dcc565b92915050565b6000604082019050610e6f6000830185610dbd565b610e7c6020830184610e30565b9392505050565b6000604082019050610e986000830185610dcc565b610ea56020830184610e30565b9392505050565b6000602082019050610ec16000830184610ddb565b92915050565b60006020820190508181036000830152610ee081610dea565b9050919050565b60006020820190508181036000830152610f0081610e0d565b9050919050565b6000602082019050610f1c6000830184610e30565b92915050565b6000604082019050610f376000830185610e30565b610f446020830184610e30565b9392505050565b600082825260208201905092915050565b6000610f678261107b565b9150610f728361107b565b9250827fffffffffffffffffffffffffffffffffffffffffffffffffffffffffffffffff03821115610fa757610fa66110bb565b5b828201905092915050565b6000610fbd8261107b565b9150610fc88361107b565b925082610fd857610fd76110ea565b5b828204905092915050565b6000610fee8261107b565b9150610ff98361107b565b9250817fffffffffffffffffffffffffffffffffffffffffffffffffffffffffffffffff0483118215151615611032576110316110bb565b5b828202905092915050565b60006110488261105b565b9050919050565b60008115159050919050565b600073ffffffffffffffffffffffffffffffffffffffff82169050919050565b6000819050919050565b600061109082611097565b9050919050565b60006110a2826110a9565b9050919050565b60006110b48261105b565b9050919050565b7f4e487b7100000000000000000000000000000000000000000000000000000000600052601160045260246000fd5b7f4e487b7100000000000000000000000000000000000000000000000000000000600052601260045260246000fd5b7f4f776e61626c653a206e6577206f776e657220697320746865207a65726f206160008201527f6464726573730000000000000000000000000000000000000000000000000000602082015250565b7f4f776e61626c653a2063616c6c6572206973206e6f7420746865206f776e6572600082015250565b61119a8161103d565b81146111a557600080fd5b50565b6111b18161107b565b81146111bc57600080fd5b5056fea26469706673582212209ad0767f92da5a9c59f41533e8207557d8ed5380bb093961f52ac3cc906b43a464736f6c63430008010033",
  "immutableReferences": {},
  "source": "// SPDX-License-Identifier: MIT\npragma solidity >=0.4.22 <0.9.0;\n\nimport \"@openzeppelin/contracts/access/Ownable.sol\";\n\ncontract FixedTermDesposite is Ownable {\n    address payable owner_address;\n    uint256 deadline;\n    uint256 pct;\t\t\t\t// Payment for Deposite\n    uint256 numberOfdays;\t\t// Payment can be withdrawn after X days.\n\n\tmapping(address => uint256) nOfDeposites; // Your Deposite ID\n\tmapping(uint256 => mapping(address => uint256)) depositeAmount;\n\tmapping(uint256 => mapping(address => address)) depositeOwner;\n\tmapping(uint256 => mapping(address => uint256)) depositeDeadline;\n\n\tevent DepositeMade(address indexed who, uint256 amount, uint256 id);\n\tevent FundsRemoved(address indexed who, uint256 amount, uint256 id);\n\tevent ReceivedFunds(address sender, uint256 value);\n\tevent Withdrawn(address to, uint256 amount);\n\n\tconstructor(uint256 _pct) {\n        owner_address = payable(msg.sender);\n\t\tpct  = _pct; // 1000000 times the yearly percentage rate\n\t\tnumberOfdays = 365;\n\t}\n\n\t/**\n\t * @dev Create a new deposite for 1 year.\n\t */\n    function depositCertificate(uint256 _amount) public payable returns ( uint256 ) {\n        require(msg.value == _amount);\n\t\tuint256 id = nOfDeposites[msg.sender];\n\t\tid = id + 1;\n\t\tnOfDeposites[msg.sender] = id;\n\t\tdepositeAmount[id][msg.sender] = _amount;\n\t \tdepositeOwner[id][msg.sender] = msg.sender;\n\t\tdepositeDeadline[id][msg.sender] = block.timestamp + ( numberOfdays * 1 days);\n\t\temit DepositeMade( msg.sender, _amount, id);\n\t\treturn id;\n    }\n\n\t/**\n\t * @dev Allow funds to be withdrawn at end of term.\n\t */\n    function withdrawCertificate(uint256 _id) public {\n\t\tuint256 id;\n        id = nOfDeposites[msg.sender];\n        require(id >= _id && _id > 0);\t// check that _id is in range.\n\n\t\taddress theOwner;\n        theOwner = depositeOwner[_id][msg.sender];\n        require(theOwner == msg.sender);\t\t\t\t\t// You are the owner.\n        require(block.timestamp >= depositeDeadline[_id][msg.sender]); \t// You'r deposite has reached term date.\n\n\t\tuint256 amount;\n\t\tamount = depositeAmount[_id][msg.sender];\n\t\tamount = amount + ( ( amount * pct ) / 1000000 );\t// Pay the interest\n\t\tdepositeAmount[_id][msg.sender] = 0;\t\t\t\t// 0 left after withdrawl\n\n\t\taddress payable to;\n\t\tto = payable(theOwner);\t\t\t\t\t\t\t\t// convert type to payable\n\n        to.transfer(amount);\t\t\t\t\t\t\t\t// send them the $ plus interest\n\t\temit DepositeMade( msg.sender, amount, _id);\n    }\n\n\t// -------------------------------------------------------------------------------------------------------\n\n\t/**\n\t * @dev payable fallback.  The fallback function is called when no other function \n\t * matches (if the receive ether function does not exist then this includes calls \n\t * with empty call data). You can make this function payable or not.  If it is not \n\t * payable then transactions not matching any other function which send value will\n\t * revert. \n\t */\n\tfallback() external payable {\n\t\temit ReceivedFunds(msg.sender, msg.value);\n\t}\n\n\t/**\n\t * @dev payable receive.  The receive ether function is called whenever the call data\n\t *      is empty (whether or not ether is received). This function is implicitly payable.\n\t */\n\treceive() external payable {\n\t\temit ReceivedFunds(msg.sender, msg.value);\n    }\n\n\t/**\n\t * @dev genReceiveFunds - generate a receive funds event.\n\t */\n\tfunction genReceivedFunds () public payable {\n\t\temit ReceivedFunds(msg.sender, msg.value);\n\t}\n\n\t/**\n\t * @dev Withdraw contract value amount.\n\t */\n\tfunction withdraw( uint256 amount ) public onlyOwner returns(bool) {\n\t\tpayable(owner_address).transfer(amount);\n\t\t// owner_address.send(amount);\n\t\temit Withdrawn(owner_address, amount);\n\t\treturn true;\n\t}\n\n\t/**\n\t * @dev How much do I got?\n\t */\n\tfunction getBalanceContract() public view onlyOwner returns(uint256){\n\t\treturn address(this).balance;\n\t}\n\n\t/**\n\t * @dev For futute to end the contract, take the value.\n\t */\n\tfunction kill() public onlyOwner {\n\t\temit Withdrawn(owner_address, address(this).balance);\n\t\tselfdestruct(owner_address);\n\t}\n}\n",
  "sourcePath": "/Users/philip/go/src/github.com/Univ-Wyo-Education/S22-4010/class/lect/25/eth/contracts/FixedTermDeposite.sol",
  "compiler": {
    "name": "solc",
    "version": "0.8.1+commit.df193b15.Emscripten.clang"
  },
  "schemaVersion": "3.4.5",
  "updatedAt": "2022-03-25T12:53:28.444Z",
  "devdoc": {
    "kind": "dev",
    "methods": {
      "depositCertificate(uint256)": {
        "details": "Create a new deposite for 1 year."
      },
      "genReceivedFunds()": {
        "details": "genReceiveFunds - generate a receive funds event."
      },
      "getBalanceContract()": {
        "details": "How much do I got?"
      },
      "kill()": {
        "details": "For futute to end the contract, take the value."
      },
      "owner()": {
        "details": "Returns the address of the current owner."
      },
      "renounceOwnership()": {
        "details": "Leaves the contract without owner. It will not be possible to call `onlyOwner` functions anymore. Can only be called by the current owner. NOTE: Renouncing ownership will leave the contract without an owner, thereby removing any functionality that is only available to the owner."
      },
      "transferOwnership(address)": {
        "details": "Transfers ownership of the contract to a new account (`newOwner`). Can only be called by the current owner."
      },
      "withdraw(uint256)": {
        "details": "Withdraw contract value amount."
      },
      "withdrawCertificate(uint256)": {
        "details": "Allow funds to be withdrawn at end of term."
      }
    },
    "version": 1
  },
  "userdoc": {
    "kind": "user",
    "methods": {},
    "version": 1
  }
}