{
  "contractName": "KVPair",
  "abi": [
    {
      "inputs": [],
      "stateMutability": "nonpayable",
      "type": "constructor"
    },
    {
      "anonymous": false,
      "inputs": [
        {
          "indexed": false,
          "internalType": "bytes32",
          "name": "key",
          "type": "bytes32"
        },
        {
          "indexed": false,
          "internalType": "bytes32",
          "name": "value",
          "type": "bytes32"
        }
      ],
      "name": "SetKVEvent",
      "type": "event"
    },
    {
      "inputs": [
        {
          "internalType": "bytes32",
          "name": "",
          "type": "bytes32"
        }
      ],
      "name": "theData",
      "outputs": [
        {
          "internalType": "bytes32",
          "name": "",
          "type": "bytes32"
        }
      ],
      "stateMutability": "view",
      "type": "function",
      "constant": true
    },
    {
      "inputs": [
        {
          "internalType": "bytes32",
          "name": "key",
          "type": "bytes32"
        },
        {
          "internalType": "bytes32",
          "name": "value",
          "type": "bytes32"
        }
      ],
      "name": "setKVPari",
      "outputs": [],
      "stateMutability": "nonpayable",
      "type": "function"
    }
  ],
  "bytecode": "0x608060405234801561001057600080fd5b50610217806100206000396000f3fe608060405234801561001057600080fd5b50600436106100365760003560e01c80639867b5cc1461003b5780639e1f9e481461006b575b600080fd5b61005560048036038101906100509190610108565b610087565b604051610062919061017c565b60405180910390f35b61008560048036038101906100809190610131565b61009f565b005b60006020528060005260406000206000915090505481565b80600080848152602001908152602001600020819055507f4bc1daeb3fe3368b8a1eadeaa84715cd83301811695688bbf566fba1034bbc7882826040516100e7929190610197565b60405180910390a15050565b600081359050610102816101ca565b92915050565b60006020828403121561011a57600080fd5b6000610128848285016100f3565b91505092915050565b6000806040838503121561014457600080fd5b6000610152858286016100f3565b9250506020610163858286016100f3565b9150509250929050565b610176816101c0565b82525050565b6000602082019050610191600083018461016d565b92915050565b60006040820190506101ac600083018561016d565b6101b9602083018461016d565b9392505050565b6000819050919050565b6101d3816101c0565b81146101de57600080fd5b5056fea2646970667358221220bfbf1ba0dd9614b6973c62a5c57756782e2fee359ab957e1ccd4953664b1980864736f6c63430008010033",
  "immutableReferences": {},
  "source": "// SPDX-License-Identifier: MIT\npragma solidity >=0.4.24 <0.9.0;\n\ncontract KVPair {\n\n\tevent SetKVEvent(bytes32 key, bytes32 value);\n\n\tmapping (bytes32 => bytes32) public theData;\n\n\tconstructor() { }\n\n\tfunction setKVPari(bytes32 key, bytes32 value) external {\n\t\ttheData[key] = value;\n\t\temit SetKVEvent(key, value);\n\t}\n\n}\n",
  "sourcePath": "/Users/philip/go/src/github.com/Univ-Wyo-Education/S22-4010/class/lect/37/eth/contracts/KVPair.sol",
  "compiler": {
    "name": "solc",
    "version": "0.8.1+commit.df193b15.Emscripten.clang"
  },
  "schemaVersion": "3.4.5",
  "updatedAt": "2022-04-22T14:10:22.311Z",
  "networkType": "ethereum",
  "devdoc": {
    "kind": "dev",
    "methods": {},
    "version": 1
  },
  "userdoc": {
    "kind": "user",
    "methods": {},
    "version": 1
  }
}