{
  "contractName": "Simple777Recipient",
  "abi": [
    {
      "inputs": [
        {
          "internalType": "address",
          "name": "token",
          "type": "address"
        }
      ],
      "stateMutability": "nonpayable",
      "type": "constructor"
    },
    {
      "anonymous": false,
      "inputs": [
        {
          "indexed": false,
          "internalType": "address",
          "name": "operator",
          "type": "address"
        },
        {
          "indexed": false,
          "internalType": "address",
          "name": "from",
          "type": "address"
        },
        {
          "indexed": false,
          "internalType": "address",
          "name": "to",
          "type": "address"
        },
        {
          "indexed": false,
          "internalType": "uint256",
          "name": "amount",
          "type": "uint256"
        },
        {
          "indexed": false,
          "internalType": "bytes",
          "name": "userData",
          "type": "bytes"
        },
        {
          "indexed": false,
          "internalType": "bytes",
          "name": "operatorData",
          "type": "bytes"
        }
      ],
      "name": "DoneStuff",
      "type": "event"
    },
    {
      "inputs": [
        {
          "internalType": "address",
          "name": "operator",
          "type": "address"
        },
        {
          "internalType": "address",
          "name": "from",
          "type": "address"
        },
        {
          "internalType": "address",
          "name": "to",
          "type": "address"
        },
        {
          "internalType": "uint256",
          "name": "amount",
          "type": "uint256"
        },
        {
          "internalType": "bytes",
          "name": "userData",
          "type": "bytes"
        },
        {
          "internalType": "bytes",
          "name": "operatorData",
          "type": "bytes"
        }
      ],
      "name": "tokensReceived",
      "outputs": [],
      "stateMutability": "nonpayable",
      "type": "function"
    }
  ],
  "bytecode": "0x6080604052731820a4b7618bde71dce8cdc73aab6c95905fad246000806101000a81548173ffffffffffffffffffffffffffffffffffffffff021916908373ffffffffffffffffffffffffffffffffffffffff16021790555034801561006457600080fd5b5060405161070438038061070483398181016040528101906100869190610191565b80600160006101000a81548173ffffffffffffffffffffffffffffffffffffffff021916908373ffffffffffffffffffffffffffffffffffffffff16021790555060008054906101000a900473ffffffffffffffffffffffffffffffffffffffff1673ffffffffffffffffffffffffffffffffffffffff166329965a1d307fb281fc8c12954d22544db45de3159a39272895b169a852b314f9cc762e44c53b306040518463ffffffff1660e01b8152600401610144939291906101d8565b600060405180830381600087803b15801561015e57600080fd5b505af1158015610172573d6000803e3d6000fd5b5050505050610262565b60008151905061018b8161024b565b92915050565b6000602082840312156101a357600080fd5b60006101b18482850161017c565b91505092915050565b6101c38161020f565b82525050565b6101d281610221565b82525050565b60006060820190506101ed60008301866101ba565b6101fa60208301856101c9565b61020760408301846101ba565b949350505050565b600061021a8261022b565b9050919050565b6000819050919050565b600073ffffffffffffffffffffffffffffffffffffffff82169050919050565b6102548161020f565b811461025f57600080fd5b50565b610493806102716000396000f3fe608060405234801561001057600080fd5b506004361061002a5760003560e01c806223de291461002f575b600080fd5b6100496004803603810190610044919061019e565b61004b565b005b600160009054906101000a900473ffffffffffffffffffffffffffffffffffffffff1673ffffffffffffffffffffffffffffffffffffffff163373ffffffffffffffffffffffffffffffffffffffff16146100db576040517f08c379a00000000000000000000000000000000000000000000000000000000081526004016100d290610342565b60405180910390fd5b7fa0a5a35754b3519ae614f00422ac62a6bc4608ccb722963aab00cb48c588ad7288888888888888886040516101189897969594939291906102cf565b60405180910390a15050505050505050565b6000813590506101398161042f565b92915050565b60008083601f84011261015157600080fd5b8235905067ffffffffffffffff81111561016a57600080fd5b60208301915083600182028301111561018257600080fd5b9250929050565b60008135905061019881610446565b92915050565b60008060008060008060008060c0898b0312156101ba57600080fd5b60006101c88b828c0161012a565b98505060206101d98b828c0161012a565b97505060406101ea8b828c0161012a565b96505060606101fb8b828c01610189565b955050608089013567ffffffffffffffff81111561021857600080fd5b6102248b828c0161013f565b945094505060a089013567ffffffffffffffff81111561024357600080fd5b61024f8b828c0161013f565b92509250509295985092959890939650565b61026a81610384565b82525050565b600061027c8385610362565b93506102898385846103c0565b610292836103cf565b840190509392505050565b60006102aa602183610373565b91506102b5826103e0565b604082019050919050565b6102c9816103b6565b82525050565b600060c0820190506102e4600083018b610261565b6102f1602083018a610261565b6102fe6040830189610261565b61030b60608301886102c0565b818103608083015261031e818688610270565b905081810360a0830152610333818486610270565b90509998505050505050505050565b6000602082019050818103600083015261035b8161029d565b9050919050565b600082825260208201905092915050565b600082825260208201905092915050565b600061038f82610396565b9050919050565b600073ffffffffffffffffffffffffffffffffffffffff82169050919050565b6000819050919050565b82818337600083830152505050565b6000601f19601f8301169050919050565b7f53696d706c65373737526563697069656e743a20496e76616c696420746f6b6560008201527f6e00000000000000000000000000000000000000000000000000000000000000602082015250565b61043881610384565b811461044357600080fd5b50565b61044f816103b6565b811461045a57600080fd5b5056fea2646970667358221220c7177a07ed67511f071d3adf2305e619d6e838bac7b5a975789f5e5a34486ed764736f6c63430008010033",
  "immutableReferences": {},
  "source": "// SPDX-License-Identifier: MIT\npragma solidity >=0.4.22 <0.9.0;\n\nimport \"@openzeppelin/contracts/token/ERC777/IERC777.sol\";\nimport \"@openzeppelin/contracts/utils/introspection/IERC1820Registry.sol\";\nimport \"@openzeppelin/contracts/token/ERC777/IERC777Recipient.sol\";\n\n/**\n * @title Simple777Recipient\n * @dev Very simple ERC777 Recipient\n */\ncontract Simple777Recipient is IERC777Recipient {\n\n    IERC1820Registry private _erc1820 = IERC1820Registry(0x1820a4B7618BdE71Dce8cdc73aAB6C95905faD24);\n    bytes32 constant private TOKENS_RECIPIENT_INTERFACE_HASH = keccak256(\"ERC777TokensRecipient\");\n\n    IERC777 private _token;\n\n    event DoneStuff(address operator, address from, address to, uint256 amount, bytes userData, bytes operatorData);\n\n    constructor (address token) {\n        _token = IERC777(token);\n\n        _erc1820.setInterfaceImplementer(address(this), TOKENS_RECIPIENT_INTERFACE_HASH, address(this));\n    }\n\n    function tokensReceived(\n        address operator,\n        address from,\n        address to,\n        uint256 amount,\n        bytes calldata userData,\n        bytes calldata operatorData\n    ) external override {\n        require(msg.sender == address(_token), \"Simple777Recipient: Invalid token\");\n\n        // do stuff\n        emit DoneStuff(operator, from, to, amount, userData, operatorData);\n    }\n}\n",
  "sourcePath": "/Users/philip/go/src/github.com/Univ-Wyo-Education/S22-4010/class/lect/37/eth/contracts/Simple777Recipient.sol",
  "compiler": {
    "name": "solc",
    "version": "0.8.1+commit.df193b15.Emscripten.clang"
  },
  "schemaVersion": "3.4.5",
  "updatedAt": "2022-04-22T14:10:25.544Z",
  "networkType": "ethereum",
  "devdoc": {
    "details": "Very simple ERC777 Recipient",
    "kind": "dev",
    "methods": {
      "tokensReceived(address,address,address,uint256,bytes,bytes)": {
        "details": "Called by an {IERC777} token contract whenever tokens are being moved or created into a registered account (`to`). The type of operation is conveyed by `from` being the zero address or not. This call occurs _after_ the token contract's state is updated, so {IERC777-balanceOf}, etc., can be used to query the post-operation state. This function may revert to prevent the operation from being executed."
      }
    },
    "title": "Simple777Recipient",
    "version": 1
  },
  "userdoc": {
    "kind": "user",
    "methods": {},
    "version": 1
  }
}