{
  "contractName": "Callee",
  "abi": [
    {
      "inputs": [],
      "name": "value",
      "outputs": [
        {
          "internalType": "uint256",
          "name": "",
          "type": "uint256"
        }
      ],
      "stateMutability": "view",
      "type": "function",
      "constant": true
    },
    {
      "inputs": [],
      "name": "x",
      "outputs": [
        {
          "internalType": "uint256",
          "name": "",
          "type": "uint256"
        }
      ],
      "stateMutability": "view",
      "type": "function",
      "constant": true
    },
    {
      "inputs": [
        {
          "internalType": "uint256",
          "name": "_x",
          "type": "uint256"
        }
      ],
      "name": "setX",
      "outputs": [
        {
          "internalType": "uint256",
          "name": "",
          "type": "uint256"
        }
      ],
      "stateMutability": "nonpayable",
      "type": "function"
    },
    {
      "inputs": [
        {
          "internalType": "uint256",
          "name": "",
          "type": "uint256"
        }
      ],
      "name": "setXandSendEther",
      "outputs": [
        {
          "internalType": "uint256",
          "name": "",
          "type": "uint256"
        }
      ],
      "stateMutability": "payable",
      "type": "function",
      "payable": true
    }
  ],
  "bytecode": "0x608060405234801561001057600080fd5b506101f8806100206000396000f3fe60806040526004361061003f5760003560e01c80630c55699c146100445780633fa4f2451461006f5780634018d9aa1461009a578063cdc23076146100d7575b600080fd5b34801561005057600080fd5b50610059610107565b6040516100669190610186565b60405180910390f35b34801561007b57600080fd5b5061008461010d565b6040516100919190610186565b60405180910390f35b3480156100a657600080fd5b506100c160048036038101906100bc919061014e565b610113565b6040516100ce9190610186565b60405180910390f35b6100f160048036038101906100ec919061014e565b610126565b6040516100fe9190610186565b60405180910390f35b60005481565b60015481565b6000816000819055506000549050919050565b6000346000819055506000549050919050565b600081359050610148816101ab565b92915050565b60006020828403121561016057600080fd5b600061016e84828501610139565b91505092915050565b610180816101a1565b82525050565b600060208201905061019b6000830184610177565b92915050565b6000819050919050565b6101b4816101a1565b81146101bf57600080fd5b5056fea2646970667358221220ef670ea704660bd56aa3523a306a1b560b6c796bbcf62d26b0c969867dc894ad64736f6c63430008010033",
  "immutableReferences": {},
  "source": "// SPDX-License-Identifier: MIT\npragma solidity >=0.4.22 <0.9.0;\n\n// This is the contract that will get called.\n// Migration file is ../migration/4_calldemo.js\n\ncontract Callee {\n    uint public x;\n    uint public value;\n\n    function setX(uint _x) public returns (uint) {\n        x = _x;\n        return x;\n    }\n\n    function setXandSendEther(uint) public payable returns (uint256) {\n        x = msg.value;\n        return x;\n    }\n}\n\n",
  "sourcePath": "/Users/philip/go/src/github.com/Univ-Wyo-Education/S22-4010/class/lect/33/eth/contracts/callee.sol",
  "compiler": {
    "name": "solc",
    "version": "0.8.1+commit.df193b15.Emscripten.clang"
  },
  "schemaVersion": "3.4.5",
  "updatedAt": "2022-04-28T01:45:57.385Z",
  "networkType": "ethereum",
  "devdoc": {
    "kind": "dev",
    "methods": {},
    "version": 1
  },
  "userdoc": {
    "kind": "user",
    "methods": {},
    "version": 1
  }
}