{
  "contractName": "Caller",
  "abi": [
    {
      "inputs": [
        {
          "internalType": "address",
          "name": "_address_for_contrct",
          "type": "address"
        }
      ],
      "stateMutability": "nonpayable",
      "type": "constructor"
    },
    {
      "inputs": [
        {
          "internalType": "uint256",
          "name": "_x",
          "type": "uint256"
        }
      ],
      "name": "setXFromAddress",
      "outputs": [],
      "stateMutability": "nonpayable",
      "type": "function"
    },
    {
      "inputs": [
        {
          "internalType": "uint256",
          "name": "_x",
          "type": "uint256"
        }
      ],
      "name": "setXandSendEther",
      "outputs": [
        {
          "internalType": "uint256",
          "name": "",
          "type": "uint256"
        }
      ],
      "stateMutability": "payable",
      "type": "function"
    }
  ],
  "bytecode": "0x608060405234801561001057600080fd5b506040516104083803806104088339818101604052810190610032919061008d565b806000806101000a81548173ffffffffffffffffffffffffffffffffffffffff021916908373ffffffffffffffffffffffffffffffffffffffff160217905550506100ff565b600081519050610087816100e8565b92915050565b60006020828403121561009f57600080fd5b60006100ad84828501610078565b91505092915050565b60006100c1826100c8565b9050919050565b600073ffffffffffffffffffffffffffffffffffffffff82169050919050565b6100f1816100b6565b81146100fc57600080fd5b50565b6102fa8061010e6000396000f3fe6080604052600436106100295760003560e01c8063859d0de91461002e578063cdc2307614610057575b600080fd5b34801561003a57600080fd5b5061005560048036038101906100509190610227565b610087565b005b610071600480360381019061006c9190610227565b61013d565b60405161007e9190610288565b60405180910390f35b60008060009054906101000a900473ffffffffffffffffffffffffffffffffffffffff1690508073ffffffffffffffffffffffffffffffffffffffff16634018d9aa836040518263ffffffff1660e01b81526004016100e69190610288565b602060405180830381600087803b15801561010057600080fd5b505af1158015610114573d6000803e3d6000fd5b505050506040513d601f19601f820116820180604052508101906101389190610250565b505050565b60008060008054906101000a900473ffffffffffffffffffffffffffffffffffffffff16905060008173ffffffffffffffffffffffffffffffffffffffff1663cdc2307634866040518363ffffffff1660e01b815260040161019f9190610288565b6020604051808303818588803b1580156101b857600080fd5b505af11580156101cc573d6000803e3d6000fd5b50505050506040513d601f19601f820116820180604052508101906101f19190610250565b90508092505050919050565b60008135905061020c816102ad565b92915050565b600081519050610221816102ad565b92915050565b60006020828403121561023957600080fd5b6000610247848285016101fd565b91505092915050565b60006020828403121561026257600080fd5b600061027084828501610212565b91505092915050565b610282816102a3565b82525050565b600060208201905061029d6000830184610279565b92915050565b6000819050919050565b6102b6816102a3565b81146102c157600080fd5b5056fea2646970667358221220b3f9acb444087b728558152a1f23f9b4b63bf73e5d16cb5b3663501b3ab4157664736f6c63430008010033",
  "immutableReferences": {},
  "source": "// SPDX-License-Identifier: MIT\npragma solidity >=0.4.22 <0.9.0;\n\n// This is the contract that will do the calling.\n// Note the constructor\n// Migration file is ../migration/4_calldemo.js\n\nimport \"./Callee.sol\";\n\ncontract Caller {\n\taddress _callee;\n\n\tconstructor ( address _address_for_contrct ) {\n\t\t_callee = _address_for_contrct ;\n\t}\n\n    function setXFromAddress(uint _x) public {\n        Callee callee = Callee(_callee);\n        callee.setX(_x);\n    }\n\n    function setXandSendEther(uint _x) public payable returns ( uint256 ) {\n        Callee callee = Callee(_callee);\n        uint256 x = callee.setXandSendEther{value: msg.value}(_x);\n\t\treturn x;\n    }\n}\n",
  "sourcePath": "/Users/philip/go/src/github.com/Univ-Wyo-Education/S22-4010/class/lect/33/eth/contracts/caller.sol",
  "compiler": {
    "name": "solc",
    "version": "0.8.1+commit.df193b15.Emscripten.clang"
  },
  "schemaVersion": "3.4.5",
  "updatedAt": "2022-04-28T01:45:57.387Z",
  "networkType": "ethereum",
  "devdoc": {
    "kind": "dev",
    "methods": {},
    "version": 1
  },
  "userdoc": {
    "kind": "user",
    "methods": {},
    "version": 1
  }
}