{
  "contractName": "SavedMessage",
  "abi": [
    {
      "inputs": [],
      "stateMutability": "nonpayable",
      "type": "constructor"
    },
    {
      "inputs": [],
      "name": "currentMessage",
      "outputs": [
        {
          "internalType": "string",
          "name": "",
          "type": "string"
        }
      ],
      "stateMutability": "view",
      "type": "function"
    },
    {
      "inputs": [],
      "name": "getCurrentMessageTxt",
      "outputs": [
        {
          "internalType": "string",
          "name": "",
          "type": "string"
        }
      ],
      "stateMutability": "view",
      "type": "function"
    },
    {
      "inputs": [
        {
          "internalType": "string",
          "name": "_msg",
          "type": "string"
        }
      ],
      "name": "setCurrentMessageTxt",
      "outputs": [],
      "stateMutability": "nonpayable",
      "type": "function"
    }
  ],
  "bytecode": "0x60806040526040518060400160405280601a81526020017f48656c6c6f20576f726c642c2066726f6d20457468657265756d0000000000008152506000908051906020019061004f929190610062565b5034801561005c57600080fd5b50610166565b82805461006e90610105565b90600052602060002090601f01602090048101928261009057600085556100d7565b82601f106100a957805160ff19168380011785556100d7565b828001600101855582156100d7579182015b828111156100d65782518255916020019190600101906100bb565b5b5090506100e491906100e8565b5090565b5b808211156101015760008160009055506001016100e9565b5090565b6000600282049050600182168061011d57607f821691505b6020821081141561013157610130610137565b5b50919050565b7f4e487b7100000000000000000000000000000000000000000000000000000000600052602260045260246000fd5b610458806101756000396000f3fe608060405234801561001057600080fd5b50600436106100415760003560e01c806373023fc114610046578063d9203db614610064578063ea295e9614610082575b600080fd5b61004e61009e565b60405161005b919061033f565b60405180910390f35b61006c610130565b604051610079919061033f565b60405180910390f35b61009c600480360381019061009791906102c1565b6101be565b005b6060600080546100ad906103b0565b80601f01602080910402602001604051908101604052809291908181526020018280546100d9906103b0565b80156101265780601f106100fb57610100808354040283529160200191610126565b820191906000526020600020905b81548152906001019060200180831161010957829003601f168201915b5050505050905090565b6000805461013d906103b0565b80601f0160208091040260200160405190810160405280929190818152602001828054610169906103b0565b80156101b65780601f1061018b576101008083540402835291602001916101b6565b820191906000526020600020905b81548152906001019060200180831161019957829003601f168201915b505050505081565b8181600091906101cf9291906101d4565b505050565b8280546101e0906103b0565b90600052602060002090601f0160209004810192826102025760008555610249565b82601f1061021b57803560ff1916838001178555610249565b82800160010185558215610249579182015b8281111561024857823582559160200191906001019061022d565b5b509050610256919061025a565b5090565b5b8082111561027357600081600090555060010161025b565b5090565b60008083601f84011261028957600080fd5b8235905067ffffffffffffffff8111156102a257600080fd5b6020830191508360018202830111156102ba57600080fd5b9250929050565b600080602083850312156102d457600080fd5b600083013567ffffffffffffffff8111156102ee57600080fd5b6102fa85828601610277565b92509250509250929050565b600061031182610361565b61031b818561036c565b935061032b81856020860161037d565b61033481610411565b840191505092915050565b600060208201905081810360008301526103598184610306565b905092915050565b600081519050919050565b600082825260208201905092915050565b60005b8381101561039b578082015181840152602081019050610380565b838111156103aa576000848401525b50505050565b600060028204905060018216806103c857607f821691505b602082108114156103dc576103db6103e2565b5b50919050565b7f4e487b7100000000000000000000000000000000000000000000000000000000600052602260045260246000fd5b6000601f19601f830116905091905056fea2646970667358221220432208c6a1dd3829c0e3a786100c24584e4e4d44b78b70b45a0fcceeb3484d1a64736f6c63430008010033",
  "immutableReferences": {},
  "source": "// SPDX-License-Identifier: MIT\npragma solidity >=0.4.22 <0.9.0;\n\ncontract SavedMessage {\n\tstring public currentMessage = \"Hello World, from Ethereum\";\n\n\tconstructor() {\n\t}\n\n\tfunction getCurrentMessageTxt() external view returns (string memory) {\n\t\treturn currentMessage;\n\t}\n\n\tfunction setCurrentMessageTxt(string calldata _msg) external {\n\t\tcurrentMessage = _msg;\n\t}\n}\n",
  "sourcePath": "/Users/philip/go/src/github.com/Univ-Wyo-Education/S22-4010/class/lect/33/eth/contracts/SavedMessage.sol",
  "compiler": {
    "name": "solc",
    "version": "0.8.1+commit.df193b15.Emscripten.clang"
  },
  "schemaVersion": "3.4.5",
  "updatedAt": "2022-04-13T15:29:26.592Z",
  "devdoc": {
    "kind": "dev",
    "methods": {},
    "version": 1
  },
  "userdoc": {
    "kind": "user",
    "methods": {},
    "version": 1
  }
}