{
  "contractName": "SignData",
  "abi": [
    {
      "inputs": [],
      "stateMutability": "nonpayable",
      "type": "constructor"
    },
    {
      "anonymous": false,
      "inputs": [
        {
          "indexed": false,
          "internalType": "uint256",
          "name": "App",
          "type": "uint256"
        },
        {
          "indexed": false,
          "internalType": "uint256",
          "name": "Name",
          "type": "uint256"
        },
        {
          "indexed": false,
          "internalType": "bytes32",
          "name": "Value",
          "type": "bytes32"
        },
        {
          "indexed": false,
          "internalType": "address",
          "name": "By",
          "type": "address"
        }
      ],
      "name": "DataChange",
      "type": "event"
    },
    {
      "anonymous": false,
      "inputs": [
        {
          "indexed": true,
          "internalType": "address",
          "name": "previousOwner",
          "type": "address"
        },
        {
          "indexed": true,
          "internalType": "address",
          "name": "newOwner",
          "type": "address"
        }
      ],
      "name": "OwnershipTransferred",
      "type": "event"
    },
    {
      "anonymous": false,
      "inputs": [
        {
          "indexed": false,
          "internalType": "address",
          "name": "sender",
          "type": "address"
        },
        {
          "indexed": false,
          "internalType": "uint256",
          "name": "value",
          "type": "uint256"
        },
        {
          "indexed": false,
          "internalType": "uint256",
          "name": "application",
          "type": "uint256"
        },
        {
          "indexed": false,
          "internalType": "uint256",
          "name": "payFor",
          "type": "uint256"
        }
      ],
      "name": "ReceivedFunds",
      "type": "event"
    },
    {
      "anonymous": false,
      "inputs": [
        {
          "indexed": false,
          "internalType": "address",
          "name": "to",
          "type": "address"
        },
        {
          "indexed": false,
          "internalType": "uint256",
          "name": "amount",
          "type": "uint256"
        }
      ],
      "name": "Withdrawn",
      "type": "event"
    },
    {
      "stateMutability": "payable",
      "type": "fallback"
    },
    {
      "inputs": [],
      "name": "owner",
      "outputs": [
        {
          "internalType": "address",
          "name": "",
          "type": "address"
        }
      ],
      "stateMutability": "view",
      "type": "function"
    },
    {
      "inputs": [],
      "name": "renounceOwnership",
      "outputs": [],
      "stateMutability": "nonpayable",
      "type": "function"
    },
    {
      "inputs": [
        {
          "internalType": "address",
          "name": "newOwner",
          "type": "address"
        }
      ],
      "name": "transferOwnership",
      "outputs": [],
      "stateMutability": "nonpayable",
      "type": "function"
    },
    {
      "stateMutability": "payable",
      "type": "receive"
    },
    {
      "inputs": [],
      "name": "init",
      "outputs": [],
      "stateMutability": "nonpayable",
      "type": "function"
    },
    {
      "inputs": [
        {
          "internalType": "uint256",
          "name": "_minPayment",
          "type": "uint256"
        }
      ],
      "name": "setMinPayment",
      "outputs": [],
      "stateMutability": "nonpayable",
      "type": "function"
    },
    {
      "inputs": [],
      "name": "getMinPayment",
      "outputs": [
        {
          "internalType": "uint256",
          "name": "",
          "type": "uint256"
        }
      ],
      "stateMutability": "view",
      "type": "function"
    },
    {
      "inputs": [
        {
          "internalType": "uint256",
          "name": "_app",
          "type": "uint256"
        },
        {
          "internalType": "uint256",
          "name": "_name",
          "type": "uint256"
        },
        {
          "internalType": "bytes32",
          "name": "_data",
          "type": "bytes32"
        }
      ],
      "name": "setHash",
      "outputs": [],
      "stateMutability": "payable",
      "type": "function"
    },
    {
      "inputs": [
        {
          "internalType": "uint256",
          "name": "_app",
          "type": "uint256"
        },
        {
          "internalType": "uint256",
          "name": "_name",
          "type": "uint256"
        },
        {
          "internalType": "bytes32",
          "name": "_data",
          "type": "bytes32"
        },
        {
          "internalType": "bool",
          "name": "_mayChange",
          "type": "bool"
        }
      ],
      "name": "createHash",
      "outputs": [],
      "stateMutability": "payable",
      "type": "function"
    },
    {
      "inputs": [
        {
          "internalType": "uint256",
          "name": "_app",
          "type": "uint256"
        },
        {
          "internalType": "uint256",
          "name": "_name",
          "type": "uint256"
        }
      ],
      "name": "getHash",
      "outputs": [
        {
          "internalType": "bytes32",
          "name": "",
          "type": "bytes32"
        },
        {
          "internalType": "uint256",
          "name": "",
          "type": "uint256"
        }
      ],
      "stateMutability": "view",
      "type": "function"
    },
    {
      "inputs": [
        {
          "internalType": "uint256",
          "name": "application",
          "type": "uint256"
        },
        {
          "internalType": "uint256",
          "name": "payFor",
          "type": "uint256"
        }
      ],
      "name": "genReceivedFunds",
      "outputs": [],
      "stateMutability": "payable",
      "type": "function"
    },
    {
      "inputs": [
        {
          "internalType": "uint256",
          "name": "amount",
          "type": "uint256"
        }
      ],
      "name": "withdraw",
      "outputs": [
        {
          "internalType": "bool",
          "name": "",
          "type": "bool"
        }
      ],
      "stateMutability": "nonpayable",
      "type": "function"
    },
    {
      "inputs": [],
      "name": "getBalanceContract",
      "outputs": [
        {
          "internalType": "uint256",
          "name": "",
          "type": "uint256"
        }
      ],
      "stateMutability": "view",
      "type": "function"
    },
    {
      "inputs": [],
      "name": "kill",
      "outputs": [],
      "stateMutability": "nonpayable",
      "type": "function"
    }
  ],
  "bytecode": "0x608060405234801561001057600080fd5b5061002d61002261007c60201b60201c565b61008460201b60201c565b33600160006101000a81548173ffffffffffffffffffffffffffffffffffffffff021916908373ffffffffffffffffffffffffffffffffffffffff1602179055506103e8600281905550610148565b600033905090565b60008060009054906101000a900473ffffffffffffffffffffffffffffffffffffffff169050816000806101000a81548173ffffffffffffffffffffffffffffffffffffffff021916908373ffffffffffffffffffffffffffffffffffffffff1602179055508173ffffffffffffffffffffffffffffffffffffffff168173ffffffffffffffffffffffffffffffffffffffff167f8be0079c531659141344cd1fd0a4f28419497f9722a3daafe3b4186f6b6457e060405160405180910390a35050565b611a78806101576000396000f3fe6080604052600436106100c65760003560e01c806377a890cd1161007f578063e1c7392a11610059578063e1c7392a146102bc578063e3190594146102d3578063e9c0e27c146102ef578063f2fde38b1461030b5761010c565b806377a890cd1461024a5780638da5cb5b14610275578063be2b1636146102a05761010c565b80631b8550441461014d5780632e1a7d4d1461018b57806341c0e1b5146101c857806366bd78fd146101df5780636d427fa31461020a578063715018a6146102335761010c565b3661010c577f5f74095c3cf9cd2b4407992767113d77fc65cb2423a83ecc71977f3ace6b34f433346000600160405161010294939291906114af565b60405180910390a1005b7f5f74095c3cf9cd2b4407992767113d77fc65cb2423a83ecc71977f3ace6b34f433346000600160405161014394939291906114af565b60405180910390a1005b34801561015957600080fd5b50610174600480360381019061016f91906111b6565b610334565b604051610182929190611554565b60405180910390f35b34801561019757600080fd5b506101b260048036038101906101ad919061118d565b6103dc565b6040516101bf9190611539565b60405180910390f35b3480156101d457600080fd5b506101dd610527565b005b3480156101eb57600080fd5b506101f4610650565b60405161020191906116bd565b60405180910390f35b34801561021657600080fd5b50610231600480360381019061022c919061118d565b6106eb565b005b34801561023f57600080fd5b50610248610771565b005b34801561025657600080fd5b5061025f6107f9565b60405161026c91906116bd565b60405180910390f35b34801561028157600080fd5b5061028a61087f565b604051610297919061146b565b60405180910390f35b6102ba60048036038101906102b591906111b6565b6108a8565b005b3480156102c857600080fd5b506102d16108e9565b005b6102ed60048036038101906102e89190611241565b6108f4565b005b610309600480360381019061030491906111f2565b610c57565b005b34801561031757600080fd5b50610332600480360381019061032d9190611164565b610f4c565b005b600080600060066000868152602001908152602001600020600085815260200190815260200160002060009054906101000a900460ff16905080610385576000808160001b915092509250506103d5565b600360008681526020019081526020016000206000858152602001908152602001600020546007600087815260200190815260200160002060008681526020019081526020016000205492509250505b9250929050565b60006103e6611044565b73ffffffffffffffffffffffffffffffffffffffff1661040461087f565b73ffffffffffffffffffffffffffffffffffffffff161461045a576040517f08c379a0000000000000000000000000000000000000000000000000000000008152600401610451906115fd565b60405180910390fd5b600160009054906101000a900473ffffffffffffffffffffffffffffffffffffffff1673ffffffffffffffffffffffffffffffffffffffff166108fc839081150290604051600060405180830381858888f193505050501580156104c2573d6000803e3d6000fd5b507f7084f5476618d8e60b11ef0d7d3f06914655adb8793e28ff7f018d4c76d505d5600160009054906101000a900473ffffffffffffffffffffffffffffffffffffffff1683604051610516929190611486565b60405180910390a160019050919050565b61052f611044565b73ffffffffffffffffffffffffffffffffffffffff1661054d61087f565b73ffffffffffffffffffffffffffffffffffffffff16146105a3576040517f08c379a000000000000000000000000000000000000000000000000000000000815260040161059a906115fd565b60405180910390fd5b7f7084f5476618d8e60b11ef0d7d3f06914655adb8793e28ff7f018d4c76d505d5600160009054906101000a900473ffffffffffffffffffffffffffffffffffffffff163073ffffffffffffffffffffffffffffffffffffffff163160405161060d929190611486565b60405180910390a1600160009054906101000a900473ffffffffffffffffffffffffffffffffffffffff1673ffffffffffffffffffffffffffffffffffffffff16ff5b600061065a611044565b73ffffffffffffffffffffffffffffffffffffffff1661067861087f565b73ffffffffffffffffffffffffffffffffffffffff16146106ce576040517f08c379a00000000000000000000000000000000000000000000000000000000081526004016106c5906115fd565b60405180910390fd5b3073ffffffffffffffffffffffffffffffffffffffff1631905090565b6106f3611044565b73ffffffffffffffffffffffffffffffffffffffff1661071161087f565b73ffffffffffffffffffffffffffffffffffffffff1614610767576040517f08c379a000000000000000000000000000000000000000000000000000000000815260040161075e906115fd565b60405180910390fd5b8060028190555050565b610779611044565b73ffffffffffffffffffffffffffffffffffffffff1661079761087f565b73ffffffffffffffffffffffffffffffffffffffff16146107ed576040517f08c379a00000000000000000000000000000000000000000000000000000000081526004016107e4906115fd565b60405180910390fd5b6107f7600061104c565b565b6000610803611044565b73ffffffffffffffffffffffffffffffffffffffff1661082161087f565b73ffffffffffffffffffffffffffffffffffffffff1614610877576040517f08c379a000000000000000000000000000000000000000000000000000000000815260040161086e906115fd565b60405180910390fd5b600254905090565b60008060009054906101000a900473ffffffffffffffffffffffffffffffffffffffff16905090565b7f5f74095c3cf9cd2b4407992767113d77fc65cb2423a83ecc71977f3ace6b34f4333484846040516108dd94939291906114f4565b60405180910390a15050565b6103e8600281905550565b600254341015610939576040517f08c379a00000000000000000000000000000000000000000000000000000000081526004016109309061169d565b60405180910390fd5b600083141561097d576040517f08c379a00000000000000000000000000000000000000000000000000000000081526004016109749061163d565b60405180910390fd5b60008414156109c1576040517f08c379a00000000000000000000000000000000000000000000000000000000081526004016109b8906115dd565b60405180910390fd5b600073ffffffffffffffffffffffffffffffffffffffff163373ffffffffffffffffffffffffffffffffffffffff161415610a31576040517f08c379a0000000000000000000000000000000000000000000000000000000008152600401610a289061161d565b60405180910390fd5b600060066000868152602001908152602001600020600085815260200190815260200160002060009054906101000a900460ff1690508015610aa8576040517f08c379a0000000000000000000000000000000000000000000000000000000008152600401610a9f9061159d565b60405180910390fd5b3360046000878152602001908152602001600020600086815260200190815260200160002060006101000a81548173ffffffffffffffffffffffffffffffffffffffff021916908373ffffffffffffffffffffffffffffffffffffffff16021790555082600360008781526020019081526020016000206000868152602001908152602001600020819055508160056000878152602001908152602001600020600086815260200190815260200160002060006101000a81548160ff0219169083151502179055504260076000878152602001908152602001600020600086815260200190815260200160002081905550600160066000878152602001908152602001600020600086815260200190815260200160002060006101000a81548160ff0219169083151502179055507fc9bbb9d40eb6b265e9e7f7c2c367f761494e11148c80a704ed4a44184fe4313a85858533604051610c0b94939291906116d8565b60405180910390a17f5f74095c3cf9cd2b4407992767113d77fc65cb2423a83ecc71977f3ace6b34f433348787604051610c4894939291906114f4565b60405180910390a15050505050565b600254341015610c9c576040517f08c379a0000000000000000000000000000000000000000000000000000000008152600401610c939061169d565b60405180910390fd5b600060046000858152602001908152602001600020600084815260200190815260200160002060009054906101000a900473ffffffffffffffffffffffffffffffffffffffff169050600060056000868152602001908152602001600020600085815260200190815260200160002060009054906101000a900460ff1690503373ffffffffffffffffffffffffffffffffffffffff168273ffffffffffffffffffffffffffffffffffffffff16148015610d54575080155b15610d94576040517f08c379a0000000000000000000000000000000000000000000000000000000008152600401610d8b9061167d565b60405180910390fd5b3373ffffffffffffffffffffffffffffffffffffffff168273ffffffffffffffffffffffffffffffffffffffff1614610e02576040517f08c379a0000000000000000000000000000000000000000000000000000000008152600401610df99061165d565b60405180910390fd5b600060066000878152602001908152602001600020600086815260200190815260200160002060009054906101000a900460ff16905080610e78576040517f08c379a0000000000000000000000000000000000000000000000000000000008152600401610e6f906115bd565b60405180910390fd5b836003600088815260200190815260200160002060008781526020019081526020016000208190555042600760008881526020019081526020016000206000878152602001908152602001600020819055507fc9bbb9d40eb6b265e9e7f7c2c367f761494e11148c80a704ed4a44184fe4313a86868633604051610eff94939291906116d8565b60405180910390a17f5f74095c3cf9cd2b4407992767113d77fc65cb2423a83ecc71977f3ace6b34f433348888604051610f3c94939291906114f4565b60405180910390a1505050505050565b610f54611044565b73ffffffffffffffffffffffffffffffffffffffff16610f7261087f565b73ffffffffffffffffffffffffffffffffffffffff1614610fc8576040517f08c379a0000000000000000000000000000000000000000000000000000000008152600401610fbf906115fd565b60405180910390fd5b600073ffffffffffffffffffffffffffffffffffffffff168173ffffffffffffffffffffffffffffffffffffffff161415611038576040517f08c379a000000000000000000000000000000000000000000000000000000000815260040161102f9061157d565b60405180910390fd5b6110418161104c565b50565b600033905090565b60008060009054906101000a900473ffffffffffffffffffffffffffffffffffffffff169050816000806101000a81548173ffffffffffffffffffffffffffffffffffffffff021916908373ffffffffffffffffffffffffffffffffffffffff1602179055508173ffffffffffffffffffffffffffffffffffffffff168173ffffffffffffffffffffffffffffffffffffffff167f8be0079c531659141344cd1fd0a4f28419497f9722a3daafe3b4186f6b6457e060405160405180910390a35050565b60008135905061111f816119e6565b92915050565b600081359050611134816119fd565b92915050565b60008135905061114981611a14565b92915050565b60008135905061115e81611a2b565b92915050565b60006020828403121561117657600080fd5b600061118484828501611110565b91505092915050565b60006020828403121561119f57600080fd5b60006111ad8482850161114f565b91505092915050565b600080604083850312156111c957600080fd5b60006111d78582860161114f565b92505060206111e88582860161114f565b9150509250929050565b60008060006060848603121561120757600080fd5b60006112158682870161114f565b93505060206112268682870161114f565b92505060406112378682870161113a565b9150509250925092565b6000806000806080858703121561125757600080fd5b60006112658782880161114f565b94505060206112768782880161114f565b93505060406112878782880161113a565b925050606061129887828801611125565b91505092959194509250565b6112ad81611780565b82525050565b6112bc8161172e565b82525050565b6112cb81611740565b82525050565b6112da8161174c565b82525050565b6112e981611792565b82525050565b6112f8816117a4565b82525050565b600061130b60268361171d565b9150611316826117da565b604082019050919050565b600061132e602a8361171d565b915061133982611829565b604082019050919050565b6000611351600e8361171d565b915061135c82611878565b602082019050919050565b6000611374601c8361171d565b915061137f826118a1565b602082019050919050565b600061139760208361171d565b91506113a2826118ca565b602082019050919050565b60006113ba60128361171d565b91506113c5826118f3565b602082019050919050565b60006113dd601d8361171d565b91506113e88261191c565b602082019050919050565b600061140060128361171d565b915061140b82611945565b602082019050919050565b600061142360158361171d565b915061142e8261196e565b602082019050919050565b600061144660368361171d565b915061145182611997565b604082019050919050565b61146581611776565b82525050565b600060208201905061148060008301846112b3565b92915050565b600060408201905061149b60008301856112a4565b6114a8602083018461145c565b9392505050565b60006080820190506114c460008301876112b3565b6114d1602083018661145c565b6114de60408301856112e0565b6114eb60608301846112ef565b95945050505050565b600060808201905061150960008301876112b3565b611516602083018661145c565b611523604083018561145c565b611530606083018461145c565b95945050505050565b600060208201905061154e60008301846112c2565b92915050565b600060408201905061156960008301856112d1565b611576602083018461145c565b9392505050565b60006020820190508181036000830152611596816112fe565b9050919050565b600060208201905081810360008301526115b681611321565b9050919050565b600060208201905081810360008301526115d681611344565b9050919050565b600060208201905081810360008301526115f681611367565b9050919050565b600060208201905081810360008301526116168161138a565b9050919050565b60006020820190508181036000830152611636816113ad565b9050919050565b60006020820190508181036000830152611656816113d0565b9050919050565b60006020820190508181036000830152611676816113f3565b9050919050565b6000602082019050818103600083015261169681611416565b9050919050565b600060208201905081810360008301526116b681611439565b9050919050565b60006020820190506116d2600083018461145c565b92915050565b60006080820190506116ed600083018761145c565b6116fa602083018661145c565b61170760408301856112d1565b61171460608301846112b3565b95945050505050565b600082825260208201905092915050565b600061173982611756565b9050919050565b60008115159050919050565b6000819050919050565b600073ffffffffffffffffffffffffffffffffffffffff82169050919050565b6000819050919050565b600061178b826117b6565b9050919050565b600061179d82611776565b9050919050565b60006117af82611776565b9050919050565b60006117c1826117c8565b9050919050565b60006117d382611756565b9050919050565b7f4f776e61626c653a206e6577206f776e657220697320746865207a65726f206160008201527f6464726573730000000000000000000000000000000000000000000000000000602082015250565b7f4461746120616c72656164792065786973747320666f7220746869732061707060008201527f20616e64206e616d652e00000000000000000000000000000000000000000000602082015250565b7f4e6f206461746120666f756e642e000000000000000000000000000000000000600082015250565b7f496e76616c6964205f61707020776974682076616c7565206f66203000000000600082015250565b7f4f776e61626c653a2063616c6c6572206973206e6f7420746865206f776e6572600082015250565b7f496e76616c6964206d73672073656e6465720000000000000000000000000000600082015250565b7f496e76616c6964205f6e616d6520776974682076616c7565206f662030000000600082015250565b7f4e6f74206f776e6572206f6620646174612e0000000000000000000000000000600082015250565b7f44617461206973206e6f74206368616e6761626c650000000000000000000000600082015250565b7f496e73756666696369656e74207061796d656e742e20204d7573742073656e6460008201527f206d6f7265207468616e206d696e5061796d656e742e00000000000000000000602082015250565b6119ef8161172e565b81146119fa57600080fd5b50565b611a0681611740565b8114611a1157600080fd5b50565b611a1d8161174c565b8114611a2857600080fd5b50565b611a3481611776565b8114611a3f57600080fd5b5056fea2646970667358221220dcdf23929cc40fc269dc0c9b8c798505ad703915624fdd8ae09493b2feb7250464736f6c63430008010033",
  "immutableReferences": {},
  "source": "// SPDX-License-Identifier: MIT\npragma solidity >=0.4.22 <0.9.0;\n\nimport \"@openzeppelin/contracts/access/Ownable.sol\";\n\ncontract SignData is Ownable {\n\n    address payable owner_address;\n\tuint256 private minPayment;\n\n\tmapping(uint256 => mapping(uint256 => bytes32)) dData;\n\tmapping(uint256 => mapping(uint256 => address)) dOowner;\n\tmapping(uint256 => mapping(uint256 => bool)) dMayChange;\n\tmapping(uint256 => mapping(uint256 => bool)) dExists;\n\tmapping(uint256 => mapping(uint256 => uint256)) dWhen;\n\tevent DataChange(uint256 App, uint256 Name, bytes32 Value, address By);\n\n\tevent ReceivedFunds(address sender, uint256 value, uint256 application, uint256 payFor);\n\tevent Withdrawn(address to, uint256 amount);\n\n\tconstructor() {\n        owner_address = payable(msg.sender);\n\t\tminPayment = 1000;\n\t}\n\n\tmodifier needMinPayment {\n\t\trequire(msg.value >= minPayment, \"Insufficient payment.  Must send more than minPayment.\");\n\t\t_;\n\t}\n\n\tfunction init() public {\n\t\tminPayment = 1000;\n\t}\n\n\tfunction setMinPayment( uint256 _minPayment ) public onlyOwner {\n\t\tminPayment = _minPayment;\n\t}\n\n\tfunction getMinPayment() public onlyOwner view returns ( uint256 ) {\n\t\treturn ( minPayment );\n\t}\n\n\t// -----------------------------------------------------------------------------------------------------------\n\n\t/**\n\t * @dev Update an existing set of data if the data was created with permissions to be updated.\n\t */\n\tfunction setHash ( uint256 _app, uint256 _name, bytes32 _data ) public needMinPayment payable {\n\t\taddress tmp = dOowner[_app][_name];\n\t\tbool mayChange = dMayChange[_app][_name];\n\t\tif ( tmp == msg.sender && !mayChange ) {\n\t\t\trevert(\"Data is not changable\");\n\t\t}\n\t\tif ( tmp != msg.sender ) {\n\t\t\trevert(\"Not owner of data.\");\n\t\t}\n\t\tbool ex = dExists[_app][_name];\n\t\tif ( !ex ) {\n\t\t\trevert(\"No data found.\" );\n\t\t}\n\t\tdData[_app][_name] = _data;\n\t\tdWhen[_app][_name] = block.timestamp;\n\t\temit DataChange(_app, _name, _data, msg.sender);\n\t\temit ReceivedFunds(msg.sender, msg.value, _app, _name);\n\t}\n\n\t/**\n\t * @dev Create a new hash and save it's relevant data.  Check that this is a new set of data.\n\t */\n\tfunction createHash ( uint256 _app, uint256 _name, bytes32 _data, bool _mayChange )\n\t\tpublic needMinPayment payable {\n\t\tif ( _name == 0 ) {\n\t\t\trevert(\"Invalid _name with value of 0\");\n\t\t}\n\t\tif ( _app == 0 ) {\n\t\t\trevert(\"Invalid _app with value of 0\");\n\t\t}\n\t\tif ( msg.sender == address(0) ) {\n\t\t\trevert(\"Invalid msg sender\");\n\t\t}\n\t\tbool ex = dExists[_app][_name];\n\t\tif ( ex ) {\n\t\t\trevert(\"Data already exists for this app and name.\");\n\t\t}\n\t\tdOowner[_app][_name] = msg.sender;\n\t\tdData[_app][_name] = _data;\n\t\tdMayChange[_app][_name] = _mayChange;\n\t\tdWhen[_app][_name] = block.timestamp;\n\t\tdExists[_app][_name] = true;\n\t\temit DataChange(_app, _name, _data, msg.sender);\n\t\temit ReceivedFunds(msg.sender, msg.value, _app, _name);\n\t}\n\n\t/**\n\t * @dev return the data by looking up _app and _name in dData.  Return both the hash and the date when\n\t *      it was stored..  Return 0's if no data exits.\n\t */\n\tfunction getHash ( uint256 _app, uint256 _name ) public view returns ( bytes32, uint256 ) {\n\t\tbool ex = dExists[_app][_name];\n\t\tif ( !ex ) {\n\t\t\treturn ( 0, 0 );\n\t\t}\n\t\treturn ( dData[_app][_name], dWhen[_app][_name] );\n\t}\n\n\t// -------------------------------------------------------------------------------------------------------\n\n\t/**\n\t * @dev payable fallback.  The fallback function is called when no other function \n\t * matches (if the receive ether function does not exist then this includes calls \n\t * with empty call data). You can make this function payable or not.  If it is not \n\t * payable then transactions not matching any other function which send value will\n\t * revert. \n\t */\n\tfallback() external payable {\n\t\temit ReceivedFunds(msg.sender, msg.value, 0, 1);\n\t}\n\n\t/**\n\t * @dev payable receive.  The receive ether function is called whenever the call data\n\t *      is empty (whether or not ether is received). This function is implicitly payable.\n\t */\n\treceive() external payable {\n\t\temit ReceivedFunds(msg.sender, msg.value, 0, 1);\n    }\n\n\t/**\n\t * @dev genReceiveFunds - generate a receive funds event.\n\t */\n\tfunction genReceivedFunds ( uint256 application, uint256 payFor ) public payable {\n\t\temit ReceivedFunds(msg.sender, msg.value, application, payFor);\n\t}\n\n\t/**\n\t * @dev Withdraw contract value amount.\n\t */\n\tfunction withdraw( uint256 amount ) public onlyOwner returns(bool) {\n\t\tpayable(owner_address).transfer(amount);\n\t\t// owner_address.send(amount);\n\t\temit Withdrawn(owner_address, amount);\n\t\treturn true;\n\t}\n\n\t/**\n\t * @dev How much do I got?\n\t */\n\tfunction getBalanceContract() public view onlyOwner returns(uint256){\n\t\treturn address(this).balance;\n\t}\n\n\t/**\n\t * @dev For futute to end the contract, take the value.\n\t */\n\tfunction kill() public onlyOwner {\n\t\temit Withdrawn(owner_address, address(this).balance);\n\t\tselfdestruct(owner_address);\n\t}\n}\n",
  "sourcePath": "/Users/philip/go/src/github.com/Univ-Wyo-Education/S22-4010/class/lect/33/eth/contracts/SignData.sol",
  "compiler": {
    "name": "solc",
    "version": "0.8.1+commit.df193b15.Emscripten.clang"
  },
  "schemaVersion": "3.4.5",
  "updatedAt": "2022-04-13T15:29:26.599Z",
  "devdoc": {
    "kind": "dev",
    "methods": {
      "createHash(uint256,uint256,bytes32,bool)": {
        "details": "Create a new hash and save it's relevant data.  Check that this is a new set of data."
      },
      "genReceivedFunds(uint256,uint256)": {
        "details": "genReceiveFunds - generate a receive funds event."
      },
      "getBalanceContract()": {
        "details": "How much do I got?"
      },
      "getHash(uint256,uint256)": {
        "details": "return the data by looking up _app and _name in dData.  Return both the hash and the date when      it was stored..  Return 0's if no data exits."
      },
      "kill()": {
        "details": "For futute to end the contract, take the value."
      },
      "owner()": {
        "details": "Returns the address of the current owner."
      },
      "renounceOwnership()": {
        "details": "Leaves the contract without owner. It will not be possible to call `onlyOwner` functions anymore. Can only be called by the current owner. NOTE: Renouncing ownership will leave the contract without an owner, thereby removing any functionality that is only available to the owner."
      },
      "setHash(uint256,uint256,bytes32)": {
        "details": "Update an existing set of data if the data was created with permissions to be updated."
      },
      "transferOwnership(address)": {
        "details": "Transfers ownership of the contract to a new account (`newOwner`). Can only be called by the current owner."
      },
      "withdraw(uint256)": {
        "details": "Withdraw contract value amount."
      }
    },
    "version": 1
  },
  "userdoc": {
    "kind": "user",
    "methods": {},
    "version": 1
  }
}