{
  "contractName": "ZeroCouponBond",
  "abi": [
    {
      "inputs": [
        {
          "internalType": "string",
          "name": "_name",
          "type": "string"
        },
        {
          "internalType": "uint256",
          "name": "_par",
          "type": "uint256"
        },
        {
          "internalType": "uint256",
          "name": "_parDecimals",
          "type": "uint256"
        },
        {
          "internalType": "uint256",
          "name": "_coupon",
          "type": "uint256"
        },
        {
          "internalType": "uint256",
          "name": "_term",
          "type": "uint256"
        },
        {
          "internalType": "uint256",
          "name": "_cap",
          "type": "uint256"
        },
        {
          "internalType": "uint256",
          "name": "_timesToRedeem",
          "type": "uint256"
        },
        {
          "internalType": "address",
          "name": "_tokenToRedeem",
          "type": "address"
        },
        {
          "internalType": "uint256",
          "name": "_loopLimit",
          "type": "uint256"
        }
      ],
      "stateMutability": "nonpayable",
      "type": "constructor"
    },
    {
      "anonymous": false,
      "inputs": [
        {
          "indexed": false,
          "internalType": "address",
          "name": "buyer",
          "type": "address"
        },
        {
          "indexed": false,
          "internalType": "uint256",
          "name": "bondAmount",
          "type": "uint256"
        }
      ],
      "name": "MintedBond",
      "type": "event"
    },
    {
      "anonymous": false,
      "inputs": [
        {
          "indexed": true,
          "internalType": "address",
          "name": "previousOwner",
          "type": "address"
        },
        {
          "indexed": true,
          "internalType": "address",
          "name": "newOwner",
          "type": "address"
        }
      ],
      "name": "OwnershipTransferred",
      "type": "event"
    },
    {
      "anonymous": false,
      "inputs": [
        {
          "indexed": false,
          "internalType": "address",
          "name": "sender",
          "type": "address"
        },
        {
          "indexed": false,
          "internalType": "uint256[]",
          "name": "bonds",
          "type": "uint256[]"
        }
      ],
      "name": "RedeemedCoupons",
      "type": "event"
    },
    {
      "anonymous": false,
      "inputs": [
        {
          "indexed": false,
          "internalType": "address",
          "name": "sender",
          "type": "address"
        },
        {
          "indexed": false,
          "internalType": "address",
          "name": "receiver",
          "type": "address"
        },
        {
          "indexed": false,
          "internalType": "uint256[]",
          "name": "bonds",
          "type": "uint256[]"
        }
      ],
      "name": "Transferred",
      "type": "event"
    },
    {
      "inputs": [],
      "name": "owner",
      "outputs": [
        {
          "internalType": "address",
          "name": "",
          "type": "address"
        }
      ],
      "stateMutability": "view",
      "type": "function"
    },
    {
      "inputs": [],
      "name": "renounceOwnership",
      "outputs": [],
      "stateMutability": "nonpayable",
      "type": "function"
    },
    {
      "inputs": [
        {
          "internalType": "address",
          "name": "newOwner",
          "type": "address"
        }
      ],
      "name": "transferOwnership",
      "outputs": [],
      "stateMutability": "nonpayable",
      "type": "function"
    },
    {
      "stateMutability": "payable",
      "type": "receive"
    },
    {
      "inputs": [
        {
          "internalType": "uint256",
          "name": "_loopLimit",
          "type": "uint256"
        }
      ],
      "name": "changeLoopLimit",
      "outputs": [],
      "stateMutability": "nonpayable",
      "type": "function"
    },
    {
      "inputs": [
        {
          "internalType": "address",
          "name": "buyer",
          "type": "address"
        },
        {
          "internalType": "uint256",
          "name": "_bondsAmount",
          "type": "uint256"
        }
      ],
      "name": "mintBond",
      "outputs": [],
      "stateMutability": "nonpayable",
      "type": "function"
    },
    {
      "inputs": [
        {
          "internalType": "uint256[]",
          "name": "_bonds",
          "type": "uint256[]"
        }
      ],
      "name": "redeemCoupons",
      "outputs": [],
      "stateMutability": "nonpayable",
      "type": "function"
    },
    {
      "inputs": [
        {
          "internalType": "address",
          "name": "receiver",
          "type": "address"
        },
        {
          "internalType": "uint256[]",
          "name": "_bonds",
          "type": "uint256[]"
        }
      ],
      "name": "transfer",
      "outputs": [],
      "stateMutability": "nonpayable",
      "type": "function"
    },
    {
      "inputs": [],
      "name": "donate",
      "outputs": [],
      "stateMutability": "payable",
      "type": "function"
    },
    {
      "inputs": [
        {
          "internalType": "uint256",
          "name": "bond",
          "type": "uint256"
        }
      ],
      "name": "getLastTimeRedeemed",
      "outputs": [
        {
          "internalType": "uint256",
          "name": "",
          "type": "uint256"
        }
      ],
      "stateMutability": "view",
      "type": "function"
    },
    {
      "inputs": [
        {
          "internalType": "uint256",
          "name": "bond",
          "type": "uint256"
        }
      ],
      "name": "getBondOwner",
      "outputs": [
        {
          "internalType": "address",
          "name": "",
          "type": "address"
        }
      ],
      "stateMutability": "view",
      "type": "function"
    },
    {
      "inputs": [
        {
          "internalType": "uint256",
          "name": "bond",
          "type": "uint256"
        }
      ],
      "name": "getRemainingCoupons",
      "outputs": [
        {
          "internalType": "int256",
          "name": "",
          "type": "int256"
        }
      ],
      "stateMutability": "view",
      "type": "function"
    },
    {
      "inputs": [
        {
          "internalType": "uint256",
          "name": "bond",
          "type": "uint256"
        }
      ],
      "name": "getCouponsRedeemed",
      "outputs": [
        {
          "internalType": "uint256",
          "name": "",
          "type": "uint256"
        }
      ],
      "stateMutability": "view",
      "type": "function"
    },
    {
      "inputs": [],
      "name": "getTokenAddress",
      "outputs": [
        {
          "internalType": "address",
          "name": "",
          "type": "address"
        }
      ],
      "stateMutability": "view",
      "type": "function"
    },
    {
      "inputs": [],
      "name": "getTimesToRedeem",
      "outputs": [
        {
          "internalType": "uint256",
          "name": "",
          "type": "uint256"
        }
      ],
      "stateMutability": "view",
      "type": "function"
    },
    {
      "inputs": [],
      "name": "getTerm",
      "outputs": [
        {
          "internalType": "uint256",
          "name": "",
          "type": "uint256"
        }
      ],
      "stateMutability": "view",
      "type": "function"
    },
    {
      "inputs": [
        {
          "internalType": "uint256",
          "name": "bond",
          "type": "uint256"
        }
      ],
      "name": "getMaturity",
      "outputs": [
        {
          "internalType": "uint256",
          "name": "",
          "type": "uint256"
        }
      ],
      "stateMutability": "view",
      "type": "function"
    },
    {
      "inputs": [],
      "name": "getSimpleInterest",
      "outputs": [
        {
          "internalType": "uint256",
          "name": "",
          "type": "uint256"
        }
      ],
      "stateMutability": "view",
      "type": "function"
    },
    {
      "inputs": [],
      "name": "getCouponRate",
      "outputs": [
        {
          "internalType": "uint256",
          "name": "",
          "type": "uint256"
        }
      ],
      "stateMutability": "view",
      "type": "function"
    },
    {
      "inputs": [],
      "name": "getParValue",
      "outputs": [
        {
          "internalType": "uint256",
          "name": "",
          "type": "uint256"
        }
      ],
      "stateMutability": "view",
      "type": "function"
    },
    {
      "inputs": [],
      "name": "getCap",
      "outputs": [
        {
          "internalType": "uint256",
          "name": "",
          "type": "uint256"
        }
      ],
      "stateMutability": "view",
      "type": "function"
    },
    {
      "inputs": [
        {
          "internalType": "address",
          "name": "who",
          "type": "address"
        }
      ],
      "name": "getBalance",
      "outputs": [
        {
          "internalType": "uint256",
          "name": "",
          "type": "uint256"
        }
      ],
      "stateMutability": "view",
      "type": "function"
    },
    {
      "inputs": [],
      "name": "getParDecimals",
      "outputs": [
        {
          "internalType": "uint256",
          "name": "",
          "type": "uint256"
        }
      ],
      "stateMutability": "view",
      "type": "function"
    },
    {
      "inputs": [],
      "name": "getTokenToRedeem",
      "outputs": [
        {
          "internalType": "address",
          "name": "",
          "type": "address"
        }
      ],
      "stateMutability": "view",
      "type": "function"
    },
    {
      "inputs": [],
      "name": "getName",
      "outputs": [
        {
          "internalType": "string",
          "name": "",
          "type": "string"
        }
      ],
      "stateMutability": "view",
      "type": "function"
    },
    {
      "inputs": [],
      "name": "getTotalDebt",
      "outputs": [
        {
          "internalType": "uint256",
          "name": "",
          "type": "uint256"
        }
      ],
      "stateMutability": "view",
      "type": "function"
    },
    {
      "inputs": [],
      "name": "getTotalBonds",
      "outputs": [
        {
          "internalType": "uint256",
          "name": "",
          "type": "uint256"
        }
      ],
      "stateMutability": "view",
      "type": "function"
    },
    {
      "inputs": [],
      "name": "getNonce",
      "outputs": [
        {
          "internalType": "uint256",
          "name": "",
          "type": "uint256"
        }
      ],
      "stateMutability": "view",
      "type": "function"
    },
    {
      "inputs": [],
      "name": "getCouponThreshold",
      "outputs": [
        {
          "internalType": "uint256",
          "name": "",
          "type": "uint256"
        }
      ],
      "stateMutability": "view",
      "type": "function"
    }
  ],
  "bytecode": "0x60806040526000600c556000600d553480156200001b57600080fd5b5060405162002ee838038062002ee8833981810160405281019062000041919062000427565b6200006162000055620001f360201b60201c565b620001fb60201b60201c565b60008951116200007057600080fd5b600086116200007e57600080fd5b600088116200008c57600080fd5b600085116200009a57600080fd5b60008111620000a857600080fd5b6001831015620000b757600080fd5b8860019080519060200190620000cf929190620002d7565b50876007819055508360068190555080600b819055508660048190555082600a8190555085600881905550846009819055506200011f600a54600954620002bf60201b620019ef1790919060201c565b600d81905550600073ffffffffffffffffffffffffffffffffffffffff168273ffffffffffffffffffffffffffffffffffffffff161415620001a25781600260006101000a81548173ffffffffffffffffffffffffffffffffffffffff021916908373ffffffffffffffffffffffffffffffffffffffff160217905550620001e4565b81600e60006101000a81548173ffffffffffffffffffffffffffffffffffffffff021916908373ffffffffffffffffffffffffffffffffffffffff1602179055505b50505050505050505062000762565b600033905090565b60008060009054906101000a900473ffffffffffffffffffffffffffffffffffffffff169050816000806101000a81548173ffffffffffffffffffffffffffffffffffffffff021916908373ffffffffffffffffffffffffffffffffffffffff1602179055508173ffffffffffffffffffffffffffffffffffffffff168173ffffffffffffffffffffffffffffffffffffffff167f8be0079c531659141344cd1fd0a4f28419497f9722a3daafe3b4186f6b6457e060405160405180910390a35050565b60008183620002cf919062000578565b905092915050565b828054620002e59062000624565b90600052602060002090601f01602090048101928262000309576000855562000355565b82601f106200032457805160ff191683800117855562000355565b8280016001018555821562000355579182015b828111156200035457825182559160200191906001019062000337565b5b50905062000364919062000368565b5090565b5b808211156200038357600081600090555060010162000369565b5090565b60006200039e620003988462000542565b62000519565b905082815260208101848484011115620003b757600080fd5b620003c4848285620005ee565b509392505050565b600081519050620003dd816200072e565b92915050565b600082601f830112620003f557600080fd5b81516200040784826020860162000387565b91505092915050565b600081519050620004218162000748565b92915050565b60008060008060008060008060006101208a8c0312156200044757600080fd5b60008a015167ffffffffffffffff8111156200046257600080fd5b620004708c828d01620003e3565b9950506020620004838c828d0162000410565b9850506040620004968c828d0162000410565b9750506060620004a98c828d0162000410565b9650506080620004bc8c828d0162000410565b95505060a0620004cf8c828d0162000410565b94505060c0620004e28c828d0162000410565b93505060e0620004f58c828d01620003cc565b925050610100620005098c828d0162000410565b9150509295985092959850929598565b60006200052562000538565b90506200053382826200065a565b919050565b6000604051905090565b600067ffffffffffffffff82111562000560576200055f620006ee565b5b6200056b826200071d565b9050602081019050919050565b60006200058582620005e4565b91506200059283620005e4565b925082620005a557620005a462000690565b5b828204905092915050565b6000620005bd82620005c4565b9050919050565b600073ffffffffffffffffffffffffffffffffffffffff82169050919050565b6000819050919050565b60005b838110156200060e578082015181840152602081019050620005f1565b838111156200061e576000848401525b50505050565b600060028204905060018216806200063d57607f821691505b60208210811415620006545762000653620006bf565b5b50919050565b62000665826200071d565b810181811067ffffffffffffffff82111715620006875762000686620006ee565b5b80604052505050565b7f4e487b7100000000000000000000000000000000000000000000000000000000600052601260045260246000fd5b7f4e487b7100000000000000000000000000000000000000000000000000000000600052602260045260246000fd5b7f4e487b7100000000000000000000000000000000000000000000000000000000600052604160045260246000fd5b6000601f19601f8301169050919050565b6200073981620005b0565b81146200074557600080fd5b50565b6200075381620005e4565b81146200075f57600080fd5b50565b61277680620007726000396000f3fe6080604052600436106101bb5760003560e01c80637aafdeee116100ec578063d561bf531161008a578063e575943611610064578063e575943614610610578063ed88c68e1461063b578063f2fde38b14610645578063f8b2cb4f1461066e576101c5565b8063d561bf5314610591578063d87f0afc146105bc578063e0e09e0f146105e5576101c5565b806395be1f1a116100c657806395be1f1a146104c1578063bb305ef2146104fe578063cb57b0a51461053b578063d087d28814610566576101c5565b80637aafdeee1461042e5780637f1e7d41146104595780638da5cb5b14610496576101c5565b80633af0ca191161015957806366e3d5ac1161013357806366e3d5ac1461039a57806370843ae9146103c3578063715018a6146103ee5780637a36c30714610405576101c5565b80633af0ca191461030757806343b0748514610332578063554d578d1461036f576101c5565b8063124b65b411610195578063124b65b41461025d57806317d7de7c146102885780632b4e4e96146102b357806334ce998a146102dc576101c5565b80630f0044bf146101ca57806310fe9ae814610207578063112f84e114610232576101c5565b366101c557600080fd5b600080fd5b3480156101d657600080fd5b506101f160048036038101906101ec9190611e7e565b6106ab565b6040516101fe9190612107565b60405180910390f35b34801561021357600080fd5b5061021c610720565b6040516102299190611fd8565b60405180910390f35b34801561023e57600080fd5b5061024761074a565b6040516102549190612107565b60405180910390f35b34801561026957600080fd5b50610272610790565b60405161027f9190612107565b60405180910390f35b34801561029457600080fd5b5061029d61079a565b6040516102aa91906120a5565b60405180910390f35b3480156102bf57600080fd5b506102da60048036038101906102d59190611d84565b61082c565b005b3480156102e857600080fd5b506102f1610bb4565b6040516102fe9190612107565b60405180910390f35b34801561031357600080fd5b5061031c610bbe565b6040516103299190611fd8565b60405180910390f35b34801561033e57600080fd5b5061035960048036038101906103549190611e7e565b610be8565b604051610366919061208a565b60405180910390f35b34801561037b57600080fd5b50610384610c79565b6040516103919190612107565b60405180910390f35b3480156103a657600080fd5b506103c160048036038101906103bc9190611dd8565b610c83565b005b3480156103cf57600080fd5b506103d861100f565b6040516103e59190612107565b60405180910390f35b3480156103fa57600080fd5b50610403611019565b005b34801561041157600080fd5b5061042c60048036038101906104279190611e14565b6110a1565b005b34801561043a57600080fd5b506104436116e2565b6040516104509190612107565b60405180910390f35b34801561046557600080fd5b50610480600480360381019061047b9190611e7e565b6116ec565b60405161048d9190612107565b60405180910390f35b3480156104a257600080fd5b506104ab611709565b6040516104b89190611fd8565b60405180910390f35b3480156104cd57600080fd5b506104e860048036038101906104e39190611e7e565b611732565b6040516104f59190612107565b60405180910390f35b34801561050a57600080fd5b5061052560048036038101906105209190611e7e565b61174f565b6040516105329190611fd8565b60405180910390f35b34801561054757600080fd5b5061055061178c565b60405161055d9190612107565b60405180910390f35b34801561057257600080fd5b5061057b611796565b6040516105889190612107565b60405180910390f35b34801561059d57600080fd5b506105a66117a0565b6040516105b39190612107565b60405180910390f35b3480156105c857600080fd5b506105e360048036038101906105de9190611e7e565b6117aa565b005b3480156105f157600080fd5b506105fa61183d565b6040516106079190612107565b60405180910390f35b34801561061c57600080fd5b50610625611847565b6040516106329190612107565b60405180910390f35b610643611851565b005b34801561065157600080fd5b5061066c60048036038101906106679190611d5b565b6118ae565b005b34801561067a57600080fd5b5061069560048036038101906106909190611d5b565b6119a6565b6040516106a29190612107565b60405180910390f35b6000806106d66009546010600086815260200190815260200160002054611a0590919063ffffffff16565b90506000610714610705600d546011600088815260200190815260200160002054611a1b90919063ffffffff16565b83611a3190919063ffffffff16565b90508092505050919050565b6000600e60009054906101000a900473ffffffffffffffffffffffffffffffffffffffff16905090565b60008061075561178c565b905060006107616117a0565b9050610789606461077b8484611a1b90919063ffffffff16565b6119ef90919063ffffffff16565b9250505090565b6000600954905090565b6060600180546107a9906124fd565b80601f01602080910402602001604051908101604052809291908181526020018280546107d5906124fd565b80156108225780601f106107f757610100808354040283529160200191610822565b820191906000526020600020905b81548152906001019060200180831161080557829003601f168201915b5050505050905090565b600081511161083a57600080fd5b600073ffffffffffffffffffffffffffffffffffffffff168273ffffffffffffffffffffffffffffffffffffffff16141561087457600080fd5b61087d336119a6565b8151111561088a57600080fd5b60005b8151811015610b74573373ffffffffffffffffffffffffffffffffffffffff16600f60008484815181106108ea577f4e487b7100000000000000000000000000000000000000000000000000000000600052603260045260246000fd5b6020026020010151815260200190815260200160002060009054906101000a900473ffffffffffffffffffffffffffffffffffffffff1673ffffffffffffffffffffffffffffffffffffffff161415806109985750600a546011600084848151811061097f577f4e487b7100000000000000000000000000000000000000000000000000000000600052603260045260246000fd5b6020026020010151815260200190815260200160002054145b156109a257610b61565b82600f60008484815181106109e0577f4e487b7100000000000000000000000000000000000000000000000000000000600052603260045260246000fd5b6020026020010151815260200190815260200160002060006101000a81548173ffffffffffffffffffffffffffffffffffffffff021916908373ffffffffffffffffffffffffffffffffffffffff160217905550610a876001601260003373ffffffffffffffffffffffffffffffffffffffff1673ffffffffffffffffffffffffffffffffffffffff16815260200190815260200160002054611a0590919063ffffffff16565b601260003373ffffffffffffffffffffffffffffffffffffffff1673ffffffffffffffffffffffffffffffffffffffff16815260200190815260200160002081905550610b1d6001601260008673ffffffffffffffffffffffffffffffffffffffff1673ffffffffffffffffffffffffffffffffffffffff16815260200190815260200160002054611a3190919063ffffffff16565b601260008573ffffffffffffffffffffffffffffffffffffffff1673ffffffffffffffffffffffffffffffffffffffff168152602001908152602001600020819055505b8080610b6c90612560565b91505061088d565b507f227687bda9848548d0e213bd3dcc76bc21295e33dff6849e2c2bd7c75cb77bf7338383604051610ba893929190611ff3565b60405180910390a15050565b6000600354905090565b6000600260009054906101000a900473ffffffffffffffffffffffffffffffffffffffff16905090565b600080610bf48361174f565b9050600073ffffffffffffffffffffffffffffffffffffffff168173ffffffffffffffffffffffffffffffffffffffff161415610c54577fffffffffffffffffffffffffffffffffffffffffffffffffffffffffffffffff915050610c74565b6000610c5f84611732565b905080600a54610c6f919061241a565b925050505b919050565b6000600654905090565b610c8b611a47565b73ffffffffffffffffffffffffffffffffffffffff16610ca9611709565b73ffffffffffffffffffffffffffffffffffffffff1614610cff576040517f08c379a0000000000000000000000000000000000000000000000000000000008152600401610cf6906120e7565b60405180910390fd5b600073ffffffffffffffffffffffffffffffffffffffff168273ffffffffffffffffffffffffffffffffffffffff161415610d3957600080fd5b6001811015610d4757600080fd5b600b54811115610d5657600080fd5b60006006541115610d8557600654610d7982600554611a3190919063ffffffff16565b1115610d8457600080fd5b5b610d9a81600554611a3190919063ffffffff16565b600581905550610db581600c54611a3190919063ffffffff16565b600c8190555060005b81811015610f4157610ddb60095442611a3190919063ffffffff16565b60106000610df484600c54611a0590919063ffffffff16565b81526020019081526020016000208190555082600f6000610e2084600c54611a0590919063ffffffff16565b815260200190815260200160002060006101000a81548173ffffffffffffffffffffffffffffffffffffffff021916908373ffffffffffffffffffffffffffffffffffffffff160217905550600060116000610e8784600c54611a0590919063ffffffff16565b815260200190815260200160002081905550610eeb82601260008673ffffffffffffffffffffffffffffffffffffffff1673ffffffffffffffffffffffffffffffffffffffff16815260200190815260200160002054611a3190919063ffffffff16565b601260008573ffffffffffffffffffffffffffffffffffffffff1673ffffffffffffffffffffffffffffffffffffffff168152602001908152602001600020819055508080610f3990612560565b915050610dbe565b50610fcc610f95610f5d83600a54611a1b90919063ffffffff16565b610f876064610f79600854600754611a1b90919063ffffffff16565b6119ef90919063ffffffff16565b611a1b90919063ffffffff16565b610fbe610fad84600754611a1b90919063ffffffff16565b600354611a3190919063ffffffff16565b611a3190919063ffffffff16565b6003819055507ff684d4510acd3fe860087ff339d3668df1f4b82d05e5b4cab07130929bfa835d8282604051611003929190612061565b60405180910390a15050565b6000600d54905090565b611021611a47565b73ffffffffffffffffffffffffffffffffffffffff1661103f611709565b73ffffffffffffffffffffffffffffffffffffffff1614611095576040517f08c379a000000000000000000000000000000000000000000000000000000000815260040161108c906120e7565b60405180910390fd5b61109f6000611a4f565b565b60008151116110af57600080fd5b600b54815111156110bf57600080fd5b6110c8336119a6565b815111156110d557600080fd5b6000806000805b84518110156116a2573373ffffffffffffffffffffffffffffffffffffffff16600f6000878481518110611139577f4e487b7100000000000000000000000000000000000000000000000000000000600052603260045260246000fd5b6020026020010151815260200190815260200160002060009054906101000a900473ffffffffffffffffffffffffffffffffffffffff1673ffffffffffffffffffffffffffffffffffffffff161415806111e75750600a54601160008784815181106111ce577f4e487b7100000000000000000000000000000000000000000000000000000000600052603260045260246000fd5b6020026020010151815260200190815260200160002054145b156111f15761168f565b61125960095460106000888581518110611234577f4e487b7100000000000000000000000000000000000000000000000000000000600052603260045260246000fd5b6020026020010151815260200190815260200160002054611a0590919063ffffffff16565b93506112d56112c6600d54601160008986815181106112a1577f4e487b7100000000000000000000000000000000000000000000000000000000600052603260045260246000fd5b6020026020010151815260200190815260200160002054611a1b90919063ffffffff16565b85611a3190919063ffffffff16565b925060106000868381518110611314577f4e487b7100000000000000000000000000000000000000000000000000000000600052603260045260246000fd5b6020026020010151815260200190815260200160002054611340600d5485611a3190919063ffffffff16565b101580611360575061135d600d5484611a3190919063ffffffff16565b42105b1561136a5761168f565b611391600d546113838542611a0590919063ffffffff16565b6119ef90919063ffffffff16565b915060008214156113a15761168f565b61140782601160008885815181106113e2577f4e487b7100000000000000000000000000000000000000000000000000000000600052603260045260246000fd5b6020026020010151815260200190815260200160002054611a3190919063ffffffff16565b60116000878481518110611444577f4e487b7100000000000000000000000000000000000000000000000000000000600052603260045260246000fd5b60200260200101518152602001908152602001600020819055506114c36114bd6114ae61147d6002600454611a3190919063ffffffff16565b600a61148991906122a2565b6114a0600854600754611a1b90919063ffffffff16565b6119ef90919063ffffffff16565b84611a1b90919063ffffffff16565b33611b13565b600a5460116000878481518110611503577f4e487b7100000000000000000000000000000000000000000000000000000000600052603260045260246000fd5b6020026020010151815260200190815260200160002054141561168e576000600f600087848151811061155f577f4e487b7100000000000000000000000000000000000000000000000000000000600052603260045260246000fd5b6020026020010151815260200190815260200160002060006101000a81548173ffffffffffffffffffffffffffffffffffffffff021916908373ffffffffffffffffffffffffffffffffffffffff1602179055506000601060008784815181106115f2577f4e487b7100000000000000000000000000000000000000000000000000000000600052603260045260246000fd5b6020026020010151815260200190815260200160002081905550601260003373ffffffffffffffffffffffffffffffffffffffff1673ffffffffffffffffffffffffffffffffffffffff168152602001908152602001600020600081548092919061165c906124d3565b919050555061168d611687600454600a61167691906122a2565b6007546119ef90919063ffffffff16565b33611b13565b5b5b808061169a90612560565b9150506110dc565b507f6842ed68604cbaecf495f440b5684cffd179b26f069e5205907f642a1bc91e4d33856040516116d4929190612031565b60405180910390a150505050565b6000600554905090565b600060106000838152602001908152602001600020549050919050565b60008060009054906101000a900473ffffffffffffffffffffffffffffffffffffffff16905090565b600060116000838152602001908152602001600020549050919050565b6000600f600083815260200190815260200160002060009054906101000a900473ffffffffffffffffffffffffffffffffffffffff169050919050565b6000600854905090565b6000600c54905090565b6000600754905090565b6117b2611a47565b73ffffffffffffffffffffffffffffffffffffffff166117d0611709565b73ffffffffffffffffffffffffffffffffffffffff1614611826576040517f08c379a000000000000000000000000000000000000000000000000000000000815260040161181d906120e7565b60405180910390fd5b6000811161183357600080fd5b80600b8190555050565b6000600454905090565b6000600a54905090565b600073ffffffffffffffffffffffffffffffffffffffff16600e60009054906101000a900473ffffffffffffffffffffffffffffffffffffffff1673ffffffffffffffffffffffffffffffffffffffff16146118ac57600080fd5b565b6118b6611a47565b73ffffffffffffffffffffffffffffffffffffffff166118d4611709565b73ffffffffffffffffffffffffffffffffffffffff161461192a576040517f08c379a0000000000000000000000000000000000000000000000000000000008152600401611921906120e7565b60405180910390fd5b600073ffffffffffffffffffffffffffffffffffffffff168173ffffffffffffffffffffffffffffffffffffffff16141561199a576040517f08c379a0000000000000000000000000000000000000000000000000000000008152600401611991906120c7565b60405180910390fd5b6119a381611a4f565b50565b6000601260008373ffffffffffffffffffffffffffffffffffffffff1673ffffffffffffffffffffffffffffffffffffffff168152602001908152602001600020549050919050565b600081836119fd919061221e565b905092915050565b60008183611a13919061241a565b905092915050565b60008183611a2991906123c0565b905092915050565b60008183611a3f91906121c8565b905092915050565b600033905090565b60008060009054906101000a900473ffffffffffffffffffffffffffffffffffffffff169050816000806101000a81548173ffffffffffffffffffffffffffffffffffffffff021916908373ffffffffffffffffffffffffffffffffffffffff1602179055508173ffffffffffffffffffffffffffffffffffffffff168173ffffffffffffffffffffffffffffffffffffffff167f8be0079c531659141344cd1fd0a4f28419497f9722a3daafe3b4186f6b6457e060405160405180910390a35050565b600073ffffffffffffffffffffffffffffffffffffffff16600e60009054906101000a900473ffffffffffffffffffffffffffffffffffffffff1673ffffffffffffffffffffffffffffffffffffffff161415611bb6578073ffffffffffffffffffffffffffffffffffffffff166108fc839081150290604051600060405180830381858888f19350505050158015611bb0573d6000803e3d6000fd5b50611c67565b600e60009054906101000a900473ffffffffffffffffffffffffffffffffffffffff1673ffffffffffffffffffffffffffffffffffffffff1663a9059cbb33846040518363ffffffff1660e01b8152600401611c13929190612061565b602060405180830381600087803b158015611c2d57600080fd5b505af1158015611c41573d6000803e3d6000fd5b505050506040513d601f19601f82011682018060405250810190611c659190611e55565b505b611c7c82600354611a0590919063ffffffff16565b6003819055505050565b6000611c99611c9484612147565b612122565b90508083825260208201905082856020860282011115611cb857600080fd5b60005b85811015611ce85781611cce8882611d46565b845260208401935060208301925050600181019050611cbb565b5050509392505050565b600081359050611d01816126fb565b92915050565b600082601f830112611d1857600080fd5b8135611d28848260208601611c86565b91505092915050565b600081519050611d4081612712565b92915050565b600081359050611d5581612729565b92915050565b600060208284031215611d6d57600080fd5b6000611d7b84828501611cf2565b91505092915050565b60008060408385031215611d9757600080fd5b6000611da585828601611cf2565b925050602083013567ffffffffffffffff811115611dc257600080fd5b611dce85828601611d07565b9150509250929050565b60008060408385031215611deb57600080fd5b6000611df985828601611cf2565b9250506020611e0a85828601611d46565b9150509250929050565b600060208284031215611e2657600080fd5b600082013567ffffffffffffffff811115611e4057600080fd5b611e4c84828501611d07565b91505092915050565b600060208284031215611e6757600080fd5b6000611e7584828501611d31565b91505092915050565b600060208284031215611e9057600080fd5b6000611e9e84828501611d46565b91505092915050565b6000611eb38383611fba565b60208301905092915050565b611ec88161244e565b82525050565b6000611ed982612183565b611ee381856121a6565b9350611eee83612173565b8060005b83811015611f1f578151611f068882611ea7565b9750611f1183612199565b925050600181019050611ef2565b5085935050505092915050565b611f358161246c565b82525050565b6000611f468261218e565b611f5081856121b7565b9350611f608185602086016124a0565b611f6981612665565b840191505092915050565b6000611f816026836121b7565b9150611f8c82612683565b604082019050919050565b6000611fa46020836121b7565b9150611faf826126d2565b602082019050919050565b611fc381612496565b82525050565b611fd281612496565b82525050565b6000602082019050611fed6000830184611ebf565b92915050565b60006060820190506120086000830186611ebf565b6120156020830185611ebf565b81810360408301526120278184611ece565b9050949350505050565b60006040820190506120466000830185611ebf565b81810360208301526120588184611ece565b90509392505050565b60006040820190506120766000830185611ebf565b6120836020830184611fc9565b9392505050565b600060208201905061209f6000830184611f2c565b92915050565b600060208201905081810360008301526120bf8184611f3b565b905092915050565b600060208201905081810360008301526120e081611f74565b9050919050565b6000602082019050818103600083015261210081611f97565b9050919050565b600060208201905061211c6000830184611fc9565b92915050565b600061212c61213d565b9050612138828261252f565b919050565b6000604051905090565b600067ffffffffffffffff82111561216257612161612636565b5b602082029050602081019050919050565b6000819050602082019050919050565b600081519050919050565b600081519050919050565b6000602082019050919050565b600082825260208201905092915050565b600082825260208201905092915050565b60006121d382612496565b91506121de83612496565b9250827fffffffffffffffffffffffffffffffffffffffffffffffffffffffffffffffff03821115612213576122126125a9565b5b828201905092915050565b600061222982612496565b915061223483612496565b925082612244576122436125d8565b5b828204905092915050565b6000808291508390505b600185111561229957808604811115612275576122746125a9565b5b60018516156122845780820291505b808102905061229285612676565b9450612259565b94509492505050565b60006122ad82612496565b91506122b883612496565b92506122e57fffffffffffffffffffffffffffffffffffffffffffffffffffffffffffffffff84846122ed565b905092915050565b6000826122fd57600190506123b9565b8161230b57600090506123b9565b8160018114612321576002811461232b5761235a565b60019150506123b9565b60ff84111561233d5761233c6125a9565b5b8360020a915084821115612354576123536125a9565b5b506123b9565b5060208310610133831016604e8410600b841016171561238f5782820a90508381111561238a576123896125a9565b5b6123b9565b61239c848484600161224f565b925090508184048111156123b3576123b26125a9565b5b81810290505b9392505050565b60006123cb82612496565b91506123d683612496565b9250817fffffffffffffffffffffffffffffffffffffffffffffffffffffffffffffffff048311821515161561240f5761240e6125a9565b5b828202905092915050565b600061242582612496565b915061243083612496565b925082821015612443576124426125a9565b5b828203905092915050565b600061245982612476565b9050919050565b60008115159050919050565b6000819050919050565b600073ffffffffffffffffffffffffffffffffffffffff82169050919050565b6000819050919050565b60005b838110156124be5780820151818401526020810190506124a3565b838111156124cd576000848401525b50505050565b60006124de82612496565b915060008214156124f2576124f16125a9565b5b600182039050919050565b6000600282049050600182168061251557607f821691505b6020821081141561252957612528612607565b5b50919050565b61253882612665565b810181811067ffffffffffffffff8211171561255757612556612636565b5b80604052505050565b600061256b82612496565b91507fffffffffffffffffffffffffffffffffffffffffffffffffffffffffffffffff82141561259e5761259d6125a9565b5b600182019050919050565b7f4e487b7100000000000000000000000000000000000000000000000000000000600052601160045260246000fd5b7f4e487b7100000000000000000000000000000000000000000000000000000000600052601260045260246000fd5b7f4e487b7100000000000000000000000000000000000000000000000000000000600052602260045260246000fd5b7f4e487b7100000000000000000000000000000000000000000000000000000000600052604160045260246000fd5b6000601f19601f8301169050919050565b60008160011c9050919050565b7f4f776e61626c653a206e6577206f776e657220697320746865207a65726f206160008201527f6464726573730000000000000000000000000000000000000000000000000000602082015250565b7f4f776e61626c653a2063616c6c6572206973206e6f7420746865206f776e6572600082015250565b6127048161244e565b811461270f57600080fd5b50565b61271b81612460565b811461272657600080fd5b50565b61273281612496565b811461273d57600080fd5b5056fea2646970667358221220adbf18437dd81b160e74e1d2ebc64879a0eb320d0b4c8a42f9af6d70995e36ea64736f6c63430008010033",
  "immutableReferences": {},
  "source": "// SPDX-License-Identifier: MIT\npragma solidity >=0.4.22 <0.9.0;\n\nimport \"@openzeppelin/contracts/access/Ownable.sol\";\nimport \"@openzeppelin/contracts/utils/math/SafeMath.sol\";\nimport \"@openzeppelin/contracts/token/ERC20/ERC20.sol\";\n\ncontract ZeroCouponBond is Ownable {\n\n\tusing SafeMath for uint256;\n\n\tstring name;\n\taddress tokenToRedeem;\n\tuint256 totalDebt;\n\tuint256 parDecimals;\n\tuint256 bondsNumber;\t// How many bonds to issue\n\tuint256 cap;\n\tuint256 parValue;\t\t// value of bond at maturity - face value.\n\tuint256 couponRate;\t\t// discount rate that will be payed (interest)\n\tuint256 term;\t\t\t// how long the bond last for\n\tuint256 timesToRedeem;\n\tuint256 loopLimit;\t\t// stay under \"gas\" limit for actions in pay out.\n\tuint256 nonce = 0;\n\n\tuint256 couponThreshold = 0;\n\n\tERC20 token;\t\t// Use an ERC-20 as the \"holder\" of the tokens.\n\n\tevent MintedBond(address buyer, uint256 bondAmount);\n\t\t// emit MintedBond(buyer, _bondsAmount);\n\tevent RedeemedCoupons(address sender, uint256[] bonds);\n\t\t// emit RedeemedCoupons(msg.sender, _bonds);\n\tevent Transferred(address sender, address receiver, uint256[] bonds);\n\t\t// emit Transferred(msg.sender, receiver, _bonds);\n\n\tmapping(uint256 => address) bonds;\n\tmapping(uint256 => uint256) maturities;\n\tmapping(uint256 => uint256) couponsRedeemed;\n\tmapping(address => uint256) bondsAmount;\n\n\tconstructor(string memory _name, uint256 _par, uint256 _parDecimals, uint256 _coupon,\n\t\t\tuint256 _term, uint256 _cap, uint256 _timesToRedeem, address _tokenToRedeem,\n\t\t\tuint256 _loopLimit) {\n\n\t\trequire(bytes(_name).length > 0);\n\t\trequire(_coupon > 0);\n\t\trequire(_par > 0);\n\t\trequire(_term > 0);\n\t\trequire(_loopLimit > 0);\n\t\trequire(_timesToRedeem >= 1);\n\n\t\tname = _name;\n\t\tparValue = _par;\n\t\tcap = _cap;\n\t\tloopLimit = _loopLimit;\n\t\tparDecimals = _parDecimals;\n\t\ttimesToRedeem = _timesToRedeem;\n\t\tcouponRate = _coupon;\n\t\tterm = _term;\n\t\tcouponThreshold = term.div(timesToRedeem);\n\n\t\tif (_tokenToRedeem == address(0)) {\n\t\t\ttokenToRedeem = _tokenToRedeem;\n\t\t}\n\t\telse {\n\t\t\ttoken = ERC20(_tokenToRedeem);\n\t\t}\n\t}\n\n\t/**\n\t* @notice Change the number of elements you can loop through in this contract\n\t* @param _loopLimit The new loop limit\n\t*/\n\tfunction changeLoopLimit(uint256 _loopLimit) public onlyOwner {\n\t\trequire(_loopLimit > 0);\n\t\tloopLimit = _loopLimit;\n\t}\n\n\t/**\n\t* @notice Mint bonds to a new buyer - this is the bond \"issue\"\n\t* @param buyer The buyer of the bonds\n\t* @param _bondsAmount How many bonds to mint\n\t*/\n\tfunction mintBond(address buyer, uint256 _bondsAmount) public onlyOwner {\n\t\trequire(buyer != address(0));\n\t\trequire(_bondsAmount >= 1);\n\t\trequire(_bondsAmount <= loopLimit);\n\n\t\tif (cap > 0) {\n\t\t\trequire(bondsNumber.add(_bondsAmount) <= cap);\n\t\t}\n\t\tbondsNumber = bondsNumber.add(_bondsAmount);\n\t\tnonce = nonce.add(_bondsAmount);\n\t\tfor (uint256 i = 0; i < _bondsAmount; i++) {\n\t\t\tmaturities[nonce.sub(i)] = block.timestamp.add(term);\n\t\t\tbonds[nonce.sub(i)] = buyer;\n\t\t\tcouponsRedeemed[nonce.sub(i)] = 0;\n\t\t\tbondsAmount[buyer] = bondsAmount[buyer].add(_bondsAmount);\n\t\t}\n\t\ttotalDebt = totalDebt.add(parValue.mul(_bondsAmount))\n\t\t\t\t\t\t\t\t.add((parValue.mul(couponRate)\n\t\t\t\t\t\t\t\t.div(100)).mul(timesToRedeem.mul(_bondsAmount)));\n\n\t\temit MintedBond(buyer, _bondsAmount);\n\t}\n\n\t/**\n\t* @notice Redeem coupons on your bonds\n\t* @param _bonds An array of bond ids corresponding to the bonds you want to redeem apon\n\t*/\n\tfunction redeemCoupons(uint256[] memory _bonds) public {\n\n\t\trequire(_bonds.length > 0);\n\t\trequire(_bonds.length <= loopLimit);\n\t\trequire(_bonds.length <= getBalance(msg.sender));\n\n\t\tuint256 issueDate = 0;\n\t\tuint256 lastThresholdRedeemed = 0;\n\t\tuint256 toRedeem = 0;\n\n\t\tfor (uint256 i = 0; i < _bonds.length; i++) {\n\n\t\t\tif (bonds[_bonds[i]] != msg.sender || couponsRedeemed[_bonds[i]] == timesToRedeem) {\n\t\t\t\tcontinue;\n\t\t\t}\n\t\t\tissueDate = maturities[_bonds[i]].sub(term);\n\t\t\tlastThresholdRedeemed = issueDate.add(couponsRedeemed[_bonds[i]].mul(couponThreshold));\n\t\t\tif (lastThresholdRedeemed.add(couponThreshold) >= maturities[_bonds[i]] ||\n\t\t\t\tblock.timestamp < lastThresholdRedeemed.add(couponThreshold)) {\n\t\t\t\tcontinue;\n\t\t\t}\n\n\t\t\ttoRedeem = (block.timestamp.sub(lastThresholdRedeemed)).div(couponThreshold);\n\n\t\t\tif (toRedeem == 0) {\n\t\t\t\tcontinue;\n\t\t\t}\n\n\t\t\tcouponsRedeemed[_bonds[i]] = couponsRedeemed[_bonds[i]].add(toRedeem);\n\t\t\tgetMoney( toRedeem.mul(parValue.mul(couponRate).div( 10 ** (parDecimals.add(2)) ) ), msg.sender );\n\t\t\tif (couponsRedeemed[_bonds[i]] == timesToRedeem) {\n\t\t\t\tbonds[_bonds[i]] = address(0);\n\t\t\t\tmaturities[_bonds[i]] = 0;\n\t\t\t\tbondsAmount[msg.sender]--;\n\t\t\t\tgetMoney(parValue.div( (10 ** parDecimals) ), msg.sender );\n\t\t\t}\n\n\t\t}\n\n\t\temit RedeemedCoupons(msg.sender, _bonds);\n\t}\n\n\t/**\n\t* @notice Transfer bonds to another address\n\t* @param receiver The receiver of the bonds\n\t* @param _bonds The ids of the bonds that you want to transfer\n\t*/\n\tfunction transfer(address receiver, uint256[] memory _bonds) public {\n\t\trequire(_bonds.length > 0);\n\t\trequire(receiver != address(0));\n\t\trequire(_bonds.length <= getBalance(msg.sender));\n\n\t\tfor (uint256 i = 0; i < _bonds.length; i++) {\n\t\t\tif (bonds[_bonds[i]] != msg.sender || couponsRedeemed[_bonds[i]] == timesToRedeem) {\n\t\t\tcontinue;\n\t\t}\n\t\t\tbonds[_bonds[i]] = receiver;\n\t\t\tbondsAmount[msg.sender] = bondsAmount[msg.sender].sub(1);\n\t\t\tbondsAmount[receiver] = bondsAmount[receiver].add(1);\n\t\t}\n\n\t\temit Transferred(msg.sender, receiver, _bonds);\n\t}\n\n\t/**\n\t* @notice Donate money to this contract\n\t*/\n\tfunction donate() public payable {\n\t\trequire(address(token) == address(0));\n\t}\n\n\treceive() external payable {\n\t\trevert();\n    }\n\n\t// ============================================================================================\n\t// Private Functions\n\t// ============================================================================================\n\n\t/**\n\t* @notice Transfer coupon money to an address\n\t* @param amount The amount of money to be transferred\n\t* @param receiver The address which will receive the money\n\t*/\n\tfunction getMoney(uint256 amount, address receiver) private {\n\t\tif (address(token) == address(0)) {\n\t\t\tpayable(receiver).transfer(amount);\n\t\t}\n\t\telse {\n\t\t\ttoken.transfer(msg.sender, amount);\n\t\t}\n\t\ttotalDebt = totalDebt.sub(amount);\n\t}\n\n\t// ============================================================================================\n\t// Getters\n\t// ============================================================================================\n\n\t/**\n\t* @dev Get the last time coupons for a particular bond were redeemed\n\t* @param bond The bond id to analyze\n\t*/\n\tfunction getLastTimeRedeemed(uint256 bond) public view returns (uint256) {\n\t\tuint256 issueDate = maturities[bond].sub(term);\n\t\tuint256 lastThresholdRedeemed = issueDate.add(couponsRedeemed[bond].mul(couponThreshold));\n\t\treturn lastThresholdRedeemed;\n\t}\n\n\t/**\n\t* @dev Get the owner of a specific bond\n\t* @param bond The bond id to analyze\n\t*/\n\tfunction getBondOwner(uint256 bond) public view returns (address) {\n\t\treturn bonds[bond];\n\t}\n\n\t/**\n\t* @dev Get how many coupons remain to be redeemed for a specific bond\n\t* @param bond The bond id to analyze\n\t*/\n\tfunction getRemainingCoupons(uint256 bond) public view returns (int256) {\n\t\taddress owner = getBondOwner(bond);\n\t\tif (owner == address(0)) {\n\t\treturn -1;\n\t}\n\t\tuint256 redeemed = getCouponsRedeemed(bond);\n\t\treturn int256(timesToRedeem - redeemed);\n\t}\n\n\t/**\n\t* @dev Get how many coupons were redeemed for a specific bond\n\t* @param bond The bond id to analyze\n\t*/\n\tfunction getCouponsRedeemed(uint256 bond) public view returns (uint256) {\n\t\treturn couponsRedeemed[bond];\n\t}\n\n\t/**\n\t* @dev Get the address of the token that is redeemed for coupons\n\t*/\n\tfunction getTokenAddress() public view returns (address) {\n\t\treturn (address(token));\n\t}\n\n\t/**\n\t* @dev Get how many times coupons can be redeemed for bonds\n\t*/\n\tfunction getTimesToRedeem() public view returns (uint256) {\n\t\treturn timesToRedeem;\n\t}\n\n\t/**\n\t* @dev Get how much time it takes for a bond to mature\n\t*/\n\tfunction getTerm() public view returns (uint256) {\n\t\treturn term;\n\t}\n\n\t/**\n\t* @dev Get the maturity date for a specific bond\n\t* @param bond The bond id to analyze\n\t*/\n\tfunction getMaturity(uint256 bond) public view returns (uint256) {\n\t\treturn maturities[bond];\n\t}\n\n\t/**\n\t* @dev Get how much money is redeemed on a coupon\n\t*/\n\tfunction getSimpleInterest() public view returns (uint256) {\n\t\tuint256 rate = getCouponRate();\n\t\tuint256 par = getParValue();\n\t\treturn par.mul(rate).div(100);\n\t}\n\n\t/**\n\t* @dev Get the yield of a bond\n\t*/\n\tfunction getCouponRate() public view returns (uint256) {\n\t\treturn couponRate;\n\t}\n\n\t/**\n\t* @dev Get the par value for these bonds\n\t*/\n\tfunction getParValue() public view returns (uint256) {\n\t\treturn parValue;\n\t}\n\n\t/**\n\t* @dev Get the cap amount for these bonds\n\t*/\n\tfunction getCap() public view returns (uint256) {\n\t\treturn cap;\n\t}\n\n\t/**\n\t* @dev Get amount of bonds that an address has\n\t* @param who The address to analyze\n\t*/\n\tfunction getBalance(address who) public view returns (uint256) {\n\t\treturn bondsAmount[who];\n\t}\n\n\t/**\n\t* @dev If the par value is a real number, it might have decimals. Get the amount of decimals the par value has\n\t*/\n\tfunction getParDecimals() public view returns (uint256) {\n\t\treturn parDecimals;\n\t}\n\n\t/**\n\t* @dev Get the address of the token redeemed for coupons\n\t*/\n\tfunction getTokenToRedeem() public view returns (address) {\n\t\treturn tokenToRedeem;\n\t}\n\n\t/**\n\t* @dev Get the name of this smart bond contract\n\t*/\n\tfunction getName() public view returns (string memory) {\n\t\treturn name;\n\t}\n\n\t/**\n\t* @dev Get the current unpaid debt\n\t*/\n\tfunction getTotalDebt() public view returns (uint256) {\n\t\treturn totalDebt;\n\t}\n\n\t/**\n\t* @dev Get the total amount of bonds issued\n\t*/\n\tfunction getTotalBonds() public view returns (uint256) {\n\t\treturn bondsNumber;\n\t}\n\n\t/**\n\t* @dev Get the latest nonce\n\t*/\n\tfunction getNonce() public view returns (uint256) {\n\t\treturn nonce;\n\t}\n\n\t/**\n\t* @dev Get the amount of time that needs to pass between the dates when you can redeem coupons\n\t*/\n\tfunction getCouponThreshold() public view returns (uint256) {\n\t\treturn couponThreshold;\n\t}\n\n}\n",
  "sourcePath": "/Users/philip/go/src/github.com/Univ-Wyo-Education/S22-4010/class/lect/33/eth/contracts/ZeroCouplonBond.sol",
  "compiler": {
    "name": "solc",
    "version": "0.8.1+commit.df193b15.Emscripten.clang"
  },
  "schemaVersion": "3.4.5",
  "updatedAt": "2022-04-13T15:29:26.607Z",
  "devdoc": {
    "kind": "dev",
    "methods": {
      "changeLoopLimit(uint256)": {
        "params": {
          "_loopLimit": "The new loop limit"
        }
      },
      "getBalance(address)": {
        "details": "Get amount of bonds that an address has",
        "params": {
          "who": "The address to analyze"
        }
      },
      "getBondOwner(uint256)": {
        "details": "Get the owner of a specific bond",
        "params": {
          "bond": "The bond id to analyze"
        }
      },
      "getCap()": {
        "details": "Get the cap amount for these bonds"
      },
      "getCouponRate()": {
        "details": "Get the yield of a bond"
      },
      "getCouponThreshold()": {
        "details": "Get the amount of time that needs to pass between the dates when you can redeem coupons"
      },
      "getCouponsRedeemed(uint256)": {
        "details": "Get how many coupons were redeemed for a specific bond",
        "params": {
          "bond": "The bond id to analyze"
        }
      },
      "getLastTimeRedeemed(uint256)": {
        "details": "Get the last time coupons for a particular bond were redeemed",
        "params": {
          "bond": "The bond id to analyze"
        }
      },
      "getMaturity(uint256)": {
        "details": "Get the maturity date for a specific bond",
        "params": {
          "bond": "The bond id to analyze"
        }
      },
      "getName()": {
        "details": "Get the name of this smart bond contract"
      },
      "getNonce()": {
        "details": "Get the latest nonce"
      },
      "getParDecimals()": {
        "details": "If the par value is a real number, it might have decimals. Get the amount of decimals the par value has"
      },
      "getParValue()": {
        "details": "Get the par value for these bonds"
      },
      "getRemainingCoupons(uint256)": {
        "details": "Get how many coupons remain to be redeemed for a specific bond",
        "params": {
          "bond": "The bond id to analyze"
        }
      },
      "getSimpleInterest()": {
        "details": "Get how much money is redeemed on a coupon"
      },
      "getTerm()": {
        "details": "Get how much time it takes for a bond to mature"
      },
      "getTimesToRedeem()": {
        "details": "Get how many times coupons can be redeemed for bonds"
      },
      "getTokenAddress()": {
        "details": "Get the address of the token that is redeemed for coupons"
      },
      "getTokenToRedeem()": {
        "details": "Get the address of the token redeemed for coupons"
      },
      "getTotalBonds()": {
        "details": "Get the total amount of bonds issued"
      },
      "getTotalDebt()": {
        "details": "Get the current unpaid debt"
      },
      "mintBond(address,uint256)": {
        "params": {
          "_bondsAmount": "How many bonds to mint",
          "buyer": "The buyer of the bonds"
        }
      },
      "owner()": {
        "details": "Returns the address of the current owner."
      },
      "redeemCoupons(uint256[])": {
        "params": {
          "_bonds": "An array of bond ids corresponding to the bonds you want to redeem apon"
        }
      },
      "renounceOwnership()": {
        "details": "Leaves the contract without owner. It will not be possible to call `onlyOwner` functions anymore. Can only be called by the current owner. NOTE: Renouncing ownership will leave the contract without an owner, thereby removing any functionality that is only available to the owner."
      },
      "transfer(address,uint256[])": {
        "params": {
          "_bonds": "The ids of the bonds that you want to transfer",
          "receiver": "The receiver of the bonds"
        }
      },
      "transferOwnership(address)": {
        "details": "Transfers ownership of the contract to a new account (`newOwner`). Can only be called by the current owner."
      }
    },
    "version": 1
  },
  "userdoc": {
    "kind": "user",
    "methods": {
      "changeLoopLimit(uint256)": {
        "notice": "Change the number of elements you can loop through in this contract"
      },
      "donate()": {
        "notice": "Donate money to this contract"
      },
      "mintBond(address,uint256)": {
        "notice": "Mint bonds to a new buyer - this is the bond \"issue\""
      },
      "redeemCoupons(uint256[])": {
        "notice": "Redeem coupons on your bonds"
      },
      "transfer(address,uint256[])": {
        "notice": "Transfer bonds to another address"
      }
    },
    "version": 1
  }
}