{
  "contractName": "GenEvent",
  "abi": [
    {
      "inputs": [],
      "stateMutability": "nonpayable",
      "type": "constructor"
    },
    {
      "anonymous": false,
      "inputs": [
        {
          "indexed": false,
          "internalType": "bytes32",
          "name": "key",
          "type": "bytes32"
        },
        {
          "indexed": false,
          "internalType": "uint256",
          "name": "value",
          "type": "uint256"
        }
      ],
      "name": "DataChanged",
      "type": "event"
    },
    {
      "inputs": [
        {
          "internalType": "bytes32",
          "name": "",
          "type": "bytes32"
        }
      ],
      "name": "savedData",
      "outputs": [
        {
          "internalType": "uint256",
          "name": "",
          "type": "uint256"
        }
      ],
      "stateMutability": "view",
      "type": "function"
    },
    {
      "inputs": [
        {
          "internalType": "bytes32",
          "name": "key",
          "type": "bytes32"
        },
        {
          "internalType": "uint256",
          "name": "value",
          "type": "uint256"
        }
      ],
      "name": "setData",
      "outputs": [],
      "stateMutability": "nonpayable",
      "type": "function"
    }
  ],
  "bytecode": "0x608060405234801561001057600080fd5b5061025c806100206000396000f3fe608060405234801561001057600080fd5b50600436106100365760003560e01c80633a9400881461003b578063ee58e2ec1461006b575b600080fd5b6100556004803603810190610050919061011d565b610087565b60405161006291906101c9565b60405180910390f35b61008560048036038101906100809190610146565b61009f565b005b60006020528060005260406000206000915090505481565b80600080848152602001908152602001600020819055507fb1f1b9fbb4aec05691a2a33a05992262ef544a112032a9a21408fe4cfa030e4382826040516100e79291906101a0565b60405180910390a15050565b600081359050610102816101f8565b92915050565b6000813590506101178161020f565b92915050565b60006020828403121561012f57600080fd5b600061013d848285016100f3565b91505092915050565b6000806040838503121561015957600080fd5b6000610167858286016100f3565b925050602061017885828601610108565b9150509250929050565b61018b816101e4565b82525050565b61019a816101ee565b82525050565b60006040820190506101b56000830185610182565b6101c26020830184610191565b9392505050565b60006020820190506101de6000830184610191565b92915050565b6000819050919050565b6000819050919050565b610201816101e4565b811461020c57600080fd5b50565b610218816101ee565b811461022357600080fd5b5056fea2646970667358221220dd31938fe482ae8980d1d562974874ef6de43f1b618febd69b8e4d6dcbfd624864736f6c63430008010033",
  "immutableReferences": {},
  "source": "// SPDX-License-Identifier: MIT\npragma solidity >=0.4.22 <0.9.0;\n\ncontract GenEvent {\n\tevent DataChanged(bytes32 key, uint256 value);\n\n\tmapping (bytes32 => uint256) public savedData;\n\n\tconstructor() {}\n\n\tfunction setData(bytes32 key, uint256 value) external {\n\t\tsavedData[key] = value;\n\t\temit DataChanged(key, value);\n\t}\n}\n",
  "sourcePath": "/Users/philip/go/src/github.com/Univ-Wyo-Education/S22-4010/class/lect/22/scan-event/eth/contracts/GenEvent.sol",
  "compiler": {
    "name": "solc",
    "version": "0.8.1+commit.df193b15.Emscripten.clang"
  },
  "schemaVersion": "3.4.5",
  "updatedAt": "2022-03-09T13:21:52.052Z",
  "devdoc": {
    "kind": "dev",
    "methods": {},
    "version": 1
  },
  "userdoc": {
    "kind": "user",
    "methods": {},
    "version": 1
  }
}