{
  "contractName": "Doc0",
  "abi": [
    {
      "inputs": [],
      "stateMutability": "nonpayable",
      "type": "constructor"
    },
    {
      "anonymous": false,
      "inputs": [
        {
          "indexed": false,
          "internalType": "string",
          "name": "",
          "type": "string"
        },
        {
          "indexed": false,
          "internalType": "bytes32",
          "name": "",
          "type": "bytes32"
        },
        {
          "indexed": false,
          "internalType": "string",
          "name": "",
          "type": "string"
        },
        {
          "indexed": true,
          "internalType": "address",
          "name": "",
          "type": "address"
        }
      ],
      "name": "DocumentNoterized",
      "type": "event"
    },
    {
      "anonymous": false,
      "inputs": [
        {
          "indexed": true,
          "internalType": "address",
          "name": "",
          "type": "address"
        },
        {
          "indexed": false,
          "internalType": "string",
          "name": "",
          "type": "string"
        },
        {
          "indexed": false,
          "internalType": "bytes32",
          "name": "",
          "type": "bytes32"
        },
        {
          "indexed": false,
          "internalType": "string",
          "name": "",
          "type": "string"
        }
      ],
      "name": "DocumentOwner",
      "type": "event"
    },
    {
      "anonymous": false,
      "inputs": [
        {
          "indexed": false,
          "internalType": "string",
          "name": "",
          "type": "string"
        },
        {
          "indexed": true,
          "internalType": "bytes32",
          "name": "",
          "type": "bytes32"
        },
        {
          "indexed": false,
          "internalType": "string",
          "name": "",
          "type": "string"
        }
      ],
      "name": "DocumentSet",
      "type": "event"
    },
    {
      "anonymous": false,
      "inputs": [
        {
          "indexed": false,
          "internalType": "address",
          "name": "",
          "type": "address"
        },
        {
          "indexed": false,
          "internalType": "uint256",
          "name": "",
          "type": "uint256"
        }
      ],
      "name": "LogWithdrawal",
      "type": "event"
    },
    {
      "anonymous": false,
      "inputs": [
        {
          "indexed": true,
          "internalType": "address",
          "name": "previousOwner",
          "type": "address"
        },
        {
          "indexed": true,
          "internalType": "address",
          "name": "newOwner",
          "type": "address"
        }
      ],
      "name": "OwnershipTransferred",
      "type": "event"
    },
    {
      "inputs": [],
      "name": "owner",
      "outputs": [
        {
          "internalType": "address",
          "name": "",
          "type": "address"
        }
      ],
      "stateMutability": "view",
      "type": "function"
    },
    {
      "inputs": [],
      "name": "renounceOwnership",
      "outputs": [],
      "stateMutability": "nonpayable",
      "type": "function"
    },
    {
      "inputs": [
        {
          "internalType": "address",
          "name": "newOwner",
          "type": "address"
        }
      ],
      "name": "transferOwnership",
      "outputs": [],
      "stateMutability": "nonpayable",
      "type": "function"
    },
    {
      "inputs": [
        {
          "internalType": "uint256",
          "name": "p",
          "type": "uint256"
        }
      ],
      "name": "setPayment",
      "outputs": [],
      "stateMutability": "nonpayable",
      "type": "function"
    },
    {
      "inputs": [],
      "name": "getPayment",
      "outputs": [
        {
          "internalType": "uint256",
          "name": "",
          "type": "uint256"
        }
      ],
      "stateMutability": "view",
      "type": "function"
    },
    {
      "inputs": [
        {
          "internalType": "address",
          "name": "aNotery",
          "type": "address"
        }
      ],
      "name": "setNoterizer",
      "outputs": [],
      "stateMutability": "nonpayable",
      "type": "function"
    },
    {
      "inputs": [
        {
          "internalType": "address",
          "name": "aNotery",
          "type": "address"
        }
      ],
      "name": "rmNoterizer",
      "outputs": [],
      "stateMutability": "nonpayable",
      "type": "function"
    },
    {
      "inputs": [
        {
          "internalType": "address",
          "name": "aNotery",
          "type": "address"
        }
      ],
      "name": "isValidNoterizer",
      "outputs": [
        {
          "internalType": "bool",
          "name": "",
          "type": "bool"
        }
      ],
      "stateMutability": "view",
      "type": "function"
    },
    {
      "inputs": [
        {
          "internalType": "string",
          "name": "name",
          "type": "string"
        },
        {
          "internalType": "bytes32",
          "name": "infoHash",
          "type": "bytes32"
        },
        {
          "internalType": "string",
          "name": "info",
          "type": "string"
        }
      ],
      "name": "newDocument",
      "outputs": [
        {
          "internalType": "bool",
          "name": "",
          "type": "bool"
        }
      ],
      "stateMutability": "payable",
      "type": "function"
    },
    {
      "inputs": [
        {
          "internalType": "string",
          "name": "name",
          "type": "string"
        },
        {
          "internalType": "bytes32",
          "name": "infoHash",
          "type": "bytes32"
        },
        {
          "internalType": "string",
          "name": "info",
          "type": "string"
        }
      ],
      "name": "noterizeDocument",
      "outputs": [
        {
          "internalType": "bool",
          "name": "",
          "type": "bool"
        }
      ],
      "stateMutability": "nonpayable",
      "type": "function"
    },
    {
      "inputs": [],
      "name": "nDocuments",
      "outputs": [
        {
          "internalType": "uint256",
          "name": "",
          "type": "uint256"
        }
      ],
      "stateMutability": "view",
      "type": "function"
    },
    {
      "inputs": [
        {
          "internalType": "bytes32",
          "name": "infoHash",
          "type": "bytes32"
        }
      ],
      "name": "ownerOfDocument",
      "outputs": [
        {
          "internalType": "address",
          "name": "",
          "type": "address"
        }
      ],
      "stateMutability": "view",
      "type": "function"
    },
    {
      "inputs": [
        {
          "internalType": "uint256",
          "name": "nth",
          "type": "uint256"
        }
      ],
      "name": "getDocName",
      "outputs": [
        {
          "internalType": "string",
          "name": "",
          "type": "string"
        }
      ],
      "stateMutability": "view",
      "type": "function"
    },
    {
      "inputs": [
        {
          "internalType": "uint256",
          "name": "nth",
          "type": "uint256"
        }
      ],
      "name": "getDocInfoHash",
      "outputs": [
        {
          "internalType": "bytes32",
          "name": "",
          "type": "bytes32"
        }
      ],
      "stateMutability": "view",
      "type": "function"
    },
    {
      "inputs": [
        {
          "internalType": "uint256",
          "name": "nth",
          "type": "uint256"
        }
      ],
      "name": "getDocInfo",
      "outputs": [
        {
          "internalType": "string",
          "name": "",
          "type": "string"
        }
      ],
      "stateMutability": "view",
      "type": "function"
    },
    {
      "inputs": [],
      "name": "getBalance",
      "outputs": [
        {
          "internalType": "uint256",
          "name": "balance",
          "type": "uint256"
        }
      ],
      "stateMutability": "view",
      "type": "function"
    },
    {
      "inputs": [
        {
          "internalType": "uint256",
          "name": "amount",
          "type": "uint256"
        }
      ],
      "name": "withdraw",
      "outputs": [
        {
          "internalType": "bool",
          "name": "success",
          "type": "bool"
        }
      ],
      "stateMutability": "nonpayable",
      "type": "function"
    }
  ],
  "bytecode": "0x608060405234801561001057600080fd5b5061002d61002261003a60201b60201c565b61004260201b60201c565b6001600681905550610106565b600033905090565b60008060009054906101000a900473ffffffffffffffffffffffffffffffffffffffff169050816000806101000a81548173ffffffffffffffffffffffffffffffffffffffff021916908373ffffffffffffffffffffffffffffffffffffffff1602179055508173ffffffffffffffffffffffffffffffffffffffff168173ffffffffffffffffffffffffffffffffffffffff167f8be0079c531659141344cd1fd0a4f28419497f9722a3daafe3b4186f6b6457e060405160405180910390a35050565b61221e80620001166000396000f3fe6080604052600436106100fe5760003560e01c80636138fede11610095578063bb328a7d11610064578063bb328a7d1461034e578063c640e4fc14610379578063c9d4093c146103b6578063deb32315146103df578063f2fde38b1461041c576100fe565b80636138fede14610292578063715018a6146102cf5780638da5cb5b146102e65780639c3cba6214610311576100fe565b80632fffa196116100d15780632fffa196146101c45780633374e90e146101ed578063450d2ddc1461022a5780635b945cb514610255576100fe565b806312065fe0146101035780632148ebc01461012e57806321b669d21461015e5780632e1a7d4d14610187575b600080fd5b34801561010f57600080fd5b50610118610445565b6040516101259190611e45565b60405180910390f35b61014860048036038101906101439190611a3b565b6104e0565b6040516101559190611c91565b60405180910390f35b34801561016a57600080fd5b50610185600480360381019061018091906119e9565b6107f0565b005b34801561019357600080fd5b506101ae60048036038101906101a99190611aba565b6108c7565b6040516101bb9190611c91565b60405180910390f35b3480156101d057600080fd5b506101eb60048036038101906101e69190611aba565b6109ce565b005b3480156101f957600080fd5b50610214600480360381019061020f9190611aba565b610a54565b6040516102219190611cac565b60405180910390f35b34801561023657600080fd5b5061023f610d11565b60405161024c9190611e45565b60405180910390f35b34801561026157600080fd5b5061027c60048036038101906102779190611a3b565b610d5b565b6040516102899190611c91565b60405180910390f35b34801561029e57600080fd5b506102b960048036038101906102b49190611aba565b610ef9565b6040516102c69190611cc7565b60405180910390f35b3480156102db57600080fd5b506102e46111b7565b005b3480156102f257600080fd5b506102fb61123f565b6040516103089190611c4d565b60405180910390f35b34801561031d57600080fd5b50610338600480360381019061033391906119e9565b611268565b6040516103459190611c91565b60405180910390f35b34801561035a57600080fd5b506103636112be565b6040516103709190611e45565b60405180910390f35b34801561038557600080fd5b506103a0600480360381019061039b9190611aba565b6112c8565b6040516103ad9190611cc7565b60405180910390f35b3480156103c257600080fd5b506103dd60048036038101906103d891906119e9565b611586565b005b3480156103eb57600080fd5b5061040660048036038101906104019190611a12565b61165d565b6040516104139190611c4d565b60405180910390f35b34801561042857600080fd5b50610443600480360381019061043e91906119e9565b61169a565b005b600061044f611792565b73ffffffffffffffffffffffffffffffffffffffff1661046d61123f565b73ffffffffffffffffffffffffffffffffffffffff16146104c3576040517f08c379a00000000000000000000000000000000000000000000000000000000081526004016104ba90611dc5565b60405180910390fd5b3073ffffffffffffffffffffffffffffffffffffffff1631905090565b60006003600084815260200190815260200160002060009054906101000a900460ff1615610543576040517f08c379a000000000000000000000000000000000000000000000000000000000815260040161053a90611d65565b60405180910390fd5b600654341015610588576040517f08c379a000000000000000000000000000000000000000000000000000000000815260040161057f90611de5565b60405180910390fd5b60016003600085815260200190815260200160002060006101000a81548160ff0219169083151502179055506105bc61185e565b84816000018190525033816020019073ffffffffffffffffffffffffffffffffffffffff16908173ffffffffffffffffffffffffffffffffffffffff168152505083816040018181525050828160600181905250600160003373ffffffffffffffffffffffffffffffffffffffff1673ffffffffffffffffffffffffffffffffffffffff168152602001908152602001600020819080600181540180825580915050600190039060005260206000209060040201600090919091909150600082015181600001908051906020019061069592919061189f565b5060208201518160010160006101000a81548173ffffffffffffffffffffffffffffffffffffffff021916908373ffffffffffffffffffffffffffffffffffffffff16021790555060408201518160020155606082015181600301908051906020019061070392919061189f565b505050336002600086815260200190815260200160002060006101000a81548173ffffffffffffffffffffffffffffffffffffffff021916908373ffffffffffffffffffffffffffffffffffffffff160217905550837fdf9bfd950a2c1a986847e0be7eb1df02009e37d17afa71e948f9615d9d2bbdac868560405161078a929190611d2e565b60405180910390a23373ffffffffffffffffffffffffffffffffffffffff167fa8b4f8be7ca4b3d9fa79dbdd00f0c3250eff8da74df2901023d13380501a2e7e8686866040516107dc93929190611ce9565b60405180910390a260019150509392505050565b6107f8611792565b73ffffffffffffffffffffffffffffffffffffffff1661081661123f565b73ffffffffffffffffffffffffffffffffffffffff161461086c576040517f08c379a000000000000000000000000000000000000000000000000000000000815260040161086390611dc5565b60405180910390fd5b6000600460008373ffffffffffffffffffffffffffffffffffffffff1673ffffffffffffffffffffffffffffffffffffffff16815260200190815260200160002060006101000a81548160ff02191690831515021790555050565b60006108d1611792565b73ffffffffffffffffffffffffffffffffffffffff166108ef61123f565b73ffffffffffffffffffffffffffffffffffffffff1614610945576040517f08c379a000000000000000000000000000000000000000000000000000000000815260040161093c90611dc5565b60405180910390fd5b7fb4214c8c54fc7442f36d3682f59aebaf09358a4431835b30efb29d52cf9e1e913383604051610976929190611c68565b60405180910390a13373ffffffffffffffffffffffffffffffffffffffff166108fc839081150290604051600060405180830381858888f193505050501580156109c4573d6000803e3d6000fd5b5060019050919050565b6109d6611792565b73ffffffffffffffffffffffffffffffffffffffff166109f461123f565b73ffffffffffffffffffffffffffffffffffffffff1614610a4a576040517f08c379a0000000000000000000000000000000000000000000000000000000008152600401610a4190611dc5565b60405180910390fd5b8060068190555050565b6000808210158015610aa75750600160003373ffffffffffffffffffffffffffffffffffffffff1673ffffffffffffffffffffffffffffffffffffffff1681526020019081526020016000208054905082105b610ae6576040517f08c379a0000000000000000000000000000000000000000000000000000000008152600401610add90611d85565b60405180910390fd5b610aee61185e565b600160003373ffffffffffffffffffffffffffffffffffffffff1673ffffffffffffffffffffffffffffffffffffffff1681526020019081526020016000208381548110610b65577f4e487b7100000000000000000000000000000000000000000000000000000000600052603260045260246000fd5b9060005260206000209060040201604051806080016040529081600082018054610b8e90611f66565b80601f0160208091040260200160405190810160405280929190818152602001828054610bba90611f66565b8015610c075780601f10610bdc57610100808354040283529160200191610c07565b820191906000526020600020905b815481529060010190602001808311610bea57829003601f168201915b505050505081526020016001820160009054906101000a900473ffffffffffffffffffffffffffffffffffffffff1673ffffffffffffffffffffffffffffffffffffffff1673ffffffffffffffffffffffffffffffffffffffff16815260200160028201548152602001600382018054610c8090611f66565b80601f0160208091040260200160405190810160405280929190818152602001828054610cac90611f66565b8015610cf95780601f10610cce57610100808354040283529160200191610cf9565b820191906000526020600020905b815481529060010190602001808311610cdc57829003601f168201915b50505050508152505090508060400151915050919050565b6000600160003373ffffffffffffffffffffffffffffffffffffffff1673ffffffffffffffffffffffffffffffffffffffff16815260200190815260200160002080549050905090565b60006003600084815260200190815260200160002060009054906101000a900460ff16610dbd576040517f08c379a0000000000000000000000000000000000000000000000000000000008152600401610db490611e25565b60405180910390fd5b600460003373ffffffffffffffffffffffffffffffffffffffff1673ffffffffffffffffffffffffffffffffffffffff16815260200190815260200160002060009054906101000a900460ff1615610e4a576040517f08c379a0000000000000000000000000000000000000000000000000000000008152600401610e4190611e05565b60405180910390fd5b336005600085815260200190815260200160002060006101000a81548173ffffffffffffffffffffffffffffffffffffffff021916908373ffffffffffffffffffffffffffffffffffffffff1602179055503373ffffffffffffffffffffffffffffffffffffffff167f6e431716b9ceb8dda1e9f507c4acb43b2505cf975b0c29438b4585058ee7aad7858585604051610ee693929190611ce9565b60405180910390a2600190509392505050565b606060008210158015610f4d5750600160003373ffffffffffffffffffffffffffffffffffffffff1673ffffffffffffffffffffffffffffffffffffffff1681526020019081526020016000208054905082105b610f8c576040517f08c379a0000000000000000000000000000000000000000000000000000000008152600401610f8390611d85565b60405180910390fd5b610f9461185e565b600160003373ffffffffffffffffffffffffffffffffffffffff1673ffffffffffffffffffffffffffffffffffffffff168152602001908152602001600020838154811061100b577f4e487b7100000000000000000000000000000000000000000000000000000000600052603260045260246000fd5b906000526020600020906004020160405180608001604052908160008201805461103490611f66565b80601f016020809104026020016040519081016040528092919081815260200182805461106090611f66565b80156110ad5780601f10611082576101008083540402835291602001916110ad565b820191906000526020600020905b81548152906001019060200180831161109057829003601f168201915b505050505081526020016001820160009054906101000a900473ffffffffffffffffffffffffffffffffffffffff1673ffffffffffffffffffffffffffffffffffffffff1673ffffffffffffffffffffffffffffffffffffffff1681526020016002820154815260200160038201805461112690611f66565b80601f016020809104026020016040519081016040528092919081815260200182805461115290611f66565b801561119f5780601f106111745761010080835404028352916020019161119f565b820191906000526020600020905b81548152906001019060200180831161118257829003601f168201915b50505050508152505090508060600151915050919050565b6111bf611792565b73ffffffffffffffffffffffffffffffffffffffff166111dd61123f565b73ffffffffffffffffffffffffffffffffffffffff1614611233576040517f08c379a000000000000000000000000000000000000000000000000000000000815260040161122a90611dc5565b60405180910390fd5b61123d600061179a565b565b60008060009054906101000a900473ffffffffffffffffffffffffffffffffffffffff16905090565b6000600460008373ffffffffffffffffffffffffffffffffffffffff1673ffffffffffffffffffffffffffffffffffffffff16815260200190815260200160002060009054906101000a900460ff169050919050565b6000600654905090565b60606000821015801561131c5750600160003373ffffffffffffffffffffffffffffffffffffffff1673ffffffffffffffffffffffffffffffffffffffff1681526020019081526020016000208054905082105b61135b576040517f08c379a000000000000000000000000000000000000000000000000000000000815260040161135290611d85565b60405180910390fd5b61136361185e565b600160003373ffffffffffffffffffffffffffffffffffffffff1673ffffffffffffffffffffffffffffffffffffffff16815260200190815260200160002083815481106113da577f4e487b7100000000000000000000000000000000000000000000000000000000600052603260045260246000fd5b906000526020600020906004020160405180608001604052908160008201805461140390611f66565b80601f016020809104026020016040519081016040528092919081815260200182805461142f90611f66565b801561147c5780601f106114515761010080835404028352916020019161147c565b820191906000526020600020905b81548152906001019060200180831161145f57829003601f168201915b505050505081526020016001820160009054906101000a900473ffffffffffffffffffffffffffffffffffffffff1673ffffffffffffffffffffffffffffffffffffffff1673ffffffffffffffffffffffffffffffffffffffff168152602001600282015481526020016003820180546114f590611f66565b80601f016020809104026020016040519081016040528092919081815260200182805461152190611f66565b801561156e5780601f106115435761010080835404028352916020019161156e565b820191906000526020600020905b81548152906001019060200180831161155157829003601f168201915b50505050508152505090508060000151915050919050565b61158e611792565b73ffffffffffffffffffffffffffffffffffffffff166115ac61123f565b73ffffffffffffffffffffffffffffffffffffffff1614611602576040517f08c379a00000000000000000000000000000000000000000000000000000000081526004016115f990611dc5565b60405180910390fd5b6001600460008373ffffffffffffffffffffffffffffffffffffffff1673ffffffffffffffffffffffffffffffffffffffff16815260200190815260200160002060006101000a81548160ff02191690831515021790555050565b60006002600083815260200190815260200160002060009054906101000a900473ffffffffffffffffffffffffffffffffffffffff169050919050565b6116a2611792565b73ffffffffffffffffffffffffffffffffffffffff166116c061123f565b73ffffffffffffffffffffffffffffffffffffffff1614611716576040517f08c379a000000000000000000000000000000000000000000000000000000000815260040161170d90611dc5565b60405180910390fd5b600073ffffffffffffffffffffffffffffffffffffffff168173ffffffffffffffffffffffffffffffffffffffff161415611786576040517f08c379a000000000000000000000000000000000000000000000000000000000815260040161177d90611da5565b60405180910390fd5b61178f8161179a565b50565b600033905090565b60008060009054906101000a900473ffffffffffffffffffffffffffffffffffffffff169050816000806101000a81548173ffffffffffffffffffffffffffffffffffffffff021916908373ffffffffffffffffffffffffffffffffffffffff1602179055508173ffffffffffffffffffffffffffffffffffffffff168173ffffffffffffffffffffffffffffffffffffffff167f8be0079c531659141344cd1fd0a4f28419497f9722a3daafe3b4186f6b6457e060405160405180910390a35050565b604051806080016040528060608152602001600073ffffffffffffffffffffffffffffffffffffffff16815260200160008019168152602001606081525090565b8280546118ab90611f66565b90600052602060002090601f0160209004810192826118cd5760008555611914565b82601f106118e657805160ff1916838001178555611914565b82800160010185558215611914579182015b828111156119135782518255916020019190600101906118f8565b5b5090506119219190611925565b5090565b5b8082111561193e576000816000905550600101611926565b5090565b600061195561195084611e85565b611e60565b90508281526020810184848401111561196d57600080fd5b611978848285611f24565b509392505050565b60008135905061198f816121a3565b92915050565b6000813590506119a4816121ba565b92915050565b600082601f8301126119bb57600080fd5b81356119cb848260208601611942565b91505092915050565b6000813590506119e3816121d1565b92915050565b6000602082840312156119fb57600080fd5b6000611a0984828501611980565b91505092915050565b600060208284031215611a2457600080fd5b6000611a3284828501611995565b91505092915050565b600080600060608486031215611a5057600080fd5b600084013567ffffffffffffffff811115611a6a57600080fd5b611a76868287016119aa565b9350506020611a8786828701611995565b925050604084013567ffffffffffffffff811115611aa457600080fd5b611ab0868287016119aa565b9150509250925092565b600060208284031215611acc57600080fd5b6000611ada848285016119d4565b91505092915050565b611aec81611ed2565b82525050565b611afb81611ee4565b82525050565b611b0a81611ef0565b82525050565b6000611b1b82611eb6565b611b258185611ec1565b9350611b35818560208601611f33565b611b3e81612027565b840191505092915050565b6000611b56601f83611ec1565b9150611b6182612038565b602082019050919050565b6000611b79601183611ec1565b9150611b8482612061565b602082019050919050565b6000611b9c602683611ec1565b9150611ba78261208a565b604082019050919050565b6000611bbf602083611ec1565b9150611bca826120d9565b602082019050919050565b6000611be2602183611ec1565b9150611bed82612102565b604082019050919050565b6000611c05601883611ec1565b9150611c1082612151565b602082019050919050565b6000611c28601983611ec1565b9150611c338261217a565b602082019050919050565b611c4781611f1a565b82525050565b6000602082019050611c626000830184611ae3565b92915050565b6000604082019050611c7d6000830185611ae3565b611c8a6020830184611c3e565b9392505050565b6000602082019050611ca66000830184611af2565b92915050565b6000602082019050611cc16000830184611b01565b92915050565b60006020820190508181036000830152611ce18184611b10565b905092915050565b60006060820190508181036000830152611d038186611b10565b9050611d126020830185611b01565b8181036040830152611d248184611b10565b9050949350505050565b60006040820190508181036000830152611d488185611b10565b90508181036020830152611d5c8184611b10565b90509392505050565b60006020820190508181036000830152611d7e81611b49565b9050919050565b60006020820190508181036000830152611d9e81611b6c565b9050919050565b60006020820190508181036000830152611dbe81611b8f565b9050919050565b60006020820190508181036000830152611dde81611bb2565b9050919050565b60006020820190508181036000830152611dfe81611bd5565b9050919050565b60006020820190508181036000830152611e1e81611bf8565b9050919050565b60006020820190508181036000830152611e3e81611c1b565b9050919050565b6000602082019050611e5a6000830184611c3e565b92915050565b6000611e6a611e7b565b9050611e768282611f98565b919050565b6000604051905090565b600067ffffffffffffffff821115611ea057611e9f611ff8565b5b611ea982612027565b9050602081019050919050565b600081519050919050565b600082825260208201905092915050565b6000611edd82611efa565b9050919050565b60008115159050919050565b6000819050919050565b600073ffffffffffffffffffffffffffffffffffffffff82169050919050565b6000819050919050565b82818337600083830152505050565b60005b83811015611f51578082015181840152602081019050611f36565b83811115611f60576000848401525b50505050565b60006002820490506001821680611f7e57607f821691505b60208210811415611f9257611f91611fc9565b5b50919050565b611fa182612027565b810181811067ffffffffffffffff82111715611fc057611fbf611ff8565b5b80604052505050565b7f4e487b7100000000000000000000000000000000000000000000000000000000600052602260045260246000fd5b7f4e487b7100000000000000000000000000000000000000000000000000000000600052604160045260246000fd5b6000601f19601f8301169050919050565b7f616c7265616479207365742c20616c726561647920686173206f776e65722e00600082015250565b7f6e7468206f7574206f662072616e67652e000000000000000000000000000000600082015250565b7f4f776e61626c653a206e6577206f776e657220697320746865207a65726f206160008201527f6464726573730000000000000000000000000000000000000000000000000000602082015250565b7f4f776e61626c653a2063616c6c6572206973206e6f7420746865206f776e6572600082015250565b7f696e73756666696369656e74207061796d656e7420746f20736574206461746160008201527f2e00000000000000000000000000000000000000000000000000000000000000602082015250565b7f6e6f7420612072656769737465726564206e6f746572792e0000000000000000600082015250565b7f646f63756d656e74206e6f742063726561746564207365742e00000000000000600082015250565b6121ac81611ed2565b81146121b757600080fd5b50565b6121c381611ef0565b81146121ce57600080fd5b50565b6121da81611f1a565b81146121e557600080fd5b5056fea26469706673582212209a3fb6e33a8ffe1e42b84dd833075167a9a2eb8ce42391a1e381066ddeb3ede464736f6c63430008010033",
  "immutableReferences": {},
  "source": "// SPDX-License-Identifier: MIT\npragma solidity >=0.4.25 <0.9.0;\n\nimport \"@openzeppelin/contracts/access/Ownable.sol\";\n\ncontract Doc0 is Ownable {\n\n\tstruct docData{\n\t\tstring name;\n\t\taddress owner;\n\t\tbytes32 infoHash;\n\t\tstring userData;\n\t}\n\tmapping(address => docData[]) perUserDocs;\n\tmapping(bytes32 => address) docIndex; // docIndex[infoHash] = msg.sender;\n\tmapping(bytes32 => bool) infoSet;\n\tmapping(address => bool) isNotery;\n\tmapping(bytes32 => address) noterized;\n\tuint256 minPayment;\n\n\tevent DocumentSet(string, bytes32 indexed, string);\n\tevent DocumentOwner(address indexed, string, bytes32, string);\n\tevent DocumentNoterized(string, bytes32, string, address indexed);\n\tevent LogWithdrawal(address,  uint256);\n\n\tconstructor() {\n\t\tminPayment = 1;\n\t}\n\n\tfunction setPayment ( uint256 p ) public onlyOwner {\n\t\tminPayment = p;\n\t}\n\n\t// TODO - add a getPayment function that is a public view.\n\tfunction getPayment() public view returns (uint256) {\n\t\treturn minPayment;\n\t}\n\n\tfunction setNoterizer ( address aNotery ) public onlyOwner {\n\t\tisNotery[aNotery] = true;\n\t}\n\n\tfunction rmNoterizer ( address aNotery ) public onlyOwner {\n\t\tisNotery[aNotery] = false;\n\t}\n\n\t// TODO - add a isValidNoterizer function as a public view that returns true if the passed address is a valid\n\t// noterizer.\n\tfunction isValidNoterizer(address aNotery) public view returns (bool) {\n\t\treturn isNotery[aNotery];\n\t}\n\n\tfunction newDocument ( string memory name, bytes32 infoHash, string memory info ) public payable returns(bool) {\n\t\trequire(!infoSet[infoHash], \"already set, already has owner.\");\t\t// Validate that this is a new document\n\t\trequire(msg.value >= minPayment, \"insufficient payment to set data.\");\t// Validate that they are paying enougn\n\n\t\tinfoSet[infoHash] = true;\t// This will be used in noterizeDocument \n\n\t\t// TODO: declare an in-memory docData structure.\n\t\tdocData memory newDocData;\n\t\t// TODO: set the values in the structure\n\t\tnewDocData.name = name;\n\t\tnewDocData.owner = msg.sender;\n\t\tnewDocData.infoHash = infoHash;\n\t\tnewDocData.userData = info;\n\t\t// TODO: append the structure to perUserDocs for this msg.sender\n\t\tperUserDocs[msg.sender].push(newDocData);\n\t\t// TODO: create in docIndex a way to get to this msg.sender so that the document can be found by docHash\n\t\tdocIndex[infoHash] = msg.sender;\n\t\t// TODO: emit DocumentSet and DocumentOwner events\n\t\temit DocumentSet(name, infoHash, info);\n\t\temit DocumentOwner(msg.sender, name, infoHash, info);\n\t\t\n\t\treturn true;\n\t}\n\n\tfunction noterizeDocument ( string memory name, bytes32 infoHash, string memory info ) public returns (bool) {\n\t\trequire(infoSet[infoHash], \"document not created set.\");\n\t\trequire(!isNotery[msg.sender], \"not a registered notery.\");\n\t\tnoterized[infoHash] = msg.sender;\t\t// Mark that this document has been noterized by a valid notery.\n\t\temit DocumentNoterized(name, infoHash, info, msg.sender);\n\t\treturn true;\n\t}\n\n\n\t// List Documents by Owner of Document\n\tfunction nDocuments() public view returns ( uint256 ) {\n\t\treturn( perUserDocs[msg.sender].length );\n\t}\n\tfunction ownerOfDocument( bytes32 infoHash) public view returns ( address ) {\n\t\treturn( docIndex[infoHash] );\n\t}\n\tfunction getDocName ( uint256 nth ) public view returns ( string memory ) {\n\t\trequire(nth >= 0  && nth < perUserDocs[msg.sender].length, \"nth out of range.\");\n\t\tdocData memory v;\n\t\tv = perUserDocs[msg.sender][nth];\n\t\treturn ( v.name );\n\t}\n\tfunction getDocInfoHash ( uint256 nth ) public view returns ( bytes32 ) {\n\t\trequire(nth >= 0  && nth < perUserDocs[msg.sender].length, \"nth out of range.\");\n\t\tdocData memory v;\n\t\tv = perUserDocs[msg.sender][nth];\n\t\treturn ( v.infoHash );\n\t}\n\tfunction getDocInfo ( uint256 nth ) public view returns ( string memory ) {\n\t\trequire(nth >= 0  && nth < perUserDocs[msg.sender].length, \"nth out of range.\");\n\t\tdocData memory v;\n\t\tv = perUserDocs[msg.sender][nth];\n\t\treturn ( v.userData );\n\t}\n\n\n\t/**\n\t * Find out how much Eth the contract has accumulated.\n     */\n    function getBalance() public view onlyOwner returns(uint balance) {\n        return address(this).balance;\n    }\n\n\t/**\n\t * Transfer out the Eth to the owners account.\n     */\n    function withdraw(uint amount) public onlyOwner returns(bool success) {\n        emit LogWithdrawal(msg.sender, amount);\n        payable(msg.sender).transfer(amount);\n        return true;\n    }\n\n}\n",
  "sourcePath": "/Users/philip/go/src/github.com/Univ-Wyo-Education/S22-4010/homework/06/Vest90Days/contracts/Doc0.sol",
  "compiler": {
    "name": "solc",
    "version": "0.8.1+commit.df193b15.Emscripten.clang"
  },
  "schemaVersion": "3.4.5",
  "updatedAt": "2022-04-01T13:05:22.650Z",
  "devdoc": {
    "kind": "dev",
    "methods": {
      "owner()": {
        "details": "Returns the address of the current owner."
      },
      "renounceOwnership()": {
        "details": "Leaves the contract without owner. It will not be possible to call `onlyOwner` functions anymore. Can only be called by the current owner. NOTE: Renouncing ownership will leave the contract without an owner, thereby removing any functionality that is only available to the owner."
      },
      "transferOwnership(address)": {
        "details": "Transfers ownership of the contract to a new account (`newOwner`). Can only be called by the current owner."
      }
    },
    "version": 1
  },
  "userdoc": {
    "kind": "user",
    "methods": {
      "getBalance()": {
        "notice": "Find out how much Eth the contract has accumulated."
      },
      "withdraw(uint256)": {
        "notice": "Transfer out the Eth to the owners account."
      }
    },
    "version": 1
  }
}