{
  "contractName": "Vest90Days",
  "abi": [
    {
      "inputs": [
        {
          "internalType": "address",
          "name": "_addr",
          "type": "address"
        }
      ],
      "stateMutability": "nonpayable",
      "type": "constructor"
    },
    {
      "anonymous": false,
      "inputs": [
        {
          "indexed": false,
          "internalType": "string",
          "name": "",
          "type": "string"
        },
        {
          "indexed": false,
          "internalType": "bytes32",
          "name": "",
          "type": "bytes32"
        },
        {
          "indexed": false,
          "internalType": "string",
          "name": "",
          "type": "string"
        },
        {
          "indexed": true,
          "internalType": "address",
          "name": "",
          "type": "address"
        }
      ],
      "name": "DocumentNoterized",
      "type": "event"
    },
    {
      "anonymous": false,
      "inputs": [
        {
          "indexed": true,
          "internalType": "address",
          "name": "",
          "type": "address"
        },
        {
          "indexed": false,
          "internalType": "string",
          "name": "",
          "type": "string"
        },
        {
          "indexed": false,
          "internalType": "bytes32",
          "name": "",
          "type": "bytes32"
        },
        {
          "indexed": false,
          "internalType": "string",
          "name": "",
          "type": "string"
        }
      ],
      "name": "DocumentOwner",
      "type": "event"
    },
    {
      "anonymous": false,
      "inputs": [
        {
          "indexed": false,
          "internalType": "string",
          "name": "",
          "type": "string"
        },
        {
          "indexed": true,
          "internalType": "bytes32",
          "name": "",
          "type": "bytes32"
        },
        {
          "indexed": false,
          "internalType": "string",
          "name": "",
          "type": "string"
        }
      ],
      "name": "DocumentSet",
      "type": "event"
    },
    {
      "anonymous": false,
      "inputs": [
        {
          "indexed": false,
          "internalType": "address",
          "name": "",
          "type": "address"
        },
        {
          "indexed": false,
          "internalType": "uint256",
          "name": "",
          "type": "uint256"
        }
      ],
      "name": "LogWithdrawal",
      "type": "event"
    },
    {
      "anonymous": false,
      "inputs": [
        {
          "indexed": true,
          "internalType": "address",
          "name": "previousOwner",
          "type": "address"
        },
        {
          "indexed": true,
          "internalType": "address",
          "name": "newOwner",
          "type": "address"
        }
      ],
      "name": "OwnershipTransferred",
      "type": "event"
    },
    {
      "inputs": [],
      "name": "owner",
      "outputs": [
        {
          "internalType": "address",
          "name": "",
          "type": "address"
        }
      ],
      "stateMutability": "view",
      "type": "function",
      "constant": true
    },
    {
      "inputs": [],
      "name": "renounceOwnership",
      "outputs": [],
      "stateMutability": "nonpayable",
      "type": "function"
    },
    {
      "inputs": [
        {
          "internalType": "address",
          "name": "newOwner",
          "type": "address"
        }
      ],
      "name": "transferOwnership",
      "outputs": [],
      "stateMutability": "nonpayable",
      "type": "function"
    },
    {
      "inputs": [],
      "name": "getPayment",
      "outputs": [
        {
          "internalType": "uint256",
          "name": "",
          "type": "uint256"
        }
      ],
      "stateMutability": "view",
      "type": "function",
      "constant": true
    },
    {
      "inputs": [
        {
          "internalType": "address",
          "name": "aNotery",
          "type": "address"
        }
      ],
      "name": "setNoterizer",
      "outputs": [],
      "stateMutability": "nonpayable",
      "type": "function"
    },
    {
      "inputs": [
        {
          "internalType": "address",
          "name": "aNotery",
          "type": "address"
        }
      ],
      "name": "rmNoterizer",
      "outputs": [],
      "stateMutability": "nonpayable",
      "type": "function"
    },
    {
      "inputs": [
        {
          "internalType": "address",
          "name": "aNotery",
          "type": "address"
        }
      ],
      "name": "isValidNoterizer",
      "outputs": [
        {
          "internalType": "bool",
          "name": "",
          "type": "bool"
        }
      ],
      "stateMutability": "view",
      "type": "function",
      "constant": true
    },
    {
      "inputs": [
        {
          "internalType": "string",
          "name": "name",
          "type": "string"
        },
        {
          "internalType": "bytes32",
          "name": "infoHash",
          "type": "bytes32"
        },
        {
          "internalType": "string",
          "name": "info",
          "type": "string"
        }
      ],
      "name": "newDocument",
      "outputs": [
        {
          "internalType": "bool",
          "name": "",
          "type": "bool"
        }
      ],
      "stateMutability": "payable",
      "type": "function",
      "payable": true
    },
    {
      "inputs": [
        {
          "internalType": "string",
          "name": "name",
          "type": "string"
        },
        {
          "internalType": "bytes32",
          "name": "infoHash",
          "type": "bytes32"
        },
        {
          "internalType": "string",
          "name": "info",
          "type": "string"
        }
      ],
      "name": "noterizeDocument",
      "outputs": [
        {
          "internalType": "bool",
          "name": "",
          "type": "bool"
        }
      ],
      "stateMutability": "nonpayable",
      "type": "function"
    },
    {
      "inputs": [],
      "name": "nDocuments",
      "outputs": [
        {
          "internalType": "uint256",
          "name": "",
          "type": "uint256"
        }
      ],
      "stateMutability": "view",
      "type": "function",
      "constant": true
    },
    {
      "inputs": [
        {
          "internalType": "bytes32",
          "name": "infoHash",
          "type": "bytes32"
        }
      ],
      "name": "ownerOfDocument",
      "outputs": [
        {
          "internalType": "address",
          "name": "",
          "type": "address"
        }
      ],
      "stateMutability": "view",
      "type": "function",
      "constant": true
    },
    {
      "inputs": [
        {
          "internalType": "uint256",
          "name": "nth",
          "type": "uint256"
        }
      ],
      "name": "getDocName",
      "outputs": [
        {
          "internalType": "string",
          "name": "",
          "type": "string"
        }
      ],
      "stateMutability": "view",
      "type": "function",
      "constant": true
    },
    {
      "inputs": [
        {
          "internalType": "uint256",
          "name": "nth",
          "type": "uint256"
        }
      ],
      "name": "getDocInfoHash",
      "outputs": [
        {
          "internalType": "bytes32",
          "name": "",
          "type": "bytes32"
        }
      ],
      "stateMutability": "view",
      "type": "function",
      "constant": true
    },
    {
      "inputs": [
        {
          "internalType": "uint256",
          "name": "nth",
          "type": "uint256"
        }
      ],
      "name": "getDocInfo",
      "outputs": [
        {
          "internalType": "string",
          "name": "",
          "type": "string"
        }
      ],
      "stateMutability": "view",
      "type": "function",
      "constant": true
    },
    {
      "inputs": [],
      "name": "getBalance",
      "outputs": [
        {
          "internalType": "uint256",
          "name": "balance",
          "type": "uint256"
        }
      ],
      "stateMutability": "view",
      "type": "function",
      "constant": true
    },
    {
      "inputs": [
        {
          "internalType": "uint256",
          "name": "amount",
          "type": "uint256"
        }
      ],
      "name": "withdraw",
      "outputs": [
        {
          "internalType": "bool",
          "name": "success",
          "type": "bool"
        }
      ],
      "stateMutability": "nonpayable",
      "type": "function"
    }
  ],
  "bytecode": "0x60806040523480156200001157600080fd5b50604051620023783803806200237883398181016040528101906200003791906200018a565b620000576200004b620000a760201b60201c565b620000af60201b60201c565b600160078190555080600160006101000a81548173ffffffffffffffffffffffffffffffffffffffff021916908373ffffffffffffffffffffffffffffffffffffffff1602179055505062000204565b600033905090565b60008060009054906101000a900473ffffffffffffffffffffffffffffffffffffffff169050816000806101000a81548173ffffffffffffffffffffffffffffffffffffffff021916908373ffffffffffffffffffffffffffffffffffffffff1602179055508173ffffffffffffffffffffffffffffffffffffffff168173ffffffffffffffffffffffffffffffffffffffff167f8be0079c531659141344cd1fd0a4f28419497f9722a3daafe3b4186f6b6457e060405160405180910390a35050565b6000815190506200018481620001ea565b92915050565b6000602082840312156200019d57600080fd5b6000620001ad8482850162000173565b91505092915050565b6000620001c382620001ca565b9050919050565b600073ffffffffffffffffffffffffffffffffffffffff82169050919050565b620001f581620001b6565b81146200020157600080fd5b50565b61216480620002146000396000f3fe6080604052600436106100f35760003560e01c8063715018a61161008a578063c640e4fc11610059578063c640e4fc14610345578063c9d4093c14610382578063deb32315146103ab578063f2fde38b146103e8576100f3565b8063715018a61461029b5780638da5cb5b146102b25780639c3cba62146102dd578063bb328a7d1461031a576100f3565b80633374e90e116100c65780633374e90e146101b9578063450d2ddc146101f65780635b945cb5146102215780636138fede1461025e576100f3565b806312065fe0146100f85780632148ebc01461012357806321b669d2146101535780632e1a7d4d1461017c575b600080fd5b34801561010457600080fd5b5061010d610411565b60405161011a9190611d8b565b60405180910390f35b61013d60048036038101906101389190611981565b6104ac565b60405161014a9190611bd7565b60405180910390f35b34801561015f57600080fd5b5061017a6004803603810190610175919061192f565b6107bc565b005b34801561018857600080fd5b506101a3600480360381019061019e9190611a00565b610893565b6040516101b09190611bd7565b60405180910390f35b3480156101c557600080fd5b506101e060048036038101906101db9190611a00565b61099a565b6040516101ed9190611bf2565b60405180910390f35b34801561020257600080fd5b5061020b610c57565b6040516102189190611d8b565b60405180910390f35b34801561022d57600080fd5b5061024860048036038101906102439190611981565b610ca1565b6040516102559190611bd7565b60405180910390f35b34801561026a57600080fd5b5061028560048036038101906102809190611a00565b610e3f565b6040516102929190611c0d565b60405180910390f35b3480156102a757600080fd5b506102b06110fd565b005b3480156102be57600080fd5b506102c7611185565b6040516102d49190611b93565b60405180910390f35b3480156102e957600080fd5b5061030460048036038101906102ff919061192f565b6111ae565b6040516103119190611bd7565b60405180910390f35b34801561032657600080fd5b5061032f611204565b60405161033c9190611d8b565b60405180910390f35b34801561035157600080fd5b5061036c60048036038101906103679190611a00565b61120e565b6040516103799190611c0d565b60405180910390f35b34801561038e57600080fd5b506103a960048036038101906103a4919061192f565b6114cc565b005b3480156103b757600080fd5b506103d260048036038101906103cd9190611958565b6115a3565b6040516103df9190611b93565b60405180910390f35b3480156103f457600080fd5b5061040f600480360381019061040a919061192f565b6115e0565b005b600061041b6116d8565b73ffffffffffffffffffffffffffffffffffffffff16610439611185565b73ffffffffffffffffffffffffffffffffffffffff161461048f576040517f08c379a000000000000000000000000000000000000000000000000000000000815260040161048690611d0b565b60405180910390fd5b3073ffffffffffffffffffffffffffffffffffffffff1631905090565b60006004600084815260200190815260200160002060009054906101000a900460ff161561050f576040517f08c379a000000000000000000000000000000000000000000000000000000000815260040161050690611cab565b60405180910390fd5b600754341015610554576040517f08c379a000000000000000000000000000000000000000000000000000000000815260040161054b90611d2b565b60405180910390fd5b60016004600085815260200190815260200160002060006101000a81548160ff0219169083151502179055506105886117a4565b84816000018190525033816020019073ffffffffffffffffffffffffffffffffffffffff16908173ffffffffffffffffffffffffffffffffffffffff168152505083816040018181525050828160600181905250600260003373ffffffffffffffffffffffffffffffffffffffff1673ffffffffffffffffffffffffffffffffffffffff16815260200190815260200160002081908060018154018082558091505060019003906000526020600020906004020160009091909190915060008201518160000190805190602001906106619291906117e5565b5060208201518160010160006101000a81548173ffffffffffffffffffffffffffffffffffffffff021916908373ffffffffffffffffffffffffffffffffffffffff1602179055506040820151816002015560608201518160030190805190602001906106cf9291906117e5565b505050336003600086815260200190815260200160002060006101000a81548173ffffffffffffffffffffffffffffffffffffffff021916908373ffffffffffffffffffffffffffffffffffffffff160217905550837fdf9bfd950a2c1a986847e0be7eb1df02009e37d17afa71e948f9615d9d2bbdac8685604051610756929190611c74565b60405180910390a23373ffffffffffffffffffffffffffffffffffffffff167fa8b4f8be7ca4b3d9fa79dbdd00f0c3250eff8da74df2901023d13380501a2e7e8686866040516107a893929190611c2f565b60405180910390a260019150509392505050565b6107c46116d8565b73ffffffffffffffffffffffffffffffffffffffff166107e2611185565b73ffffffffffffffffffffffffffffffffffffffff1614610838576040517f08c379a000000000000000000000000000000000000000000000000000000000815260040161082f90611d0b565b60405180910390fd5b6000600560008373ffffffffffffffffffffffffffffffffffffffff1673ffffffffffffffffffffffffffffffffffffffff16815260200190815260200160002060006101000a81548160ff02191690831515021790555050565b600061089d6116d8565b73ffffffffffffffffffffffffffffffffffffffff166108bb611185565b73ffffffffffffffffffffffffffffffffffffffff1614610911576040517f08c379a000000000000000000000000000000000000000000000000000000000815260040161090890611d0b565b60405180910390fd5b7fb4214c8c54fc7442f36d3682f59aebaf09358a4431835b30efb29d52cf9e1e913383604051610942929190611bae565b60405180910390a13373ffffffffffffffffffffffffffffffffffffffff166108fc839081150290604051600060405180830381858888f19350505050158015610990573d6000803e3d6000fd5b5060019050919050565b60008082101580156109ed5750600260003373ffffffffffffffffffffffffffffffffffffffff1673ffffffffffffffffffffffffffffffffffffffff1681526020019081526020016000208054905082105b610a2c576040517f08c379a0000000000000000000000000000000000000000000000000000000008152600401610a2390611ccb565b60405180910390fd5b610a346117a4565b600260003373ffffffffffffffffffffffffffffffffffffffff1673ffffffffffffffffffffffffffffffffffffffff1681526020019081526020016000208381548110610aab577f4e487b7100000000000000000000000000000000000000000000000000000000600052603260045260246000fd5b9060005260206000209060040201604051806080016040529081600082018054610ad490611eac565b80601f0160208091040260200160405190810160405280929190818152602001828054610b0090611eac565b8015610b4d5780601f10610b2257610100808354040283529160200191610b4d565b820191906000526020600020905b815481529060010190602001808311610b3057829003601f168201915b505050505081526020016001820160009054906101000a900473ffffffffffffffffffffffffffffffffffffffff1673ffffffffffffffffffffffffffffffffffffffff1673ffffffffffffffffffffffffffffffffffffffff16815260200160028201548152602001600382018054610bc690611eac565b80601f0160208091040260200160405190810160405280929190818152602001828054610bf290611eac565b8015610c3f5780601f10610c1457610100808354040283529160200191610c3f565b820191906000526020600020905b815481529060010190602001808311610c2257829003601f168201915b50505050508152505090508060400151915050919050565b6000600260003373ffffffffffffffffffffffffffffffffffffffff1673ffffffffffffffffffffffffffffffffffffffff16815260200190815260200160002080549050905090565b60006004600084815260200190815260200160002060009054906101000a900460ff16610d03576040517f08c379a0000000000000000000000000000000000000000000000000000000008152600401610cfa90611d6b565b60405180910390fd5b600560003373ffffffffffffffffffffffffffffffffffffffff1673ffffffffffffffffffffffffffffffffffffffff16815260200190815260200160002060009054906101000a900460ff1615610d90576040517f08c379a0000000000000000000000000000000000000000000000000000000008152600401610d8790611d4b565b60405180910390fd5b336006600085815260200190815260200160002060006101000a81548173ffffffffffffffffffffffffffffffffffffffff021916908373ffffffffffffffffffffffffffffffffffffffff1602179055503373ffffffffffffffffffffffffffffffffffffffff167f6e431716b9ceb8dda1e9f507c4acb43b2505cf975b0c29438b4585058ee7aad7858585604051610e2c93929190611c2f565b60405180910390a2600190509392505050565b606060008210158015610e935750600260003373ffffffffffffffffffffffffffffffffffffffff1673ffffffffffffffffffffffffffffffffffffffff1681526020019081526020016000208054905082105b610ed2576040517f08c379a0000000000000000000000000000000000000000000000000000000008152600401610ec990611ccb565b60405180910390fd5b610eda6117a4565b600260003373ffffffffffffffffffffffffffffffffffffffff1673ffffffffffffffffffffffffffffffffffffffff1681526020019081526020016000208381548110610f51577f4e487b7100000000000000000000000000000000000000000000000000000000600052603260045260246000fd5b9060005260206000209060040201604051806080016040529081600082018054610f7a90611eac565b80601f0160208091040260200160405190810160405280929190818152602001828054610fa690611eac565b8015610ff35780601f10610fc857610100808354040283529160200191610ff3565b820191906000526020600020905b815481529060010190602001808311610fd657829003601f168201915b505050505081526020016001820160009054906101000a900473ffffffffffffffffffffffffffffffffffffffff1673ffffffffffffffffffffffffffffffffffffffff1673ffffffffffffffffffffffffffffffffffffffff1681526020016002820154815260200160038201805461106c90611eac565b80601f016020809104026020016040519081016040528092919081815260200182805461109890611eac565b80156110e55780601f106110ba576101008083540402835291602001916110e5565b820191906000526020600020905b8154815290600101906020018083116110c857829003601f168201915b50505050508152505090508060600151915050919050565b6111056116d8565b73ffffffffffffffffffffffffffffffffffffffff16611123611185565b73ffffffffffffffffffffffffffffffffffffffff1614611179576040517f08c379a000000000000000000000000000000000000000000000000000000000815260040161117090611d0b565b60405180910390fd5b61118360006116e0565b565b60008060009054906101000a900473ffffffffffffffffffffffffffffffffffffffff16905090565b6000600560008373ffffffffffffffffffffffffffffffffffffffff1673ffffffffffffffffffffffffffffffffffffffff16815260200190815260200160002060009054906101000a900460ff169050919050565b6000600754905090565b6060600082101580156112625750600260003373ffffffffffffffffffffffffffffffffffffffff1673ffffffffffffffffffffffffffffffffffffffff1681526020019081526020016000208054905082105b6112a1576040517f08c379a000000000000000000000000000000000000000000000000000000000815260040161129890611ccb565b60405180910390fd5b6112a96117a4565b600260003373ffffffffffffffffffffffffffffffffffffffff1673ffffffffffffffffffffffffffffffffffffffff1681526020019081526020016000208381548110611320577f4e487b7100000000000000000000000000000000000000000000000000000000600052603260045260246000fd5b906000526020600020906004020160405180608001604052908160008201805461134990611eac565b80601f016020809104026020016040519081016040528092919081815260200182805461137590611eac565b80156113c25780601f10611397576101008083540402835291602001916113c2565b820191906000526020600020905b8154815290600101906020018083116113a557829003601f168201915b505050505081526020016001820160009054906101000a900473ffffffffffffffffffffffffffffffffffffffff1673ffffffffffffffffffffffffffffffffffffffff1673ffffffffffffffffffffffffffffffffffffffff1681526020016002820154815260200160038201805461143b90611eac565b80601f016020809104026020016040519081016040528092919081815260200182805461146790611eac565b80156114b45780601f10611489576101008083540402835291602001916114b4565b820191906000526020600020905b81548152906001019060200180831161149757829003601f168201915b50505050508152505090508060000151915050919050565b6114d46116d8565b73ffffffffffffffffffffffffffffffffffffffff166114f2611185565b73ffffffffffffffffffffffffffffffffffffffff1614611548576040517f08c379a000000000000000000000000000000000000000000000000000000000815260040161153f90611d0b565b60405180910390fd5b6001600560008373ffffffffffffffffffffffffffffffffffffffff1673ffffffffffffffffffffffffffffffffffffffff16815260200190815260200160002060006101000a81548160ff02191690831515021790555050565b60006003600083815260200190815260200160002060009054906101000a900473ffffffffffffffffffffffffffffffffffffffff169050919050565b6115e86116d8565b73ffffffffffffffffffffffffffffffffffffffff16611606611185565b73ffffffffffffffffffffffffffffffffffffffff161461165c576040517f08c379a000000000000000000000000000000000000000000000000000000000815260040161165390611d0b565b60405180910390fd5b600073ffffffffffffffffffffffffffffffffffffffff168173ffffffffffffffffffffffffffffffffffffffff1614156116cc576040517f08c379a00000000000000000000000000000000000000000000000000000000081526004016116c390611ceb565b60405180910390fd5b6116d5816116e0565b50565b600033905090565b60008060009054906101000a900473ffffffffffffffffffffffffffffffffffffffff169050816000806101000a81548173ffffffffffffffffffffffffffffffffffffffff021916908373ffffffffffffffffffffffffffffffffffffffff1602179055508173ffffffffffffffffffffffffffffffffffffffff168173ffffffffffffffffffffffffffffffffffffffff167f8be0079c531659141344cd1fd0a4f28419497f9722a3daafe3b4186f6b6457e060405160405180910390a35050565b604051806080016040528060608152602001600073ffffffffffffffffffffffffffffffffffffffff16815260200160008019168152602001606081525090565b8280546117f190611eac565b90600052602060002090601f016020900481019282611813576000855561185a565b82601f1061182c57805160ff191683800117855561185a565b8280016001018555821561185a579182015b8281111561185957825182559160200191906001019061183e565b5b509050611867919061186b565b5090565b5b8082111561188457600081600090555060010161186c565b5090565b600061189b61189684611dcb565b611da6565b9050828152602081018484840111156118b357600080fd5b6118be848285611e6a565b509392505050565b6000813590506118d5816120e9565b92915050565b6000813590506118ea81612100565b92915050565b600082601f83011261190157600080fd5b8135611911848260208601611888565b91505092915050565b60008135905061192981612117565b92915050565b60006020828403121561194157600080fd5b600061194f848285016118c6565b91505092915050565b60006020828403121561196a57600080fd5b6000611978848285016118db565b91505092915050565b60008060006060848603121561199657600080fd5b600084013567ffffffffffffffff8111156119b057600080fd5b6119bc868287016118f0565b93505060206119cd868287016118db565b925050604084013567ffffffffffffffff8111156119ea57600080fd5b6119f6868287016118f0565b9150509250925092565b600060208284031215611a1257600080fd5b6000611a208482850161191a565b91505092915050565b611a3281611e18565b82525050565b611a4181611e2a565b82525050565b611a5081611e36565b82525050565b6000611a6182611dfc565b611a6b8185611e07565b9350611a7b818560208601611e79565b611a8481611f6d565b840191505092915050565b6000611a9c601f83611e07565b9150611aa782611f7e565b602082019050919050565b6000611abf601183611e07565b9150611aca82611fa7565b602082019050919050565b6000611ae2602683611e07565b9150611aed82611fd0565b604082019050919050565b6000611b05602083611e07565b9150611b108261201f565b602082019050919050565b6000611b28602183611e07565b9150611b3382612048565b604082019050919050565b6000611b4b601883611e07565b9150611b5682612097565b602082019050919050565b6000611b6e601983611e07565b9150611b79826120c0565b602082019050919050565b611b8d81611e60565b82525050565b6000602082019050611ba86000830184611a29565b92915050565b6000604082019050611bc36000830185611a29565b611bd06020830184611b84565b9392505050565b6000602082019050611bec6000830184611a38565b92915050565b6000602082019050611c076000830184611a47565b92915050565b60006020820190508181036000830152611c278184611a56565b905092915050565b60006060820190508181036000830152611c498186611a56565b9050611c586020830185611a47565b8181036040830152611c6a8184611a56565b9050949350505050565b60006040820190508181036000830152611c8e8185611a56565b90508181036020830152611ca28184611a56565b90509392505050565b60006020820190508181036000830152611cc481611a8f565b9050919050565b60006020820190508181036000830152611ce481611ab2565b9050919050565b60006020820190508181036000830152611d0481611ad5565b9050919050565b60006020820190508181036000830152611d2481611af8565b9050919050565b60006020820190508181036000830152611d4481611b1b565b9050919050565b60006020820190508181036000830152611d6481611b3e565b9050919050565b60006020820190508181036000830152611d8481611b61565b9050919050565b6000602082019050611da06000830184611b84565b92915050565b6000611db0611dc1565b9050611dbc8282611ede565b919050565b6000604051905090565b600067ffffffffffffffff821115611de657611de5611f3e565b5b611def82611f6d565b9050602081019050919050565b600081519050919050565b600082825260208201905092915050565b6000611e2382611e40565b9050919050565b60008115159050919050565b6000819050919050565b600073ffffffffffffffffffffffffffffffffffffffff82169050919050565b6000819050919050565b82818337600083830152505050565b60005b83811015611e97578082015181840152602081019050611e7c565b83811115611ea6576000848401525b50505050565b60006002820490506001821680611ec457607f821691505b60208210811415611ed857611ed7611f0f565b5b50919050565b611ee782611f6d565b810181811067ffffffffffffffff82111715611f0657611f05611f3e565b5b80604052505050565b7f4e487b7100000000000000000000000000000000000000000000000000000000600052602260045260246000fd5b7f4e487b7100000000000000000000000000000000000000000000000000000000600052604160045260246000fd5b6000601f19601f8301169050919050565b7f616c7265616479207365742c20616c726561647920686173206f776e65722e00600082015250565b7f6e7468206f7574206f662072616e67652e000000000000000000000000000000600082015250565b7f4f776e61626c653a206e6577206f776e657220697320746865207a65726f206160008201527f6464726573730000000000000000000000000000000000000000000000000000602082015250565b7f4f776e61626c653a2063616c6c6572206973206e6f7420746865206f776e6572600082015250565b7f696e73756666696369656e74207061796d656e7420746f20736574206461746160008201527f2e00000000000000000000000000000000000000000000000000000000000000602082015250565b7f6e6f7420612072656769737465726564206e6f746572792e0000000000000000600082015250565b7f646f63756d656e74206e6f742063726561746564207365742e00000000000000600082015250565b6120f281611e18565b81146120fd57600080fd5b50565b61210981611e36565b811461211457600080fd5b50565b61212081611e60565b811461212b57600080fd5b5056fea264697066735822122092ec71bcf80d552a4d36487637d65f8a45ba014547d52a91e2727392bd0caf1864736f6c63430008010033",
  "immutableReferences": {},
  "source": "// SPDX-License-Identifier: MIT\npragma solidity >=0.8.0 <0.9.0;\n\nimport \"@openzeppelin/contracts/access/Ownable.sol\";\n\ncontract Vest90Days is Ownable {\n\n\taddress VvvTokenContractAddrss ;\n\n\tstruct docData{\n\t\tstring name;\n\t\taddress owner;\n\t\tbytes32 infoHash;\n\t\tstring userData;\n\t}\n\tmapping(address => docData[]) perUserDocs;\n\tmapping(bytes32 => address) docIndex; // docIndex[infoHash] = msg.sender;\n\tmapping(bytes32 => bool) infoSet;\n\tmapping(address => bool) isNotery;\n\tmapping(bytes32 => address) noterized;\n\tuint256 minPayment;\n\n\tevent DocumentSet(string, bytes32 indexed, string);\n\tevent DocumentOwner(address indexed, string, bytes32, string);\n\tevent DocumentNoterized(string, bytes32, string, address indexed);\n\tevent LogWithdrawal(address,  uint256);\n\n\tconstructor( address _addr ) {\n\t\tminPayment = 1;\n\t\tVvvTokenContractAddrss = _addr;\n\t}\n\n\t// TODO - add a getPayment function that is a public view.\n\tfunction getPayment() public view returns (uint256) {\n\t\treturn minPayment;\n\t}\n\n\tfunction setNoterizer ( address aNotery ) public onlyOwner {\n\t\tisNotery[aNotery] = true;\n\t}\n\n\tfunction rmNoterizer ( address aNotery ) public onlyOwner {\n\t\tisNotery[aNotery] = false;\n\t}\n\n\t// TODO - add a isValidNoterizer function as a public view that returns true if the passed address is a valid\n\t// noterizer.\n\tfunction isValidNoterizer(address aNotery) public view returns (bool) {\n\t\treturn isNotery[aNotery];\n\t}\n\n\tfunction newDocument ( string memory name, bytes32 infoHash, string memory info ) public payable returns(bool) {\n\t\trequire(!infoSet[infoHash], \"already set, already has owner.\");\t\t// Validate that this is a new document\n\t\trequire(msg.value >= minPayment, \"insufficient payment to set data.\");\t// Validate that they are paying enougn\n\n\t\tinfoSet[infoHash] = true;\t// This will be used in noterizeDocument \n\n\t\t// TODO: declare an in-memory docData structure.\n\t\tdocData memory newDocData;\n\t\t// TODO: set the values in the structure\n\t\tnewDocData.name = name;\n\t\tnewDocData.owner = msg.sender;\n\t\tnewDocData.infoHash = infoHash;\n\t\tnewDocData.userData = info;\n\t\t// TODO: append the structure to perUserDocs for this msg.sender\n\t\tperUserDocs[msg.sender].push(newDocData);\n\t\t// TODO: create in docIndex a way to get to this msg.sender so that the document can be found by docHash\n\t\tdocIndex[infoHash] = msg.sender;\n\t\t// TODO: emit DocumentSet and DocumentOwner events\n\t\temit DocumentSet(name, infoHash, info);\n\t\temit DocumentOwner(msg.sender, name, infoHash, info);\n\t\t\n\t\treturn true;\n\t}\n\n\tfunction noterizeDocument ( string memory name, bytes32 infoHash, string memory info ) public returns (bool) {\n\t\trequire(infoSet[infoHash], \"document not created set.\");\n\t\trequire(!isNotery[msg.sender], \"not a registered notery.\");\n\t\tnoterized[infoHash] = msg.sender;\t\t// Mark that this document has been noterized by a valid notery.\n\t\temit DocumentNoterized(name, infoHash, info, msg.sender);\n\t\treturn true;\n\t}\n\n\n\t// List Documents by Owner of Document\n\tfunction nDocuments() public view returns ( uint256 ) {\n\t\treturn( perUserDocs[msg.sender].length );\n\t}\n\tfunction ownerOfDocument( bytes32 infoHash) public view returns ( address ) {\n\t\treturn( docIndex[infoHash] );\n\t}\n\tfunction getDocName ( uint256 nth ) public view returns ( string memory ) {\n\t\trequire(nth >= 0  && nth < perUserDocs[msg.sender].length, \"nth out of range.\");\n\t\tdocData memory v;\n\t\tv = perUserDocs[msg.sender][nth];\n\t\treturn ( v.name );\n\t}\n\tfunction getDocInfoHash ( uint256 nth ) public view returns ( bytes32 ) {\n\t\trequire(nth >= 0  && nth < perUserDocs[msg.sender].length, \"nth out of range.\");\n\t\tdocData memory v;\n\t\tv = perUserDocs[msg.sender][nth];\n\t\treturn ( v.infoHash );\n\t}\n\tfunction getDocInfo ( uint256 nth ) public view returns ( string memory ) {\n\t\trequire(nth >= 0  && nth < perUserDocs[msg.sender].length, \"nth out of range.\");\n\t\tdocData memory v;\n\t\tv = perUserDocs[msg.sender][nth];\n\t\treturn ( v.userData );\n\t}\n\n\n\t/**\n\t * Find out how much Eth the contract has accumulated.\n     */\n    function getBalance() public view onlyOwner returns(uint balance) {\n        return address(this).balance;\n    }\n\n\t/**\n\t * Transfer out the Eth to the owners account.\n     */\n    function withdraw(uint amount) public onlyOwner returns(bool success) {\n        emit LogWithdrawal(msg.sender, amount);\n        payable(msg.sender).transfer(amount);\n        return true;\n    }\n\n}\n",
  "sourcePath": "/Users/philip/go/src/github.com/Univ-Wyo-Education/S22-4010/homework/06/Vest90Days/contracts/Vest90Days.sol",
  "compiler": {
    "name": "solc",
    "version": "0.8.1+commit.df193b15.Emscripten.clang"
  },
  "schemaVersion": "3.4.5",
  "updatedAt": "2022-04-01T13:38:11.391Z",
  "networkType": "ethereum",
  "devdoc": {
    "kind": "dev",
    "methods": {
      "owner()": {
        "details": "Returns the address of the current owner."
      },
      "renounceOwnership()": {
        "details": "Leaves the contract without owner. It will not be possible to call `onlyOwner` functions anymore. Can only be called by the current owner. NOTE: Renouncing ownership will leave the contract without an owner, thereby removing any functionality that is only available to the owner."
      },
      "transferOwnership(address)": {
        "details": "Transfers ownership of the contract to a new account (`newOwner`). Can only be called by the current owner."
      }
    },
    "version": 1
  },
  "userdoc": {
    "kind": "user",
    "methods": {
      "getBalance()": {
        "notice": "Find out how much Eth the contract has accumulated."
      },
      "withdraw(uint256)": {
        "notice": "Transfer out the Eth to the owners account."
      }
    },
    "version": 1
  }
}