{
  "contractName": "Vest90Days",
  "abi": [
    {
      "inputs": [
        {
          "internalType": "address",
          "name": "_addr",
          "type": "address"
        }
      ],
      "stateMutability": "nonpayable",
      "type": "constructor"
    },
    {
      "anonymous": false,
      "inputs": [
        {
          "indexed": true,
          "internalType": "address",
          "name": "",
          "type": "address"
        },
        {
          "indexed": false,
          "internalType": "uint256",
          "name": "endTime",
          "type": "uint256"
        }
      ],
      "name": "EmployeeExit",
      "type": "event"
    },
    {
      "anonymous": false,
      "inputs": [
        {
          "indexed": true,
          "internalType": "address",
          "name": "",
          "type": "address"
        },
        {
          "indexed": false,
          "internalType": "uint256",
          "name": "startTime",
          "type": "uint256"
        }
      ],
      "name": "NewEmployee",
      "type": "event"
    },
    {
      "anonymous": false,
      "inputs": [
        {
          "indexed": true,
          "internalType": "address",
          "name": "previousOwner",
          "type": "address"
        },
        {
          "indexed": true,
          "internalType": "address",
          "name": "newOwner",
          "type": "address"
        }
      ],
      "name": "OwnershipTransferred",
      "type": "event"
    },
    {
      "anonymous": false,
      "inputs": [
        {
          "indexed": true,
          "internalType": "address",
          "name": "",
          "type": "address"
        },
        {
          "indexed": false,
          "internalType": "uint256",
          "name": "nTokens",
          "type": "uint256"
        }
      ],
      "name": "VestedTokens",
      "type": "event"
    },
    {
      "inputs": [],
      "name": "owner",
      "outputs": [
        {
          "internalType": "address",
          "name": "",
          "type": "address"
        }
      ],
      "stateMutability": "view",
      "type": "function"
    },
    {
      "inputs": [],
      "name": "renounceOwnership",
      "outputs": [],
      "stateMutability": "nonpayable",
      "type": "function"
    },
    {
      "inputs": [
        {
          "internalType": "address",
          "name": "newOwner",
          "type": "address"
        }
      ],
      "name": "transferOwnership",
      "outputs": [],
      "stateMutability": "nonpayable",
      "type": "function"
    },
    {
      "inputs": [
        {
          "internalType": "address",
          "name": "_employeeAddress",
          "type": "address"
        },
        {
          "internalType": "string",
          "name": "_name",
          "type": "string"
        }
      ],
      "name": "startNewEmployee",
      "outputs": [],
      "stateMutability": "nonpayable",
      "type": "function"
    },
    {
      "inputs": [
        {
          "internalType": "address",
          "name": "_employeeAddress",
          "type": "address"
        }
      ],
      "name": "employeeExit",
      "outputs": [],
      "stateMutability": "nonpayable",
      "type": "function"
    },
    {
      "inputs": [
        {
          "internalType": "address",
          "name": "_anEmployee",
          "type": "address"
        }
      ],
      "name": "calculateVesting",
      "outputs": [],
      "stateMutability": "nonpayable",
      "type": "function"
    },
    {
      "inputs": [
        {
          "internalType": "address",
          "name": "_anEmployee",
          "type": "address"
        }
      ],
      "name": "vestedTokens",
      "outputs": [
        {
          "internalType": "uint256",
          "name": "",
          "type": "uint256"
        }
      ],
      "stateMutability": "view",
      "type": "function"
    },
    {
      "inputs": [],
      "name": "nEmployees",
      "outputs": [
        {
          "internalType": "uint256",
          "name": "",
          "type": "uint256"
        }
      ],
      "stateMutability": "view",
      "type": "function"
    },
    {
      "inputs": [
        {
          "internalType": "uint256",
          "name": "nth",
          "type": "uint256"
        }
      ],
      "name": "getName",
      "outputs": [
        {
          "internalType": "string",
          "name": "",
          "type": "string"
        }
      ],
      "stateMutability": "view",
      "type": "function"
    },
    {
      "inputs": [
        {
          "internalType": "uint256",
          "name": "nth",
          "type": "uint256"
        }
      ],
      "name": "getStartTime",
      "outputs": [
        {
          "internalType": "uint256",
          "name": "",
          "type": "uint256"
        }
      ],
      "stateMutability": "view",
      "type": "function"
    }
  ],
  "bytecode": "0x60806040523480156200001157600080fd5b5060405162001a8338038062001a83833981810160405281019062000037919062000182565b620000576200004b6200009f60201b60201c565b620000a760201b60201c565b80600160006101000a81548173ffffffffffffffffffffffffffffffffffffffff021916908373ffffffffffffffffffffffffffffffffffffffff16021790555050620001fc565b600033905090565b60008060009054906101000a900473ffffffffffffffffffffffffffffffffffffffff169050816000806101000a81548173ffffffffffffffffffffffffffffffffffffffff021916908373ffffffffffffffffffffffffffffffffffffffff1602179055508173ffffffffffffffffffffffffffffffffffffffff168173ffffffffffffffffffffffffffffffffffffffff167f8be0079c531659141344cd1fd0a4f28419497f9722a3daafe3b4186f6b6457e060405160405180910390a35050565b6000815190506200017c81620001e2565b92915050565b6000602082840312156200019557600080fd5b6000620001a5848285016200016b565b91505092915050565b6000620001bb82620001c2565b9050919050565b600073ffffffffffffffffffffffffffffffffffffffff82169050919050565b620001ed81620001ae565b8114620001f957600080fd5b50565b611877806200020c6000396000f3fe608060405234801561001057600080fd5b506004361061009e5760003560e01c80638609e006116100665780638609e006146101475780638da5cb5b14610163578063bc2be1be14610181578063dba5e508146101b1578063f2fde38b146101cd5761009e565b806334efbf9b146100a35780633dee0397146100bf578063616a0fe2146100ef5780636b8ff5741461010d578063715018a61461013d575b600080fd5b6100bd60048036038101906100b89190611392565b6101e9565b005b6100d960048036038101906100d49190611392565b6102b9565b6040516100e69190611595565b60405180910390f35b6100f761046d565b6040516101049190611595565b60405180910390f35b6101276004803603810190610122919061140f565b61047a565b6040516101349190611513565b60405180910390f35b6101456106fb565b005b610161600480360381019061015c91906113bb565b610783565b005b61016b610a1e565b60405161017891906114f8565b60405180910390f35b61019b6004803603810190610196919061140f565b610a47565b6040516101a89190611595565b60405180910390f35b6101cb60048036038101906101c69190611392565b610cb9565b005b6101e760048036038101906101e29190611392565b611042565b005b6101f161113a565b73ffffffffffffffffffffffffffffffffffffffff1661020f610a1e565b73ffffffffffffffffffffffffffffffffffffffff1614610265576040517f08c379a000000000000000000000000000000000000000000000000000000000815260040161025c90611575565b60405180910390fd5b60008173ffffffffffffffffffffffffffffffffffffffff167ff91178d1be119af5729bcbbceec49bbc2bb69207997394e7c9be1cf3f1ca9ca0826040516102ad9190611595565b60405180910390a25050565b60006102c3611206565b600260008473ffffffffffffffffffffffffffffffffffffffff1673ffffffffffffffffffffffffffffffffffffffff1681526020019081526020016000206040518060e001604052908160008201805461031d906116a0565b80601f0160208091040260200160405190810160405280929190818152602001828054610349906116a0565b80156103965780601f1061036b57610100808354040283529160200191610396565b820191906000526020600020905b81548152906001019060200180831161037957829003601f168201915b505050505081526020016001820160009054906101000a900473ffffffffffffffffffffffffffffffffffffffff1673ffffffffffffffffffffffffffffffffffffffff1673ffffffffffffffffffffffffffffffffffffffff1681526020016002820154815260200160038201548152602001600482015481526020016005820160009054906101000a900460ff161515151581526020016005820160019054906101000a900460ff16151515158152505090508060a0015115610462578060800151915050610468565b60009150505b919050565b6000600380549050905090565b606060008210158015610491575060038054905082105b6104d0576040517f08c379a00000000000000000000000000000000000000000000000000000000081526004016104c790611535565b60405180910390fd5b60006003838154811061050c577f4e487b7100000000000000000000000000000000000000000000000000000000600052603260045260246000fd5b9060005260206000200160009054906101000a900473ffffffffffffffffffffffffffffffffffffffff169050610541611206565b600260008373ffffffffffffffffffffffffffffffffffffffff1673ffffffffffffffffffffffffffffffffffffffff1681526020019081526020016000206040518060e001604052908160008201805461059b906116a0565b80601f01602080910402602001604051908101604052809291908181526020018280546105c7906116a0565b80156106145780601f106105e957610100808354040283529160200191610614565b820191906000526020600020905b8154815290600101906020018083116105f757829003601f168201915b505050505081526020016001820160009054906101000a900473ffffffffffffffffffffffffffffffffffffffff1673ffffffffffffffffffffffffffffffffffffffff1673ffffffffffffffffffffffffffffffffffffffff1681526020016002820154815260200160038201548152602001600482015481526020016005820160009054906101000a900460ff161515151581526020016005820160019054906101000a900460ff16151515158152505090508060a00151156106e1578060000151925050506106f6565b60405180602001604052806000815250925050505b919050565b61070361113a565b73ffffffffffffffffffffffffffffffffffffffff16610721610a1e565b73ffffffffffffffffffffffffffffffffffffffff1614610777576040517f08c379a000000000000000000000000000000000000000000000000000000000815260040161076e90611575565b60405180910390fd5b6107816000611142565b565b61078b61113a565b73ffffffffffffffffffffffffffffffffffffffff166107a9610a1e565b73ffffffffffffffffffffffffffffffffffffffff16146107ff576040517f08c379a00000000000000000000000000000000000000000000000000000000081526004016107f690611575565b60405180910390fd5b610807611206565b81816000018190525082816020019073ffffffffffffffffffffffffffffffffffffffff16908173ffffffffffffffffffffffffffffffffffffffff16815250504281604001818152505060018160a001901515908115158152505080600260008573ffffffffffffffffffffffffffffffffffffffff1673ffffffffffffffffffffffffffffffffffffffff16815260200190815260200160002060008201518160000190805190602001906108bf92919061125d565b5060208201518160010160006101000a81548173ffffffffffffffffffffffffffffffffffffffff021916908373ffffffffffffffffffffffffffffffffffffffff16021790555060408201518160020155606082015181600301556080820151816004015560a08201518160050160006101000a81548160ff02191690831515021790555060c08201518160050160016101000a81548160ff0219169083151502179055509050506003839080600181540180825580915050600190039060005260206000200160009091909190916101000a81548173ffffffffffffffffffffffffffffffffffffffff021916908373ffffffffffffffffffffffffffffffffffffffff1602179055508273ffffffffffffffffffffffffffffffffffffffff167f7a07c11c01f54eb3d42d6ba01d491bded3a450bf94dc9476571e4c3961aa317142604051610a119190611595565b60405180910390a2505050565b60008060009054906101000a900473ffffffffffffffffffffffffffffffffffffffff16905090565b6000808210158015610a5d575060038054905082105b610a9c576040517f08c379a0000000000000000000000000000000000000000000000000000000008152600401610a9390611535565b60405180910390fd5b600060038381548110610ad8577f4e487b7100000000000000000000000000000000000000000000000000000000600052603260045260246000fd5b9060005260206000200160009054906101000a900473ffffffffffffffffffffffffffffffffffffffff169050610b0d611206565b600260008373ffffffffffffffffffffffffffffffffffffffff1673ffffffffffffffffffffffffffffffffffffffff1681526020019081526020016000206040518060e0016040529081600082018054610b67906116a0565b80601f0160208091040260200160405190810160405280929190818152602001828054610b93906116a0565b8015610be05780601f10610bb557610100808354040283529160200191610be0565b820191906000526020600020905b815481529060010190602001808311610bc357829003601f168201915b505050505081526020016001820160009054906101000a900473ffffffffffffffffffffffffffffffffffffffff1673ffffffffffffffffffffffffffffffffffffffff1673ffffffffffffffffffffffffffffffffffffffff1681526020016002820154815260200160038201548152602001600482015481526020016005820160009054906101000a900460ff161515151581526020016005820160019054906101000a900460ff16151515158152505090508060a0015115610cad57806040015192505050610cb4565b6000925050505b919050565b610cc161113a565b73ffffffffffffffffffffffffffffffffffffffff16610cdf610a1e565b73ffffffffffffffffffffffffffffffffffffffff1614610d35576040517f08c379a0000000000000000000000000000000000000000000000000000000008152600401610d2c90611575565b60405180910390fd5b610d3d611206565b600260008373ffffffffffffffffffffffffffffffffffffffff1673ffffffffffffffffffffffffffffffffffffffff1681526020019081526020016000206040518060e0016040529081600082018054610d97906116a0565b80601f0160208091040260200160405190810160405280929190818152602001828054610dc3906116a0565b8015610e105780601f10610de557610100808354040283529160200191610e10565b820191906000526020600020905b815481529060010190602001808311610df357829003601f168201915b505050505081526020016001820160009054906101000a900473ffffffffffffffffffffffffffffffffffffffff1673ffffffffffffffffffffffffffffffffffffffff1673ffffffffffffffffffffffffffffffffffffffff1681526020016002820154815260200160038201548152602001600482015481526020016005820160009054906101000a900460ff161515151581526020016005820160019054906101000a900460ff16151515158152505090508060a0015115610eeb5760018160c0019015159081151581525050428160600181815250505b80600260008473ffffffffffffffffffffffffffffffffffffffff1673ffffffffffffffffffffffffffffffffffffffff1681526020019081526020016000206000820151816000019080519060200190610f4792919061125d565b5060208201518160010160006101000a81548173ffffffffffffffffffffffffffffffffffffffff021916908373ffffffffffffffffffffffffffffffffffffffff16021790555060408201518160020155606082015181600301556080820151816004015560a08201518160050160006101000a81548160ff02191690831515021790555060c08201518160050160016101000a81548160ff0219169083151502179055509050508173ffffffffffffffffffffffffffffffffffffffff167f60c2125c7740752e68fde80c00e1d53e916328252b60c36ee9cc252f62f9e157426040516110369190611595565b60405180910390a25050565b61104a61113a565b73ffffffffffffffffffffffffffffffffffffffff16611068610a1e565b73ffffffffffffffffffffffffffffffffffffffff16146110be576040517f08c379a00000000000000000000000000000000000000000000000000000000081526004016110b590611575565b60405180910390fd5b600073ffffffffffffffffffffffffffffffffffffffff168173ffffffffffffffffffffffffffffffffffffffff16141561112e576040517f08c379a000000000000000000000000000000000000000000000000000000000815260040161112590611555565b60405180910390fd5b61113781611142565b50565b600033905090565b60008060009054906101000a900473ffffffffffffffffffffffffffffffffffffffff169050816000806101000a81548173ffffffffffffffffffffffffffffffffffffffff021916908373ffffffffffffffffffffffffffffffffffffffff1602179055508173ffffffffffffffffffffffffffffffffffffffff168173ffffffffffffffffffffffffffffffffffffffff167f8be0079c531659141344cd1fd0a4f28419497f9722a3daafe3b4186f6b6457e060405160405180910390a35050565b6040518060e0016040528060608152602001600073ffffffffffffffffffffffffffffffffffffffff1681526020016000815260200160008152602001600081526020016000151581526020016000151581525090565b828054611269906116a0565b90600052602060002090601f01602090048101928261128b57600085556112d2565b82601f106112a457805160ff19168380011785556112d2565b828001600101855582156112d2579182015b828111156112d15782518255916020019190600101906112b6565b5b5090506112df91906112e3565b5090565b5b808211156112fc5760008160009055506001016112e4565b5090565b600061131361130e846115d5565b6115b0565b90508281526020810184848401111561132b57600080fd5b61133684828561165e565b509392505050565b60008135905061134d81611813565b92915050565b600082601f83011261136457600080fd5b8135611374848260208601611300565b91505092915050565b60008135905061138c8161182a565b92915050565b6000602082840312156113a457600080fd5b60006113b28482850161133e565b91505092915050565b600080604083850312156113ce57600080fd5b60006113dc8582860161133e565b925050602083013567ffffffffffffffff8111156113f957600080fd5b61140585828601611353565b9150509250929050565b60006020828403121561142157600080fd5b600061142f8482850161137d565b91505092915050565b61144181611622565b82525050565b600061145282611606565b61145c8185611611565b935061146c81856020860161166d565b61147581611761565b840191505092915050565b600061148d601183611611565b915061149882611772565b602082019050919050565b60006114b0602683611611565b91506114bb8261179b565b604082019050919050565b60006114d3602083611611565b91506114de826117ea565b602082019050919050565b6114f281611654565b82525050565b600060208201905061150d6000830184611438565b92915050565b6000602082019050818103600083015261152d8184611447565b905092915050565b6000602082019050818103600083015261154e81611480565b9050919050565b6000602082019050818103600083015261156e816114a3565b9050919050565b6000602082019050818103600083015261158e816114c6565b9050919050565b60006020820190506115aa60008301846114e9565b92915050565b60006115ba6115cb565b90506115c682826116d2565b919050565b6000604051905090565b600067ffffffffffffffff8211156115f0576115ef611732565b5b6115f982611761565b9050602081019050919050565b600081519050919050565b600082825260208201905092915050565b600061162d82611634565b9050919050565b600073ffffffffffffffffffffffffffffffffffffffff82169050919050565b6000819050919050565b82818337600083830152505050565b60005b8381101561168b578082015181840152602081019050611670565b8381111561169a576000848401525b50505050565b600060028204905060018216806116b857607f821691505b602082108114156116cc576116cb611703565b5b50919050565b6116db82611761565b810181811067ffffffffffffffff821117156116fa576116f9611732565b5b80604052505050565b7f4e487b7100000000000000000000000000000000000000000000000000000000600052602260045260246000fd5b7f4e487b7100000000000000000000000000000000000000000000000000000000600052604160045260246000fd5b6000601f19601f8301169050919050565b7f6e7468206f7574206f662072616e67652e000000000000000000000000000000600082015250565b7f4f776e61626c653a206e6577206f776e657220697320746865207a65726f206160008201527f6464726573730000000000000000000000000000000000000000000000000000602082015250565b7f4f776e61626c653a2063616c6c6572206973206e6f7420746865206f776e6572600082015250565b61181c81611622565b811461182757600080fd5b50565b61183381611654565b811461183e57600080fd5b5056fea26469706673582212205d821e57eef8623044c3a7fd3d409334e91e72bfae4591a9916235b923b3358264736f6c63430008010033",
  "immutableReferences": {},
  "source": "// SPDX-License-Identifier: MIT\npragma solidity >=0.8.0 <0.9.0;\n\nimport \"@openzeppelin/contracts/access/Ownable.sol\";\n\ncontract Vest90Days is Ownable {\n\n\taddress VvvTokenContractAddrss ;\n\n\tstruct employeeData{\n\t\tstring name;\n\t\taddress owner;\n\t\tuint256 startTime;\n\t\tuint256 endTime;\n\t\tuint256 tokensVested;\n\t\tbool exists;\n\t\tbool hasExited;\n\t}\n\n\tmapping(address => employeeData) perEmployeeData;\n\taddress[] empList;\n\n\tevent NewEmployee(address indexed, uint256 startTime);\n\tevent VestedTokens(address indexed, uint256 nTokens);\n\tevent EmployeeExit(address indexed, uint256 endTime);\n\n\tconstructor( address _addr ) {\n\t\tVvvTokenContractAddrss = _addr;\n\t}\n\n\tfunction startNewEmployee( address _employeeAddress, string memory _name ) public onlyOwner {\n\t\temployeeData memory newEmployee;\n\t\tnewEmployee.name = _name;\n\t\tnewEmployee.owner = _employeeAddress;\n\t\tnewEmployee.startTime = block.timestamp;\n\t\tnewEmployee.exists = true;\n\t\tperEmployeeData[_employeeAddress] = newEmployee;\n\t\tempList.push(_employeeAddress);\n\t\temit NewEmployee(_employeeAddress, block.timestamp);\n\t}\n\n\tfunction employeeExit( address _employeeAddress ) public onlyOwner {\n\t\temployeeData memory emp;\n\t\temp = perEmployeeData[_employeeAddress];\n\t\tif ( emp.exists ) {\n\t\t\temp.hasExited = true;\n\t\t\temp.endTime = block.timestamp;\n\t\t}\n\t\tperEmployeeData[_employeeAddress] = emp;\n\t\temit EmployeeExit(_employeeAddress, block.timestamp);\n\t}\n\n\tfunction calculateVesting (address _anEmployee ) public onlyOwner {\n\t\tuint256 nTokens;\n\t\t// iterate and calculate.\n\t\temit VestedTokens(_anEmployee, nTokens);\n\t}\n\n\tfunction vestedTokens ( address _anEmployee ) public view returns ( uint256 ) {\n\t\temployeeData memory emp;\n\t\temp = perEmployeeData[_anEmployee];\n\t\tif ( emp.exists ) {\n\t\t\treturn emp.tokensVested;\n\t\t}\n\t\treturn 0;\n\t}\n\n\n\n\t// List Employees by address\n\tfunction nEmployees() public view returns ( uint256 ) {\n\t\treturn( empList.length );\n\t}\n\tfunction getName ( uint256 nth ) public view returns ( string memory ) {\n\t\trequire(nth >= 0  && nth < empList.length, \"nth out of range.\");\n\t\taddress a;\n\t\ta = empList[nth];\n\t\temployeeData memory emp;\n\t\temp = perEmployeeData[a];\n\t\tif ( emp.exists ) {\n\t\t\treturn emp.name;\n\t\t}\n\t\treturn ( \"\" );\n\t}\n\tfunction getStartTime ( uint256 nth ) public view returns ( uint256 ) {\n\t\trequire(nth >= 0  && nth < empList.length, \"nth out of range.\");\n\t\taddress a;\n\t\ta = empList[nth];\n\t\temployeeData memory emp;\n\t\temp = perEmployeeData[a];\n\t\tif ( emp.exists ) {\n\t\t\treturn emp.startTime;\n\t\t}\n\t\treturn ( 0 );\n\t}\n\n\t// TODO - add other accessor functions for data.\n\n}\n",
  "sourcePath": "/Users/philip/go/src/github.com/Univ-Wyo-Education/S22-4010/homework/06/Vest90Days/contracts/Vest90Days.sol",
  "compiler": {
    "name": "solc",
    "version": "0.8.1+commit.df193b15.Emscripten.clang"
  },
  "schemaVersion": "3.4.5",
  "updatedAt": "2022-04-01T16:48:50.557Z",
  "devdoc": {
    "kind": "dev",
    "methods": {
      "owner()": {
        "details": "Returns the address of the current owner."
      },
      "renounceOwnership()": {
        "details": "Leaves the contract without owner. It will not be possible to call `onlyOwner` functions anymore. Can only be called by the current owner. NOTE: Renouncing ownership will leave the contract without an owner, thereby removing any functionality that is only available to the owner."
      },
      "transferOwnership(address)": {
        "details": "Transfers ownership of the contract to a new account (`newOwner`). Can only be called by the current owner."
      }
    },
    "version": 1
  },
  "userdoc": {
    "kind": "user",
    "methods": {},
    "version": 1
  }
}