{
  "contractName": "VvvToken",
  "abi": [
    {
      "inputs": [],
      "stateMutability": "nonpayable",
      "type": "constructor"
    },
    {
      "anonymous": false,
      "inputs": [
        {
          "indexed": true,
          "internalType": "address",
          "name": "owner",
          "type": "address"
        },
        {
          "indexed": true,
          "internalType": "address",
          "name": "spender",
          "type": "address"
        },
        {
          "indexed": false,
          "internalType": "uint256",
          "name": "value",
          "type": "uint256"
        }
      ],
      "name": "Approval",
      "type": "event"
    },
    {
      "anonymous": false,
      "inputs": [
        {
          "indexed": true,
          "internalType": "address",
          "name": "operator",
          "type": "address"
        },
        {
          "indexed": true,
          "internalType": "address",
          "name": "tokenHolder",
          "type": "address"
        }
      ],
      "name": "AuthorizedOperator",
      "type": "event"
    },
    {
      "anonymous": false,
      "inputs": [
        {
          "indexed": true,
          "internalType": "address",
          "name": "operator",
          "type": "address"
        },
        {
          "indexed": true,
          "internalType": "address",
          "name": "from",
          "type": "address"
        },
        {
          "indexed": false,
          "internalType": "uint256",
          "name": "amount",
          "type": "uint256"
        },
        {
          "indexed": false,
          "internalType": "bytes",
          "name": "data",
          "type": "bytes"
        },
        {
          "indexed": false,
          "internalType": "bytes",
          "name": "operatorData",
          "type": "bytes"
        }
      ],
      "name": "Burned",
      "type": "event"
    },
    {
      "anonymous": false,
      "inputs": [
        {
          "indexed": true,
          "internalType": "address",
          "name": "operator",
          "type": "address"
        },
        {
          "indexed": true,
          "internalType": "address",
          "name": "to",
          "type": "address"
        },
        {
          "indexed": false,
          "internalType": "uint256",
          "name": "amount",
          "type": "uint256"
        },
        {
          "indexed": false,
          "internalType": "bytes",
          "name": "data",
          "type": "bytes"
        },
        {
          "indexed": false,
          "internalType": "bytes",
          "name": "operatorData",
          "type": "bytes"
        }
      ],
      "name": "Minted",
      "type": "event"
    },
    {
      "anonymous": false,
      "inputs": [
        {
          "indexed": true,
          "internalType": "address",
          "name": "previousOwner",
          "type": "address"
        },
        {
          "indexed": true,
          "internalType": "address",
          "name": "newOwner",
          "type": "address"
        }
      ],
      "name": "OwnershipTransferred",
      "type": "event"
    },
    {
      "anonymous": false,
      "inputs": [
        {
          "indexed": true,
          "internalType": "address",
          "name": "operator",
          "type": "address"
        },
        {
          "indexed": true,
          "internalType": "address",
          "name": "tokenHolder",
          "type": "address"
        }
      ],
      "name": "RevokedOperator",
      "type": "event"
    },
    {
      "anonymous": false,
      "inputs": [
        {
          "indexed": true,
          "internalType": "address",
          "name": "operator",
          "type": "address"
        },
        {
          "indexed": true,
          "internalType": "address",
          "name": "from",
          "type": "address"
        },
        {
          "indexed": true,
          "internalType": "address",
          "name": "to",
          "type": "address"
        },
        {
          "indexed": false,
          "internalType": "uint256",
          "name": "amount",
          "type": "uint256"
        },
        {
          "indexed": false,
          "internalType": "bytes",
          "name": "data",
          "type": "bytes"
        },
        {
          "indexed": false,
          "internalType": "bytes",
          "name": "operatorData",
          "type": "bytes"
        }
      ],
      "name": "Sent",
      "type": "event"
    },
    {
      "anonymous": false,
      "inputs": [
        {
          "indexed": true,
          "internalType": "address",
          "name": "from",
          "type": "address"
        },
        {
          "indexed": true,
          "internalType": "address",
          "name": "to",
          "type": "address"
        },
        {
          "indexed": false,
          "internalType": "uint256",
          "name": "value",
          "type": "uint256"
        }
      ],
      "name": "Transfer",
      "type": "event"
    },
    {
      "inputs": [
        {
          "internalType": "address",
          "name": "holder",
          "type": "address"
        },
        {
          "internalType": "address",
          "name": "spender",
          "type": "address"
        }
      ],
      "name": "allowance",
      "outputs": [
        {
          "internalType": "uint256",
          "name": "",
          "type": "uint256"
        }
      ],
      "stateMutability": "view",
      "type": "function"
    },
    {
      "inputs": [
        {
          "internalType": "address",
          "name": "spender",
          "type": "address"
        },
        {
          "internalType": "uint256",
          "name": "value",
          "type": "uint256"
        }
      ],
      "name": "approve",
      "outputs": [
        {
          "internalType": "bool",
          "name": "",
          "type": "bool"
        }
      ],
      "stateMutability": "nonpayable",
      "type": "function"
    },
    {
      "inputs": [
        {
          "internalType": "address",
          "name": "operator",
          "type": "address"
        }
      ],
      "name": "authorizeOperator",
      "outputs": [],
      "stateMutability": "nonpayable",
      "type": "function"
    },
    {
      "inputs": [
        {
          "internalType": "address",
          "name": "tokenHolder",
          "type": "address"
        }
      ],
      "name": "balanceOf",
      "outputs": [
        {
          "internalType": "uint256",
          "name": "",
          "type": "uint256"
        }
      ],
      "stateMutability": "view",
      "type": "function"
    },
    {
      "inputs": [
        {
          "internalType": "uint256",
          "name": "amount",
          "type": "uint256"
        },
        {
          "internalType": "bytes",
          "name": "data",
          "type": "bytes"
        }
      ],
      "name": "burn",
      "outputs": [],
      "stateMutability": "nonpayable",
      "type": "function"
    },
    {
      "inputs": [],
      "name": "decimals",
      "outputs": [
        {
          "internalType": "uint8",
          "name": "",
          "type": "uint8"
        }
      ],
      "stateMutability": "pure",
      "type": "function"
    },
    {
      "inputs": [],
      "name": "defaultOperators",
      "outputs": [
        {
          "internalType": "address[]",
          "name": "",
          "type": "address[]"
        }
      ],
      "stateMutability": "view",
      "type": "function"
    },
    {
      "inputs": [],
      "name": "granularity",
      "outputs": [
        {
          "internalType": "uint256",
          "name": "",
          "type": "uint256"
        }
      ],
      "stateMutability": "view",
      "type": "function"
    },
    {
      "inputs": [
        {
          "internalType": "address",
          "name": "operator",
          "type": "address"
        },
        {
          "internalType": "address",
          "name": "tokenHolder",
          "type": "address"
        }
      ],
      "name": "isOperatorFor",
      "outputs": [
        {
          "internalType": "bool",
          "name": "",
          "type": "bool"
        }
      ],
      "stateMutability": "view",
      "type": "function"
    },
    {
      "inputs": [],
      "name": "name",
      "outputs": [
        {
          "internalType": "string",
          "name": "",
          "type": "string"
        }
      ],
      "stateMutability": "view",
      "type": "function"
    },
    {
      "inputs": [
        {
          "internalType": "address",
          "name": "account",
          "type": "address"
        },
        {
          "internalType": "uint256",
          "name": "amount",
          "type": "uint256"
        },
        {
          "internalType": "bytes",
          "name": "data",
          "type": "bytes"
        },
        {
          "internalType": "bytes",
          "name": "operatorData",
          "type": "bytes"
        }
      ],
      "name": "operatorBurn",
      "outputs": [],
      "stateMutability": "nonpayable",
      "type": "function"
    },
    {
      "inputs": [
        {
          "internalType": "address",
          "name": "sender",
          "type": "address"
        },
        {
          "internalType": "address",
          "name": "recipient",
          "type": "address"
        },
        {
          "internalType": "uint256",
          "name": "amount",
          "type": "uint256"
        },
        {
          "internalType": "bytes",
          "name": "data",
          "type": "bytes"
        },
        {
          "internalType": "bytes",
          "name": "operatorData",
          "type": "bytes"
        }
      ],
      "name": "operatorSend",
      "outputs": [],
      "stateMutability": "nonpayable",
      "type": "function"
    },
    {
      "inputs": [],
      "name": "owner",
      "outputs": [
        {
          "internalType": "address",
          "name": "",
          "type": "address"
        }
      ],
      "stateMutability": "view",
      "type": "function"
    },
    {
      "inputs": [],
      "name": "renounceOwnership",
      "outputs": [],
      "stateMutability": "nonpayable",
      "type": "function"
    },
    {
      "inputs": [
        {
          "internalType": "address",
          "name": "operator",
          "type": "address"
        }
      ],
      "name": "revokeOperator",
      "outputs": [],
      "stateMutability": "nonpayable",
      "type": "function"
    },
    {
      "inputs": [
        {
          "internalType": "address",
          "name": "recipient",
          "type": "address"
        },
        {
          "internalType": "uint256",
          "name": "amount",
          "type": "uint256"
        },
        {
          "internalType": "bytes",
          "name": "data",
          "type": "bytes"
        }
      ],
      "name": "send",
      "outputs": [],
      "stateMutability": "nonpayable",
      "type": "function"
    },
    {
      "inputs": [],
      "name": "symbol",
      "outputs": [
        {
          "internalType": "string",
          "name": "",
          "type": "string"
        }
      ],
      "stateMutability": "view",
      "type": "function"
    },
    {
      "inputs": [],
      "name": "totalSupply",
      "outputs": [
        {
          "internalType": "uint256",
          "name": "",
          "type": "uint256"
        }
      ],
      "stateMutability": "view",
      "type": "function"
    },
    {
      "inputs": [
        {
          "internalType": "address",
          "name": "recipient",
          "type": "address"
        },
        {
          "internalType": "uint256",
          "name": "amount",
          "type": "uint256"
        }
      ],
      "name": "transfer",
      "outputs": [
        {
          "internalType": "bool",
          "name": "",
          "type": "bool"
        }
      ],
      "stateMutability": "nonpayable",
      "type": "function"
    },
    {
      "inputs": [
        {
          "internalType": "address",
          "name": "holder",
          "type": "address"
        },
        {
          "internalType": "address",
          "name": "recipient",
          "type": "address"
        },
        {
          "internalType": "uint256",
          "name": "amount",
          "type": "uint256"
        }
      ],
      "name": "transferFrom",
      "outputs": [
        {
          "internalType": "bool",
          "name": "",
          "type": "bool"
        }
      ],
      "stateMutability": "nonpayable",
      "type": "function"
    },
    {
      "inputs": [
        {
          "internalType": "address",
          "name": "newOwner",
          "type": "address"
        }
      ],
      "name": "transferOwnership",
      "outputs": [],
      "stateMutability": "nonpayable",
      "type": "function"
    }
  ],
  "bytecode": "0x60806040523480156200001157600080fd5b506040518060400160405280600881526020017f567676546f6b656e0000000000000000000000000000000000000000000000008152506040518060400160405280600381526020017f5656560000000000000000000000000000000000000000000000000000000000815250600067ffffffffffffffff811115620000c0577f4e487b7100000000000000000000000000000000000000000000000000000000600052604160045260246000fd5b604051908082528060200260200182016040528015620000ef5781602001602082028036833780820191505090505b506200011062000104620003ae60201b60201c565b620003b660201b60201c565b826003908051906020019062000128929190620008bf565b50816004908051906020019062000141929190620008bf565b5080600590805190602001906200015a92919062000950565b5060005b81518110156200021757600160066000848481518110620001a8577f4e487b7100000000000000000000000000000000000000000000000000000000600052603260045260246000fd5b602002602001015173ffffffffffffffffffffffffffffffffffffffff1673ffffffffffffffffffffffffffffffffffffffff16815260200190815260200160002060006101000a81548160ff02191690831515021790555080806200020e9062000dd2565b9150506200015e565b50731820a4b7618bde71dce8cdc73aab6c95905fad2473ffffffffffffffffffffffffffffffffffffffff166329965a1d307fac7fbab5f54a3ca8194167523c6753bfeb96a445279294b6125b68cce2177054306040518463ffffffff1660e01b81526004016200028b9392919062000bab565b600060405180830381600087803b158015620002a657600080fd5b505af1158015620002bb573d6000803e3d6000fd5b50505050731820a4b7618bde71dce8cdc73aab6c95905fad2473ffffffffffffffffffffffffffffffffffffffff166329965a1d307faea199e31a596269b42cdafd93407f14436db6e4cad65417994c2eb37381e05a306040518463ffffffff1660e01b8152600401620003329392919062000bab565b600060405180830381600087803b1580156200034d57600080fd5b505af115801562000362573d6000803e3d6000fd5b50505050505050620003a8336c01431e0fae6d7217caa000000060405180602001604052806000815250604051806020016040528060008152506200047a60201b60201c565b62000f47565b600033905090565b60008060009054906101000a900473ffffffffffffffffffffffffffffffffffffffff169050816000806101000a81548173ffffffffffffffffffffffffffffffffffffffff021916908373ffffffffffffffffffffffffffffffffffffffff1602179055508173ffffffffffffffffffffffffffffffffffffffff168173ffffffffffffffffffffffffffffffffffffffff167f8be0079c531659141344cd1fd0a4f28419497f9722a3daafe3b4186f6b6457e060405160405180910390a35050565b620004908484848460016200049660201b60201c565b50505050565b600073ffffffffffffffffffffffffffffffffffffffff168573ffffffffffffffffffffffffffffffffffffffff16141562000509576040517f08c379a0000000000000000000000000000000000000000000000000000000008152600401620005009062000be8565b60405180910390fd5b60006200051b620003ae60201b60201c565b90506200053281600088886200069860201b60201c565b846002600082825462000546919062000cc1565b9250508190555084600160008873ffffffffffffffffffffffffffffffffffffffff1673ffffffffffffffffffffffffffffffffffffffff16815260200190815260200160002060008282546200059e919062000cc1565b92505081905550620005bd81600088888888886200069e60201b60201c565b8573ffffffffffffffffffffffffffffffffffffffff168173ffffffffffffffffffffffffffffffffffffffff167f2fe5be0146f74c5bce36c0b80911af6c7d86ff27e89d5cfa61fc681327954e5d878787604051620006209392919062000c49565b60405180910390a38573ffffffffffffffffffffffffffffffffffffffff16600073ffffffffffffffffffffffffffffffffffffffff167fddf252ad1be2c89b69c2b068fc378daa952ba7f163c4a11628f55a4df523b3ef8760405162000688919062000c2c565b60405180910390a3505050505050565b50505050565b6000731820a4b7618bde71dce8cdc73aab6c95905fad2473ffffffffffffffffffffffffffffffffffffffff1663aabbb8ca877fb281fc8c12954d22544db45de3159a39272895b169a852b314f9cc762e44c53b6040518363ffffffff1660e01b81526004016200071192919062000b7e565b60206040518083038186803b1580156200072a57600080fd5b505afa1580156200073f573d6000803e3d6000fd5b505050506040513d601f19601f8201168201806040525081019062000765919062000a15565b9050600073ffffffffffffffffffffffffffffffffffffffff168173ffffffffffffffffffffffffffffffffffffffff16146200081a578073ffffffffffffffffffffffffffffffffffffffff166223de298989898989896040518763ffffffff1660e01b8152600401620007e09695949392919062000b03565b600060405180830381600087803b158015620007fb57600080fd5b505af115801562000810573d6000803e3d6000fd5b5050505062000892565b811562000891576200084d8673ffffffffffffffffffffffffffffffffffffffff166200089c60201b620012891760201c565b1562000890576040517f08c379a0000000000000000000000000000000000000000000000000000000008152600401620008879062000c0a565b60405180910390fd5b5b5b5050505050505050565b6000808273ffffffffffffffffffffffffffffffffffffffff163b119050919050565b828054620008cd9062000d9c565b90600052602060002090601f016020900481019282620008f157600085556200093d565b82601f106200090c57805160ff19168380011785556200093d565b828001600101855582156200093d579182015b828111156200093c5782518255916020019190600101906200091f565b5b5090506200094c9190620009df565b5090565b828054828255906000526020600020908101928215620009cc579160200282015b82811115620009cb5782518260006101000a81548173ffffffffffffffffffffffffffffffffffffffff021916908373ffffffffffffffffffffffffffffffffffffffff1602179055509160200191906001019062000971565b5b509050620009db9190620009df565b5090565b5b80821115620009fa576000816000905550600101620009e0565b5090565b60008151905062000a0f8162000f2d565b92915050565b60006020828403121562000a2857600080fd5b600062000a3884828501620009fe565b91505092915050565b62000a4c8162000d1e565b82525050565b62000a5d8162000d32565b82525050565b600062000a708262000c94565b62000a7c818562000c9f565b935062000a8e81856020860162000d66565b62000a998162000e7e565b840191505092915050565b600062000ab360208362000cb0565b915062000ac08262000e8f565b602082019050919050565b600062000ada604d8362000cb0565b915062000ae78262000eb8565b606082019050919050565b62000afd8162000d5c565b82525050565b600060c08201905062000b1a600083018962000a41565b62000b29602083018862000a41565b62000b38604083018762000a41565b62000b47606083018662000af2565b818103608083015262000b5b818562000a63565b905081810360a083015262000b71818462000a63565b9050979650505050505050565b600060408201905062000b95600083018562000a41565b62000ba4602083018462000a52565b9392505050565b600060608201905062000bc2600083018662000a41565b62000bd1602083018562000a52565b62000be0604083018462000a41565b949350505050565b6000602082019050818103600083015262000c038162000aa4565b9050919050565b6000602082019050818103600083015262000c258162000acb565b9050919050565b600060208201905062000c43600083018462000af2565b92915050565b600060608201905062000c60600083018662000af2565b818103602083015262000c74818562000a63565b9050818103604083015262000c8a818462000a63565b9050949350505050565b600081519050919050565b600082825260208201905092915050565b600082825260208201905092915050565b600062000cce8262000d5c565b915062000cdb8362000d5c565b9250827fffffffffffffffffffffffffffffffffffffffffffffffffffffffffffffffff0382111562000d135762000d1262000e20565b5b828201905092915050565b600062000d2b8262000d3c565b9050919050565b6000819050919050565b600073ffffffffffffffffffffffffffffffffffffffff82169050919050565b6000819050919050565b60005b8381101562000d8657808201518184015260208101905062000d69565b8381111562000d96576000848401525b50505050565b6000600282049050600182168062000db557607f821691505b6020821081141562000dcc5762000dcb62000e4f565b5b50919050565b600062000ddf8262000d5c565b91507fffffffffffffffffffffffffffffffffffffffffffffffffffffffffffffffff82141562000e155762000e1462000e20565b5b600182019050919050565b7f4e487b7100000000000000000000000000000000000000000000000000000000600052601160045260246000fd5b7f4e487b7100000000000000000000000000000000000000000000000000000000600052602260045260246000fd5b6000601f19601f8301169050919050565b7f4552433737373a206d696e7420746f20746865207a65726f2061646472657373600082015250565b7f4552433737373a20746f6b656e20726563697069656e7420636f6e747261637460008201527f20686173206e6f20696d706c656d656e74657220666f7220455243373737546f60208201527f6b656e73526563697069656e7400000000000000000000000000000000000000604082015250565b62000f388162000d1e565b811462000f4457600080fd5b50565b61316d8062000f576000396000f3fe608060405234801561001057600080fd5b50600436106101375760003560e01c80638da5cb5b116100b8578063d95b63711161007c578063d95b63711461032c578063dd62ed3e1461035c578063f2fde38b1461038c578063fad8b32a146103a8578063fc673c4f146103c4578063fe9d9303146103e057610137565b80638da5cb5b14610288578063959b8c3f146102a657806395d89b41146102c25780639bd9bbc6146102e0578063a9059cbb146102fc57610137565b8063313ce567116100ff578063313ce567146101f6578063556f0dc71461021457806362ad1b831461023257806370a082311461024e578063715018a61461027e57610137565b806306e485381461013c57806306fdde031461015a578063095ea7b31461017857806318160ddd146101a857806323b872dd146101c6575b600080fd5b6101446103fc565b6040516101519190612698565b60405180910390f35b61016261048a565b60405161016f91906126d5565b60405180910390f35b610192600480360381019061018d91906120e9565b61051c565b60405161019f91906126ba565b60405180910390f35b6101b061053f565b6040516101bd91906128f7565b60405180910390f35b6101e060048036038101906101db9190611ff3565b610549565b6040516101ed91906126ba565b60405180910390f35b6101fe6106d3565b60405161020b9190612957565b60405180910390f35b61021c6106dc565b60405161022991906128f7565b60405180910390f35b61024c60048036038101906102479190612042565b6106e5565b005b61026860048036038101906102639190611f65565b61074b565b60405161027591906128f7565b60405180910390f35b610286610794565b005b61029061081c565b60405161029d91906125e5565b60405180910390f35b6102c060048036038101906102bb9190611f65565b610845565b005b6102ca610aa6565b6040516102d791906126d5565b60405180910390f35b6102fa60048036038101906102f59190612125565b610b38565b005b610316600480360381019061031191906120e9565b610b62565b60405161032391906126ba565b60405180910390f35b61034660048036038101906103419190611fb7565b610c70565b60405161035391906126ba565b60405180910390f35b61037660048036038101906103719190611fb7565b610e21565b60405161038391906128f7565b60405180910390f35b6103a660048036038101906103a19190611f65565b610ea8565b005b6103c260048036038101906103bd9190611f65565b610fa0565b005b6103de60048036038101906103d9919061218c565b611201565b005b6103fa60048036038101906103f5919061221f565b611263565b005b6060600580548060200260200160405190810160405280929190818152602001828054801561048057602002820191906000526020600020905b8160009054906101000a900473ffffffffffffffffffffffffffffffffffffffff1673ffffffffffffffffffffffffffffffffffffffff1681526020019060010190808311610436575b5050505050905090565b60606003805461049990612b64565b80601f01602080910402602001604051908101604052809291908181526020018280546104c590612b64565b80156105125780601f106104e757610100808354040283529160200191610512565b820191906000526020600020905b8154815290600101906020018083116104f557829003601f168201915b5050505050905090565b6000806105276112ac565b90506105348185856112b4565b600191505092915050565b6000600254905090565b60008073ffffffffffffffffffffffffffffffffffffffff168373ffffffffffffffffffffffffffffffffffffffff1614156105ba576040517f08c379a00000000000000000000000000000000000000000000000000000000081526004016105b190612837565b60405180910390fd5b600073ffffffffffffffffffffffffffffffffffffffff168473ffffffffffffffffffffffffffffffffffffffff16141561062a576040517f08c379a000000000000000000000000000000000000000000000000000000000815260040161062190612877565b60405180910390fd5b60006106346112ac565b905061066281868686604051806020016040528060008152506040518060200160405280600081525061147f565b61066d8582856115f5565b610699818686866040518060200160405280600081525060405180602001604052806000815250611681565b6106c7818686866040518060200160405280600081525060405180602001604052806000815250600061189e565b60019150509392505050565b60006012905090565b60006001905090565b6106f66106f06112ac565b86610c70565b610735576040517f08c379a000000000000000000000000000000000000000000000000000000000815260040161072c90612857565b60405180910390fd5b61074485858585856001611a7f565b5050505050565b6000600160008373ffffffffffffffffffffffffffffffffffffffff1673ffffffffffffffffffffffffffffffffffffffff168152602001908152602001600020549050919050565b61079c6112ac565b73ffffffffffffffffffffffffffffffffffffffff166107ba61081c565b73ffffffffffffffffffffffffffffffffffffffff1614610810576040517f08c379a0000000000000000000000000000000000000000000000000000000008152600401610807906127f7565b60405180910390fd5b61081a6000611b9f565b565b60008060009054906101000a900473ffffffffffffffffffffffffffffffffffffffff16905090565b8073ffffffffffffffffffffffffffffffffffffffff166108646112ac565b73ffffffffffffffffffffffffffffffffffffffff1614156108bb576040517f08c379a00000000000000000000000000000000000000000000000000000000081526004016108b2906127b7565b60405180910390fd5b600660008273ffffffffffffffffffffffffffffffffffffffff1673ffffffffffffffffffffffffffffffffffffffff16815260200190815260200160002060009054906101000a900460ff16156109a557600860006109196112ac565b73ffffffffffffffffffffffffffffffffffffffff1673ffffffffffffffffffffffffffffffffffffffff16815260200190815260200160002060008273ffffffffffffffffffffffffffffffffffffffff1673ffffffffffffffffffffffffffffffffffffffff16815260200190815260200160002060006101000a81549060ff0219169055610a42565b6001600760006109b36112ac565b73ffffffffffffffffffffffffffffffffffffffff1673ffffffffffffffffffffffffffffffffffffffff16815260200190815260200160002060008373ffffffffffffffffffffffffffffffffffffffff1673ffffffffffffffffffffffffffffffffffffffff16815260200190815260200160002060006101000a81548160ff0219169083151502179055505b610a4a6112ac565b73ffffffffffffffffffffffffffffffffffffffff168173ffffffffffffffffffffffffffffffffffffffff167ff4caeb2d6ca8932a215a353d0703c326ec2d81fc68170f320eb2ab49e9df61f960405160405180910390a350565b606060048054610ab590612b64565b80601f0160208091040260200160405190810160405280929190818152602001828054610ae190612b64565b8015610b2e5780601f10610b0357610100808354040283529160200191610b2e565b820191906000526020600020905b815481529060010190602001808311610b1157829003601f168201915b5050505050905090565b610b5d610b436112ac565b848484604051806020016040528060008152506001611a7f565b505050565b60008073ffffffffffffffffffffffffffffffffffffffff168373ffffffffffffffffffffffffffffffffffffffff161415610bd3576040517f08c379a0000000000000000000000000000000000000000000000000000000008152600401610bca90612837565b60405180910390fd5b6000610bdd6112ac565b9050610c0b81828686604051806020016040528060008152506040518060200160405280600081525061147f565b610c37818286866040518060200160405280600081525060405180602001604052806000815250611681565b610c65818286866040518060200160405280600081525060405180602001604052806000815250600061189e565b600191505092915050565b60008173ffffffffffffffffffffffffffffffffffffffff168373ffffffffffffffffffffffffffffffffffffffff161480610d885750600660008473ffffffffffffffffffffffffffffffffffffffff1673ffffffffffffffffffffffffffffffffffffffff16815260200190815260200160002060009054906101000a900460ff168015610d875750600860008373ffffffffffffffffffffffffffffffffffffffff1673ffffffffffffffffffffffffffffffffffffffff16815260200190815260200160002060008473ffffffffffffffffffffffffffffffffffffffff1673ffffffffffffffffffffffffffffffffffffffff16815260200190815260200160002060009054906101000a900460ff16155b5b80610e195750600760008373ffffffffffffffffffffffffffffffffffffffff1673ffffffffffffffffffffffffffffffffffffffff16815260200190815260200160002060008473ffffffffffffffffffffffffffffffffffffffff1673ffffffffffffffffffffffffffffffffffffffff16815260200190815260200160002060009054906101000a900460ff165b905092915050565b6000600960008473ffffffffffffffffffffffffffffffffffffffff1673ffffffffffffffffffffffffffffffffffffffff16815260200190815260200160002060008373ffffffffffffffffffffffffffffffffffffffff1673ffffffffffffffffffffffffffffffffffffffff16815260200190815260200160002054905092915050565b610eb06112ac565b73ffffffffffffffffffffffffffffffffffffffff16610ece61081c565b73ffffffffffffffffffffffffffffffffffffffff1614610f24576040517f08c379a0000000000000000000000000000000000000000000000000000000008152600401610f1b906127f7565b60405180910390fd5b600073ffffffffffffffffffffffffffffffffffffffff168173ffffffffffffffffffffffffffffffffffffffff161415610f94576040517f08c379a0000000000000000000000000000000000000000000000000000000008152600401610f8b90612757565b60405180910390fd5b610f9d81611b9f565b50565b610fa86112ac565b73ffffffffffffffffffffffffffffffffffffffff168173ffffffffffffffffffffffffffffffffffffffff161415611016576040517f08c379a000000000000000000000000000000000000000000000000000000000815260040161100d906127d7565b60405180910390fd5b600660008273ffffffffffffffffffffffffffffffffffffffff1673ffffffffffffffffffffffffffffffffffffffff16815260200190815260200160002060009054906101000a900460ff1615611109576001600860006110766112ac565b73ffffffffffffffffffffffffffffffffffffffff1673ffffffffffffffffffffffffffffffffffffffff16815260200190815260200160002060008373ffffffffffffffffffffffffffffffffffffffff1673ffffffffffffffffffffffffffffffffffffffff16815260200190815260200160002060006101000a81548160ff02191690831515021790555061119d565b600760006111156112ac565b73ffffffffffffffffffffffffffffffffffffffff1673ffffffffffffffffffffffffffffffffffffffff16815260200190815260200160002060008273ffffffffffffffffffffffffffffffffffffffff1673ffffffffffffffffffffffffffffffffffffffff16815260200190815260200160002060006101000a81549060ff02191690555b6111a56112ac565b73ffffffffffffffffffffffffffffffffffffffff168173ffffffffffffffffffffffffffffffffffffffff167f50546e66e5f44d728365dc3908c63bc5cfeeab470722c1677e3073a6ac294aa160405160405180910390a350565b61121261120c6112ac565b85610c70565b611251576040517f08c379a000000000000000000000000000000000000000000000000000000000815260040161124890612857565b60405180910390fd5b61125d84848484611c63565b50505050565b61128561126e6112ac565b838360405180602001604052806000815250611c63565b5050565b6000808273ffffffffffffffffffffffffffffffffffffffff163b119050919050565b600033905090565b600073ffffffffffffffffffffffffffffffffffffffff168373ffffffffffffffffffffffffffffffffffffffff161415611324576040517f08c379a000000000000000000000000000000000000000000000000000000000815260040161131b906126f7565b60405180910390fd5b600073ffffffffffffffffffffffffffffffffffffffff168273ffffffffffffffffffffffffffffffffffffffff161415611394576040517f08c379a000000000000000000000000000000000000000000000000000000000815260040161138b906128d7565b60405180910390fd5b80600960008573ffffffffffffffffffffffffffffffffffffffff1673ffffffffffffffffffffffffffffffffffffffff16815260200190815260200160002060008473ffffffffffffffffffffffffffffffffffffffff1673ffffffffffffffffffffffffffffffffffffffff168152602001908152602001600020819055508173ffffffffffffffffffffffffffffffffffffffff168373ffffffffffffffffffffffffffffffffffffffff167f8c5be1e5ebec7d5bd14f71427d1e84f3dd0314c0f7b2291e5b200ac8c7c3b9258360405161147291906128f7565b60405180910390a3505050565b6000731820a4b7618bde71dce8cdc73aab6c95905fad2473ffffffffffffffffffffffffffffffffffffffff1663aabbb8ca877f29ddb589b1fb5fc7cf394961c1adf5f8c6454761adf795e67fe149f658abe8956040518363ffffffff1660e01b81526004016114f092919061266f565b60206040518083038186803b15801561150857600080fd5b505afa15801561151c573d6000803e3d6000fd5b505050506040513d601f19601f820116820180604052508101906115409190611f8e565b9050600073ffffffffffffffffffffffffffffffffffffffff168173ffffffffffffffffffffffffffffffffffffffff16146115ec578073ffffffffffffffffffffffffffffffffffffffff166375ab97828888888888886040518763ffffffff1660e01b81526004016115b996959493929190612600565b600060405180830381600087803b1580156115d357600080fd5b505af11580156115e7573d6000803e3d6000fd5b505050505b50505050505050565b60006116018484610e21565b90507fffffffffffffffffffffffffffffffffffffffffffffffffffffffffffffffff811461167b578181101561166d576040517f08c379a000000000000000000000000000000000000000000000000000000000815260040161166490612797565b60405180910390fd5b61167a84848484036112b4565b5b50505050565b61168d86868686611eb8565b6000600160008773ffffffffffffffffffffffffffffffffffffffff1673ffffffffffffffffffffffffffffffffffffffff16815260200190815260200160002054905083811015611714576040517f08c379a000000000000000000000000000000000000000000000000000000000815260040161170b90612737565b60405180910390fd5b838103600160008873ffffffffffffffffffffffffffffffffffffffff1673ffffffffffffffffffffffffffffffffffffffff1681526020019081526020016000208190555083600160008773ffffffffffffffffffffffffffffffffffffffff1673ffffffffffffffffffffffffffffffffffffffff16815260200190815260200160002060008282546117a99190612a39565b925050819055508473ffffffffffffffffffffffffffffffffffffffff168673ffffffffffffffffffffffffffffffffffffffff168873ffffffffffffffffffffffffffffffffffffffff167f06b541ddaa720db2b10a4d0cdac39b8d360425fc073085fac19bc8261467798787878760405161182893929190612912565b60405180910390a48473ffffffffffffffffffffffffffffffffffffffff168673ffffffffffffffffffffffffffffffffffffffff167fddf252ad1be2c89b69c2b068fc378daa952ba7f163c4a11628f55a4df523b3ef8660405161188d91906128f7565b60405180910390a350505050505050565b6000731820a4b7618bde71dce8cdc73aab6c95905fad2473ffffffffffffffffffffffffffffffffffffffff1663aabbb8ca877fb281fc8c12954d22544db45de3159a39272895b169a852b314f9cc762e44c53b6040518363ffffffff1660e01b815260040161190f92919061266f565b60206040518083038186803b15801561192757600080fd5b505afa15801561193b573d6000803e3d6000fd5b505050506040513d601f19601f8201168201806040525081019061195f9190611f8e565b9050600073ffffffffffffffffffffffffffffffffffffffff168173ffffffffffffffffffffffffffffffffffffffff1614611a0e578073ffffffffffffffffffffffffffffffffffffffff166223de298989898989896040518763ffffffff1660e01b81526004016119d796959493929190612600565b600060405180830381600087803b1580156119f157600080fd5b505af1158015611a05573d6000803e3d6000fd5b50505050611a75565b8115611a7457611a338673ffffffffffffffffffffffffffffffffffffffff16611289565b15611a73576040517f08c379a0000000000000000000000000000000000000000000000000000000008152600401611a6a90612817565b60405180910390fd5b5b5b5050505050505050565b600073ffffffffffffffffffffffffffffffffffffffff168673ffffffffffffffffffffffffffffffffffffffff161415611aef576040517f08c379a0000000000000000000000000000000000000000000000000000000008152600401611ae690612717565b60405180910390fd5b600073ffffffffffffffffffffffffffffffffffffffff168573ffffffffffffffffffffffffffffffffffffffff161415611b5f576040517f08c379a0000000000000000000000000000000000000000000000000000000008152600401611b56906128b7565b60405180910390fd5b6000611b696112ac565b9050611b7981888888888861147f565b611b87818888888888611681565b611b968188888888888861189e565b50505050505050565b60008060009054906101000a900473ffffffffffffffffffffffffffffffffffffffff169050816000806101000a81548173ffffffffffffffffffffffffffffffffffffffff021916908373ffffffffffffffffffffffffffffffffffffffff1602179055508173ffffffffffffffffffffffffffffffffffffffff168173ffffffffffffffffffffffffffffffffffffffff167f8be0079c531659141344cd1fd0a4f28419497f9722a3daafe3b4186f6b6457e060405160405180910390a35050565b600073ffffffffffffffffffffffffffffffffffffffff168473ffffffffffffffffffffffffffffffffffffffff161415611cd3576040517f08c379a0000000000000000000000000000000000000000000000000000000008152600401611cca90612777565b60405180910390fd5b6000611cdd6112ac565b9050611cee8186600087878761147f565b611cfb8186600087611eb8565b6000600160008773ffffffffffffffffffffffffffffffffffffffff1673ffffffffffffffffffffffffffffffffffffffff16815260200190815260200160002054905084811015611d82576040517f08c379a0000000000000000000000000000000000000000000000000000000008152600401611d7990612897565b60405180910390fd5b848103600160008873ffffffffffffffffffffffffffffffffffffffff1673ffffffffffffffffffffffffffffffffffffffff168152602001908152602001600020819055508460026000828254611dda9190612a8f565b925050819055508573ffffffffffffffffffffffffffffffffffffffff168273ffffffffffffffffffffffffffffffffffffffff167fa78a9be3a7b862d26933ad85fb11d80ef66b8f972d7cbba06621d583943a4098878787604051611e4293929190612912565b60405180910390a3600073ffffffffffffffffffffffffffffffffffffffff168673ffffffffffffffffffffffffffffffffffffffff167fddf252ad1be2c89b69c2b068fc378daa952ba7f163c4a11628f55a4df523b3ef87604051611ea891906128f7565b60405180910390a3505050505050565b50505050565b6000611ed1611ecc84612997565b612972565b905082815260208101848484011115611ee957600080fd5b611ef4848285612b22565b509392505050565b600081359050611f0b81613109565b92915050565b600081519050611f2081613109565b92915050565b600082601f830112611f3757600080fd5b8135611f47848260208601611ebe565b91505092915050565b600081359050611f5f81613120565b92915050565b600060208284031215611f7757600080fd5b6000611f8584828501611efc565b91505092915050565b600060208284031215611fa057600080fd5b6000611fae84828501611f11565b91505092915050565b60008060408385031215611fca57600080fd5b6000611fd885828601611efc565b9250506020611fe985828601611efc565b9150509250929050565b60008060006060848603121561200857600080fd5b600061201686828701611efc565b935050602061202786828701611efc565b925050604061203886828701611f50565b9150509250925092565b600080600080600060a0868803121561205a57600080fd5b600061206888828901611efc565b955050602061207988828901611efc565b945050604061208a88828901611f50565b935050606086013567ffffffffffffffff8111156120a757600080fd5b6120b388828901611f26565b925050608086013567ffffffffffffffff8111156120d057600080fd5b6120dc88828901611f26565b9150509295509295909350565b600080604083850312156120fc57600080fd5b600061210a85828601611efc565b925050602061211b85828601611f50565b9150509250929050565b60008060006060848603121561213a57600080fd5b600061214886828701611efc565b935050602061215986828701611f50565b925050604084013567ffffffffffffffff81111561217657600080fd5b61218286828701611f26565b9150509250925092565b600080600080608085870312156121a257600080fd5b60006121b087828801611efc565b94505060206121c187828801611f50565b935050604085013567ffffffffffffffff8111156121de57600080fd5b6121ea87828801611f26565b925050606085013567ffffffffffffffff81111561220757600080fd5b61221387828801611f26565b91505092959194509250565b6000806040838503121561223257600080fd5b600061224085828601611f50565b925050602083013567ffffffffffffffff81111561225d57600080fd5b61226985828601611f26565b9150509250929050565b600061227f838361228b565b60208301905092915050565b61229481612ac3565b82525050565b6122a381612ac3565b82525050565b60006122b4826129d8565b6122be8185612a06565b93506122c9836129c8565b8060005b838110156122fa5781516122e18882612273565b97506122ec836129f9565b9250506001810190506122cd565b5085935050505092915050565b61231081612ad5565b82525050565b61231f81612ae1565b82525050565b6000612330826129e3565b61233a8185612a17565b935061234a818560208601612b31565b61235381612c54565b840191505092915050565b6000612369826129ee565b6123738185612a28565b9350612383818560208601612b31565b61238c81612c54565b840191505092915050565b60006123a4602583612a28565b91506123af82612c65565b604082019050919050565b60006123c7602283612a28565b91506123d282612cb4565b604082019050919050565b60006123ea602783612a28565b91506123f582612d03565b604082019050919050565b600061240d602683612a28565b915061241882612d52565b604082019050919050565b6000612430602283612a28565b915061243b82612da1565b604082019050919050565b6000612453601e83612a28565b915061245e82612df0565b602082019050919050565b6000612476602483612a28565b915061248182612e19565b604082019050919050565b6000612499602183612a28565b91506124a482612e68565b604082019050919050565b60006124bc602083612a28565b91506124c782612eb7565b602082019050919050565b60006124df604d83612a28565b91506124ea82612ee0565b606082019050919050565b6000612502602483612a28565b915061250d82612f55565b604082019050919050565b6000612525602c83612a28565b915061253082612fa4565b604082019050919050565b6000612548602683612a28565b915061255382612ff3565b604082019050919050565b600061256b602383612a28565b915061257682613042565b604082019050919050565b600061258e602083612a28565b915061259982613091565b602082019050919050565b60006125b1602383612a28565b91506125bc826130ba565b604082019050919050565b6125d081612b0b565b82525050565b6125df81612b15565b82525050565b60006020820190506125fa600083018461229a565b92915050565b600060c082019050612615600083018961229a565b612622602083018861229a565b61262f604083018761229a565b61263c60608301866125c7565b818103608083015261264e8185612325565b905081810360a08301526126628184612325565b9050979650505050505050565b6000604082019050612684600083018561229a565b6126916020830184612316565b9392505050565b600060208201905081810360008301526126b281846122a9565b905092915050565b60006020820190506126cf6000830184612307565b92915050565b600060208201905081810360008301526126ef818461235e565b905092915050565b6000602082019050818103600083015261271081612397565b9050919050565b60006020820190508181036000830152612730816123ba565b9050919050565b60006020820190508181036000830152612750816123dd565b9050919050565b6000602082019050818103600083015261277081612400565b9050919050565b6000602082019050818103600083015261279081612423565b9050919050565b600060208201905081810360008301526127b081612446565b9050919050565b600060208201905081810360008301526127d081612469565b9050919050565b600060208201905081810360008301526127f08161248c565b9050919050565b60006020820190508181036000830152612810816124af565b9050919050565b60006020820190508181036000830152612830816124d2565b9050919050565b60006020820190508181036000830152612850816124f5565b9050919050565b6000602082019050818103600083015261287081612518565b9050919050565b600060208201905081810360008301526128908161253b565b9050919050565b600060208201905081810360008301526128b08161255e565b9050919050565b600060208201905081810360008301526128d081612581565b9050919050565b600060208201905081810360008301526128f0816125a4565b9050919050565b600060208201905061290c60008301846125c7565b92915050565b600060608201905061292760008301866125c7565b81810360208301526129398185612325565b9050818103604083015261294d8184612325565b9050949350505050565b600060208201905061296c60008301846125d6565b92915050565b600061297c61298d565b90506129888282612b96565b919050565b6000604051905090565b600067ffffffffffffffff8211156129b2576129b1612c25565b5b6129bb82612c54565b9050602081019050919050565b6000819050602082019050919050565b600081519050919050565b600081519050919050565b600081519050919050565b6000602082019050919050565b600082825260208201905092915050565b600082825260208201905092915050565b600082825260208201905092915050565b6000612a4482612b0b565b9150612a4f83612b0b565b9250827fffffffffffffffffffffffffffffffffffffffffffffffffffffffffffffffff03821115612a8457612a83612bc7565b5b828201905092915050565b6000612a9a82612b0b565b9150612aa583612b0b565b925082821015612ab857612ab7612bc7565b5b828203905092915050565b6000612ace82612aeb565b9050919050565b60008115159050919050565b6000819050919050565b600073ffffffffffffffffffffffffffffffffffffffff82169050919050565b6000819050919050565b600060ff82169050919050565b82818337600083830152505050565b60005b83811015612b4f578082015181840152602081019050612b34565b83811115612b5e576000848401525b50505050565b60006002820490506001821680612b7c57607f821691505b60208210811415612b9057612b8f612bf6565b5b50919050565b612b9f82612c54565b810181811067ffffffffffffffff82111715612bbe57612bbd612c25565b5b80604052505050565b7f4e487b7100000000000000000000000000000000000000000000000000000000600052601160045260246000fd5b7f4e487b7100000000000000000000000000000000000000000000000000000000600052602260045260246000fd5b7f4e487b7100000000000000000000000000000000000000000000000000000000600052604160045260246000fd5b6000601f19601f8301169050919050565b7f4552433737373a20617070726f76652066726f6d20746865207a65726f20616460008201527f6472657373000000000000000000000000000000000000000000000000000000602082015250565b7f4552433737373a2073656e642066726f6d20746865207a65726f20616464726560008201527f7373000000000000000000000000000000000000000000000000000000000000602082015250565b7f4552433737373a207472616e7366657220616d6f756e7420657863656564732060008201527f62616c616e636500000000000000000000000000000000000000000000000000602082015250565b7f4f776e61626c653a206e6577206f776e657220697320746865207a65726f206160008201527f6464726573730000000000000000000000000000000000000000000000000000602082015250565b7f4552433737373a206275726e2066726f6d20746865207a65726f20616464726560008201527f7373000000000000000000000000000000000000000000000000000000000000602082015250565b7f4552433737373a20696e73756666696369656e7420616c6c6f77616e63650000600082015250565b7f4552433737373a20617574686f72697a696e672073656c66206173206f70657260008201527f61746f7200000000000000000000000000000000000000000000000000000000602082015250565b7f4552433737373a207265766f6b696e672073656c66206173206f70657261746f60008201527f7200000000000000000000000000000000000000000000000000000000000000602082015250565b7f4f776e61626c653a2063616c6c6572206973206e6f7420746865206f776e6572600082015250565b7f4552433737373a20746f6b656e20726563697069656e7420636f6e747261637460008201527f20686173206e6f20696d706c656d656e74657220666f7220455243373737546f60208201527f6b656e73526563697069656e7400000000000000000000000000000000000000604082015250565b7f4552433737373a207472616e7366657220746f20746865207a65726f2061646460008201527f7265737300000000000000000000000000000000000000000000000000000000602082015250565b7f4552433737373a2063616c6c6572206973206e6f7420616e206f70657261746f60008201527f7220666f7220686f6c6465720000000000000000000000000000000000000000602082015250565b7f4552433737373a207472616e736665722066726f6d20746865207a65726f206160008201527f6464726573730000000000000000000000000000000000000000000000000000602082015250565b7f4552433737373a206275726e20616d6f756e7420657863656564732062616c6160008201527f6e63650000000000000000000000000000000000000000000000000000000000602082015250565b7f4552433737373a2073656e6420746f20746865207a65726f2061646472657373600082015250565b7f4552433737373a20617070726f766520746f20746865207a65726f206164647260008201527f6573730000000000000000000000000000000000000000000000000000000000602082015250565b61311281612ac3565b811461311d57600080fd5b50565b61312981612b0b565b811461313457600080fd5b5056fea2646970667358221220e3c37bb1f3d3f336b47963709c01947b3ea1f243fe2a4fca4a1d722f86b24c1364736f6c63430008010033",
  "immutableReferences": {},
  "source": "// SPDX-License-Identifier: MIT\npragma solidity >=0.8.0 <0.9.0;\n\nimport \"@openzeppelin/contracts/access/Ownable.sol\";\nimport \"@openzeppelin/contracts/token/ERC777/ERC777.sol\";\n\ncontract VvvToken is Ownable, ERC777 {\n\t/**\n     * @dev Constructor that gives msg.sender all of existing tokens.\n     */\n    constructor () ERC777(\"VvvToken\", \"VVV\", new address[](0)) {\n        // _mint(msg.sender, msg.sender, 100000000000 * 10 ** 18, \"\", \"\");\n        _mint(msg.sender, 100000000000 * 10 ** 18, \"\", \"\");\n    }\n}\n",
  "sourcePath": "/Users/philip/go/src/github.com/Univ-Wyo-Education/S22-4010/homework/06/Vest90Days/contracts/VvvToken.sol",
  "compiler": {
    "name": "solc",
    "version": "0.8.1+commit.df193b15.Emscripten.clang"
  },
  "schemaVersion": "3.4.5",
  "updatedAt": "2022-04-01T16:41:42.707Z",
  "devdoc": {
    "kind": "dev",
    "methods": {
      "allowance(address,address)": {
        "details": "See {IERC20-allowance}. Note that operator and allowance concepts are orthogonal: operators may not have allowance, and accounts with allowance may not be operators themselves."
      },
      "approve(address,uint256)": {
        "details": "See {IERC20-approve}. NOTE: If `value` is the maximum `uint256`, the allowance is not updated on `transferFrom`. This is semantically equivalent to an infinite approval. Note that accounts cannot have allowance issued by their operators."
      },
      "authorizeOperator(address)": {
        "details": "See {IERC777-authorizeOperator}."
      },
      "balanceOf(address)": {
        "details": "Returns the amount of tokens owned by an account (`tokenHolder`)."
      },
      "burn(uint256,bytes)": {
        "details": "See {IERC777-burn}. Also emits a {IERC20-Transfer} event for ERC20 compatibility."
      },
      "constructor": {
        "details": "Constructor that gives msg.sender all of existing tokens."
      },
      "decimals()": {
        "details": "See {ERC20-decimals}. Always returns 18, as per the [ERC777 EIP](https://eips.ethereum.org/EIPS/eip-777#backward-compatibility)."
      },
      "defaultOperators()": {
        "details": "See {IERC777-defaultOperators}."
      },
      "granularity()": {
        "details": "See {IERC777-granularity}. This implementation always returns `1`."
      },
      "isOperatorFor(address,address)": {
        "details": "See {IERC777-isOperatorFor}."
      },
      "name()": {
        "details": "See {IERC777-name}."
      },
      "operatorBurn(address,uint256,bytes,bytes)": {
        "details": "See {IERC777-operatorBurn}. Emits {Burned} and {IERC20-Transfer} events."
      },
      "operatorSend(address,address,uint256,bytes,bytes)": {
        "details": "See {IERC777-operatorSend}. Emits {Sent} and {IERC20-Transfer} events."
      },
      "owner()": {
        "details": "Returns the address of the current owner."
      },
      "renounceOwnership()": {
        "details": "Leaves the contract without owner. It will not be possible to call `onlyOwner` functions anymore. Can only be called by the current owner. NOTE: Renouncing ownership will leave the contract without an owner, thereby removing any functionality that is only available to the owner."
      },
      "revokeOperator(address)": {
        "details": "See {IERC777-revokeOperator}."
      },
      "send(address,uint256,bytes)": {
        "details": "See {IERC777-send}. Also emits a {IERC20-Transfer} event for ERC20 compatibility."
      },
      "symbol()": {
        "details": "See {IERC777-symbol}."
      },
      "totalSupply()": {
        "details": "See {IERC777-totalSupply}."
      },
      "transfer(address,uint256)": {
        "details": "See {IERC20-transfer}. Unlike `send`, `recipient` is _not_ required to implement the {IERC777Recipient} interface if it is a contract. Also emits a {Sent} event."
      },
      "transferFrom(address,address,uint256)": {
        "details": "See {IERC20-transferFrom}. NOTE: Does not update the allowance if the current allowance is the maximum `uint256`. Note that operator and allowance concepts are orthogonal: operators cannot call `transferFrom` (unless they have allowance), and accounts with allowance cannot call `operatorSend` (unless they are operators). Emits {Sent}, {IERC20-Transfer} and {IERC20-Approval} events."
      },
      "transferOwnership(address)": {
        "details": "Transfers ownership of the contract to a new account (`newOwner`). Can only be called by the current owner."
      }
    },
    "version": 1
  },
  "userdoc": {
    "kind": "user",
    "methods": {},
    "version": 1
  }
}