{
  "contractName": "PayFor",
  "abi": [
    {
      "inputs": [],
      "payable": false,
      "stateMutability": "nonpayable",
      "type": "constructor"
    },
    {
      "anonymous": false,
      "inputs": [
        {
          "indexed": false,
          "internalType": "address",
          "name": "sender",
          "type": "address"
        }
      ],
      "name": "LogDepositReceived",
      "type": "event"
    },
    {
      "anonymous": false,
      "inputs": [
        {
          "indexed": false,
          "internalType": "address",
          "name": "sender",
          "type": "address"
        },
        {
          "indexed": false,
          "internalType": "uint256",
          "name": "value",
          "type": "uint256"
        },
        {
          "indexed": false,
          "internalType": "uint256",
          "name": "application",
          "type": "uint256"
        },
        {
          "indexed": false,
          "internalType": "uint256",
          "name": "loc",
          "type": "uint256"
        }
      ],
      "name": "ReceivedFunds",
      "type": "event"
    },
    {
      "anonymous": false,
      "inputs": [
        {
          "indexed": false,
          "internalType": "uint256",
          "name": "product",
          "type": "uint256"
        },
        {
          "indexed": false,
          "internalType": "uint256",
          "name": "minPrice",
          "type": "uint256"
        }
      ],
      "name": "SetProductPrice",
      "type": "event"
    },
    {
      "anonymous": false,
      "inputs": [
        {
          "indexed": false,
          "internalType": "address",
          "name": "to",
          "type": "address"
        },
        {
          "indexed": false,
          "internalType": "uint256",
          "name": "amount",
          "type": "uint256"
        }
      ],
      "name": "Withdrawn",
      "type": "event"
    },
    {
      "payable": true,
      "stateMutability": "payable",
      "type": "fallback"
    },
    {
      "constant": true,
      "inputs": [],
      "name": "owner",
      "outputs": [
        {
          "internalType": "address",
          "name": "",
          "type": "address"
        }
      ],
      "payable": false,
      "stateMutability": "view",
      "type": "function"
    },
    {
      "constant": true,
      "inputs": [],
      "name": "isOwner",
      "outputs": [
        {
          "internalType": "bool",
          "name": "",
          "type": "bool"
        }
      ],
      "payable": false,
      "stateMutability": "view",
      "type": "function"
    },
    {
      "constant": false,
      "inputs": [
        {
          "internalType": "uint256",
          "name": "productNumber",
          "type": "uint256"
        },
        {
          "internalType": "uint256",
          "name": "minPrice",
          "type": "uint256"
        }
      ],
      "name": "setProductPrice",
      "outputs": [],
      "payable": false,
      "stateMutability": "nonpayable",
      "type": "function"
    },
    {
      "constant": false,
      "inputs": [
        {
          "internalType": "uint256",
          "name": "forProduct",
          "type": "uint256"
        }
      ],
      "name": "receiveFunds",
      "outputs": [
        {
          "internalType": "bool",
          "name": "",
          "type": "bool"
        }
      ],
      "payable": true,
      "stateMutability": "payable",
      "type": "function"
    },
    {
      "constant": false,
      "inputs": [],
      "name": "getNPayments",
      "outputs": [
        {
          "internalType": "uint256",
          "name": "",
          "type": "uint256"
        }
      ],
      "payable": true,
      "stateMutability": "payable",
      "type": "function"
    },
    {
      "constant": false,
      "inputs": [
        {
          "internalType": "address",
          "name": "lookUp",
          "type": "address"
        }
      ],
      "name": "getNPayments",
      "outputs": [
        {
          "internalType": "uint256",
          "name": "",
          "type": "uint256"
        }
      ],
      "payable": false,
      "stateMutability": "nonpayable",
      "type": "function"
    },
    {
      "constant": false,
      "inputs": [
        {
          "internalType": "uint256",
          "name": "n",
          "type": "uint256"
        }
      ],
      "name": "getPaymentInfo",
      "outputs": [
        {
          "internalType": "address",
          "name": "",
          "type": "address"
        },
        {
          "internalType": "uint256",
          "name": "",
          "type": "uint256"
        },
        {
          "internalType": "uint256",
          "name": "",
          "type": "uint256"
        }
      ],
      "payable": true,
      "stateMutability": "payable",
      "type": "function"
    },
    {
      "constant": false,
      "inputs": [
        {
          "internalType": "uint256",
          "name": "amount",
          "type": "uint256"
        }
      ],
      "name": "withdraw",
      "outputs": [
        {
          "internalType": "bool",
          "name": "",
          "type": "bool"
        }
      ],
      "payable": false,
      "stateMutability": "nonpayable",
      "type": "function"
    },
    {
      "constant": true,
      "inputs": [],
      "name": "getBalanceContract",
      "outputs": [
        {
          "internalType": "uint256",
          "name": "",
          "type": "uint256"
        }
      ],
      "payable": false,
      "stateMutability": "view",
      "type": "function"
    }
  ],
  "bytecode": "0x608060405234801561001057600080fd5b50336000806101000a81548173ffffffffffffffffffffffffffffffffffffffff021916908373ffffffffffffffffffffffffffffffffffffffff1602179055506000600181905550610a9a806100686000396000f3fe6080604052600436106100865760003560e01c80636b880c30116100595780636b880c30146101dc5780638827e09b146102415780638da5cb5b146102875780638f32d59b146102de578063d810ff0f1461030d57610086565b80632e1a7d4d146100fb57806344d3498a1461014e5780635e5ef79c1461019357806366bd78fd146101b1575b6000803690501461009657600080fd5b7f15382559391789f1865e10e9c8b51327a9cb0381eae89973ada229e7a78c08f333604051808273ffffffffffffffffffffffffffffffffffffffff1673ffffffffffffffffffffffffffffffffffffffff16815260200191505060405180910390a1005b34801561010757600080fd5b506101346004803603602081101561011e57600080fd5b8101908080359060200190929190505050610389565b604051808215151515815260200191505060405180910390f35b34801561015a57600080fd5b506101916004803603604081101561017157600080fd5b8101908080359060200190929190803590602001909291905050506104f2565b005b61019b61059e565b6040518082815260200191505060405180910390f35b3480156101bd57600080fd5b506101c66105b9565b6040518082815260200191505060405180910390f35b3480156101e857600080fd5b5061022b600480360360208110156101ff57600080fd5b81019080803573ffffffffffffffffffffffffffffffffffffffff1690602001909291905050506105d2565b6040518082815260200191505060405180910390f35b61026d6004803603602081101561025757600080fd5b810190808035906020019092919050505061062c565b604051808215151515815260200191505060405180910390f35b34801561029357600080fd5b5061029c610938565b604051808273ffffffffffffffffffffffffffffffffffffffff1673ffffffffffffffffffffffffffffffffffffffff16815260200191505060405180910390f35b3480156102ea57600080fd5b506102f3610961565b604051808215151515815260200191505060405180910390f35b6103396004803603602081101561032357600080fd5b81019080803590602001909291905050506109b8565b604051808473ffffffffffffffffffffffffffffffffffffffff1673ffffffffffffffffffffffffffffffffffffffff168152602001838152602001828152602001935050505060405180910390f35b6000610393610961565b61039c57600080fd5b814710156103f5576040517f08c379a0000000000000000000000000000000000000000000000000000000008152600401808060200182810382526022815260200180610a446022913960400191505060405180910390fd5b6000809054906101000a900473ffffffffffffffffffffffffffffffffffffffff1673ffffffffffffffffffffffffffffffffffffffff166108fc839081150290604051600060405180830381858888f1935050505015801561045c573d6000803e3d6000fd5b507f7084f5476618d8e60b11ef0d7d3f06914655adb8793e28ff7f018d4c76d505d56000809054906101000a900473ffffffffffffffffffffffffffffffffffffffff1683604051808373ffffffffffffffffffffffffffffffffffffffff1673ffffffffffffffffffffffffffffffffffffffff1681526020018281526020019250505060405180910390a160019050919050565b6104fa610961565b61050357600080fd5b604051806040016040528082815260200160011515815250600660008481526020019081526020016000206000820151816000015560208201518160010160006101000a81548160ff0219169083151502179055509050507f5c5f387eac41c869193b483f99dbb499489afef0ee3f47c6ed3493a0751c717c8282604051808381526020018281526020019250505060405180910390a15050565b60006105a8610961565b6105b157600080fd5b600154905090565b60006105c3610961565b6105cc57600080fd5b47905090565b60006105dc610961565b6105e557600080fd5b600760008373ffffffffffffffffffffffffffffffffffffffff1673ffffffffffffffffffffffffffffffffffffffff168152602001908152602001600020549050919050565b60006006600083815260200190815260200160002060010160009054906101000a900460ff166106c4576040517f08c379a000000000000000000000000000000000000000000000000000000000815260040180806020018281038252600f8152602001807f496e76616c69642070726f64756374000000000000000000000000000000000081525060200191505060405180910390fd5b6006600083815260200190815260200160002060000154341161074f576040517f08c379a000000000000000000000000000000000000000000000000000000000815260040180806020018281038252601e8152602001807f496e73756666696369656e742066756e647320666f722070726f64756374000081525060200191505060405180910390fd5b600080600160008154809291906001019190505550600480549050915060033390806001815401808255809150509060018203906000526020600020016000909192909190916101000a81548173ffffffffffffffffffffffffffffffffffffffff021916908373ffffffffffffffffffffffffffffffffffffffff1602179055505060043490806001815401808255809150509060018203906000526020600020016000909192909190915055506005849080600181540180825580915050906001820390600052602060002001600090919290919091505550600760003373ffffffffffffffffffffffffffffffffffffffff1673ffffffffffffffffffffffffffffffffffffffff168152602001908152602001600020549050348101600760003373ffffffffffffffffffffffffffffffffffffffff1673ffffffffffffffffffffffffffffffffffffffff168152602001908152602001600020819055507f5f74095c3cf9cd2b4407992767113d77fc65cb2423a83ecc71977f3ace6b34f433348685604051808573ffffffffffffffffffffffffffffffffffffffff1673ffffffffffffffffffffffffffffffffffffffff16815260200184815260200183815260200182815260200194505050505060405180910390a1600192505050919050565b60008060009054906101000a900473ffffffffffffffffffffffffffffffffffffffff16905090565b60008060009054906101000a900473ffffffffffffffffffffffffffffffffffffffff1673ffffffffffffffffffffffffffffffffffffffff163373ffffffffffffffffffffffffffffffffffffffff1614905090565b60008060006109c5610961565b6109ce57600080fd5b600384815481106109db57fe5b9060005260206000200160009054906101000a900473ffffffffffffffffffffffffffffffffffffffff1660048581548110610a1357fe5b906000526020600020015460058681548110610a2b57fe5b9060005260206000200154925092509250919390925056fe496e73756666696369656e742042616c616e636520666f722077697468647261776ca265627a7a723158204cc64d170fdf959e69577380959f69a176d9717c6b887b3604b6ac2a24251d5f64736f6c63430005100032",
  "source": "// SPDX-License-Identifier: MIT\npragma solidity >=0.4.22 <0.9.0;\n\ncontract PayFor {\n\n\tstruct productPriceStruct {\n\t\tuint256 price;\n\t\tbool isValue;\n\t}\n\n    address payable owner_address;\n\tevent ReceivedFunds(address sender, uint256 value, uint256 application, uint256 loc);\n\tevent Withdrawn(address to, uint256 amount);\n\tevent SetProductPrice ( uint256 product, uint256 minPrice );\n\tevent LogDepositReceived(address sender);\n\n    uint256 internal nPayments;\n    uint256 internal paymentID;\n\n    address[] private listOfPayedBy;\n    uint256[] private listOfPayments;\n    uint256[] private payFor;\n\n    mapping (uint256 => productPriceStruct) internal productMinPrice;\n\n    mapping (address => uint256) internal totalByAccount;\n\n\tconstructor() public {\n        owner_address = msg.sender;\n    \tnPayments = 0;\n\t}\n\n    /**\n     * @return the address of the owner.\n     */\n    function owner() public view returns (address) {\n        return owner_address;\n    }\n\n    /**\n     * @dev Throws if called by any account other than the owner.\n     */\n    modifier onlyOwner() {\n        require(isOwner());\n        _;\n    }\n\n    /**\n     * @return true if `msg.sender` is the owner of the contract.\n     */\n    function isOwner() public view returns (bool) {\n        return msg.sender == owner_address;\n    }\n\n    /**\n     * @dev set the minimum price for a product.  Emit SetProductPrice when a price is set.\n     */\n\tfunction setProductPrice(uint256 productNumber, uint256 minPrice) public onlyOwner {\n\t\tproductMinPrice[productNumber] = productPriceStruct ( minPrice, true );\n\t\temit SetProductPrice ( productNumber, minPrice );\n\t}\n\n    /**\n     * @return true for funds received.  Emit a ReceivedFunds event.\n     */\n\tfunction receiveFunds(uint256 forProduct) public payable returns(bool) {\n\t\t// Check that product is valid\n\t\trequire(productMinPrice[forProduct].isValue, 'Invalid product');\n\t\t// Validate that the sender has payed for the prouct.\n\t\trequire(msg.value > productMinPrice[forProduct].price, 'Insufficient funds for product');\n\n\t\tuint256 pos;\n\t\tuint256 tot;\n\t\tnPayments++;\n\t\tpos = listOfPayments.length;\n    \tlistOfPayedBy.push(msg.sender);\n    \tlistOfPayments.push(msg.value);\n    \tpayFor.push(forProduct);\n\t\ttot = totalByAccount[msg.sender];\n\t\ttotalByAccount[msg.sender] = tot + msg.value;\n    \temit ReceivedFunds(msg.sender, msg.value, forProduct, pos);\n\t\treturn true;\n\t}\n\n    /**\n     * @return the total that has been payed by an account.\n     */\n\tfunction getNPayments(address lookUp) public onlyOwner returns(uint256) {\n\t\treturn ( totalByAccount[lookUp] );\n\t}\n\n    /**\n     * @return the number of paymetns.\n     */\n\tfunction getNPayments() public onlyOwner payable returns(uint256) {\n\t\treturn ( nPayments );\n\t}\n\n    /**\n     * @return the address that payeed with the payment amount and what was payed for.\n     */\n\tfunction getPaymentInfo(uint256 n) public onlyOwner payable returns(address, uint256, uint256) {\n\t\treturn ( listOfPayedBy[n], listOfPayments[n], payFor[n] );\n\t}\n\t\n    /**\n     * @dev widthdraw funds form the contract.\n     */\n\tfunction withdraw( uint256 amount ) public onlyOwner returns(bool) {\n\t\trequire(address(this).balance >= amount, \"Insufficient Balance for withdrawl\");\n\t\taddress(owner_address).transfer(amount);\n\t\temit Withdrawn(owner_address, amount);\n\t\treturn true;\n\t}\n\n    /**\n     * @return the amount of funds that can be withdrawn.\n     */\n\tfunction getBalanceContract() public view onlyOwner returns(uint256){\n\t\treturn address(this).balance;\n\t}\n\n    /**\n     * @return Catch and save funds for abstrc transfer.\n     */\n\tfunction() external payable {\n\t\trequire(msg.data.length == 0);\n\t\temit LogDepositReceived(msg.sender);\n\t}\n\n}\n",
  "sourcePath": "/Users/philip/go/src/github.com/Univ-Wyo-Education/S22-4010/class/lect/16/payfor/contracts/PayFor.sol",
  "compiler": {
    "name": "solc",
    "version": "0.5.16+commit.9c3226ce.Emscripten.clang"
  },
  "schemaVersion": "3.4.3",
  "updatedAt": "2022-02-25T13:46:20.919Z",
  "devdoc": {
    "methods": {
      "getBalanceContract()": {
        "return": "the amount of funds that can be withdrawn."
      },
      "getNPayments()": {
        "return": "the number of paymetns."
      },
      "getNPayments(address)": {
        "return": "the total that has been payed by an account."
      },
      "getPaymentInfo(uint256)": {
        "return": "the address that payeed with the payment amount and what was payed for."
      },
      "isOwner()": {
        "return": "true if `msg.sender` is the owner of the contract."
      },
      "owner()": {
        "return": "the address of the owner."
      },
      "receiveFunds(uint256)": {
        "return": "true for funds received.  Emit a ReceivedFunds event."
      },
      "setProductPrice(uint256,uint256)": {
        "details": "set the minimum price for a product.  Emit SetProductPrice when a price is set."
      },
      "withdraw(uint256)": {
        "details": "widthdraw funds form the contract."
      }
    }
  },
  "userdoc": {
    "methods": {}
  }
}