{
  "contractName": "PayFor",
  "abi": [
    {
      "inputs": [],
      "payable": false,
      "stateMutability": "nonpayable",
      "type": "constructor"
    },
    {
      "anonymous": false,
      "inputs": [
        {
          "indexed": false,
          "internalType": "address",
          "name": "sender",
          "type": "address"
        }
      ],
      "name": "LogDepositReceived",
      "type": "event"
    },
    {
      "anonymous": false,
      "inputs": [
        {
          "indexed": false,
          "internalType": "address",
          "name": "sender",
          "type": "address"
        },
        {
          "indexed": false,
          "internalType": "uint256",
          "name": "value",
          "type": "uint256"
        },
        {
          "indexed": false,
          "internalType": "uint256",
          "name": "application",
          "type": "uint256"
        },
        {
          "indexed": false,
          "internalType": "uint256",
          "name": "loc",
          "type": "uint256"
        }
      ],
      "name": "ReceivedFunds",
      "type": "event"
    },
    {
      "anonymous": false,
      "inputs": [
        {
          "indexed": false,
          "internalType": "uint256",
          "name": "product",
          "type": "uint256"
        },
        {
          "indexed": false,
          "internalType": "uint256",
          "name": "minPrice",
          "type": "uint256"
        }
      ],
      "name": "SetProductPrice",
      "type": "event"
    },
    {
      "anonymous": false,
      "inputs": [
        {
          "indexed": false,
          "internalType": "address",
          "name": "to",
          "type": "address"
        },
        {
          "indexed": false,
          "internalType": "uint256",
          "name": "amount",
          "type": "uint256"
        }
      ],
      "name": "Withdrawn",
      "type": "event"
    },
    {
      "payable": true,
      "stateMutability": "payable",
      "type": "fallback"
    },
    {
      "constant": true,
      "inputs": [],
      "name": "owner",
      "outputs": [
        {
          "internalType": "address",
          "name": "",
          "type": "address"
        }
      ],
      "payable": false,
      "stateMutability": "view",
      "type": "function"
    },
    {
      "constant": true,
      "inputs": [],
      "name": "isOwner",
      "outputs": [
        {
          "internalType": "bool",
          "name": "",
          "type": "bool"
        }
      ],
      "payable": false,
      "stateMutability": "view",
      "type": "function"
    },
    {
      "constant": false,
      "inputs": [
        {
          "internalType": "uint256",
          "name": "productNumber",
          "type": "uint256"
        },
        {
          "internalType": "uint256",
          "name": "minPrice",
          "type": "uint256"
        }
      ],
      "name": "setProductPrice",
      "outputs": [],
      "payable": false,
      "stateMutability": "nonpayable",
      "type": "function"
    },
    {
      "constant": false,
      "inputs": [
        {
          "internalType": "uint256",
          "name": "forProduct",
          "type": "uint256"
        }
      ],
      "name": "receiveFunds",
      "outputs": [
        {
          "internalType": "bool",
          "name": "",
          "type": "bool"
        }
      ],
      "payable": true,
      "stateMutability": "payable",
      "type": "function"
    },
    {
      "constant": true,
      "inputs": [],
      "name": "getNPayments",
      "outputs": [
        {
          "internalType": "uint256",
          "name": "",
          "type": "uint256"
        }
      ],
      "payable": false,
      "stateMutability": "view",
      "type": "function"
    },
    {
      "constant": true,
      "inputs": [
        {
          "internalType": "uint256",
          "name": "n",
          "type": "uint256"
        }
      ],
      "name": "getPaymentInfo",
      "outputs": [
        {
          "internalType": "address",
          "name": "",
          "type": "address"
        },
        {
          "internalType": "uint256",
          "name": "",
          "type": "uint256"
        },
        {
          "internalType": "uint256",
          "name": "",
          "type": "uint256"
        }
      ],
      "payable": false,
      "stateMutability": "view",
      "type": "function"
    },
    {
      "constant": true,
      "inputs": [],
      "name": "getNSKU",
      "outputs": [
        {
          "internalType": "uint256",
          "name": "",
          "type": "uint256"
        }
      ],
      "payable": false,
      "stateMutability": "view",
      "type": "function"
    },
    {
      "constant": true,
      "inputs": [
        {
          "internalType": "uint256",
          "name": "n",
          "type": "uint256"
        }
      ],
      "name": "getSKUInfo",
      "outputs": [
        {
          "internalType": "uint256",
          "name": "",
          "type": "uint256"
        },
        {
          "internalType": "uint256",
          "name": "",
          "type": "uint256"
        }
      ],
      "payable": false,
      "stateMutability": "view",
      "type": "function"
    },
    {
      "constant": false,
      "inputs": [
        {
          "internalType": "uint256",
          "name": "amount",
          "type": "uint256"
        }
      ],
      "name": "withdraw",
      "outputs": [
        {
          "internalType": "bool",
          "name": "",
          "type": "bool"
        }
      ],
      "payable": false,
      "stateMutability": "nonpayable",
      "type": "function"
    },
    {
      "constant": true,
      "inputs": [],
      "name": "getBalanceContract",
      "outputs": [
        {
          "internalType": "uint256",
          "name": "",
          "type": "uint256"
        }
      ],
      "payable": false,
      "stateMutability": "view",
      "type": "function"
    }
  ],
  "bytecode": "0x608060405234801561001057600080fd5b50336000806101000a81548173ffffffffffffffffffffffffffffffffffffffff021916908373ffffffffffffffffffffffffffffffffffffffff160217905550610b84806100606000396000f3fe6080604052600436106100915760003560e01c80638827e09b116100595780638827e09b1461024a5780638da5cb5b146102905780638f32d59b146102e75780639b2def6014610316578063d810ff0f1461034157610091565b80630292a9c5146101065780632e1a7d4d1461015c57806344d3498a146101af5780635e5ef79c146101f457806366bd78fd1461021f575b600080369050146100a157600080fd5b7f15382559391789f1865e10e9c8b51327a9cb0381eae89973ada229e7a78c08f333604051808273ffffffffffffffffffffffffffffffffffffffff1673ffffffffffffffffffffffffffffffffffffffff16815260200191505060405180910390a1005b34801561011257600080fd5b5061013f6004803603602081101561012957600080fd5b81019080803590602001909291905050506103ca565b604051808381526020018281526020019250505060405180910390f35b34801561016857600080fd5b506101956004803603602081101561017f57600080fd5b8101908080359060200190929190505050610492565b604051808215151515815260200191505060405180910390f35b3480156101bb57600080fd5b506101f2600480360360408110156101d257600080fd5b8101908080359060200190929190803590602001909291905050506105fb565b005b34801561020057600080fd5b506102096106d3565b6040518082815260200191505060405180910390f35b34801561022b57600080fd5b506102346106f1565b6040518082815260200191505060405180910390f35b6102766004803603602081101561026057600080fd5b810190808035906020019092919050505061070a565b604051808215151515815260200191505060405180910390f35b34801561029c57600080fd5b506102a5610979565b604051808273ffffffffffffffffffffffffffffffffffffffff1673ffffffffffffffffffffffffffffffffffffffff16815260200191505060405180910390f35b3480156102f357600080fd5b506102fc6109a2565b604051808215151515815260200191505060405180910390f35b34801561032257600080fd5b5061032b6109f9565b6040518082815260200191505060405180910390f35b34801561034d57600080fd5b5061037a6004803603602081101561036457600080fd5b8101908080359060200190929190505050610a06565b604051808473ffffffffffffffffffffffffffffffffffffffff1673ffffffffffffffffffffffffffffffffffffffff168152602001838152602001828152602001935050505060405180910390f35b600080600083101580156103e2575060038054905083105b610454576040517f08c379a000000000000000000000000000000000000000000000000000000000815260040180806020018281038252600d8152602001807f496e76616c696420656e7472790000000000000000000000000000000000000081525060200191505060405180910390fd5b60006003848154811061046357fe5b906000526020600020015490508060026000838152602001908152602001600020600001549250925050915091565b600061049c6109a2565b6104a557600080fd5b814710156104fe576040517f08c379a0000000000000000000000000000000000000000000000000000000008152600401808060200182810382526022815260200180610b2e6022913960400191505060405180910390fd5b6000809054906101000a900473ffffffffffffffffffffffffffffffffffffffff1673ffffffffffffffffffffffffffffffffffffffff166108fc839081150290604051600060405180830381858888f19350505050158015610565573d6000803e3d6000fd5b507f7084f5476618d8e60b11ef0d7d3f06914655adb8793e28ff7f018d4c76d505d56000809054906101000a900473ffffffffffffffffffffffffffffffffffffffff1683604051808373ffffffffffffffffffffffffffffffffffffffff1673ffffffffffffffffffffffffffffffffffffffff1681526020018281526020019250505060405180910390a160019050919050565b6106036109a2565b61060c57600080fd5b604051806040016040528082815260200160011515815250600260008481526020019081526020016000206000820151816000015560208201518160010160006101000a81548160ff02191690831515021790555090505060038290806001815401808255809150509060018203906000526020600020016000909192909190915055507f5c5f387eac41c869193b483f99dbb499489afef0ee3f47c6ed3493a0751c717c8282604051808381526020018281526020019250505060405180910390a15050565b60006106dd6109a2565b6106e657600080fd5b600180549050905090565b60006106fb6109a2565b61070457600080fd5b47905090565b60006002600083815260200190815260200160002060010160009054906101000a900460ff166107a2576040517f08c379a000000000000000000000000000000000000000000000000000000000815260040180806020018281038252600f8152602001807f496e76616c69642070726f64756374000000000000000000000000000000000081525060200191505060405180910390fd5b346002600084815260200190815260200160002060000154111561082e576040517f08c379a000000000000000000000000000000000000000000000000000000000815260040180806020018281038252601e8152602001807f496e73756666696369656e742066756e647320666f722070726f64756374000081525060200191505060405180910390fd5b60006001805490509050600160405180606001604052803373ffffffffffffffffffffffffffffffffffffffff168152602001348152602001858152509080600181540180825580915050906001820390600052602060002090600302016000909192909190915060008201518160000160006101000a81548173ffffffffffffffffffffffffffffffffffffffff021916908373ffffffffffffffffffffffffffffffffffffffff16021790555060208201518160010155604082015181600201555050507f5f74095c3cf9cd2b4407992767113d77fc65cb2423a83ecc71977f3ace6b34f433348584604051808573ffffffffffffffffffffffffffffffffffffffff1673ffffffffffffffffffffffffffffffffffffffff16815260200184815260200183815260200182815260200194505050505060405180910390a16001915050919050565b60008060009054906101000a900473ffffffffffffffffffffffffffffffffffffffff16905090565b60008060009054906101000a900473ffffffffffffffffffffffffffffffffffffffff1673ffffffffffffffffffffffffffffffffffffffff163373ffffffffffffffffffffffffffffffffffffffff1614905090565b6000600380549050905090565b6000806000610a136109a2565b610a1c57600080fd5b60008410158015610a31575060018054905084105b610aa3576040517f08c379a000000000000000000000000000000000000000000000000000000000815260040180806020018281038252600d8152602001807f496e76616c696420656e7472790000000000000000000000000000000000000081525060200191505060405180910390fd5b60018481548110610ab057fe5b906000526020600020906003020160000160009054906101000a900473ffffffffffffffffffffffffffffffffffffffff1660018581548110610aef57fe5b90600052602060002090600302016001015460018681548110610b0e57fe5b906000526020600020906003020160020154925092509250919390925056fe496e73756666696369656e742042616c616e636520666f722077697468647261776ca265627a7a723158207b6d4d92166799dc76dbc163ff47baa93a7609f01fc4966d27dbb00e67b2c27464736f6c63430005100032",
  "source": "// SPDX-License-Identifier: MIT\npragma solidity >=0.4.22 <0.9.0;\n\ncontract PayFor {\n\n\tstruct productPriceStruct {\n\t\tuint256 price;\n\t\tbool isValue;\n\t}\n\tstruct paymentsStruct {\n\t\taddress listOfPayedBy;\n\t\tuint256 listOfPayments;\n\t\tuint256 payFor;\n\t}\n\n    address payable owner_address;\n\tevent ReceivedFunds(address sender, uint256 value, uint256 application, uint256 loc);\n\tevent Withdrawn(address to, uint256 amount);\n\tevent SetProductPrice ( uint256 product, uint256 minPrice );\n\tevent LogDepositReceived(address sender);\n\n\tpaymentsStruct[] private paymentsFor;\n    mapping (uint256 => productPriceStruct) internal productMinPrice;\n    uint256[] private listOfSKU;\n\n\tconstructor() public {\n        owner_address = msg.sender;\n\t}\n\n    /**\n     * @return the address of the owner.\n     */\n    function owner() public view returns (address) {\n        return owner_address;\n    }\n\n    /**\n     * @dev Throws if called by any account other than the owner.\n     */\n    modifier onlyOwner() {\n        require(isOwner());\n        _;\n    }\n\n    /**\n     * @return true if `msg.sender` is the owner of the contract.\n     */\n    function isOwner() public view returns (bool) {\n        return msg.sender == owner_address;\n    }\n\n    /**\n     * @dev set the minimum price for a product.  Emit SetProductPrice when a price is set.\n     */\n\tfunction setProductPrice(uint256 productNumber, uint256 minPrice) public onlyOwner {\n\t\tproductMinPrice[productNumber] = productPriceStruct ( minPrice, true );\n\t\tlistOfSKU.push(productNumber);\n\t\temit SetProductPrice ( productNumber, minPrice );\n\t}\n\n    /**\n     * @return true for funds received.  Emit a ReceivedFunds event.\n     */\n\tfunction receiveFunds(uint256 forProduct) public payable returns(bool) {\n\t\t// Check that product is valid\n\t\trequire(productMinPrice[forProduct].isValue, 'Invalid product');\n\t\t// Validate that the sender has payed for the prouct.\n\t\trequire(productMinPrice[forProduct].price <= msg.value, 'Insufficient funds for product');\n\n\t\tuint256 pos;\n\t\tpos = paymentsFor.length;\n\t\tpaymentsFor.push ( paymentsStruct ( msg.sender, msg.value, forProduct ) );\n    \temit ReceivedFunds(msg.sender, msg.value, forProduct, pos);\n\t\treturn true;\n\t}\n\n    /**\n     * @return the number of paymetns.\n     */\n\tfunction getNPayments() public onlyOwner view returns(uint256) {\n\t\treturn ( paymentsFor.length );\n\t}\n\n    /**\n     * @return the address that payeed with the payment amount and what was payed for.\n     */\n\tfunction getPaymentInfo(uint256 n) public onlyOwner view returns(address, uint256, uint256) {\n\t\trequire(n >= 0 && n < paymentsFor.length, 'Invalid entry');\n\t\treturn ( paymentsFor[n].listOfPayedBy, paymentsFor[n].listOfPayments, paymentsFor[n].payFor );\n\t}\n\t\n    /**\n     * @return the number of Products (SKUs).\n     */\n\tfunction getNSKU() public view returns(uint256) {\n\t\treturn ( listOfSKU.length );\n\t}\n\n    /**\n     * @return the price for the nth SKU and its product number.\n     */\n\tfunction getSKUInfo(uint256 n) public view returns(uint256, uint256) {\n\t\trequire(n >= 0 && n < listOfSKU.length, 'Invalid entry');\n\t\tuint256 sku = listOfSKU[n];\n\t\treturn ( sku, productMinPrice[sku].price );\n\t}\n\t\n    /**\n     * @dev widthdraw funds form the contract.\n     */\n\tfunction withdraw( uint256 amount ) public onlyOwner returns(bool) {\n\t\trequire(address(this).balance >= amount, \"Insufficient Balance for withdrawl\");\n\t\taddress(owner_address).transfer(amount);\n\t\temit Withdrawn(owner_address, amount);\n\t\treturn true;\n\t}\n\n    /**\n     * @return the amount of funds that can be withdrawn.\n     */\n\tfunction getBalanceContract() public view onlyOwner returns(uint256){\n\t\treturn address(this).balance;\n\t}\n\n    /**\n     * @return Catch and save funds for abstrc transfer.\n     */\n\tfunction() external payable {\n\t\trequire(msg.data.length == 0);\n\t\temit LogDepositReceived(msg.sender);\n\t}\n\n}\n",
  "sourcePath": "/Users/philip/go/src/github.com/Univ-Wyo-Education/S22-4010/class/lect/16/payfor/contracts/PayFor.sol",
  "compiler": {
    "name": "solc",
    "version": "0.5.16+commit.9c3226ce.Emscripten.clang"
  },
  "schemaVersion": "3.4.3",
  "updatedAt": "2022-02-25T17:27:12.341Z",
  "networkType": "ethereum",
  "devdoc": {
    "methods": {
      "getBalanceContract()": {
        "return": "the amount of funds that can be withdrawn."
      },
      "getNPayments()": {
        "return": "the number of paymetns."
      },
      "getNSKU()": {
        "return": "the number of Products (SKUs)."
      },
      "getPaymentInfo(uint256)": {
        "return": "the address that payeed with the payment amount and what was payed for."
      },
      "getSKUInfo(uint256)": {
        "return": "the price for the nth SKU and its product number."
      },
      "isOwner()": {
        "return": "true if `msg.sender` is the owner of the contract."
      },
      "owner()": {
        "return": "the address of the owner."
      },
      "receiveFunds(uint256)": {
        "return": "true for funds received.  Emit a ReceivedFunds event."
      },
      "setProductPrice(uint256,uint256)": {
        "details": "set the minimum price for a product.  Emit SetProductPrice when a price is set."
      },
      "withdraw(uint256)": {
        "details": "widthdraw funds form the contract."
      }
    }
  },
  "userdoc": {
    "methods": {}
  }
}