{
  "contractName": "DaoVoterContractUpgradableV1",
  "abi": [
    {
      "inputs": [],
      "stateMutability": "nonpayable",
      "type": "constructor"
    },
    {
      "anonymous": false,
      "inputs": [
        {
          "indexed": true,
          "internalType": "address",
          "name": "owner",
          "type": "address"
        },
        {
          "indexed": true,
          "internalType": "address",
          "name": "approved",
          "type": "address"
        },
        {
          "indexed": true,
          "internalType": "uint256",
          "name": "tokenId",
          "type": "uint256"
        }
      ],
      "name": "Approval",
      "type": "event"
    },
    {
      "anonymous": false,
      "inputs": [
        {
          "indexed": true,
          "internalType": "address",
          "name": "owner",
          "type": "address"
        },
        {
          "indexed": true,
          "internalType": "address",
          "name": "operator",
          "type": "address"
        },
        {
          "indexed": false,
          "internalType": "bool",
          "name": "approved",
          "type": "bool"
        }
      ],
      "name": "ApprovalForAll",
      "type": "event"
    },
    {
      "anonymous": false,
      "inputs": [
        {
          "indexed": true,
          "internalType": "uint256",
          "name": "NFT",
          "type": "uint256"
        },
        {
          "indexed": false,
          "internalType": "uint256",
          "name": "price",
          "type": "uint256"
        }
      ],
      "name": "NFTAvailable",
      "type": "event"
    },
    {
      "anonymous": false,
      "inputs": [
        {
          "indexed": true,
          "internalType": "uint256",
          "name": "NFT",
          "type": "uint256"
        },
        {
          "indexed": false,
          "internalType": "address",
          "name": "seller",
          "type": "address"
        },
        {
          "indexed": false,
          "internalType": "address",
          "name": "buyer",
          "type": "address"
        },
        {
          "indexed": false,
          "internalType": "uint256",
          "name": "price",
          "type": "uint256"
        }
      ],
      "name": "NFTPurchased",
      "type": "event"
    },
    {
      "anonymous": false,
      "inputs": [
        {
          "indexed": true,
          "internalType": "uint256",
          "name": "NFT",
          "type": "uint256"
        }
      ],
      "name": "NFTRemoved",
      "type": "event"
    },
    {
      "anonymous": false,
      "inputs": [
        {
          "indexed": true,
          "internalType": "uint256",
          "name": "NFT",
          "type": "uint256"
        }
      ],
      "name": "ProposalRegistered",
      "type": "event"
    },
    {
      "anonymous": false,
      "inputs": [
        {
          "indexed": true,
          "internalType": "address",
          "name": "from",
          "type": "address"
        },
        {
          "indexed": true,
          "internalType": "address",
          "name": "to",
          "type": "address"
        },
        {
          "indexed": true,
          "internalType": "uint256",
          "name": "tokenId",
          "type": "uint256"
        }
      ],
      "name": "Transfer",
      "type": "event"
    },
    {
      "anonymous": false,
      "inputs": [
        {
          "indexed": true,
          "internalType": "uint256",
          "name": "NFT",
          "type": "uint256"
        }
      ],
      "name": "VoterRegistered",
      "type": "event"
    },
    {
      "stateMutability": "payable",
      "type": "fallback"
    },
    {
      "inputs": [
        {
          "internalType": "address",
          "name": "to",
          "type": "address"
        },
        {
          "internalType": "uint256",
          "name": "tokenId",
          "type": "uint256"
        }
      ],
      "name": "approve",
      "outputs": [],
      "stateMutability": "nonpayable",
      "type": "function"
    },
    {
      "inputs": [
        {
          "internalType": "address",
          "name": "owner",
          "type": "address"
        }
      ],
      "name": "balanceOf",
      "outputs": [
        {
          "internalType": "uint256",
          "name": "",
          "type": "uint256"
        }
      ],
      "stateMutability": "view",
      "type": "function"
    },
    {
      "inputs": [
        {
          "internalType": "uint256",
          "name": "tokenId",
          "type": "uint256"
        }
      ],
      "name": "getApproved",
      "outputs": [
        {
          "internalType": "address",
          "name": "",
          "type": "address"
        }
      ],
      "stateMutability": "view",
      "type": "function"
    },
    {
      "inputs": [
        {
          "internalType": "address",
          "name": "owner",
          "type": "address"
        },
        {
          "internalType": "address",
          "name": "operator",
          "type": "address"
        }
      ],
      "name": "isApprovedForAll",
      "outputs": [
        {
          "internalType": "bool",
          "name": "",
          "type": "bool"
        }
      ],
      "stateMutability": "view",
      "type": "function"
    },
    {
      "inputs": [],
      "name": "nMinted",
      "outputs": [
        {
          "internalType": "int256",
          "name": "",
          "type": "int256"
        }
      ],
      "stateMutability": "view",
      "type": "function"
    },
    {
      "inputs": [],
      "name": "name",
      "outputs": [
        {
          "internalType": "string",
          "name": "",
          "type": "string"
        }
      ],
      "stateMutability": "view",
      "type": "function"
    },
    {
      "inputs": [
        {
          "internalType": "uint256",
          "name": "tokenId",
          "type": "uint256"
        }
      ],
      "name": "ownerOf",
      "outputs": [
        {
          "internalType": "address",
          "name": "",
          "type": "address"
        }
      ],
      "stateMutability": "view",
      "type": "function"
    },
    {
      "inputs": [
        {
          "internalType": "address",
          "name": "from",
          "type": "address"
        },
        {
          "internalType": "address",
          "name": "to",
          "type": "address"
        },
        {
          "internalType": "uint256",
          "name": "tokenId",
          "type": "uint256"
        }
      ],
      "name": "safeTransferFrom",
      "outputs": [],
      "stateMutability": "nonpayable",
      "type": "function"
    },
    {
      "inputs": [
        {
          "internalType": "address",
          "name": "from",
          "type": "address"
        },
        {
          "internalType": "address",
          "name": "to",
          "type": "address"
        },
        {
          "internalType": "uint256",
          "name": "tokenId",
          "type": "uint256"
        },
        {
          "internalType": "bytes",
          "name": "_data",
          "type": "bytes"
        }
      ],
      "name": "safeTransferFrom",
      "outputs": [],
      "stateMutability": "nonpayable",
      "type": "function"
    },
    {
      "inputs": [
        {
          "internalType": "address",
          "name": "operator",
          "type": "address"
        },
        {
          "internalType": "bool",
          "name": "approved",
          "type": "bool"
        }
      ],
      "name": "setApprovalForAll",
      "outputs": [],
      "stateMutability": "nonpayable",
      "type": "function"
    },
    {
      "inputs": [
        {
          "internalType": "bytes4",
          "name": "interfaceId",
          "type": "bytes4"
        }
      ],
      "name": "supportsInterface",
      "outputs": [
        {
          "internalType": "bool",
          "name": "",
          "type": "bool"
        }
      ],
      "stateMutability": "view",
      "type": "function"
    },
    {
      "inputs": [],
      "name": "symbol",
      "outputs": [
        {
          "internalType": "string",
          "name": "",
          "type": "string"
        }
      ],
      "stateMutability": "view",
      "type": "function"
    },
    {
      "inputs": [
        {
          "internalType": "uint256",
          "name": "",
          "type": "uint256"
        }
      ],
      "name": "tokenIdToPrice",
      "outputs": [
        {
          "internalType": "uint256",
          "name": "",
          "type": "uint256"
        }
      ],
      "stateMutability": "view",
      "type": "function"
    },
    {
      "inputs": [
        {
          "internalType": "uint256",
          "name": "tokenId",
          "type": "uint256"
        }
      ],
      "name": "tokenURI",
      "outputs": [
        {
          "internalType": "string",
          "name": "",
          "type": "string"
        }
      ],
      "stateMutability": "view",
      "type": "function"
    },
    {
      "inputs": [
        {
          "internalType": "address",
          "name": "from",
          "type": "address"
        },
        {
          "internalType": "address",
          "name": "to",
          "type": "address"
        },
        {
          "internalType": "uint256",
          "name": "tokenId",
          "type": "uint256"
        }
      ],
      "name": "transferFrom",
      "outputs": [],
      "stateMutability": "nonpayable",
      "type": "function"
    },
    {
      "stateMutability": "payable",
      "type": "receive"
    },
    {
      "inputs": [
        {
          "internalType": "string",
          "name": "tokenURI",
          "type": "string"
        }
      ],
      "name": "initialize",
      "outputs": [],
      "stateMutability": "nonpayable",
      "type": "function"
    },
    {
      "inputs": [
        {
          "internalType": "address payable",
          "name": "_newOwner",
          "type": "address"
        }
      ],
      "name": "changeOwner",
      "outputs": [],
      "stateMutability": "nonpayable",
      "type": "function"
    },
    {
      "inputs": [
        {
          "internalType": "uint256",
          "name": "_tokenNFT",
          "type": "uint256"
        }
      ],
      "name": "mintNFT",
      "outputs": [
        {
          "internalType": "uint256",
          "name": "",
          "type": "uint256"
        }
      ],
      "stateMutability": "nonpayable",
      "type": "function"
    },
    {
      "inputs": [
        {
          "internalType": "uint256",
          "name": "_tokenNFT",
          "type": "uint256"
        }
      ],
      "name": "registerVoter",
      "outputs": [
        {
          "internalType": "uint256",
          "name": "",
          "type": "uint256"
        }
      ],
      "stateMutability": "nonpayable",
      "type": "function"
    },
    {
      "inputs": [
        {
          "internalType": "uint256",
          "name": "_tokenNFT",
          "type": "uint256"
        }
      ],
      "name": "createProposal",
      "outputs": [
        {
          "internalType": "uint256",
          "name": "",
          "type": "uint256"
        }
      ],
      "stateMutability": "nonpayable",
      "type": "function"
    },
    {
      "inputs": [
        {
          "internalType": "uint256",
          "name": "_tokenId",
          "type": "uint256"
        },
        {
          "internalType": "uint256",
          "name": "_price",
          "type": "uint256"
        }
      ],
      "name": "allowBuy",
      "outputs": [],
      "stateMutability": "nonpayable",
      "type": "function"
    },
    {
      "inputs": [
        {
          "internalType": "uint256",
          "name": "_tokenId",
          "type": "uint256"
        }
      ],
      "name": "disallowBuy",
      "outputs": [],
      "stateMutability": "nonpayable",
      "type": "function"
    },
    {
      "inputs": [
        {
          "internalType": "uint256",
          "name": "_tokenId",
          "type": "uint256"
        }
      ],
      "name": "buy",
      "outputs": [],
      "stateMutability": "payable",
      "type": "function"
    },
    {
      "inputs": [
        {
          "internalType": "uint256",
          "name": "_amount",
          "type": "uint256"
        }
      ],
      "name": "withdraw",
      "outputs": [],
      "stateMutability": "nonpayable",
      "type": "function"
    },
    {
      "inputs": [],
      "name": "kill",
      "outputs": [],
      "stateMutability": "nonpayable",
      "type": "function"
    }
  ],
  "bytecode": "0x60806040523480156200001157600080fd5b506040518060400160405280600b81526020017f57796f6d696e67204e46540000000000000000000000000000000000000000008152506040518060400160405280600581526020017f57594e4654000000000000000000000000000000000000000000000000000000815250816000908051906020019062000096929190620000f9565b508060019080519060200190620000af929190620000f9565b50505033600960006101000a81548173ffffffffffffffffffffffffffffffffffffffff021916908373ffffffffffffffffffffffffffffffffffffffff1602179055506200020e565b8280546200010790620001a9565b90600052602060002090601f0160209004810192826200012b576000855562000177565b82601f106200014657805160ff191683800117855562000177565b8280016001018555821562000177579182015b828111156200017657825182559160200191906001019062000159565b5b5090506200018691906200018a565b5090565b5b80821115620001a55760008160009055506001016200018b565b5090565b60006002820490506001821680620001c257607f821691505b60208210811415620001d957620001d8620001df565b5b50919050565b7f4e487b7100000000000000000000000000000000000000000000000000000000600052602260045260246000fd5b61376d806200021e6000396000f3fe60806040526004361061016a5760003560e01c806395d89b41116100d1578063c87b56dd1161008a578063d96a094a11610064578063d96a094a14610564578063e985e9c514610580578063f4812eb9146105bd578063f62d1888146105fa57610171565b8063c87b56dd146104d3578063d499131214610510578063d8c6b1811461053957610171565b806395d89b41146103c7578063a13f2f8d146103f2578063a22cb4651461042f578063a6f9dae114610458578063b88d4fde14610481578063bbb5e8d3146104aa57610171565b806341c0e1b51161012357806341c0e1b51461029357806342842e0e146102aa5780635a43dc00146102d35780636352211e1461031057806370a082311461034d578063926427441461038a57610171565b806301ffc9a71461017357806306fdde03146101b0578063081812fc146101db578063095ea7b31461021857806323b872dd146102415780632e1a7d4d1461026a57610171565b3661017157005b005b34801561017f57600080fd5b5061019a6004803603810190610195919061257d565b610623565b6040516101a79190612aaf565b60405180910390f35b3480156101bc57600080fd5b506101c5610705565b6040516101d29190612ae5565b60405180910390f35b3480156101e757600080fd5b5061020260048036038101906101fd9190612610565b610797565b60405161020f9190612a11565b60405180910390f35b34801561022457600080fd5b5061023f600480360381019061023a9190612541565b61081c565b005b34801561024d57600080fd5b506102686004803603810190610263919061243b565b610934565b005b34801561027657600080fd5b50610291600480360381019061028c9190612610565b610994565b005b34801561029f57600080fd5b506102a8610a90565b005b3480156102b657600080fd5b506102d160048036038101906102cc919061243b565b610b39565b005b3480156102df57600080fd5b506102fa60048036038101906102f59190612610565b610b59565b6040516103079190612d67565b60405180910390f35b34801561031c57600080fd5b5061033760048036038101906103329190612610565b610bb9565b6040516103449190612a11565b60405180910390f35b34801561035957600080fd5b50610374600480360381019061036f91906123ad565b610c6b565b6040516103819190612d67565b60405180910390f35b34801561039657600080fd5b506103b160048036038101906103ac9190612610565b610d23565b6040516103be9190612d67565b60405180910390f35b3480156103d357600080fd5b506103dc610d56565b6040516103e99190612ae5565b60405180910390f35b3480156103fe57600080fd5b5061041960048036038101906104149190612610565b610de8565b6040516104269190612d67565b60405180910390f35b34801561043b57600080fd5b5061045660048036038101906104519190612505565b610e48565b005b34801561046457600080fd5b5061047f600480360381019061047a91906123d6565b610e5e565b005b34801561048d57600080fd5b506104a860048036038101906104a3919061248a565b610f32565b005b3480156104b657600080fd5b506104d160048036038101906104cc9190612639565b610f94565b005b3480156104df57600080fd5b506104fa60048036038101906104f59190612610565b6110a1565b6040516105079190612ae5565b60405180910390f35b34801561051c57600080fd5b5061053760048036038101906105329190612610565b611148565b005b34801561054557600080fd5b5061054e611207565b60405161055b9190612aca565b60405180910390f35b61057e60048036038101906105799190612610565b61120d565b005b34801561058c57600080fd5b506105a760048036038101906105a291906123ff565b611363565b6040516105b49190612aaf565b60405180910390f35b3480156105c957600080fd5b506105e460048036038101906105df9190612610565b6113f7565b6040516105f19190612d67565b60405180910390f35b34801561060657600080fd5b50610621600480360381019061061c91906125cf565b61140f565b005b60007f80ac58cd000000000000000000000000000000000000000000000000000000007bffffffffffffffffffffffffffffffffffffffffffffffffffffffff1916827bffffffffffffffffffffffffffffffffffffffffffffffffffffffff191614806106ee57507f5b5e139f000000000000000000000000000000000000000000000000000000007bffffffffffffffffffffffffffffffffffffffffffffffffffffffff1916827bffffffffffffffffffffffffffffffffffffffffffffffffffffffff1916145b806106fe57506106fd826114c1565b5b9050919050565b6060600080546107149061306d565b80601f01602080910402602001604051908101604052809291908181526020018280546107409061306d565b801561078d5780601f106107625761010080835404028352916020019161078d565b820191906000526020600020905b81548152906001019060200180831161077057829003601f168201915b5050505050905090565b60006107a28261152b565b6107e1576040517f08c379a00000000000000000000000000000000000000000000000000000000081526004016107d890612c87565b60405180910390fd5b6004600083815260200190815260200160002060009054906101000a900473ffffffffffffffffffffffffffffffffffffffff169050919050565b600061082782610bb9565b90508073ffffffffffffffffffffffffffffffffffffffff168373ffffffffffffffffffffffffffffffffffffffff161415610898576040517f08c379a000000000000000000000000000000000000000000000000000000000815260040161088f90612ce7565b60405180910390fd5b8073ffffffffffffffffffffffffffffffffffffffff166108b7611597565b73ffffffffffffffffffffffffffffffffffffffff1614806108e657506108e5816108e0611597565b611363565b5b610925576040517f08c379a000000000000000000000000000000000000000000000000000000000815260040161091c90612c07565b60405180910390fd5b61092f838361159f565b505050565b61094561093f611597565b82611658565b610984576040517f08c379a000000000000000000000000000000000000000000000000000000000815260040161097b90612d27565b60405180910390fd5b61098f838383611736565b505050565b600960009054906101000a900473ffffffffffffffffffffffffffffffffffffffff1673ffffffffffffffffffffffffffffffffffffffff163373ffffffffffffffffffffffffffffffffffffffff1614610a24576040517f08c379a0000000000000000000000000000000000000000000000000000000008152600401610a1b90612d47565b60405180910390fd5b600960009054906101000a900473ffffffffffffffffffffffffffffffffffffffff1673ffffffffffffffffffffffffffffffffffffffff166108fc829081150290604051600060405180830381858888f19350505050158015610a8c573d6000803e3d6000fd5b5050565b600960009054906101000a900473ffffffffffffffffffffffffffffffffffffffff1673ffffffffffffffffffffffffffffffffffffffff163373ffffffffffffffffffffffffffffffffffffffff1614610b20576040517f08c379a0000000000000000000000000000000000000000000000000000000008152600401610b1790612d47565b60405180910390fd5b3373ffffffffffffffffffffffffffffffffffffffff16ff5b610b5483838360405180602001604052806000815250610f32565b505050565b600080829050610b69338261199d565b600160086000828254610b7c9190612e4c565b92505081905550807f92e393e9b54e2f801d3ea4beb0c5e71a21cc34a5d34b77d0fb8a3aa1650dc18f60405160405180910390a280915050919050565b6000806002600084815260200190815260200160002060009054906101000a900473ffffffffffffffffffffffffffffffffffffffff169050600073ffffffffffffffffffffffffffffffffffffffff168173ffffffffffffffffffffffffffffffffffffffff161415610c62576040517f08c379a0000000000000000000000000000000000000000000000000000000008152600401610c5990612c47565b60405180910390fd5b80915050919050565b60008073ffffffffffffffffffffffffffffffffffffffff168273ffffffffffffffffffffffffffffffffffffffff161415610cdc576040517f08c379a0000000000000000000000000000000000000000000000000000000008152600401610cd390612c27565b60405180910390fd5b600360008373ffffffffffffffffffffffffffffffffffffffff1673ffffffffffffffffffffffffffffffffffffffff168152602001908152602001600020549050919050565b600080829050610d33338261199d565b600160086000828254610d469190612e4c565b9250508190555080915050919050565b606060018054610d659061306d565b80601f0160208091040260200160405190810160405280929190818152602001828054610d919061306d565b8015610dde5780601f10610db357610100808354040283529160200191610dde565b820191906000526020600020905b815481529060010190602001808311610dc157829003601f168201915b5050505050905090565b600080829050610df8338261199d565b600160086000828254610e0b9190612e4c565b92505081905550807f640cfad995238c39f105b2884a2e9d3b1482d753cdcc97f2e7db4192e89121a860405160405180910390a280915050919050565b610e5a610e53611597565b83836119bb565b5050565b600960009054906101000a900473ffffffffffffffffffffffffffffffffffffffff1673ffffffffffffffffffffffffffffffffffffffff163373ffffffffffffffffffffffffffffffffffffffff1614610eee576040517f08c379a0000000000000000000000000000000000000000000000000000000008152600401610ee590612d47565b60405180910390fd5b80600960006101000a81548173ffffffffffffffffffffffffffffffffffffffff021916908373ffffffffffffffffffffffffffffffffffffffff16021790555050565b610f43610f3d611597565b83611658565b610f82576040517f08c379a0000000000000000000000000000000000000000000000000000000008152600401610f7990612d27565b60405180910390fd5b610f8e84848484611b28565b50505050565b610f9d82610bb9565b73ffffffffffffffffffffffffffffffffffffffff163373ffffffffffffffffffffffffffffffffffffffff161461100a576040517f08c379a000000000000000000000000000000000000000000000000000000000815260040161100190612d07565b60405180910390fd5b6000811161104d576040517f08c379a000000000000000000000000000000000000000000000000000000000815260040161104490612be7565b60405180910390fd5b806006600084815260200190815260200160002081905550817f3a2e5c54a7f112bbb8df9bcd1e923caed303aa659b2701514767c13648a9623a826040516110959190612d67565b60405180910390a25050565b60606110ac8261152b565b6110eb576040517f08c379a00000000000000000000000000000000000000000000000000000000081526004016110e290612cc7565b60405180910390fd5b60006110f5611b84565b905060008151116111155760405180602001604052806000815250611140565b8061111f84611c16565b6040516020016111309291906129ed565b6040516020818303038152906040525b915050919050565b61115181610bb9565b73ffffffffffffffffffffffffffffffffffffffff163373ffffffffffffffffffffffffffffffffffffffff16146111be576040517f08c379a00000000000000000000000000000000000000000000000000000000081526004016111b590612d07565b60405180910390fd5b60006006600083815260200190815260200160002081905550807f5b8046420884c4698df446ee47bb3971db3b7f1f959ff4f04a70b32b2873284160405160405180910390a250565b60085481565b60006006600083815260200190815260200160002054905060008111611268576040517f08c379a000000000000000000000000000000000000000000000000000000000815260040161125f90612b27565b60405180910390fd5b8034146112aa576040517f08c379a00000000000000000000000000000000000000000000000000000000081526004016112a190612ca7565b60405180910390fd5b60006112b583610bb9565b90506112c2813385611736565b600060066000858152602001908152602001600020819055508073ffffffffffffffffffffffffffffffffffffffff166108fc349081150290604051600060405180830381858888f19350505050158015611321573d6000803e3d6000fd5b50827fef1fb2bd31f5ed737e6054243d9b5eacd3af967f35af45e8fb844ca6dbbe98f982333460405161135693929190612a2c565b60405180910390a2505050565b6000600560008473ffffffffffffffffffffffffffffffffffffffff1673ffffffffffffffffffffffffffffffffffffffff16815260200190815260200160002060008373ffffffffffffffffffffffffffffffffffffffff1673ffffffffffffffffffffffffffffffffffffffff16815260200190815260200160002060009054906101000a900460ff16905092915050565b60066020528060005260406000206000915090505481565b600960009054906101000a900473ffffffffffffffffffffffffffffffffffffffff1673ffffffffffffffffffffffffffffffffffffffff163373ffffffffffffffffffffffffffffffffffffffff161461149f576040517f08c379a000000000000000000000000000000000000000000000000000000000815260040161149690612d47565b60405180910390fd5b80600790805190602001906114b59291906121bc565b50600060088190555050565b60007f01ffc9a7000000000000000000000000000000000000000000000000000000007bffffffffffffffffffffffffffffffffffffffffffffffffffffffff1916827bffffffffffffffffffffffffffffffffffffffffffffffffffffffff1916149050919050565b60008073ffffffffffffffffffffffffffffffffffffffff166002600084815260200190815260200160002060009054906101000a900473ffffffffffffffffffffffffffffffffffffffff1673ffffffffffffffffffffffffffffffffffffffff1614159050919050565b600033905090565b816004600083815260200190815260200160002060006101000a81548173ffffffffffffffffffffffffffffffffffffffff021916908373ffffffffffffffffffffffffffffffffffffffff160217905550808273ffffffffffffffffffffffffffffffffffffffff1661161283610bb9565b73ffffffffffffffffffffffffffffffffffffffff167f8c5be1e5ebec7d5bd14f71427d1e84f3dd0314c0f7b2291e5b200ac8c7c3b92560405160405180910390a45050565b60006116638261152b565b6116a2576040517f08c379a000000000000000000000000000000000000000000000000000000000815260040161169990612bc7565b60405180910390fd5b60006116ad83610bb9565b90508073ffffffffffffffffffffffffffffffffffffffff168473ffffffffffffffffffffffffffffffffffffffff16148061171c57508373ffffffffffffffffffffffffffffffffffffffff1661170484610797565b73ffffffffffffffffffffffffffffffffffffffff16145b8061172d575061172c8185611363565b5b91505092915050565b8273ffffffffffffffffffffffffffffffffffffffff1661175682610bb9565b73ffffffffffffffffffffffffffffffffffffffff16146117ac576040517f08c379a00000000000000000000000000000000000000000000000000000000081526004016117a390612b47565b60405180910390fd5b600073ffffffffffffffffffffffffffffffffffffffff168273ffffffffffffffffffffffffffffffffffffffff16141561181c576040517f08c379a000000000000000000000000000000000000000000000000000000000815260040161181390612b87565b60405180910390fd5b611827838383611dc3565b61183260008261159f565b6001600360008573ffffffffffffffffffffffffffffffffffffffff1673ffffffffffffffffffffffffffffffffffffffff16815260200190815260200160002060008282546118829190612f67565b925050819055506001600360008473ffffffffffffffffffffffffffffffffffffffff1673ffffffffffffffffffffffffffffffffffffffff16815260200190815260200160002060008282546118d99190612ee0565b92505081905550816002600083815260200190815260200160002060006101000a81548173ffffffffffffffffffffffffffffffffffffffff021916908373ffffffffffffffffffffffffffffffffffffffff160217905550808273ffffffffffffffffffffffffffffffffffffffff168473ffffffffffffffffffffffffffffffffffffffff167fddf252ad1be2c89b69c2b068fc378daa952ba7f163c4a11628f55a4df523b3ef60405160405180910390a4611998838383611dc8565b505050565b6119b7828260405180602001604052806000815250611dcd565b5050565b8173ffffffffffffffffffffffffffffffffffffffff168373ffffffffffffffffffffffffffffffffffffffff161415611a2a576040517f08c379a0000000000000000000000000000000000000000000000000000000008152600401611a2190612ba7565b60405180910390fd5b80600560008573ffffffffffffffffffffffffffffffffffffffff1673ffffffffffffffffffffffffffffffffffffffff16815260200190815260200160002060008473ffffffffffffffffffffffffffffffffffffffff1673ffffffffffffffffffffffffffffffffffffffff16815260200190815260200160002060006101000a81548160ff0219169083151502179055508173ffffffffffffffffffffffffffffffffffffffff168373ffffffffffffffffffffffffffffffffffffffff167f17307eab39ab6107e8899845ad3d59bd9653f200f220920489ca2b5937696c3183604051611b1b9190612aaf565b60405180910390a3505050565b611b33848484611736565b611b3f84848484611e28565b611b7e576040517f08c379a0000000000000000000000000000000000000000000000000000000008152600401611b7590612b07565b60405180910390fd5b50505050565b606060078054611b939061306d565b80601f0160208091040260200160405190810160405280929190818152602001828054611bbf9061306d565b8015611c0c5780601f10611be157610100808354040283529160200191611c0c565b820191906000526020600020905b815481529060010190602001808311611bef57829003601f168201915b5050505050905090565b60606000821415611c5e576040518060400160405280600181526020017f30000000000000000000000000000000000000000000000000000000000000008152509050611dbe565b600082905060005b60008214611c90578080611c79906130d0565b915050600a82611c899190612f36565b9150611c66565b60008167ffffffffffffffff811115611cd2577f4e487b7100000000000000000000000000000000000000000000000000000000600052604160045260246000fd5b6040519080825280601f01601f191660200182016040528015611d045781602001600182028036833780820191505090505b5090505b60008514611db757600182611d1d9190612f67565b9150600a85611d2c9190613119565b6030611d389190612ee0565b60f81b818381518110611d74577f4e487b7100000000000000000000000000000000000000000000000000000000600052603260045260246000fd5b60200101907effffffffffffffffffffffffffffffffffffffffffffffffffffffffffffff1916908160001a905350600a85611db09190612f36565b9450611d08565b8093505050505b919050565b505050565b505050565b611dd78383611fbf565b611de46000848484611e28565b611e23576040517f08c379a0000000000000000000000000000000000000000000000000000000008152600401611e1a90612b07565b60405180910390fd5b505050565b6000611e498473ffffffffffffffffffffffffffffffffffffffff16612199565b15611fb2578373ffffffffffffffffffffffffffffffffffffffff1663150b7a02611e72611597565b8786866040518563ffffffff1660e01b8152600401611e949493929190612a63565b602060405180830381600087803b158015611eae57600080fd5b505af1925050508015611edf57506040513d601f19601f82011682018060405250810190611edc91906125a6565b60015b611f62573d8060008114611f0f576040519150601f19603f3d011682016040523d82523d6000602084013e611f14565b606091505b50600081511415611f5a576040517f08c379a0000000000000000000000000000000000000000000000000000000008152600401611f5190612b07565b60405180910390fd5b805181602001fd5b63150b7a0260e01b7bffffffffffffffffffffffffffffffffffffffffffffffffffffffff1916817bffffffffffffffffffffffffffffffffffffffffffffffffffffffff191614915050611fb7565b600190505b949350505050565b600073ffffffffffffffffffffffffffffffffffffffff168273ffffffffffffffffffffffffffffffffffffffff16141561202f576040517f08c379a000000000000000000000000000000000000000000000000000000000815260040161202690612c67565b60405180910390fd5b6120388161152b565b15612078576040517f08c379a000000000000000000000000000000000000000000000000000000000815260040161206f90612b67565b60405180910390fd5b61208460008383611dc3565b6001600360008473ffffffffffffffffffffffffffffffffffffffff1673ffffffffffffffffffffffffffffffffffffffff16815260200190815260200160002060008282546120d49190612ee0565b92505081905550816002600083815260200190815260200160002060006101000a81548173ffffffffffffffffffffffffffffffffffffffff021916908373ffffffffffffffffffffffffffffffffffffffff160217905550808273ffffffffffffffffffffffffffffffffffffffff16600073ffffffffffffffffffffffffffffffffffffffff167fddf252ad1be2c89b69c2b068fc378daa952ba7f163c4a11628f55a4df523b3ef60405160405180910390a461219560008383611dc8565b5050565b6000808273ffffffffffffffffffffffffffffffffffffffff163b119050919050565b8280546121c89061306d565b90600052602060002090601f0160209004810192826121ea5760008555612231565b82601f1061220357805160ff1916838001178555612231565b82800160010185558215612231579182015b82811115612230578251825591602001919060010190612215565b5b50905061223e9190612242565b5090565b5b8082111561225b576000816000905550600101612243565b5090565b600061227261226d84612da7565b612d82565b90508281526020810184848401111561228a57600080fd5b61229584828561302b565b509392505050565b60006122b06122ab84612dd8565b612d82565b9050828152602081018484840111156122c857600080fd5b6122d384828561302b565b509392505050565b6000813590506122ea816136c4565b92915050565b6000813590506122ff816136db565b92915050565b600081359050612314816136f2565b92915050565b60008135905061232981613709565b92915050565b60008151905061233e81613709565b92915050565b600082601f83011261235557600080fd5b813561236584826020860161225f565b91505092915050565b600082601f83011261237f57600080fd5b813561238f84826020860161229d565b91505092915050565b6000813590506123a781613720565b92915050565b6000602082840312156123bf57600080fd5b60006123cd848285016122db565b91505092915050565b6000602082840312156123e857600080fd5b60006123f6848285016122f0565b91505092915050565b6000806040838503121561241257600080fd5b6000612420858286016122db565b9250506020612431858286016122db565b9150509250929050565b60008060006060848603121561245057600080fd5b600061245e868287016122db565b935050602061246f868287016122db565b925050604061248086828701612398565b9150509250925092565b600080600080608085870312156124a057600080fd5b60006124ae878288016122db565b94505060206124bf878288016122db565b93505060406124d087828801612398565b925050606085013567ffffffffffffffff8111156124ed57600080fd5b6124f987828801612344565b91505092959194509250565b6000806040838503121561251857600080fd5b6000612526858286016122db565b925050602061253785828601612305565b9150509250929050565b6000806040838503121561255457600080fd5b6000612562858286016122db565b925050602061257385828601612398565b9150509250929050565b60006020828403121561258f57600080fd5b600061259d8482850161231a565b91505092915050565b6000602082840312156125b857600080fd5b60006125c68482850161232f565b91505092915050565b6000602082840312156125e157600080fd5b600082013567ffffffffffffffff8111156125fb57600080fd5b6126078482850161236e565b91505092915050565b60006020828403121561262257600080fd5b600061263084828501612398565b91505092915050565b6000806040838503121561264c57600080fd5b600061265a85828601612398565b925050602061266b85828601612398565b9150509250929050565b61267e81612f9b565b82525050565b61268d81612fbf565b82525050565b600061269e82612e09565b6126a88185612e1f565b93506126b881856020860161303a565b6126c181613206565b840191505092915050565b6126d581612ff7565b82525050565b60006126e682612e14565b6126f08185612e30565b935061270081856020860161303a565b61270981613206565b840191505092915050565b600061271f82612e14565b6127298185612e41565b935061273981856020860161303a565b80840191505092915050565b6000612752603283612e30565b915061275d82613217565b604082019050919050565b6000612775601a83612e30565b915061278082613266565b602082019050919050565b6000612798602583612e30565b91506127a38261328f565b604082019050919050565b60006127bb601c83612e30565b91506127c6826132de565b602082019050919050565b60006127de602483612e30565b91506127e982613307565b604082019050919050565b6000612801601983612e30565b915061280c82613356565b602082019050919050565b6000612824602c83612e30565b915061282f8261337f565b604082019050919050565b6000612847601e83612e30565b9150612852826133ce565b602082019050919050565b600061286a603883612e30565b9150612875826133f7565b604082019050919050565b600061288d602a83612e30565b915061289882613446565b604082019050919050565b60006128b0602983612e30565b91506128bb82613495565b604082019050919050565b60006128d3602083612e30565b91506128de826134e4565b602082019050919050565b60006128f6602c83612e30565b91506129018261350d565b604082019050919050565b6000612919600f83612e30565b91506129248261355c565b602082019050919050565b600061293c602f83612e30565b915061294782613585565b604082019050919050565b600061295f602183612e30565b915061296a826135d4565b604082019050919050565b6000612982601783612e30565b915061298d82613623565b602082019050919050565b60006129a5603183612e30565b91506129b08261364c565b604082019050919050565b60006129c8601683612e30565b91506129d38261369b565b602082019050919050565b6129e781613021565b82525050565b60006129f98285612714565b9150612a058284612714565b91508190509392505050565b6000602082019050612a266000830184612675565b92915050565b6000606082019050612a416000830186612675565b612a4e6020830185612675565b612a5b60408301846129de565b949350505050565b6000608082019050612a786000830187612675565b612a856020830186612675565b612a9260408301856129de565b8181036060830152612aa48184612693565b905095945050505050565b6000602082019050612ac46000830184612684565b92915050565b6000602082019050612adf60008301846126cc565b92915050565b60006020820190508181036000830152612aff81846126db565b905092915050565b60006020820190508181036000830152612b2081612745565b9050919050565b60006020820190508181036000830152612b4081612768565b9050919050565b60006020820190508181036000830152612b608161278b565b9050919050565b60006020820190508181036000830152612b80816127ae565b9050919050565b60006020820190508181036000830152612ba0816127d1565b9050919050565b60006020820190508181036000830152612bc0816127f4565b9050919050565b60006020820190508181036000830152612be081612817565b9050919050565b60006020820190508181036000830152612c008161283a565b9050919050565b60006020820190508181036000830152612c208161285d565b9050919050565b60006020820190508181036000830152612c4081612880565b9050919050565b60006020820190508181036000830152612c60816128a3565b9050919050565b60006020820190508181036000830152612c80816128c6565b9050919050565b60006020820190508181036000830152612ca0816128e9565b9050919050565b60006020820190508181036000830152612cc08161290c565b9050919050565b60006020820190508181036000830152612ce08161292f565b9050919050565b60006020820190508181036000830152612d0081612952565b9050919050565b60006020820190508181036000830152612d2081612975565b9050919050565b60006020820190508181036000830152612d4081612998565b9050919050565b60006020820190508181036000830152612d60816129bb565b9050919050565b6000602082019050612d7c60008301846129de565b92915050565b6000612d8c612d9d565b9050612d98828261309f565b919050565b6000604051905090565b600067ffffffffffffffff821115612dc257612dc16131d7565b5b612dcb82613206565b9050602081019050919050565b600067ffffffffffffffff821115612df357612df26131d7565b5b612dfc82613206565b9050602081019050919050565b600081519050919050565b600081519050919050565b600082825260208201905092915050565b600082825260208201905092915050565b600081905092915050565b6000612e5782612ff7565b9150612e6283612ff7565b9250817f7fffffffffffffffffffffffffffffffffffffffffffffffffffffffffffffff03831360008312151615612e9d57612e9c61314a565b5b817f8000000000000000000000000000000000000000000000000000000000000000038312600083121615612ed557612ed461314a565b5b828201905092915050565b6000612eeb82613021565b9150612ef683613021565b9250827fffffffffffffffffffffffffffffffffffffffffffffffffffffffffffffffff03821115612f2b57612f2a61314a565b5b828201905092915050565b6000612f4182613021565b9150612f4c83613021565b925082612f5c57612f5b613179565b5b828204905092915050565b6000612f7282613021565b9150612f7d83613021565b925082821015612f9057612f8f61314a565b5b828203905092915050565b6000612fa682613001565b9050919050565b6000612fb882613001565b9050919050565b60008115159050919050565b60007fffffffff0000000000000000000000000000000000000000000000000000000082169050919050565b6000819050919050565b600073ffffffffffffffffffffffffffffffffffffffff82169050919050565b6000819050919050565b82818337600083830152505050565b60005b8381101561305857808201518184015260208101905061303d565b83811115613067576000848401525b50505050565b6000600282049050600182168061308557607f821691505b60208210811415613099576130986131a8565b5b50919050565b6130a882613206565b810181811067ffffffffffffffff821117156130c7576130c66131d7565b5b80604052505050565b60006130db82613021565b91507fffffffffffffffffffffffffffffffffffffffffffffffffffffffffffffffff82141561310e5761310d61314a565b5b600182019050919050565b600061312482613021565b915061312f83613021565b92508261313f5761313e613179565b5b828206905092915050565b7f4e487b7100000000000000000000000000000000000000000000000000000000600052601160045260246000fd5b7f4e487b7100000000000000000000000000000000000000000000000000000000600052601260045260246000fd5b7f4e487b7100000000000000000000000000000000000000000000000000000000600052602260045260246000fd5b7f4e487b7100000000000000000000000000000000000000000000000000000000600052604160045260246000fd5b6000601f19601f8301169050919050565b7f4552433732313a207472616e7366657220746f206e6f6e20455243373231526560008201527f63656976657220696d706c656d656e7465720000000000000000000000000000602082015250565b7f5468697320746f6b656e206973206e6f7420666f722073616c65000000000000600082015250565b7f4552433732313a207472616e736665722066726f6d20696e636f72726563742060008201527f6f776e6572000000000000000000000000000000000000000000000000000000602082015250565b7f4552433732313a20746f6b656e20616c7265616479206d696e74656400000000600082015250565b7f4552433732313a207472616e7366657220746f20746865207a65726f2061646460008201527f7265737300000000000000000000000000000000000000000000000000000000602082015250565b7f4552433732313a20617070726f766520746f2063616c6c657200000000000000600082015250565b7f4552433732313a206f70657261746f7220717565727920666f72206e6f6e657860008201527f697374656e7420746f6b656e0000000000000000000000000000000000000000602082015250565b7f5072696365206d757374206265206c6172676572207468616e207a65726f0000600082015250565b7f4552433732313a20617070726f76652063616c6c6572206973206e6f74206f7760008201527f6e6572206e6f7220617070726f76656420666f7220616c6c0000000000000000602082015250565b7f4552433732313a2062616c616e636520717565727920666f7220746865207a6560008201527f726f206164647265737300000000000000000000000000000000000000000000602082015250565b7f4552433732313a206f776e657220717565727920666f72206e6f6e657869737460008201527f656e7420746f6b656e0000000000000000000000000000000000000000000000602082015250565b7f4552433732313a206d696e7420746f20746865207a65726f2061646472657373600082015250565b7f4552433732313a20617070726f76656420717565727920666f72206e6f6e657860008201527f697374656e7420746f6b656e0000000000000000000000000000000000000000602082015250565b7f496e636f72726563742076616c75650000000000000000000000000000000000600082015250565b7f4552433732314d657461646174613a2055524920717565727920666f72206e6f60008201527f6e6578697374656e7420746f6b656e0000000000000000000000000000000000602082015250565b7f4552433732313a20617070726f76616c20746f2063757272656e74206f776e6560008201527f7200000000000000000000000000000000000000000000000000000000000000602082015250565b7f4e6f74206f776e6572206f66207468697320746f6b656e000000000000000000600082015250565b7f4552433732313a207472616e736665722063616c6c6572206973206e6f74206f60008201527f776e6572206e6f7220617070726f766564000000000000000000000000000000602082015250565b7f53656e646572206e6f7420617574686f72697a65642e00000000000000000000600082015250565b6136cd81612f9b565b81146136d857600080fd5b50565b6136e481612fad565b81146136ef57600080fd5b50565b6136fb81612fbf565b811461370657600080fd5b50565b61371281612fcb565b811461371d57600080fd5b50565b61372981613021565b811461373457600080fd5b5056fea2646970667358221220b0fea7fedd26f1b6958e7b3b586f2151ecc441fd0c99d4c2a8ffe7f31705345d64736f6c63430008010033",
  "immutableReferences": {},
  "source": "// SPDX-License-Identifier: MIT\npragma solidity >=0.6.0 <=0.9.0;\n\nimport \"@openzeppelin/contracts/token/ERC721/ERC721.sol\";\n\ncontract DaoVoterContractUpgradableV1 is ERC721 {\n\n    mapping (uint256 => uint256) public tokenIdToPrice;\n    string private baseURI;\n\tint public nMinted;\t\t// # of tokens minted.\n\taddress payable owner;\n\n    event NFTPurchased(uint256 indexed NFT, address seller, address buyer, uint256 price);\n    event NFTAvailable(uint256 indexed NFT, uint256 price);\n    event NFTRemoved(uint256 indexed NFT);\n\n    event VoterRegistered(uint256 indexed NFT);\n    event ProposalRegistered(uint256 indexed NFT);\n\n    constructor() ERC721(\"Wyoming NFT\", \"WYNFT\") {\n\t\towner = payable(msg.sender);\n    }\n\n\tmodifier onlyOwner() {\n\t\trequire( msg.sender == owner, \"Sender not authorized.\");\n\t\t// Do not forget the \"_;\"! It will be replaced by the actual function\n\t\t// body when the modifier is used.\n\t\t_;\n\t}\n\n\tfunction initialize(string memory tokenURI) public onlyOwner() {\n\t\tbaseURI = tokenURI;\n\t\tnMinted = 0;\n\t}\n\n\t// Make `_newOwner` the new owner of this contract.\n\tfunction changeOwner(address payable _newOwner) public onlyOwner() {\n\t\towner = _newOwner;\n\t}\n\n\tfunction mintNFT(uint256 _tokenNFT) public returns (uint256) {\n\t\tuint256 newItemId = _tokenNFT;\n\t\t_safeMint(msg.sender, newItemId);\n\t\tnMinted += 1;\n\t\treturn newItemId;\n   }\n\n\tfunction registerVoter(uint256 _tokenNFT) public returns (uint256) {\n\t\tuint256 newItemId = _tokenNFT;\n\t\t_safeMint(msg.sender, newItemId);\n\t\tnMinted += 1;\n\t\temit VoterRegistered(newItemId);\n\t\treturn newItemId;\n   }\n\n\tfunction createProposal(uint256 _tokenNFT) public returns (uint256) {\n\t\tuint256 newItemId = _tokenNFT;\n\t\t_safeMint(msg.sender, newItemId);\n\t\tnMinted += 1;\n\t\tProposalRegistered(newItemId);\n\t\treturn newItemId;\n   }\n\n    // function balanceOf(address owner) public view virtual override returns (uint256) {\n\n    function _baseURI() internal view override returns (string memory) {\n\t\treturn baseURI;\n\t}\n\n\tfunction allowBuy(uint256 _tokenId, uint256 _price) external {\n\t\trequire(msg.sender == ownerOf(_tokenId), 'Not owner of this token');\n\t\trequire(_price > 0, 'Price must be larger than zero');\n\t\ttokenIdToPrice[_tokenId] = _price;\n\n    \temit NFTAvailable(_tokenId, _price);\n\t}\n\n\tfunction disallowBuy(uint256 _tokenId) external {\n\t\trequire(msg.sender == ownerOf(_tokenId), 'Not owner of this token');\n\t\ttokenIdToPrice[_tokenId] = 0;\n\n    \temit NFTRemoved(_tokenId);\n\t}\n\t\n\tfunction buy(uint256 _tokenId) external payable {\n\t\tuint256 price = tokenIdToPrice[_tokenId];\n\t\trequire(price > 0, 'This token is not for sale');\n\t\trequire(msg.value == price, 'Incorrect value');\n\t\t\n\t\taddress seller = ownerOf(_tokenId);\n\t\t_transfer(seller, msg.sender, _tokenId);\n\t\ttokenIdToPrice[_tokenId] = 0; // not for sale anymore\n\t\tpayable(seller).transfer(msg.value); // send the ETH to the seller\n\n\t\temit NFTPurchased(_tokenId, seller, msg.sender, msg.value);\n\t}\n\n\t// This function is called for all messages sent to\n\t// this contract, except plain Ether transfers\n\t// (there is no other function except the receive function).\n\t// Any call with non-empty calldata to this contract will execute\n\t// the fallback function (even if Ether is sent along with the call).\n\tfallback() external payable {}\n\n\t// This function is called for plain Ether transfers, i.e.\n\t// for every call with empty calldata.\n\treceive() external payable {}\n\n\tfunction withdraw( uint256 _amount ) public onlyOwner() {\n\t\towner.transfer(_amount);\n\t}\n\n\t// destroy the contract and reclaim the leftover funds.\n    function kill() public onlyOwner() {\n\t\t//\tCalling selfdestruct(address) sends all of the contract's current balance to address.\n        selfdestruct(payable(msg.sender));\n    }\n}\n",
  "sourcePath": "/Users/philip/go/src/github.com/Univ-Wyo-Education/S22-4010/class/lect/29/eth/contracts/DaoVoterContractUpgradableV1.sol",
  "compiler": {
    "name": "solc",
    "version": "0.8.1+commit.df193b15.Emscripten.clang"
  },
  "schemaVersion": "3.4.5",
  "updatedAt": "2022-04-04T00:35:02.151Z",
  "devdoc": {
    "kind": "dev",
    "methods": {
      "approve(address,uint256)": {
        "details": "See {IERC721-approve}."
      },
      "balanceOf(address)": {
        "details": "See {IERC721-balanceOf}."
      },
      "getApproved(uint256)": {
        "details": "See {IERC721-getApproved}."
      },
      "isApprovedForAll(address,address)": {
        "details": "See {IERC721-isApprovedForAll}."
      },
      "name()": {
        "details": "See {IERC721Metadata-name}."
      },
      "ownerOf(uint256)": {
        "details": "See {IERC721-ownerOf}."
      },
      "safeTransferFrom(address,address,uint256)": {
        "details": "See {IERC721-safeTransferFrom}."
      },
      "safeTransferFrom(address,address,uint256,bytes)": {
        "details": "See {IERC721-safeTransferFrom}."
      },
      "setApprovalForAll(address,bool)": {
        "details": "See {IERC721-setApprovalForAll}."
      },
      "supportsInterface(bytes4)": {
        "details": "See {IERC165-supportsInterface}."
      },
      "symbol()": {
        "details": "See {IERC721Metadata-symbol}."
      },
      "tokenURI(uint256)": {
        "details": "See {IERC721Metadata-tokenURI}."
      },
      "transferFrom(address,address,uint256)": {
        "details": "See {IERC721-transferFrom}."
      }
    },
    "version": 1
  },
  "userdoc": {
    "kind": "user",
    "methods": {},
    "version": 1
  }
}