{
  "contractName": "DaoVoterContract",
  "abi": [
    {
      "inputs": [
        {
          "internalType": "address",
          "name": "_addr",
          "type": "address"
        },
        {
          "internalType": "uint256",
          "name": "_version",
          "type": "uint256"
        }
      ],
      "stateMutability": "nonpayable",
      "type": "constructor"
    },
    {
      "stateMutability": "payable",
      "type": "fallback"
    },
    {
      "inputs": [],
      "name": "version",
      "outputs": [
        {
          "internalType": "uint256",
          "name": "",
          "type": "uint256"
        }
      ],
      "stateMutability": "view",
      "type": "function"
    },
    {
      "stateMutability": "payable",
      "type": "receive"
    },
    {
      "inputs": [
        {
          "internalType": "address",
          "name": "_newOwner",
          "type": "address"
        }
      ],
      "name": "changeOwner",
      "outputs": [],
      "stateMutability": "nonpayable",
      "type": "function"
    },
    {
      "inputs": [
        {
          "internalType": "address",
          "name": "_newAddr",
          "type": "address"
        },
        {
          "internalType": "uint256",
          "name": "_newVersion",
          "type": "uint256"
        }
      ],
      "name": "upgradeContract",
      "outputs": [],
      "stateMutability": "nonpayable",
      "type": "function"
    }
  ],
  "bytecode": "0x608060405234801561001057600080fd5b50604051610661380380610661833981810160405281019061003291906100eb565b81600160006101000a81548173ffffffffffffffffffffffffffffffffffffffff021916908373ffffffffffffffffffffffffffffffffffffffff160217905550336000806101000a81548173ffffffffffffffffffffffffffffffffffffffff021916908373ffffffffffffffffffffffffffffffffffffffff160217905550806002819055505050610191565b6000815190506100d081610163565b92915050565b6000815190506100e58161017a565b92915050565b600080604083850312156100fe57600080fd5b600061010c858286016100c1565b925050602061011d858286016100d6565b9150509250929050565b600061013282610139565b9050919050565b600073ffffffffffffffffffffffffffffffffffffffff82169050919050565b6000819050919050565b61016c81610127565b811461017757600080fd5b50565b61018381610159565b811461018e57600080fd5b50565b6104c1806101a06000396000f3fe6080604052600436106100385760003560e01c806303e025b71461005157806354fd4d501461007a578063a6f9dae1146100a557610047565b36610047576100456100ce565b005b61004f6100ce565b005b34801561005d57600080fd5b506100786004803603810190610073919061033e565b6100e8565b005b34801561008657600080fd5b5061008f6101c2565b60405161009c91906103cc565b60405180910390f35b3480156100b157600080fd5b506100cc60048036038101906100c79190610315565b6101c8565b005b6100d6610299565b6100e66100e161029b565b6102c5565b565b60008054906101000a900473ffffffffffffffffffffffffffffffffffffffff1673ffffffffffffffffffffffffffffffffffffffff163373ffffffffffffffffffffffffffffffffffffffff1614610176576040517f08c379a000000000000000000000000000000000000000000000000000000000815260040161016d906103ac565b60405180910390fd5b81600160006101000a81548173ffffffffffffffffffffffffffffffffffffffff021916908373ffffffffffffffffffffffffffffffffffffffff160217905550806002819055505050565b60025481565b60008054906101000a900473ffffffffffffffffffffffffffffffffffffffff1673ffffffffffffffffffffffffffffffffffffffff163373ffffffffffffffffffffffffffffffffffffffff1614610256576040517f08c379a000000000000000000000000000000000000000000000000000000000815260040161024d906103ac565b60405180910390fd5b806000806101000a81548173ffffffffffffffffffffffffffffffffffffffff021916908373ffffffffffffffffffffffffffffffffffffffff16021790555050565b565b6000600160009054906101000a900473ffffffffffffffffffffffffffffffffffffffff16905090565b3660008037600080366000845af43d6000803e80600081146102e6573d6000f35b3d6000fd5b6000813590506102fa8161045d565b92915050565b60008135905061030f81610474565b92915050565b60006020828403121561032757600080fd5b6000610335848285016102eb565b91505092915050565b6000806040838503121561035157600080fd5b600061035f858286016102eb565b925050602061037085828601610300565b9150509250929050565b60006103876016836103e7565b915061039282610434565b602082019050919050565b6103a68161042a565b82525050565b600060208201905081810360008301526103c58161037a565b9050919050565b60006020820190506103e1600083018461039d565b92915050565b600082825260208201905092915050565b60006104038261040a565b9050919050565b600073ffffffffffffffffffffffffffffffffffffffff82169050919050565b6000819050919050565b7f53656e646572206e6f7420617574686f72697a65642e00000000000000000000600082015250565b610466816103f8565b811461047157600080fd5b50565b61047d8161042a565b811461048857600080fd5b5056fea26469706673582212201e8d73f4074ee8573693eb3154287827e4ecbac0c5effd9e4c7b071b4ef550e164736f6c63430008010033",
  "immutableReferences": {},
  "source": "// SPDX-License-Identifier: MIT\npragma solidity >=0.6.0 <=0.9.0;\n\nimport \"@openzeppelin/contracts/proxy/Proxy.sol\";\n\n/**\n * @title DaoVoterContract\n * @dev Gives the possibility to delegate any call to a foreign implementation.\n * Implements a proxy to the upgradable DaoVoterContractUpgradableV1 contract.\n */\ncontract DaoVoterContract is Proxy {\n\n\taddress private owner;\n\taddress private DaoVoterContractImpl;\n\tuint256 public version;\n\n\tmodifier onlyOwner() {\n\t\trequire( msg.sender == owner, \"Sender not authorized.\");\n\t\t// Do not forget the \"_;\"! It will be replaced by the actual function\n\t\t// body when the modifier is used.\n\t\t_;\n\t}\n\n    constructor( address _addr, uint256 _version ) Proxy() {\n\t\tDaoVoterContractImpl = _addr;\n\t\towner = msg.sender;\n\t\tversion = _version;\n\t}\n\n\t/**\n    * @dev Make `_newOwner` the new owner of this contract.\n\t*/\n\tfunction changeOwner(address _newOwner) public onlyOwner() {\n\t\towner = _newOwner;\n\t}\n\t\n\t/**\n    * @dev Upgrade the underling contract to a new version. `_newAddr` is the address of\n\t* the new contract. `_newVersion` is the new version number.\n\t*/\n\tfunction upgradeContract(address _newAddr, uint256 _newVersion) public onlyOwner() {\n\t\tDaoVoterContractImpl = _newAddr;\n\t\tversion = _newVersion;\n\t}\n\n\t/**\n    * @dev Tells the address of the implementation where every call will be delegated.\n    * @return address of the implementation to which it will be delegated\n    */\n\tfunction _implementation() internal view override  returns (address) {\n\t\treturn ( DaoVoterContractImpl );\n\t}\n\n}\n",
  "sourcePath": "/Users/philip/go/src/github.com/Univ-Wyo-Education/S22-4010/class/lect/29/eth/contracts/DaoVoterContract.sol",
  "compiler": {
    "name": "solc",
    "version": "0.8.1+commit.df193b15.Emscripten.clang"
  },
  "schemaVersion": "3.4.5",
  "updatedAt": "2022-04-04T00:35:02.149Z",
  "devdoc": {
    "details": "Gives the possibility to delegate any call to a foreign implementation. Implements a proxy to the upgradable DaoVoterContractUpgradableV1 contract.",
    "kind": "dev",
    "methods": {
      "changeOwner(address)": {
        "details": "Make `_newOwner` the new owner of this contract."
      },
      "upgradeContract(address,uint256)": {
        "details": "Upgrade the underling contract to a new version. `_newAddr` is the address of the new contract. `_newVersion` is the new version number."
      }
    },
    "title": "DaoVoterContract",
    "version": 1
  },
  "userdoc": {
    "kind": "user",
    "methods": {},
    "version": 1
  }
}