{
  "contractName": "SignData",
  "abi": [
    {
      "inputs": [],
      "payable": false,
      "stateMutability": "nonpayable",
      "type": "constructor"
    },
    {
      "anonymous": false,
      "inputs": [
        {
          "indexed": false,
          "internalType": "uint256",
          "name": "App",
          "type": "uint256"
        },
        {
          "indexed": false,
          "internalType": "uint256",
          "name": "Name",
          "type": "uint256"
        },
        {
          "indexed": false,
          "internalType": "bytes32",
          "name": "Value",
          "type": "bytes32"
        },
        {
          "indexed": false,
          "internalType": "address",
          "name": "By",
          "type": "address"
        }
      ],
      "name": "DataChange",
      "type": "event"
    },
    {
      "anonymous": false,
      "inputs": [
        {
          "indexed": true,
          "internalType": "address",
          "name": "previousOwner",
          "type": "address"
        }
      ],
      "name": "OwnershipRenounced",
      "type": "event"
    },
    {
      "anonymous": false,
      "inputs": [
        {
          "indexed": true,
          "internalType": "address",
          "name": "previousOwner",
          "type": "address"
        },
        {
          "indexed": true,
          "internalType": "address",
          "name": "newOwner",
          "type": "address"
        }
      ],
      "name": "OwnershipTransferred",
      "type": "event"
    },
    {
      "anonymous": false,
      "inputs": [
        {
          "indexed": false,
          "internalType": "address",
          "name": "sender",
          "type": "address"
        },
        {
          "indexed": false,
          "internalType": "uint256",
          "name": "value",
          "type": "uint256"
        },
        {
          "indexed": false,
          "internalType": "uint256",
          "name": "application",
          "type": "uint256"
        },
        {
          "indexed": false,
          "internalType": "uint256",
          "name": "payFor",
          "type": "uint256"
        }
      ],
      "name": "ReceivedFunds",
      "type": "event"
    },
    {
      "anonymous": false,
      "inputs": [
        {
          "indexed": false,
          "internalType": "address",
          "name": "to",
          "type": "address"
        },
        {
          "indexed": false,
          "internalType": "uint256",
          "name": "amount",
          "type": "uint256"
        }
      ],
      "name": "Withdrawn",
      "type": "event"
    },
    {
      "payable": true,
      "stateMutability": "payable",
      "type": "fallback"
    },
    {
      "constant": true,
      "inputs": [],
      "name": "owner",
      "outputs": [
        {
          "internalType": "address",
          "name": "",
          "type": "address"
        }
      ],
      "payable": false,
      "stateMutability": "view",
      "type": "function"
    },
    {
      "constant": false,
      "inputs": [],
      "name": "renounceOwnership",
      "outputs": [],
      "payable": false,
      "stateMutability": "nonpayable",
      "type": "function"
    },
    {
      "constant": false,
      "inputs": [
        {
          "internalType": "address",
          "name": "_newOwner",
          "type": "address"
        }
      ],
      "name": "transferOwnership",
      "outputs": [],
      "payable": false,
      "stateMutability": "nonpayable",
      "type": "function"
    },
    {
      "constant": false,
      "inputs": [],
      "name": "init",
      "outputs": [],
      "payable": false,
      "stateMutability": "nonpayable",
      "type": "function"
    },
    {
      "constant": false,
      "inputs": [
        {
          "internalType": "uint256",
          "name": "_minPayment",
          "type": "uint256"
        }
      ],
      "name": "setMinPayment",
      "outputs": [],
      "payable": false,
      "stateMutability": "nonpayable",
      "type": "function"
    },
    {
      "constant": true,
      "inputs": [],
      "name": "getMinPayment",
      "outputs": [
        {
          "internalType": "uint256",
          "name": "",
          "type": "uint256"
        }
      ],
      "payable": false,
      "stateMutability": "view",
      "type": "function"
    },
    {
      "constant": false,
      "inputs": [
        {
          "internalType": "uint256",
          "name": "_app",
          "type": "uint256"
        },
        {
          "internalType": "uint256",
          "name": "_name",
          "type": "uint256"
        },
        {
          "internalType": "bytes32",
          "name": "_data",
          "type": "bytes32"
        }
      ],
      "name": "setHash",
      "outputs": [],
      "payable": true,
      "stateMutability": "payable",
      "type": "function"
    },
    {
      "constant": false,
      "inputs": [
        {
          "internalType": "uint256",
          "name": "_app",
          "type": "uint256"
        },
        {
          "internalType": "uint256",
          "name": "_name",
          "type": "uint256"
        },
        {
          "internalType": "bytes32",
          "name": "_data",
          "type": "bytes32"
        },
        {
          "internalType": "bool",
          "name": "_mayChange",
          "type": "bool"
        }
      ],
      "name": "createHash",
      "outputs": [],
      "payable": true,
      "stateMutability": "payable",
      "type": "function"
    },
    {
      "constant": true,
      "inputs": [
        {
          "internalType": "uint256",
          "name": "_app",
          "type": "uint256"
        },
        {
          "internalType": "uint256",
          "name": "_name",
          "type": "uint256"
        }
      ],
      "name": "getHash",
      "outputs": [
        {
          "internalType": "bytes32",
          "name": "",
          "type": "bytes32"
        },
        {
          "internalType": "uint256",
          "name": "",
          "type": "uint256"
        }
      ],
      "payable": false,
      "stateMutability": "view",
      "type": "function"
    },
    {
      "constant": false,
      "inputs": [
        {
          "internalType": "uint256",
          "name": "application",
          "type": "uint256"
        },
        {
          "internalType": "uint256",
          "name": "payFor",
          "type": "uint256"
        }
      ],
      "name": "genReceivedFunds",
      "outputs": [],
      "payable": true,
      "stateMutability": "payable",
      "type": "function"
    },
    {
      "constant": false,
      "inputs": [
        {
          "internalType": "uint256",
          "name": "amount",
          "type": "uint256"
        }
      ],
      "name": "withdraw",
      "outputs": [
        {
          "internalType": "bool",
          "name": "",
          "type": "bool"
        }
      ],
      "payable": false,
      "stateMutability": "nonpayable",
      "type": "function"
    },
    {
      "constant": true,
      "inputs": [],
      "name": "getBalanceContract",
      "outputs": [
        {
          "internalType": "uint256",
          "name": "",
          "type": "uint256"
        }
      ],
      "payable": false,
      "stateMutability": "view",
      "type": "function"
    },
    {
      "constant": false,
      "inputs": [],
      "name": "kill",
      "outputs": [],
      "payable": false,
      "stateMutability": "nonpayable",
      "type": "function"
    }
  ],
  "bytecode": "0x608060405234801561001057600080fd5b50336000806101000a81548173ffffffffffffffffffffffffffffffffffffffff021916908373ffffffffffffffffffffffffffffffffffffffff16021790555033600160006101000a81548173ffffffffffffffffffffffffffffffffffffffff021916908373ffffffffffffffffffffffffffffffffffffffff1602179055506103e86002819055506114ec806100aa6000396000f3fe6080604052600436106100c25760003560e01c806377a890cd1161007f578063e1c7392a11610059578063e1c7392a14610342578063e319059414610359578063e9c0e27c146103a7578063f2fde38b146103e9576100c2565b806377a890cd146102885780638da5cb5b146102b3578063be2b16361461030a576100c2565b80631b855044146101415780632e1a7d4d146101a157806341c0e1b5146101f457806366bd78fd1461020b5780636d427fa314610236578063715018a614610271575b7f5f74095c3cf9cd2b4407992767113d77fc65cb2423a83ecc71977f3ace6b34f4333460006001604051808573ffffffffffffffffffffffffffffffffffffffff1673ffffffffffffffffffffffffffffffffffffffff16815260200184815260200183815260200182815260200194505050505060405180910390a1005b34801561014d57600080fd5b506101846004803603604081101561016457600080fd5b81019080803590602001909291908035906020019092919050505061043a565b604051808381526020018281526020019250505060405180910390f35b3480156101ad57600080fd5b506101da600480360360208110156101c457600080fd5b81019080803590602001909291905050506104e5565b604051808215151515815260200191505060405180910390f35b34801561020057600080fd5b5061020961063f565b005b34801561021757600080fd5b50610220610760565b6040518082815260200191505060405180910390f35b34801561024257600080fd5b5061026f6004803603602081101561025957600080fd5b81019080803590602001909291905050506107c1565b005b34801561027d57600080fd5b50610286610824565b005b34801561029457600080fd5b5061029d610924565b6040518082815260200191505060405180910390f35b3480156102bf57600080fd5b506102c8610987565b604051808273ffffffffffffffffffffffffffffffffffffffff1673ffffffffffffffffffffffffffffffffffffffff16815260200191505060405180910390f35b6103406004803603604081101561032057600080fd5b8101908080359060200190929190803590602001909291905050506109ac565b005b34801561034e57600080fd5b50610357610a2b565b005b6103a56004803603608081101561036f57600080fd5b81019080803590602001909291908035906020019092919080359060200190929190803515159060200190929190505050610a36565b005b6103e7600480360360608110156103bd57600080fd5b81019080803590602001909291908035906020019092919080359060200190929190505050610eda565b005b3480156103f557600080fd5b506104386004803603602081101561040c57600080fd5b81019080803573ffffffffffffffffffffffffffffffffffffffff1690602001909291905050506112fa565b005b600080600060066000868152602001908152602001600020600085815260200190815260200160002060009054906101000a900460ff1690508061048e576000808160001b915080905092509250506104de565b600360008681526020019081526020016000206000858152602001908152602001600020546007600087815260200190815260200160002060008681526020019081526020016000205492509250505b9250929050565b60008060009054906101000a900473ffffffffffffffffffffffffffffffffffffffff1673ffffffffffffffffffffffffffffffffffffffff163373ffffffffffffffffffffffffffffffffffffffff161461054057600080fd5b600160009054906101000a900473ffffffffffffffffffffffffffffffffffffffff1673ffffffffffffffffffffffffffffffffffffffff166108fc839081150290604051600060405180830381858888f193505050501580156105a8573d6000803e3d6000fd5b507f7084f5476618d8e60b11ef0d7d3f06914655adb8793e28ff7f018d4c76d505d5600160009054906101000a900473ffffffffffffffffffffffffffffffffffffffff1683604051808373ffffffffffffffffffffffffffffffffffffffff1673ffffffffffffffffffffffffffffffffffffffff1681526020018281526020019250505060405180910390a160019050919050565b6000809054906101000a900473ffffffffffffffffffffffffffffffffffffffff1673ffffffffffffffffffffffffffffffffffffffff163373ffffffffffffffffffffffffffffffffffffffff161461069857600080fd5b7f7084f5476618d8e60b11ef0d7d3f06914655adb8793e28ff7f018d4c76d505d5600160009054906101000a900473ffffffffffffffffffffffffffffffffffffffff1647604051808373ffffffffffffffffffffffffffffffffffffffff1673ffffffffffffffffffffffffffffffffffffffff1681526020018281526020019250505060405180910390a1600160009054906101000a900473ffffffffffffffffffffffffffffffffffffffff1673ffffffffffffffffffffffffffffffffffffffff16ff5b60008060009054906101000a900473ffffffffffffffffffffffffffffffffffffffff1673ffffffffffffffffffffffffffffffffffffffff163373ffffffffffffffffffffffffffffffffffffffff16146107bb57600080fd5b47905090565b6000809054906101000a900473ffffffffffffffffffffffffffffffffffffffff1673ffffffffffffffffffffffffffffffffffffffff163373ffffffffffffffffffffffffffffffffffffffff161461081a57600080fd5b8060028190555050565b6000809054906101000a900473ffffffffffffffffffffffffffffffffffffffff1673ffffffffffffffffffffffffffffffffffffffff163373ffffffffffffffffffffffffffffffffffffffff161461087d57600080fd5b6000809054906101000a900473ffffffffffffffffffffffffffffffffffffffff1673ffffffffffffffffffffffffffffffffffffffff167ff8df31144d9c2f0f6b59d69b8b98abd5459d07f2742c4df920b25aae33c6482060405160405180910390a260008060006101000a81548173ffffffffffffffffffffffffffffffffffffffff021916908373ffffffffffffffffffffffffffffffffffffffff160217905550565b60008060009054906101000a900473ffffffffffffffffffffffffffffffffffffffff1673ffffffffffffffffffffffffffffffffffffffff163373ffffffffffffffffffffffffffffffffffffffff161461097f57600080fd5b600254905090565b6000809054906101000a900473ffffffffffffffffffffffffffffffffffffffff1681565b7f5f74095c3cf9cd2b4407992767113d77fc65cb2423a83ecc71977f3ace6b34f433348484604051808573ffffffffffffffffffffffffffffffffffffffff1673ffffffffffffffffffffffffffffffffffffffff16815260200184815260200183815260200182815260200194505050505060405180910390a15050565b6103e8600281905550565b600254341015610a91576040517f08c379a00000000000000000000000000000000000000000000000000000000081526004018080602001828103825260368152602001806114826036913960400191505060405180910390fd5b6000831415610b08576040517f08c379a000000000000000000000000000000000000000000000000000000000815260040180806020018281038252601d8152602001807f496e76616c6964205f6e616d6520776974682076616c7565206f66203000000081525060200191505060405180910390fd5b6000841415610b7f576040517f08c379a000000000000000000000000000000000000000000000000000000000815260040180806020018281038252601c8152602001807f496e76616c6964205f61707020776974682076616c7565206f6620300000000081525060200191505060405180910390fd5b600073ffffffffffffffffffffffffffffffffffffffff163373ffffffffffffffffffffffffffffffffffffffff161415610c22576040517f08c379a00000000000000000000000000000000000000000000000000000000081526004018080602001828103825260128152602001807f496e76616c6964206d73672073656e646572000000000000000000000000000081525060200191505060405180910390fd5b600060066000868152602001908152602001600020600085815260200190815260200160002060009054906101000a900460ff1690508015610caf576040517f08c379a000000000000000000000000000000000000000000000000000000000815260040180806020018281038252602a815260200180611458602a913960400191505060405180910390fd5b3360046000878152602001908152602001600020600086815260200190815260200160002060006101000a81548173ffffffffffffffffffffffffffffffffffffffff021916908373ffffffffffffffffffffffffffffffffffffffff16021790555082600360008781526020019081526020016000206000868152602001908152602001600020819055508160056000878152602001908152602001600020600086815260200190815260200160002060006101000a81548160ff0219169083151502179055504260076000878152602001908152602001600020600086815260200190815260200160002081905550600160066000878152602001908152602001600020600086815260200190815260200160002060006101000a81548160ff0219169083151502179055507fc9bbb9d40eb6b265e9e7f7c2c367f761494e11148c80a704ed4a44184fe4313a85858533604051808581526020018481526020018381526020018273ffffffffffffffffffffffffffffffffffffffff1673ffffffffffffffffffffffffffffffffffffffff16815260200194505050505060405180910390a17f5f74095c3cf9cd2b4407992767113d77fc65cb2423a83ecc71977f3ace6b34f433348787604051808573ffffffffffffffffffffffffffffffffffffffff1673ffffffffffffffffffffffffffffffffffffffff16815260200184815260200183815260200182815260200194505050505060405180910390a15050505050565b600254341015610f35576040517f08c379a00000000000000000000000000000000000000000000000000000000081526004018080602001828103825260368152602001806114826036913960400191505060405180910390fd5b600060046000858152602001908152602001600020600084815260200190815260200160002060009054906101000a900473ffffffffffffffffffffffffffffffffffffffff169050600060056000868152602001908152602001600020600085815260200190815260200160002060009054906101000a900460ff1690503373ffffffffffffffffffffffffffffffffffffffff168273ffffffffffffffffffffffffffffffffffffffff16148015610fed575080155b15611060576040517f08c379a00000000000000000000000000000000000000000000000000000000081526004018080602001828103825260158152602001807f44617461206973206e6f74206368616e6761626c65000000000000000000000081525060200191505060405180910390fd5b3373ffffffffffffffffffffffffffffffffffffffff168273ffffffffffffffffffffffffffffffffffffffff1614611101576040517f08c379a00000000000000000000000000000000000000000000000000000000081526004018080602001828103825260128152602001807f4e6f74206f776e6572206f6620646174612e000000000000000000000000000081525060200191505060405180910390fd5b600060066000878152602001908152602001600020600086815260200190815260200160002060009054906101000a900460ff169050806111aa576040517f08c379a000000000000000000000000000000000000000000000000000000000815260040180806020018281038252600e8152602001807f4e6f206461746120666f756e642e00000000000000000000000000000000000081525060200191505060405180910390fd5b836003600088815260200190815260200160002060008781526020019081526020016000208190555042600760008881526020019081526020016000206000878152602001908152602001600020819055507fc9bbb9d40eb6b265e9e7f7c2c367f761494e11148c80a704ed4a44184fe4313a86868633604051808581526020018481526020018381526020018273ffffffffffffffffffffffffffffffffffffffff1673ffffffffffffffffffffffffffffffffffffffff16815260200194505050505060405180910390a17f5f74095c3cf9cd2b4407992767113d77fc65cb2423a83ecc71977f3ace6b34f433348888604051808573ffffffffffffffffffffffffffffffffffffffff1673ffffffffffffffffffffffffffffffffffffffff16815260200184815260200183815260200182815260200194505050505060405180910390a1505050505050565b6000809054906101000a900473ffffffffffffffffffffffffffffffffffffffff1673ffffffffffffffffffffffffffffffffffffffff163373ffffffffffffffffffffffffffffffffffffffff161461135357600080fd5b61135c8161135f565b50565b600073ffffffffffffffffffffffffffffffffffffffff168173ffffffffffffffffffffffffffffffffffffffff16141561139957600080fd5b8073ffffffffffffffffffffffffffffffffffffffff166000809054906101000a900473ffffffffffffffffffffffffffffffffffffffff1673ffffffffffffffffffffffffffffffffffffffff167f8be0079c531659141344cd1fd0a4f28419497f9722a3daafe3b4186f6b6457e060405160405180910390a3806000806101000a81548173ffffffffffffffffffffffffffffffffffffffff021916908373ffffffffffffffffffffffffffffffffffffffff1602179055505056fe4461746120616c72656164792065786973747320666f7220746869732061707020616e64206e616d652e496e73756666696369656e74207061796d656e742e20204d7573742073656e64206d6f7265207468616e206d696e5061796d656e742ea265627a7a723158206f689248b7884c5ea447c4ba6a4847ee06af307a5dc218ec37c9cb59a46f64c964736f6c63430005100032",
  "source": "// SPDX-License-Identifier: MIT\npragma solidity >=0.4.22 <0.9.0;\n\nimport \"zeppelin-solidity/contracts/ownership/Ownable.sol\";\n\ncontract SignData is Ownable {\n\n    address payable owner_address;\n\tuint256 private minPayment;\n\n\tmapping(uint256 => mapping(uint256 => bytes32)) dData;\n\tmapping(uint256 => mapping(uint256 => address)) dOowner;\n\tmapping(uint256 => mapping(uint256 => bool)) dMayChange;\n\tmapping(uint256 => mapping(uint256 => bool)) dExists;\n\tmapping(uint256 => mapping(uint256 => uint256)) dWhen;\n\tevent DataChange(uint256 App, uint256 Name, bytes32 Value, address By);\n\n\tevent ReceivedFunds(address sender, uint256 value, uint256 application, uint256 payFor);\n\tevent Withdrawn(address to, uint256 amount);\n\n\tconstructor() public {\n        owner_address = msg.sender;\n\t\tminPayment = 1000;\n\t}\n\n\tmodifier needMinPayment {\n\t\trequire(msg.value >= minPayment, \"Insufficient payment.  Must send more than minPayment.\");\n\t\t_;\n\t}\n\n\tfunction init() public {\n\t\tminPayment = 1000;\n\t}\n\n\tfunction setMinPayment( uint256 _minPayment ) public onlyOwner {\n\t\tminPayment = _minPayment;\n\t}\n\n\tfunction getMinPayment() public onlyOwner view returns ( uint256 ) {\n\t\treturn ( minPayment );\n\t}\n\n\t// ----------------------------------------------------------------------------------------------------------------------\n\n\t/**\n\t * @dev Update an existing set of data if the data was created with permissions to be updated.\n\t */\n\tfunction setHash ( uint256 _app, uint256 _name, bytes32 _data ) public needMinPayment payable {\n\t\taddress tmp = dOowner[_app][_name];\n\t\tbool mayChange = dMayChange[_app][_name];\n\t\tif ( tmp == msg.sender && !mayChange ) {\n\t\t\trevert(\"Data is not changable\");\n\t\t}\n\t\tif ( tmp != msg.sender ) {\n\t\t\trevert(\"Not owner of data.\");\n\t\t}\n\t\tbool ex = dExists[_app][_name];\n\t\tif ( !ex ) {\n\t\t\trevert(\"No data found.\" );\n\t\t}\n\t\tdData[_app][_name] = _data;\n\t\tdWhen[_app][_name] = now;\n\t\temit DataChange(_app, _name, _data, msg.sender);\n\t\temit ReceivedFunds(msg.sender, msg.value, _app, _name);\n\t}\n\n\t/**\n\t * @dev Create a new hash and save it's relevant data.  Check that this is a new set of data.\n\t */\n\tfunction createHash ( uint256 _app, uint256 _name, bytes32 _data, bool _mayChange ) public needMinPayment payable {\n\t\tif ( _name == 0 ) {\n\t\t\trevert(\"Invalid _name with value of 0\");\n\t\t}\n\t\tif ( _app == 0 ) {\n\t\t\trevert(\"Invalid _app with value of 0\");\n\t\t}\n\t\tif ( msg.sender == address(0) ) {\n\t\t\trevert(\"Invalid msg sender\");\n\t\t}\n\t\tbool ex = dExists[_app][_name];\n\t\tif ( ex ) {\n\t\t\trevert(\"Data already exists for this app and name.\");\n\t\t}\n\t\tdOowner[_app][_name] = msg.sender;\n\t\tdData[_app][_name] = _data;\n\t\tdMayChange[_app][_name] = _mayChange;\n\t\tdWhen[_app][_name] = now;\n\t\tdExists[_app][_name] = true;\n\t\temit DataChange(_app, _name, _data, msg.sender);\n\t\temit ReceivedFunds(msg.sender, msg.value, _app, _name);\n\t}\n\n\t/**\n\t * @dev return the data by looking up _app and _name in dData.  Return both the hash and the date when it was stored..\n\t *      Return 0's if no data exits.\n\t */\n\tfunction getHash ( uint256 _app, uint256 _name ) public view returns ( bytes32, uint256 ) {\n\t\tbool ex = dExists[_app][_name];\n\t\tif ( !ex ) {\n\t\t\treturn ( 0, 0 );\n\t\t}\n\t\treturn ( dData[_app][_name], dWhen[_app][_name] );\n\t}\n\n\t// ----------------------------------------------------------------------------------------------------------------------\n\n\t/**\n\t * @dev payable fallback\n\t */\n\tfunction () external payable {\n\t\temit ReceivedFunds(msg.sender, msg.value, 0, 1);\n\t}\n\n\t/**\n\t * @dev genReceiveFunds - generate a receive funds event.\n\t */\n\tfunction genReceivedFunds ( uint256 application, uint256 payFor ) public payable {\n\t\temit ReceivedFunds(msg.sender, msg.value, application, payFor);\n\t}\n\n\t/**\n\t * @dev Withdraw contract value amount.\n\t */\n\tfunction withdraw( uint256 amount ) public onlyOwner returns(bool) {\n\t\taddress(owner_address).transfer(amount);\n\t\t// owner_address.send(amount);\n\t\temit Withdrawn(owner_address, amount);\n\t\treturn true;\n\t}\n\n\t/**\n\t * @dev How much do I got?\n\t */\n\tfunction getBalanceContract() public view onlyOwner returns(uint256){\n\t\treturn address(this).balance;\n\t}\n\n\t/**\n\t * @dev For futute to end the contract, take the value.\n\t */\n\tfunction kill() public onlyOwner {\n\t\temit Withdrawn(owner_address, address(this).balance);\n\t\tselfdestruct(owner_address);\n\t}\n}\n",
  "sourcePath": "/Users/philip/go/src/github.com/Univ-Wyo-Education/S22-4010/class/lect/19/eth/contracts/SignData.sol",
  "compiler": {
    "name": "solc",
    "version": "0.5.16+commit.9c3226ce.Emscripten.clang"
  },
  "schemaVersion": "3.4.3",
  "updatedAt": "2022-03-04T14:50:13.505Z",
  "networkType": "ethereum",
  "devdoc": {
    "methods": {
      "createHash(uint256,uint256,bytes32,bool)": {
        "details": "Create a new hash and save it's relevant data.  Check that this is a new set of data."
      },
      "genReceivedFunds(uint256,uint256)": {
        "details": "genReceiveFunds - generate a receive funds event."
      },
      "getBalanceContract()": {
        "details": "How much do I got?"
      },
      "getHash(uint256,uint256)": {
        "details": "return the data by looking up _app and _name in dData.  Return both the hash and the date when it was stored..     Return 0's if no data exits."
      },
      "kill()": {
        "details": "For futute to end the contract, take the value."
      },
      "renounceOwnership()": {
        "details": "Allows the current owner to relinquish control of the contract."
      },
      "setHash(uint256,uint256,bytes32)": {
        "details": "Update an existing set of data if the data was created with permissions to be updated."
      },
      "transferOwnership(address)": {
        "details": "Allows the current owner to transfer control of the contract to a newOwner.",
        "params": {
          "_newOwner": "The address to transfer ownership to."
        }
      },
      "withdraw(uint256)": {
        "details": "Withdraw contract value amount."
      }
    }
  },
  "userdoc": {
    "methods": {
      "renounceOwnership()": {
        "notice": "Renouncing to ownership will leave the contract without an owner. It will not be possible to call the functions with the `onlyOwner` modifier anymore."
      }
    }
  }
}